:020000040000FA
:10800000D81800200D83000015830000178300009E
:108010000000000000000000000000000000000060
:10802000000000000000000000000000BD81000012
:10803000000000000000000061820000C18200001A
:108040001F8300001F8300001F8300001F830000A8
:108050001F8300001F8300001F8300001F83000098
:108060001F8300001F8300001F8300001F83000088
:108070001F830000D59600001F8300001F830000AF
:108080001F8300001F8300001F8300001F83000068
:108090001F8300001F8300001F8300001F83000058
:1080A000599700001F8300001F8300001F830000FA
:1080B0001F8300001F8300001F8300001F83000038
:1080C00000F002F800F032F80CA030C8083824188C
:1080D0002D18A246671EAB4654465D46AC4201D100
:1080E00000F024F87E460F3E0FCCB6460126334200
:1080F00000D0FB1AA246AB46334318470488000061
:10810000248800000023002400250026103A01D313
:1081100078C1FBD8520700D330C100D50B6070473F
:108120001FB5C046C0461FBD10B510BD00F040FBD6
:108130001146FFF7F5FF04F0B5F900F055F903B467
:10814000FFF7F2FF03BC00F055F9000080F3098847
:108150007047EFF309807047684680F30988064846
:108160000078C00703D1032080F3148870470220F1
:1081700080F314887047000070FE0000064B9C4698
:10818000EFF305831B0605D1EFF31483DB0701D062
:1081900000DF704760470000C5CA0000064B9C46E0
:1081A000EFF305831B0605D1EFF31483DB0701D042
:1081B00000DF70476047000019CD0000EFF3098031
:1081C0008169891E0978002933D1A6461FC8A446B3
:1081D0007446E0471F4B06CB914224D0083B002950
:1081E00010D00CB4203101234B70EFF30983203BF6
:1081F0004B60F0C344464D4656465F46F0C305F01B
:10820000DFF80CBC1A60203253681033F0CBA04664
:10821000A946B246BB4683F30988203BF0CB507891
:10822000002803D01078EFF3098318600223DB43A2
:10823000184710B5084A1268914209D8074C8900BE
:108240006458A6461FC8A446F047EFF309840FC43C
:1082500010BD0000BCF5FF1F4888000048880000E2
:1082600004F090FF154B06CB914223D0083B0CB491
:10827000203100234B70EFF30983203B4B60F0C3A8
:1082800044464D4656465F46F0C305F099F80CBC8F
:108290001A60203253681033F0CBA046A946B2468C
:1082A000BB4683F30988203BF0CB5078002801D0EF
:1082B000107818610223DB4318470000BCF5FF1F4C
:1082C00005F038F9CEE7000004F0B0FA05F032F915
:1082D000C8E7000070B505460C46164602E00FCC14
:1082E0000FC5103E102EFAD2082E02D303CC03C5C0
:1082F000083E042E07D301CC01C5361F03E02178C8
:108300002970641C6D1C761EF9D270BD0748804729
:1083100007480047FEE7FEE7FEE7FEE7FEE7FEE769
:1083200004480549054A064B704700003D96000089
:10833000C1800000D8160020D8180020D8170020CF
:10834000D8170020004870477816002030B5441C2C
:1083500003E00178401C00290DD08107F9D10B4BB7
:10836000DD0104C8D11A91432940FAD0001B0A0646
:1083700003D0C01E30BD001B30BD0A0401D0801EDA
:1083800030BD0902FCD0401E30BD000001010101DA
:10839000D2B210B513029A1813049A1800F00EF80E
:1083A00010BD01E004C0091F0429FBD28B0701D5D1
:1083B0000280801CC90700D00270704700290BD0D2
:1083C000C30702D00270401C491E022904D3830750
:1083D00002D50280801C891EE3E70022EEE700221E
:1083E000DFE77047704770470446C046C0462046E6
:1083F000FFF7A5FE01491820ABBEFEE726000200EC
:10840000FFFFFFFFFFFFFFFFFFFFFFFFFEFFFFFF7D
:108410000346F0B50B439B072DD1244DEF01042AF1
:1084200029D308C810C9121F5E1B9E433E4017D0B7
:10843000D8B2E1B2401A3106014310D198B2A1B2CC
:10844000401A310401430AD118022102000A090A24
:10845000401A3102014302D1180E210E401AF0BD1C
:10846000A342DCD018BA21BA884201D90120F0BD5C
:108470000020C043F0BD002A01D10020F0BD0378E8
:108480000C78401C491C002B0DD0A3420BD1521E6E
:1084900009D003780C78401C491C002B03D0A34260
:1084A00001D1521EEBD1181BF0BD000001010101EA
:1084B000F8B5042A2CD3830712D00B78491C03701B
:1084C000401C521E83070BD00B78491C0370401CC4
:1084D000521E830704D00B78491C0370401C521EA7
:1084E0008B079B0F05D0C91ADF002023DE1B08C9AC
:1084F0000AE0FFF7EFFEF8BD1D4608C9FD401C4627
:10850000B4402C4310C0121F042AF5D2F308C91A34
:10851000521EF0D40B78491C0370401C521EEAD442
:108520000B78491C0370401C521EE4D4097801707A
:10853000F8BD431A70B593421BD28918801804E025
:10854000491E521E0B78401E03709307F8D106E0B7
:1085500010390B461038103A78CB78C01038102AF2
:10856000F6D203E0001F091F0B680360121FF9D544
:1085700070BDFFF7AFFE70BDF8B506461446084360
:10858000800707D0751AA54219D20819102D13D2E9
:10859000311907E03046FFF7CCFFF8BD401E491EF9
:1085A00002780A70641EF9D2F8BD471B2A46394684
:1085B000FFF77EFF641B3846A542F6D3011B224617
:1085C0003046FFF775FFF8BD002203098B4273D3D5
:1085D000030A8B4258D3030B8B423CD3030C8B42D0
:1085E00021D312E003460B437FD4002243088B4281
:1085F00074D303098B425FD3030A8B4244D3030B2A
:108600008B4228D3030C8B420DD3FF22090212BAEE
:10861000030C8B4202D31212090265D0030B8B426A
:1086200019D300E0090AC30B8B4201D3CB03C01A54
:108630005241830B8B4201D38B03C01A5241430B2F
:108640008B4201D34B03C01A5241030B8B4201D31F
:108650000B03C01A5241C30A8B4201D3CB02C01A8A
:108660005241830A8B4201D38B02C01A5241430A02
:108670008B4201D34B02C01A5241030A8B4201D3F1
:108680000B02C01A5241CDD2C3098B4201D3CB0198
:10869000C01A524183098B4201D38B01C01A524147
:1086A00043098B4201D34B01C01A524103098B424B
:1086B00001D30B01C01A5241C3088B4201D3CB0036
:1086C000C01A524183088B4201D38B00C01A524119
:1086D00043088B4201D34B00C01A5241411A00D2C9
:1086E00001465241104670475DE0CA0F00D0494232
:1086F000031000D34042534000229C4603098B42A2
:108700002DD3030A8B4212D3FC22890112BA030A29
:108710008B420CD3890192118B4208D389019211AB
:108720008B4204D389013AD0921100E08909C30930
:108730008B4201D3CB01C01A524183098B4201D332
:108740008B01C01A524143098B4201D34B01C01A1D
:10875000524103098B4201D30B01C01A5241C30895
:108760008B4201D3CB00C01A524183088B4201D304
:108770008B00C01A5241D9D243088B4201D34B001F
:10878000C01A5241411A00D20146634652415B1061
:10879000104601D34042002B00D549427047634642
:1087A0005B1000D3404201B50020C046C04602BD68
:1087B0007546FFF7C7FDAE46050069465346C0083B
:1087C000C000854618B020B5FFF7AAFD60BC0027A1
:1087D0004908B6460026C0C5C0C5C0C5C0C5C0C58D
:1087E000C0C5C0C5C0C5403D49008D4670477047F3
:1087F00070B58C180578401C6B075B0F01D10378AE
:10880000401C2A1106D10278401C03E00678401C67
:108810000E70491C5B1EF9D12B0705D40023521E94
:108820000DD40B70491CFAE70378401CCB1A921C3C
:1088300003E01D785B1C0D70491C521EF9D5A14246
:10884000D8D3002070BD00000200000011BF00005E
:1088500000000000F0B5027885B01346803B1F2B66
:1088600003D800F063FA05B0F0BD0A704E1C017821
:10887000401C0546172978D20B007B441B79DB1876
:108880009F440B3E445EFDFCFB73FA747C73737370
:10889000737380F9F8F7F6F6F6000178721C002081
:1088A000052929D008DC012926D0022924D0032952
:1088B00022D0042920D108E006291DD0F0290FD0AC
:1088C000FE2916D0FF2917D10DE0F8480178117064
:1088D0004178517081789170C078D07004200BE09D
:1088E0000120107008E0402010700020507002201D
:1088F00002E00520107001203070801C05B0F0BD32
:108900000078002872D0012871D1EDE000780028AD
:1089100001D001286AD1E64901200870E5492022EA
:108920004A6040244C6003024B604D6915434D6121
:108930004A6922434A614A691A434A613070B2E186
:10894000DB4800240470DB482022826040258560DB
:108950008315436041691143416141692943416184
:108960004169194341613470C0E0D6E168782978E3
:10897000000208430001401EFDD1B5E000207070E8
:108980003070E6E0A81C01460A78374610464A785F
:108990006C78120210438A78C978120410430906D1
:1089A000084369790002000A09062E780843E107A6
:1089B00008D0F10703D0BF4A2021516002E0BD4A30
:1089C00020219160A10708D5B10703D5B94A4021FC
:1089D000516002E0B74A40219160210609D5F109B2
:1089E000C907B549B34A03D0516002E07CE069E0B1
:1089F0009160002834D0B149884200D90846B04D72
:108A00000021A961AF494843AF49FFF7DDFD686127
:108A1000052028617208A74BF109E00704D0186906
:108A20008006C00FB04215D1A00704D518694006D2
:108A3000C00F90420ED1600701D5B0080AD1A00640
:108A400001D5700906D1200608D51869C005C00FE8
:108A5000884203D02869C003C00FDED000202861FF
:108A6000944A106911698006C00F4906C90F07E0D2
:108A700036E149E03CE00CE02EE171E062E050E0DC
:108A8000490008431169C905C90FC9010843387075
:108A90002CE02A78E97810466A7809061202104319
:108AA000AA781204104308430102E878090A000674
:108AB000014307D08548814206D37D490120487093
:108AC000486011E0FF2010E0794C00206070804881
:108AD0000818FFF779FD012804D90321401CFFF78E
:108AE00073FD00E001206060002030700120DAE0BA
:108AF0000078691C002801D1FF20013000F074FDCE
:108B0000002030700120CEE0007869498207920F82
:108B1000521C40070A75C00F4875002030700120B4
:108B2000C1E0634928780872A8786A780002104387
:108B300048812879EA78000210438881002030704B
:108B40000120B0E05A480078012804D0002030709D
:108B500070700220A7E03146284600F001F9A2E03B
:108B600053480078012805D0002030707070B07034
:108B7000032098E00024029656492046F61C0C700B
:108B80006D1C69782A780F021743AD1C002F46D060
:108B900029786D1C0091890742D50099C90711D029
:108BA000434845890021009800F0ACFA022802D021
:108BB00001286FD106E06D1E6CD346490978002963
:108BC000F0D067E07F1E65D3002F04D10098C00766
:108BD00001D00E2000903648458901A9009800F088
:108BE00091FA022802D0012854D106E06D1E51D31B
:108BF000384909780029F0D04CE001993170019989
:108C0000761C090A31700199761C090C31700199A2
:108C1000761C090E3170761C641C7F1ED4D239E09C
:108C20007F1E03972A78E97810466A7809061202AF
:108C30001043AA78120410430843E9780002000A9E
:108C40000906084301901A482D1D478901A900987B
:108C500000F058FA022802D001281BD106E07F1E3E
:108C600018D31C4909780029F0D013E00398641C3C
:108C7000401E0390401CD5D10D48164F4589002158
:108C80000E2000F03FFA022804D16D1E02D339787D
:108C90000029F4D002990C70029A210A51700299AD
:108CA00088700298301A401C05B0F0BDA500010084
:108CB000FC02002080F00F4000010000C0C62D0023
:108CC00000E000E0006CDC0240420F0000366E0164
:108CD000FF356E012CF6FF1F13480078012804D0E1
:108CE000FF203070022005B0F0BD681C01460A78F4
:108CF00010464A78120210438A78C9781204104349
:108D00000906084329790002000A09060843009071
:108D10006946002000F0F6F9E6E6FF20203EF077F5
:108D2000012005B0F0BD0000FC02002070B5007805
:108D30000C46802803D0FF200870012070BD03F08E
:108D400043FA0646001DFFF701FBC5B280202070E4
:108D500065702A46311DA01CFFF7AAFBA81C70BD38
:108D6000F0B5054687B00020B64A029101908C1CF0
:108D7000107003906D1C049029786D1C491E05919C
:108D8000491C5FD02F786D1CB9076ED50399002957
:108D90002ED0AD4846891120384001280CD16946B3
:108DA000384600F0AFF9022814D1761E4AD3A549FF
:108DB00009780029F3D03CE169460E2000F0A2F9C1
:108DC000022805D1761E03D39E4909780029F3D0E5
:108DD00000210391012835D100992170641C0A0AF1
:108DE00022700A0C641C2270641C090E2170641C21
:108DF000F90657D52A78E97810466A7809061202EA
:108E00001043AA78120410430843E9780002000ACC
:108E10000906084306908C482D1D80890490F807A8
:108E200011D0894846890021384600F06BF90228A4
:108E300002D0012806D106E0761E03D381490978C5
:108E40000029F0D0F5E0804846896946384600F0B0
:108E500059F9022802D0012818D107E0761E15D34F
:108E6000784909780029F0D010E053E07649009A5B
:108E700009691140069A914208D00499491E04914B
:108E8000491C03D06F4909780029DCD06E49009A4B
:108E900009691140069A914201D010210843012826
:108EA0004CD135E068494E89F90715D0039900295E
:108EB0002ED10021384600F025F9022802D00128E1
:108EC0003CD106E0761E39D35E4909780029F0D0FE
:108ED000AFE0012103911BE06946384600F012F92A
:108EE000022802D0012829D106E0761E26D3554952
:108EF00009780029F0D09CE000992170641C0A0ACE
:108F000022700A0C641C2270641C090E2170641CFF
:108F100000214DE0039800281FD04B484689694640
:108F20000E2000F0EFF8022802D0012806D106E05A
:108F3000761E7ED3434909780029F0D079E0009865
:108F40002070641C010A2170010C641C2170641CD7
:108F5000000E2070641C002003902A78E9781046E7
:108F60006A78090612021043AA78120410430843D3
:108F7000E9780002000A090608432D1D0090B90691
:108F800003D531490861012013E02F48468969461D
:108F9000384600F0B7F8022802D0012849D106E08F
:108FA000761E46D3274909780029F0D041E00121F7
:108FB00004910199234E491C01913178002905D172
:108FC0000599491E0591491C00D0DBE6012830D1E6
:108FD000039900291DD01C48458969460E2000F0E0
:108FE00091F8022802D0012823D105E06D1E20D37C
:108FF00031780029F1D01CE000992170641C0A0A24
:1090000022700A0C641C2270641C090E2170641CFE
:109010000FE0049900290CD00B48458900210E204F
:1090200000F070F8022804D16D1E02D331780029B7
:10903000F4D0029A0199117002994870029807B011
:10904000201AF0BD2CF6FF1FFC02002030B412489D
:109050000321416064214181012101750F48816B29
:109060001F225202114381630D4B811559610D4836
:1090700020224260446914434461CC1C9C6140221C
:1090800042604569954345611C62416042690A43FB
:10909000426130BC70470000FC02002000800440A8
:1090A00000B0044080F00F4010B582B00020694647
:1090B000FF240C54401CC0B20828FAD3332000F01F
:1090C00093FA9E2069460870E7204870102000F04F
:1090D0008BFA002069460C54401CC0B20828FAD311
:1090E000332000F081FA002069460870082000F063
:1090F0007BFA01A9002004F089FC012800D000209F
:1091000002B010BD00B5054A5278002A02D000F026
:1091100007F800BD00F0E4F800BD0000FC020020EC
:10912000F0B402466C4E402070602027B760776034
:10913000D30701D0706000E0B060B760776053087B
:10914000DD0701D0706000E0B060B7607760D418D0
:109150009308DD0701D0706000E0B060B760776011
:10916000E418D308DD0701D0706000E0B060B7609C
:109170007760E318DB0701D0706000E0B060B76093
:109180007760B060B76077607060B7607760736970
:109190004020834373615148007D030003D0B760D2
:1091A0007760401EFBD1B760306977604006C00F22
:1091B000B760346977606406E40F64000443B76005
:1091C000306977604006C00F8000204301280DD031
:1091D00002285ED004285CD0213303D0B7607760CA
:1091E0005B1EFBD140217160F0BC7047920726D511
:1091F00000231C462022B760356977606D06ED0FAD
:1092000064195B08ED072B43521EF4D1B760326935
:1092100077605206D20F5440E20700D008200029A0
:1092200000D00B602D49097D002903D0B76077601D
:10923000491EFBD171694022114371611EE0002B70
:1092400003D0B76077605B1EFBD1726940252A436B
:109250007261096800232022CC0701D0756000E00C
:10926000B560B76077605B184908521EF4D1D90722
:1092700001D0756000E0B560B76077601749097A82
:109280000029AFD04022B260B7607760491EFBD1A1
:10929000A8E712494C7D002C06D0910704D5212166
:1092A000B7607760491EFBD1002B03D0B7607760B1
:1092B0005B1EFBD17169402319437161002C07D0FB
:1092C000910705D4B3602121B7607760491EFBD1B7
:1092D0007360F0BC7047000080F00F40FC0200207B
:1092E000F0B58C460026BE49402304464B6020253D
:1092F0008D60BC4F7A681046401EFDD14D6010460F
:10930000401EFDD1E00701D04B6000E08B608D6016
:109310001046401EFDD14D601046401EFDD136194D
:109320006008C70701D04B6000E08B608D60174676
:109330007F1EFDD14D6017467F1EFDD13618A00857
:10934000C70701D04B6000E08B608D6017467F1E21
:10935000FDD14D6017467F1EFDD13718E608F00796
:1093600001D04B6000E08B608D601046401EFDD147
:109370004D601046401EFDD1B819C00701D04B60AA
:1093800000E08B608D60974E1046401EFDD14D6011
:109390001046401EFDD18B608D601046401EFDD1F1
:1093A0004D601046401EFDD14B608D601046401E42
:1093B000FDD14D601046401EFDD1486940239843C1
:1093C0004861337D1E0009D08D601046401EFDD1DE
:1093D0004D601046401EFDD15B1EF5D18D601046DC
:1093E000401EFDD108694D604006C00F13465B1E4C
:1093F000FDD18D6013465B1EFDD10B694D605B0690
:10940000DB0F17467F1EFDD15B0003438D601046C6
:10941000401EFDD108694006C00F20254D6015464D
:109420006D1EFDD180001843012813D002287DD085
:1094300004287BD021360AD020248C6013465B1E82
:10944000FDD14C6013465B1EFDD1761EF5D1402246
:109450004A60F0BDA3073CD500252E4620242023DA
:109460008B6017467F1EFDD10F694B607F06FF0F93
:1094700013465B1EFDD16B08FD07F6191D43641EE4
:10948000EDD120238B601446641EFDD10C690F467C
:109490006406E40F4B60521EFDD16640F20700D017
:1094A00008206246002A00D015604E4A147D002C28
:1094B0000AD05568BB602A46521EFDD17B602A4601
:1094C000521EFDD1641EF5D17A6940231A437A6198
:1094D0003AE0002E0AD020248C6013465B1EFDD19A
:1094E0004C6013465B1EFDD1761EF5D14C694023BE
:1094F0001C434C6164460026246820252F46E30760
:1095000002D040234B6001E040238B608F60134604
:109510005B1EFDD14F6013465B1EFDD136196408FA
:109520006D1EECD1F30704D0402300E020E04B6037
:1095300001E040238B603C460D468F6013465B1E66
:10954000FDD16C60521EFDD1264A137A002B00D14A
:109550007DE740248C60546820258D602246521E91
:10956000FDD14D602246521EFDD15B1EF5D16EE746
:109570001C4B5B7D9C46002B0DD0A3070BD52125F2
:1095800020278F6013465B1EFDD14F6013465B1E84
:10959000FDD16D1EF5D1002E0AD020258D60134619
:1095A0005B1EFDD14D6013465B1EFDD1761EF5D1CD
:1095B0004B6940252B434B616346002B0ED0A3071C
:1095C0000CD48D60212420268E6013465B1EFDD1B5
:1095D0004E6013465B1EFDD1641EF5D14D60F0BD9B
:1095E00080F00F40FC020020F0B4134C401E421CDF
:1095F000104E20276568002A03D1F0BC7047002B6D
:1096000002D10C78491C0823E20702D04022726084
:1096100001E04022B260B7602A46521EFDD1776059
:109620002A46521EFDD164085B1E401EE7D2F0BCE4
:109630007047000080F00F40FC0200201D4800220F
:1096400002601D48816B4315194381631C491B4807
:1096500048601C4883681C490B408360C3680B400A
:10966000C3601A4980200870194824214170A22142
:109670000170C178C906C90EC17003210171427120
:109680008179C906FCD481790907890F0229FAD1A9
:109690004021417181790907890F0229FAD1817925
:1096A0004906FCD51A21017081790907890F032920
:1096B000FAD170470081044000800440000001108E
:1096C0004080044040900440FFF8FFFE00500640F8
:1096D0000040064038B41C4B18791C498A6CCD6C8C
:1096E0001B4CAA421AD002060ED54A6C8D18521C89
:1096F0004A642A78DA714A6C9206920E4A64CA6CFD
:10970000521CCA6401212160810605D54007800FE3
:109710000AD0D8796946087038BC7047D9784906AC
:10972000490ED9700021EEE7DA790A48016C431836
:10973000491C01641A70016C8906890E0164816CF0
:10974000491C816438BC704700B006409405002075
:109750004CF6FF1FE4050020F8B5414E3078357C0B
:10976000307034793F4F0440E00709D002F020FB0D
:1097700005F020FA3968002902D0042002F080FEAA
:10978000E00609D530792021084330713968002975
:1097900002D0102002F074FEA00609D53079DF2136
:1097A000084030713968002902D0202002F068FE9C
:1097B000600705D53968002902D0402002F060FE1C
:1097C000022C0AD1317A284841603968002902D038
:1097D000802002F055FEFF20307220073FD528067A
:1097E00029076A07000FC90FD20F204E204D00280D
:1097F00007D14B009B18DB00F35C9B061B0F0D2B66
:109800000AD08400480020188018C700F05D800648
:10981000000F012812D017E013480222016891437B
:109820000160307E4006400E3076307C4006400EAF
:1098300030742968002912D002200EE0295900292D
:1098400002D0042002F01CFEF05D8006000F092803
:1098500005D12959002902D0082002F011FEF8BDD7
:109860008020074098F6FF1F50F6FF1F00080020D9
:109870003816002000207047034801694069081A23
:1098800002490988081A704760F5FF1F0E0201009F
:1098900070B50B4D0C460346696B286B88420BD99B
:1098A000401A844200DD044622461846FEF700FEB8
:1098B000686B0019686300E00024204670BD00005A
:1098C00060F5FF1F00207047F8B5184F0C4606469C
:1098D00079693869401A16490988081A002801DC94
:1098E0000020F8BD844200DD0446FA69B86900250D
:1098F00090420DD30F4A031951188B4208D30D1A09
:109900002A463146FEF7D4FD76190A48641BB86131
:10991000002C06D022463146FEF7CAFDB869001970
:10992000B8613969601909183961F8BD60F5FF1F20
:109930000E020100A20E0020F8B5234CA0680028FA
:109940003DD0616920690026421AE0681146014352
:10995000002935D021461D4FC9691D4D002A10D060
:10996000A069814205D338888B182818834200D318
:10997000421A1848007843001748C05A904200DA4B
:1099800002461648E66000788023184302F094FAF5
:10999000E1690918E1616269121862613B88EB189C
:1099A0008B4200D1E561216991420BD109490978C7
:1099B0004A000949895A814204D10120E060F8BD7A
:1099C000A660F8BDE660F8BD60F5FF1F0E0201005D
:1099D000A20E002073F6FF1F120201000C0201000C
:1099E00010B50C4C206A002803D0A06A401CA0626D
:1099F00010BD01202062606200F00EF8002060625D
:109A00002062616B206B8842F2D0401AFFF75AFF48
:109A100010BD000060F5FF1F10B5134C144A134829
:109A2000216B1288081A101A124A134B127852002E
:109A30009A5A90420EDB1148007801F05BFE216BD0
:109A400008182063A06A00280CD0616A002909D197
:109A5000401E06E00120E062606A002802D0A06A91
:109A6000401CA06210BD000060F5FF1FE20E002048
:109A70001002010073F6FF1F120201000D02010027
:109A8000002070470020704710B50B4800F01CF80C
:109A9000002810D0084A094910680870030A4B7062
:109AA000030C8B70000EC8701079087150794871E2
:109AB00090798871012010BD98F5FF1FA00D00203E
:109AC00010B500F01BF810BD10B504460A4803F0AD
:109AD000BFFD00280FD00848016821700A0A627093
:109AE0000A0CA270090EE1700179A17141796171CE
:109AF00080792071012010BDACF5FF1F10B503F077
:109B0000B1FD10BD10B503F017FE10BD0120704768
:109B100010B50378C2781946437812061B02194320
:109B200083781B0419431143064A1160817911712E
:109B300041795171007990710020D071104603F085
:109B400009FE10BDACF5FF1F10B50F48002444609E
:109B50008460C46004610D498161446104624462AF
:109B60008462C462C1610A49016341630480FFF7F2
:109B7000C9FF4B210748C9010160047144710821E4
:109B80008171FFF7C5FF10BD60F5FF1FA20E002019
:109B9000E20E002098F5FF1F10B5FFF7D5FF10BDAE
:109BA00070B5194C0025206A012600280AD1616B86
:109BB000206B884206D11549884203D02163E562B3
:109BC00025626163A06A002810D0206A00280DD1A8
:109BD000E06A00280AD12662FFF71EFF2562616B4A
:109BE000206B884202D0401AFFF76CFEA1686068C3
:109BF000084308D161692069884204D06660A66084
:109C0000FFF79AFE656070BD60F5FF1FE20E002051
:109C1000B0B50D4C0D4F002806D0BC4600DF2060CB
:109C2000002004F054FA0CE0BC4600DF2168401A22
:109C3000FF212D31884201D3012000E0002002F0F5
:109C400079FC0120B0BD0000A8F5FF1F71D5000010
:109C5000002070470020704710B502490880FFF7C8
:109C600055FF10BD60F5FF1F10B50E4B1A78D9785F
:109C700010465A780906120210439A7812041043CB
:109C800008430102D878090A00060143064801602A
:109C9000197901715979417199798171FFF738FF0B
:109CA00010BD0000A00D002098F5FF1F01078A0ECF
:109CB000044900B551180A78FD231A400A7002F0D1
:109CC000A9F800BDC020074000B501464A790B79CC
:109CD000807811021943020601D4024A115402F09D
:109CE00099F800BD58F6FF1F70470000084900288A
:109CF000084A087D04D0012318430875102005E0A8
:109D0000400840000875107AEF2108401072704733
:109D1000802007400021074010B50B4C0B48A2885B
:109D20000078824200D90246002A02D10849002068
:109D300008718020216802F0BFF8216809182160AD
:109D4000A188081AA08010BD88F6FF1FF00101004D
:109D500070F6FF1F704700000849020607D500078C
:109D6000800E40180178FA2211400170704780007F
:109D700040180178F622114001707047C02007405A
:109D80000849020607D50007800E40180178052211
:109D90001143017070478000401801780922114377
:109DA00001707047C0200740F8B50446964E974FA3
:109DB000974D800751D53146002001F09BFC30784B
:109DC000C009FFF7C7FFF088B88030784106890FD7
:109DD00002D0012978D1A7E071780C2974D20B0048
:109DE0007B441B79DB189F44050CB024B03E50B077
:109DF000555D758601F0E4FD002865D0FFF78CFF06
:109E0000B0E0002001F022FE00285DD000221146C3
:109E1000802002F051F87F480068002804D069696A
:109E200000291AD0082016E07B480068002879D164
:109E300098E0012001F00AFE002845D000221146DA
:109E4000802002F039F873480068002806D069695C
:109E5000002902D0042004F097FE83E06E480068D9
:109E600000285FD17EE0C006C00E6ED1B0788021A0
:109E7000084328704006400E012101F0FFFF002238
:109E80001146802002F018F86CE001F091FC0028E7
:109E90005BD0B3E7C006C00E57D160483860FFF70B
:109EA0003BFF5FE001F026FE00284ED00022114665
:109EB000802002F001F857480068002805D0696941
:109EC00000294FD00120C6E73FE055480068002830
:109ED00028D147E0C006C00E012836D16878002896
:109EE00033D03079A97888422FD24E494018386053
:109EF000FFF712FF36E001F0C3FE002825D0002254
:109F00001146802001F0D8FF42480068002805D0A3
:109F10006969002926D002209DE703E042480068D5
:109F200000281FD080471DE0C006C00E0DD00128BC
:109F30000BD100F023F9002814D100F085F9002896
:109F400010D100F0BFF800280CD13078C00904D13E
:109F5000F088002801D0002000E0802001F098FF68
:109F60000020B880600706D53078C0090FD02F498F
:109F7000002001F0BFFB20073BD53078C0092FD06F
:109F8000B8882979084334D0FFF7C6FE31E0B88895
:109F90000028F0D00020396801F0ACFB39680918BE
:109FA0003960B988081A0004000CB880E3D1307811
:109FB0004106890F0ED001290CD1C006C00E09D070
:109FC000012807D100F066F80028D4D100F030F85D
:109FD0000028D0D1802001F05BFF0020B880CAE7C4
:109FE0002878010605D54006400E2870002101F0B2
:109FF00045FF600602D50020FFF758FE200602D577
:10A000008020FFF753FEF8BD90F6FF1F88F6FF1F74
:10A0100070F6FF1F240201002002010071F6FF1FED
:10A020001802010064F6FF1F1C020100A00D0020B1
:10A0300010B51549154A08791278904203D0144A90
:10A04000127890421DD14878002804D0022807D009
:10A05000202816D10DE0FFF7FBFD00280DD110E000
:10A06000C878897800020843FFF7F4FD002804D17E
:10A0700007E0FFF7F9FD002803D001F015FF0120EC
:10A0800010BD002010BD000090F6FF1F0A02010065
:10A090000B02010010B50948094A01791278914272
:10A0A0000AD14078092807D100F0FCFA002803D033
:10A0B00001F0FAFE012010BD002010BD90F6FF1F38
:10A0C000F101010070B52849284A087912789042B8
:10A0D00003D0274A1278904243D123484978C27866
:10A0E00083781002234C244D1843042923D008DC24
:10A0F000002916D001290DD0022912D0032930D110
:10A1000011E020290DD021291AD022291DD0232980
:10A1100027D11FE0FFF7B6FC002808D121E001207D
:10A1200070BD2C60FBE7FFF7ABFC002819D02C605A
:10A13000FFF7F2FDF3E7FFF79DFB00280ED110E0DB
:10A14000FFF7A2FC0028F2D10BE0FFF785FD002805
:10A1500004D106E0FFF75CFD002802D001F0A4FE68
:10A16000DDE7002070BD000090F6FF1F0A0201002D
:10A170000B020100A00D002088F6FF1F10B52B4C2C
:10A180002B492079097888424DD160780C284AD231
:10A1900003007B441B79DB189F4445052834454563
:10A1A0004545451A2D3E00F095F900283BD0E07852
:10A1B000012802D0032804D006E01F491D4808608A
:10A1C00002E01D491D480860FFF7A6FD012010BDF3
:10A1D000E078022802D0032804D011E0164918487C
:10A1E00008600DE014491548086009E000F05AF9CC
:10A1F00000280BD117E000F02DFA002810D112E052
:10A20000012010BD00F05CF900280CD00A490D486F
:10A210000860FFF781FDF3E700F03AFA002802D06A
:10A2200001F042FEECE7002010BD000090F6FF1F99
:10A23000F1010100E10D002088F6FF1F6EF6FF1FFF
:10A24000220E0020A00D002010B51848184A0179F0
:10A250001278914227D142780146C8788B78000263
:10A260001843CB798C7919022143FE2A0CD0FF2A9E
:10A2700019D1002817D1002915D101F085F800283F
:10A2800011D001F011FE0CE000280CD101290AD1F7
:10A2900000F01CFD002806D0074906480860FFF7BB
:10A2A0003BFD012010BD002010BD000090F6FF1FF7
:10A2B00002020100A00D002088F6FF1F06480021C1
:10A2C0004170C16001614161418081808161C161F2
:10A2D000C18001620181704708F6FF1FF8B5484E42
:10A2E000B0887188474F00257C1C884218D3B0691C
:10A2F000002815D17561B580012339787A1C18467C
:10A3000004F0B6F870807088002809D03E48776164
:10A310000078012801D8746102E07088401C7080C8
:10A32000708800283AD1F068002801D0F56035E047
:10A330003069002832D03449097801290ED83D709F
:10A34000B58002237A1C0021012004F091F870806E
:10A350007088002800D0746135611FE03C780127C7
:10A36000202C00D300243946A140014242D0601C79
:10A37000C1B2244A02231170B580521C012004F09E
:10A3800077F870807088002804D01E48706170884B
:10A39000401C70803069A740B84330617088B16953
:10A3A000084326D07088B188184F401A84B2387894
:10A3B00041001748405AA04200D204461548802167
:10A3C000007822460843716901F076FD70691249F0
:10A3D00000197061B088001980B2B0800988884285
:10A3E0000BD2387841000A48405AA04205D10120DA
:10A3F000B061F8BD641CE4B2B2E7B561F8BD00001D
:10A4000008F6FF1FE00D0020FC01010073F6FF1F9E
:10A41000F8010100F2010100FE010100F8B51A4C3B
:10A420000026E088194D002800D1E5611848E1694F
:10A43000007801F05FF9E16980B20918E161E18813
:10A4400009188BB2E38000280AD0124909888B4290
:10A4500006D21149114A09784900515A814212D94C
:10A460000F48017801200129009005D8074A0021F2
:10A47000022004F0C5F805E029785B1E6A1C022062
:10A4800004F0BEF8E680F8BD08F6FF1F210E00209C
:10A49000F30101000002010073F6FF1FF801010043
:10A4A000FD010100034804498078085C03490870F5
:10A4B0000120704790F6FF1F6CF6FF1FA00D0020D3
:10A4C00010B503F0D3FF02490870012010BD000051
:10A4D000A00D00200B490022C878012806D00228D0
:10A4E00006D0032806D1084A521C03E0074AFBE7BE
:10A4F0000020704710B58978002303F0B9FF0120D0
:10A5000010BD000090F6FF1F6DF6FF1FE00D00204C
:10A510004748007800287DD0F8B5464804230178E4
:10A5200000264A1C0270444800784200821893407A
:10A530005B1E994203DB00233E4901260B703F4B13
:10A5400000251988FF2901D2491C198041003C4887
:10A55000405A3A4900900988884200D1012539497A
:10A56000002009788E4600294FD9022191408C465F
:10A570000022002E0DD034490B5CFF2B01D25B1C56
:10A580000B54324B1B5C002B03D0095C994200D367
:10A5900001222E496446095C0B46A340009CA3425D
:10A5A00003DA002901D0012300E00023002D08D0A8
:10A5B000002B06D01F4F01243F6984403C431D4FB0
:10A5C0003C61234C245CA1420ED01F49095CA1428E
:10A5D00008D3184F01213F6981403943154F396134
:10A5E0000021397019490C54002A0AD0002B05D1DA
:10A5F000104901220B6982401A430A611249002264
:10A600000A54401CC0B27045B2D3002D04D00021C2
:10A610000A4800E00AE0018006480169002904D0E8
:10A620004088002801D1FFF759FEF8BD70470000AF
:10A6300071F6FF1F08F6FF1F73F6FF1F68F6FF1F76
:10A64000F4010100FC0101006AF6FF1F6BF6FF1F19
:10A650006CF6FF1F0A480A498078C978002802D0A2
:10A66000084A81540AE0084A00201378002B05D9D3
:10A67000064A1154401CC0B29842FAD301207047D8
:10A6800090F6FF1F6BF6FF1FFC0101006CF6FF1F29
:10A6900010B50348807803F0B1FF012010BD000021
:10A6A00090F6FF1F0D490022C878012806D0022825
:10A6B00006D0032806D10A4A521C03E00020704746
:10A6C000084AF9E738B500230093CB798C791B024F
:10A6D0002343897803F094FF012038BD90F6FF1FD3
:10A6E0006DF6FF1F210E002030B41B48402404707B
:10A6F0001A4841680522120411434160416B22034C
:10A700001143416301DF1648017B8022114301732D
:10A71000017B0906FCD41349134B090A1977114927
:10A720000A0C12490A740F4A120E0A75FF21197099
:10A730000F490968002902D00421022201E000210A
:10A740000A4611431922114319710470017B2143F8
:10A75000017330BC7047000058F6FF1F00800440B2
:10A76000002107400008002080200740A02007406B
:10A7700098F6FF1F70B500F0BFF8002845D02348B9
:10A78000022202704270224D03202A632870214C5D
:10A79000082021180B7818464B781B0218438B7839
:10A7A000C9781B0418430906084302280ED91A4821
:10A7B000110A02724172110C8172110EC172227261
:10A7C000100A6072100CA072100EE0721348802103
:10A7D000007808430D4901F06FFB082021180A7822
:10A7E00010464A78120210438A78C978120410433E
:10A7F00009060843296B401A2072010A6172010C94
:10A80000A172000EE0720120207370BD620E002064
:10A8100000F0FF1FBBF6FF1F9CF6FF1F03020100A5
:10A8200010B514494868C860002801D0012010BD47
:10A83000114B082019180A7810464A781202104362
:10A840008A78C97812041043090608430BD0187B94
:10A85000000604D5094880210078084301E0084833
:10A86000007800F0F9FD07490120087300F0D6FDDB
:10A87000002010BD00F0FF1F9CF6FF1F0302010027
:10A8800004020100BBF6FF1F10B5164801798F20A6
:10A890000140080605D50807000F01221204824076
:10A8A00001E001228A401048802300781843884242
:10A8B00016D10E490968114212D00D4A1378194673
:10A8C00053781B0219439378D2781B04194312065C
:10A8D0001143084A914203D10D22054901F0ECFAD7
:10A8E00010BD000090F6FF1F030201007CF6FF1F61
:10A8F000BBF6FF1F5553425370B5104B0820191873
:10A900000A78022410464A780D4D120210438A78C4
:10A91000C9781204104309060843002806D0187BA2
:10A92000000608D40748007800F096FD2C7300F06C
:10A9300075FD002070BD012070BD00009CF6FF1F5A
:10A94000BBF6FF1F0402010010B51B491B4C0A781F
:10A9500010464A78120210438A78C97812041043CC
:10A9600009060843216B884202D82063032000E0D7
:10A9700004202070124880210078226B084311497E
:10A9800001F09AFA104908200A18137818465378EB
:10A990001B0218439378D2781B0418431206104305
:10A9A000226B801A0872020A4A72020C8A72000E26
:10A9B000C8720020087310BDA4F6FF1F00F0FF1F2F
:10A9C00003020100620E0020BBF6FF1F10B5114903
:10A9D0000878022808D003280FD0042810D00528B2
:10A9E00001D10020087010BD0B48C07B282801D081
:10A9F000A828F8D100F09EF910BD00F00FFD10BDA1
:10AA0000064880210078084300F026FD00F006FD8E
:10AA100010BD000000F0FF1F9CF6FF1F03020100A5
:10AA200010B5154C1349207800F064FE13490863F3
:10AA3000087800280CD001280DD0052807D02078F0
:10AA400000F00AFD0E490220087300F0E7FC10BD7B
:10AA500000F01AF810BD0B48C07B2A2803D02F281D
:10AA600004D0AA28F6D100F05FFA10BD00F0E0F99A
:10AA700010BD0000620E00200402010000F0FF1F64
:10AA8000BBF6FF1F9CF6FF1FF8B5884E0020316B08
:10AA9000874F002905D9874A135C3B54401C8842E4
:10AAA000FAD3854880220078012510431F296FD1F1
:10AAB0003B78FA7819467B7812061B021943BB785B
:10AAC0001B04194311437D4A914261D13B79FA79C4
:10AAD00019467B7912061B021943BB79784C1B047B
:10AAE0001943114321710A0A62710A0CA271090EFD
:10AAF000E17108217A181378194653781B0219431B
:10AB00009378D2781B0419431206114321720A0A62
:10AB100062720A0CA272090EE172797B002904D1DB
:10AB2000B97B002901D0102901D9257383E0F97B75
:10AB30002A293BD021DC1A294ED00EDC0429F4D07E
:10AB400006DC00293BD00329EFD100F0D9FBF8BD8A
:10AB50001229EAD100F0C2F8F8BD232942D007DC5F
:10AB60001B292FD01E29E0D1F87CC007DDD17EE063
:10AB700025293AD02829D8D140E09E293BD00DDCA8
:10AB80005529D2D005DC2F2958D03529CDD158E010
:10AB900072E05A2923D09129C7D152E0A12927D0A8
:10ABA000A32966D0A82929D0AA29BED100F0B8FAD5
:10ABB0000028D1D0387B000635D43570F8BD00F0C0
:10ABC00061FCF8BDB87C0028AFD1F87CC007C00F8D
:10ABD000706003F0F9FD34E000F062FAF8BD00F0B7
:10ABE0001DFAF8BD00F03EFBF8BD00F015FBF8BD06
:10ABF000FFF7C0FDF8BD00F0D9FBF8BD00F090FAFA
:10AC00000028FAD0387B000604D50220307000F00E
:10AC100091F8F8BD2B48007800F01EFC022020734C
:10AC200000F0FCFBF8BD244880210078084300F0C8
:10AC300013FC0220207300F0F1FBF8BD387C800784
:10AC400004D40020207300F0E9FBF8BD00F068FA9E
:10AC50000028FAD0387B000602D435703562F8BD82
:10AC6000154880210078084300F0F6FB022020738D
:10AC7000E1E700F0F1FB58E70F4C00F0EDFB207826
:10AC8000114C0107090F01200004884021680D4F75
:10AC900008432060387800F0DFFB38788540206872
:10ACA0000543062025603070F8BD000000F0FF1F4E
:10ACB0009CF6FF1F620E0020030201005553424321
:10ACC000BBF6FF1F0402010080F6FF1F02490020AF
:10ACD0000870012070470000A00D002010B5FFF79C
:10ACE0000BFE00281FD0104B0020187080215970D7
:10ACF00002219970D97020241C7158719871D871F3
:10AD00000A48016808200A78002A02D01A54491C0F
:10AD100000E01C54401CC0B22428F4D30449242071
:10AD20000863FFF711FE10BD620E002060F6FF1FE2
:10AD300000F0FF1FF8B5394D394FA969686A002640
:10AD400088420AD3387880210024084300F084FB2D
:10AD50003448067300F062FB08E033480078410095
:10AD60003248445AE86A844200D30446FFF758FD4B
:10AD7000002800D10024A86A00283AD0002C0ED068
:10AD8000A96AE8698022411838781043224601F008
:10AD900093F8A86A0019A862E86A001BE8622969AA
:10ADA0006869AA6A4143914203D1AE62696A081890
:10ADB00068621C4908200A181378184653781B0249
:10ADC00018439378D2781B04184312061043001BD3
:10ADD0000872020A4A72020C000E8A72C872002CB3
:10ADE00006D0E86A002816D02878022800D00E7312
:10ADF000F8BD002CD3D02969E86A4018401EFDF741
:10AE0000E3FB6A69904200D910460246E969686A24
:10AE100003F06CFCB4E703202870E8E700F0FF1FA4
:10AE200003020100BBF6FF1F73F6FF1F06020100BD
:10AE3000F8B5394C0025A169606A884208D33748C3
:10AE40002563007800F008FB3548057300F0E6FA4A
:10AE5000FFF7E6FC002806D0206B002825D0A06A6A
:10AE6000002802D010E025631FE02169E06A401845
:10AE7000401EFDF7A9FB61690246884200D90A46D7
:10AE8000E169606A03F032FC276B0020002F0CD9C7
:10AE9000A66AE36931185A5C2249095C8A4201D0EA
:10AEA000256202E0401CB842F4D3236BA06AC118AB
:10AEB000A162E06AC61AE6622269606942438A4278
:10AEC00003D1A562616A08186062154908200A1852
:10AED0001578284655782D0228439578D2782D0488
:10AEE000284312061043C01A0872020A4A72020C62
:10AEF000000E8A72C872002B0BD0002E02D0207870
:10AF0000052806D1206A002804D00020087300F02C
:10AF100085FAF8BD0120F9E700F0FF1F04020100E7
:10AF2000BBF6FF1F620E0020F8B5384D0024A9695A
:10AF3000686A374E884207D336482C63007800F0A1
:10AF40008BFA347300F06AFAFFF76AFC002800D12C
:10AF50002C63296B0020002909D92F4FEB69AA6ABD
:10AF6000395C12189954296B401C8842F7D3A86A9F
:10AF70004018A862EA6A521AEA62002924D0002A1C
:10AF800014D1002812D029694018401EFDF71CFB7F
:10AF900069690746884200D90F463A46E969686AF6
:10AFA00003F014FCAC62686AC0190CE06A69296994
:10AFB0005143814208D1E969686A03F007FCAC6239
:10AFC0006969686A40186862082031180A78104672
:10AFD0004A78120210438A78C9781204104309068D
:10AFE0000843296B401A3072020A7272020C000E7A
:10AFF000B272F072002908D0E86A002802D02878DE
:10B00000052802D1347300F009FAF8BD00F0FF1FE3
:10B01000BBF6FF1F04020100620E002010B5FFF70F
:10B020006BFC002833D0FFF7FBFB00282FD018481B
:10B030000021017006224270164B81701A7AD201EB
:10B04000C270017141718171C1710821124A196385
:10B0500053181C7820465C78240220439C78DB78C7
:10B06000240420431B06184308280ED90B480B0A5A
:10B07000017243720B0C83720B0EC3721172080AB9
:10B080005072080C9072080ED072FFF75DFC10BD74
:10B09000620E002000F0FF1FBBF6FF1F9CF6FF1F93
:10B0A00010B5FFF729FC002830D0FFF7B9FB0028C6
:10B0B0002CD01748032101700021164B41701A7AD9
:10B0C000D2018270C1700421134A08201963131839
:10B0D0001C7820465C78240220439C78DB7824048A
:10B0E00020431B06184304280ED90C480B0A017292
:10B0F00043720B0C83720B0EC3721172080A5072EA
:10B10000080C9072080ED072FFF71EFC10BD0000F4
:10B11000620E002000F0FF1FBBF6FF1F9CF6FF1F12
:10B1200070B5374D102029180A78364C10464A78E9
:10B13000354E120210438A78C9781204104309066A
:10B14000084300BA010A207D090201430020716210
:10B15000B062E07B2F280AD004DC28280BD02A28F4
:10B1600025D104E0A82810D0AA2820D109E0FFF7B3
:10B1700057FB002841D0E07DA17D0002084341BA81
:10B1800015E0FFF74DFB002837D0142029180A7866
:10B1900010464A78120210438A78C9781204104384
:10B1A0000906084300BA010A207E090201433069FA
:10B1B0000125414308202218F1621378134E1846E6
:10B1C00053781B0218439378D2781B041843120655
:10B1D000104300280DD0884210D0207B000604D5F3
:10B1E0000B4880210078084301E00A48007800F00D
:10B1F00033F9357300F012F9002070BD012070BDE5
:10B200009DF6FF1F9CF6FF1F00F0FF1FBBF6FF1F00
:10B21000030201000402010010B5FFF76DFB0028D6
:10B220001AD0FFF7FDFA002816D00C4A0C49906995
:10B23000401E030E0B70030C4B70030A8B70C8701A
:10B240001069030E0B71030C4B71030A8B71C871EB
:10B2500008201063FFF778FB10BD000000F0FF1F0F
:10B26000620E002010B5FFF747FB00283ED0FFF725
:10B27000D7FA00283AD01E48002101704170817031
:10B2800008211C4AC17091690B0E03710B0C4371AC
:10B290000B0A8371C1710221017211690B0C437297
:10B2A0000B0A8372C1720C211163134A0820131810
:10B2B0001C7820465C78240220439C78DB782404A8
:10B2C00020431B0618430C280ED90C480B0A0172A8
:10B2D00043720B0C83720B0EC3721172080A507208
:10B2E000080C9072080ED072FFF72EFB10BD000004
:10B2F000620E002000F0FF1FBBF6FF1F9CF6FF1F31
:10B3000070B5FFF7F9FA00282ED01C4870210170A3
:10B3100000211B4B41705A68DD681446AC4306D0CF
:10B3200006248470282404734173DA600AE0002A3A
:10B330001BD0144A127B002A1DD0052282702022C5
:10B3400002734173C1700171417181710A22C2712E
:10B35000017241728172C1728173C173017441744F
:10B3600012201863FFF7F0FA70BD022282703A22B1
:10B3700002734173E6E781700173E2E7620E002019
:10B3800000F0FF1FBBF6FF1F0549002008600549BC
:10B39000087048708870C8700349087001207047B1
:10B3A00080F6FF1FBBF6FF1F00F0FF1F10B5FFF771
:10B3B000A3FA002829D015482022027000214170EC
:10B3C000C177134C0320226320701248802100783B
:10B3D00008430E4900F070FD0F4908200A18137841
:10B3E000184653781B0218439378D2781B041843ED
:10B3F00012061043226B801A0872020A4A72020C6B
:10B400008A72000EC8720120087310BD620E0020FF
:10B4100000F0FF1F03020100BBF6FF1F10B50A4832
:10B420000A49020A08704A70020C8A70000EC8703D
:10B430000748802100780D220843044900F03CFDB4
:10B4400004490520087010BD55534253BBF6FF1F39
:10B450000302010000F0FF1F10B5044600F018FDC4
:10B46000200605D52107090F01200004884001E0CE
:10B470000120A04002490A681043086010BD000086
:10B480007CF6FF1F154B10B5082019180A78144CCC
:10B4900010464A78120210438A78C9781204104381
:10B4A0000906084310D0187B000604D50D488021FA
:10B4B0000078084301E00C480078FFF7CDFF012039
:10B4C0002073FFF7ABFF10BDFFF7AAF90028FAD0F1
:10B4D00000202073FFF7A2FF10BD00009CF6FF1FA5
:10B4E000BBF6FF1F03020100040201000E480068C2
:10B4F000002819D00D4E0E4D00273046314603F07E
:10B500004FFB03F039FB0446400702D52046FEF707
:10B5100067FA2007F1D568680028EED1012068603D
:10B52000FEF70AFA6F60E8E724020100FFFF00005F
:10B5300060F5FF1F05480068002807D0044C20462E
:10B54000214603F02DFB03F017FBF8E7240201006E
:10B55000FFFF0000074C084F002220462146BC4652
:10B5600000DF064FBC4600DFC007F4D0FEF7A6FEA2
:10B57000F1E70000FFFF0000DDCC000029CC000057
:10B580000A4D0B4F002228462946BC4600DF094FD2
:10B59000BC4600DF0446400701D5FEF7FDFA600611
:10B5A000EFD5FEF7B5FFFEF7FBFAEAE7FFFF000075
:10B5B000DDCC000029CC000006480068002809D036
:10B5C000054C2046214603F0EBFA03F0D5FAFEF7CE
:10B5D000EBFBF6E724020100FFFF00000B480068C8
:10B5E000002812D00A4D2846294603F0D9FA03F064
:10B5F000C3FA0446000702D52046FEF76FFE600737
:10B60000F1D52046FEF70AFFEDE700002402010015
:10B61000FFFF00000B480068002812D00A4D2846A2
:10B62000294603F0BDFA03F0A7FA0446400702D505
:10B630000020FFF7F5F92007F1D50020FFF7C6F944
:10B64000EDE7000024020100FFFF0000F0B41C4CF5
:10B6500000251C4825600068002807D01D4F0023E6
:10B66000194A1A491A48BC4600DF20601A4E0024C5
:10B670000020A50070511948405900280BD01849E6
:10B68000E300CA5859188988124F0902891C0023FF
:10B69000BC4600DF7051641C0F2CE9D9114C00200E
:10B6A000206008484068002807D00A4F00230E4A4F
:10B6B0000E490F48BC4600DF2060F0BC7047000018
:10B6C00098F6FF1F28020100B00F002003E00000E1
:10B6D00081B50000BDD50000381600203002010001
:10B6E0007002010084F6FF1F280F0020028800006E
:10B6F00055B50000F0B50646002084463007840E9C
:10B700002448E300181886464088002E07D1214AB5
:10B71000D25C9206120F0D2A01D10122944600221A
:10B72000002807D91C4FA501EF19BD5C8D54521C90
:10B730008242FAD3194A174D925D76467280184AB2
:10B7400064081268EF5C1646E640F6077F06F60FBF
:10B75000FF0FBE420AD16646002E02D08979002929
:10B760000BD00121A1400E4E4A4032600C490968BD
:10B77000E140C90706D0C82105E009495208520036
:10B780000A60F3E78821E95406490A7DDF231A405D
:10B790000A75F0BD00080020A008002058F6FF1F21
:10B7A00050F6FF1F8020074010B5FFF76DF810BD61
:10B7B00070B55349534D0878534CC00682B0C00E43
:10B7C00002D001287AD180E05048CE7802784D48E6
:10B7D000C17820308078082E70D233007B441B79EA
:10B7E000DB189F4484031254848408314848206045
:10B7F000122001906FE0002A79D0002903D045483B
:10B8000020600A203FE04448FAE7002A01D10129DC
:10B810006DD0002916D041490091002100280CD09C
:10B82000009A1378002B05D0D37896781B02334307
:10B830009A180092491C8842F2D100980178002998
:10B8400055D01BE03649E7E7002A50D000291CD02C
:10B8500034490091002100280CD0009A1378002B65
:10B8600005D0D37896781B0233439A180092491C6E
:10B870008842F2D100980178002938D02060C17840
:10B88000827808021043019025E02749E1E7274923
:10B890000091032813D00021002808D0009A1378C3
:10B8A000002B01D09A180092491C8842F6D10098CA
:10B8B000017800291BD020600078E4E717E000F051
:10B8C00087FC206000F076FCDDE701A9684600F007
:10B8D00031F800280CD0A188019881420CD980B29F
:10B8E0001349A0800978491E084203D004E00020D3
:10B8F00002B070BD01202871012002B070BD0000AF
:10B9000090F6FF1F70F6FF1F88F6FF1FED01010084
:10B91000160301002903010028030100A50301000B
:10B920002A030100A7030100A6030100A8030100E8
:10B93000F001010030B4184A184B174CD278184D5A
:10B9400024791B78212A02D0222A21D116E09C4298
:10B950001ED1144A1378144A002B127801D1012AFF
:10B9600016D0002A08D0114A02601046104A1288E8
:10B9700080182860092007E00E4AF5E79C4207D1AD
:10B980000D4828600D480088086030BC01207047D1
:10B9900030BC00207047000090F6FF1FF10101004D
:10B9A00088F6FF1FED01010073F6FF1FA5030100DC
:10B9B000140301002A030100F00201001203010038
:10B9C00070B41D481D4B0078C106C90E09D01D4D2D
:10B9D00019481B4C6A780079012905D0022928D121
:10B9E00009E01948186021E0002A22D0A97888428D
:10B9F0001FD2002016E08F210840010605D506075A
:10BA0000360F01210904B14001E001218140002AE3
:10BA100001D100070DD1A86808420AD0E8680840A3
:10BA200000D001202070000A60701C6070BC0120F2
:10BA3000704770BC0020704790F6FF1F88F6FF1F0C
:10BA4000A00D002070F6FF1F76F6FF1F70B5274B84
:10BA5000024618782549C0064988254EC00E04D0F4
:10BA600001282BD0022829D111E0012926D1022456
:10BA7000002A05D0012000F01EFAF088204304E0DF
:10BA8000002000F018FAF088A043F0802CE01D7927
:10BA90008F200540280605D52807000F012424041F
:10BAA000844001E00124AC407078002806D02807CB
:10BAB00004D0B068204201D0002901D0002070BD20
:10BAC000002A05D0284600F0E3F9F06820430AE098
:10BAD0003069204208D12846FEF7E8F82846FFF7EB
:10BAE00063FEF068A043F060012070BD90F6FF1F78
:10BAF00070F6FF1FF8B55A4800250178C906C90E2F
:10BB000070D18278012100270904564E002A7FD087
:10BB1000554A13783246D278002B01D1012A61D0E0
:10BB2000002A0BD0514C2278002A70D0607802286D
:10BB300006D0042847D0052864D146E04C4CF2E7F3
:10BB4000474861798078814238D1707020794949BD
:10BB5000B0700B880020002B05D9474A00211154F2
:10BB6000401C9842FBD301270120B168B84008422D
:10BB700002D03846FEF7F0F801200004B168B84062
:10BB8000084204D0384680210843FEF7E5F87F1CC0
:10BB9000102FE9D33948B0600020F060306137469B
:10BBA0000120FEF7A1F8E0794006F88802D50121CE
:10BBB000084301E040084000F88023E0E078A178E5
:10BBC000000208431FE0E5781CE0002D1AD1A77899
:10BBD0008F200740380607D53907090F01200004D8
:10BBE000884003E038E013E00120B840B168014329
:10BBF0002046B160FEF768F83846FEF7C1F83846CF
:10BC000000F008F920780419207800288ED11EE071
:10BC1000777001250C460120B168A840084202D087
:10BC20002846FEF799F82046B168A840084204D09B
:10BC3000284680210843FEF78FF86D1C102DEAD3AB
:10BC4000F7600E483761B0600020FEF74DF80448F9
:10BC500071788078884201D00020F8BD0120F8BDBD
:10BC600090F6FF1F70F6FF1FED010100A503010014
:10BC70002A030100EE01010064F6FF1F010001002C
:10BC8000F0B585B00027444A0397019710783E46E7
:10BC9000C006C00E01287BD140494878002874D0E6
:10BCA000002002903E4803780846C078002B01D15E
:10BCB00001286DD000280BD03A4C2078002863D0A2
:10BCC0006078022806D004280ED0052857D11DE040
:10BCD000354CF2E731486179407881424FD0E078C5
:10BCE000A178000208434BE0A778E6780020019095
:10BCF00029480179B94242D18078B0423FD1012030
:10BD000002902A48C15D0391C65538E0224908795E
:10BD1000B84234D1A0788F221040009000060098DD
:10BD200004D50007000F01252D0400E00125854002
:10BD30008878B04213D11948816829438160C1686D
:10BD4000A943C1602046FDF7BFFF0098FEF718F831
:10BD5000009800F05FF80198284301900FE00398E5
:10BD600086420CD10198284209D10C488168A94328
:10BD70008160C168A943C1600098FDF7EDFF20789C
:10BD80000419207800289BD1029805B0F0BDFFE788
:10BD9000002005B0F0BD000090F6FF1F70F6FF1FF9
:10BDA000ED010100A50301002A03010064F6FF1F55
:10BDB0000120114A002183009B181970401C102893
:10BDC000F9D30E48402343800D4B4360C8230370D2
:10BDD00001720C4B4361C1610D2010700B4A0A487F
:10BDE00010600B48027D02231A430275FF22027085
:10BDF0000272027301767047C020074000080020DD
:10BE0000A0080020200900205555555550F6FF1F69
:10BE100080200740F0B4154B0107070600250126D6
:10BE2000134C090F1A68002F0EDA4800401C864098
:10BE300032431A600F480A02121880324801001972
:10BE4000C5614261F0BC70474700BE40B2431A6012
:10BE5000094A135C4A01101943800B02054959181D
:10BE600041608821A1540572F0BC704750F6FF1F55
:10BE700000080020A008002058F6FF1F002903D169
:10BE800040060249400E08767047000080200740B7
:10BE90000007810E0348081801780222114301703F
:10BEA00070470000C020074010B5002211468020D6
:10BEB00000F002F810BD7047F0B40007800E801C3F
:10BEC000104FC600F3195A800023002A07D90E4DDF
:10BED00084016419CD5CE5545B1C9342FAD30B4B8F
:10BEE000410818680446CC40E40701D0882400E0EB
:10BEF000C824BC5501248C4060401860F0BC10463A
:10BF00007047000000080020A008002050F6FF1F26
:10BF100001200249000608607047000000E100E0CF
:10BF200010B4002A06DA52005208D21DD308DB00F2
:10BF3000102203E0D21C93089B000C22002B02D09D
:10BF40009C188C4202D910BC012070478218836073
:10BF5000411802604160C91AD018884202D81060A6
:10BF60000246F9E70020106010BC7047B0B50446E7
:10BF700001F064FB002804D0034F0249BC4620684E
:10BF800000DFB0BDFFFF000015D10000B0B50446D2
:10BF900001F054FB002803D0024F2068BC4600DFAC
:10BFA000B0BD000069D00000F0B40026354633462D
:10BFB000002919D904782746303F092F01D83023AA
:10BFC0000AE02746413F052F01D8372304E02746E2
:10BFD000613F052F00D85723564334196D1CE61ACC
:10BFE000401CEDB28D42E5D33046F0BC70470000F6
:10BFF00010B5BB2240210A48FCF7CAF908480024C2
:10C00000046444648464C464BB2240210548FCF792
:10C01000BFF90448046444648464C46410BD00002F
:10C02000E40500209405002002488079002800D013
:10C0300001207047F8F5FF1F70B510490E4C0868D5
:10C0400049680F4D6160206028680E4EB04209D1EA
:10C05000A888072801D2AA8800E0072208490648D4
:10C06000FCF738F907202660A0800020E0712868DE
:10C07000B04200D1A88870BDF8F5FF1F880001000C
:10C0800000FC0100646C766B70470000F8B518493D
:10C09000184A00281AD013464C3378CB0F4678C77D
:10C0A000556E146ED36D926E8D614C610B61124CA6
:10C0B000CA61124E85007059FCF748F91049C860F2
:10C0C00010487159846004618165F8BD14466C3470
:10C0D000F0CCF0C113466C339D695C691039D26FA6
:10C0E000DB698D614C61CB610A61074CE1E70000BF
:10C0F000C0F2FF1FA0F50000ECEF0000A0ED000073
:10C10000D0F2FF1F40F4FF1FECED0000012070474C
:10C11000F7B5264982B04C6A1546216B0F46FCF7ED
:10C1200053FA784306462A46039901F08FFA01280C
:10C1300032D01F4F216A78682A460818039901F007
:10C140003BFE00282ED0786840197860236B786811
:10C1500083421ED8206A0090002114480191406952
:10C16000216982192046143001F00AFB002816D0FC
:10C17000206B7968081A78607868002809D0786898
:10C180007A68291A03980918206A01F015FE002818
:10C1900008D0002005B0F0BD052005B0F0BD092095
:10C1A00005B0F0BD032005B0F0BD0000C4010100E2
:10C1B000F0F5FF1F10B50348FCF7C8F84000801CDD
:10C1C000C0B210BD64020020004870476002002029
:10C1D0000048704795020020024800698007C00FA0
:10C1E0007047000040F00F401448816B1F2252023C
:10C1F0001143816312498015086108610861114A81
:10C2000050608860104810214160416041600368BF
:10C2100004221343036043690B43436143690B43A7
:10C22000436143690B4343614169114341610748DD
:10C23000416902229143416170470000008004403F
:10C2400000C0044000A00440C0F00F4040F00F4088
:10C2500010220349012801D04A6070478A60704764
:10C26000C0F00F4010220349012801D04A607047F6
:10C270008A607047C0F00F4010220349012801D0A6
:10C280004A6070478A607047C0F00F40084FBC4654
:10C2900000DF0849084C4861084F00222146012070
:10C2A000BC4600DF02F06AF9002000F00FF9F3E766
:10C2B0003DD6000030F6FF1FFFFF0000DDCC000080
:10C2C000F0B583B05D4800F0C5FB102204215C4846
:10C2D000FFF76AFE5B4E0446102204213068FFF728
:10C2E00063FE564D010428682143574F484078604B
:10C2F000102208215548FFF757FE7968544A4140FB
:10C3000079600191242111705170917018210020E1
:10C31000D17004214A4B1B5C5354491C401CC0B2D1
:10C32000C9B20428F6D30020464B1B681B5C53544B
:10C33000491C401CC0B2C9B20428F5D3454F0023A4
:10C340000322D21AD20000925A005218404C002008
:10C35000964612199446394A84001459009A754633
:10C36000D440E2B2C4002E19394D401C751916098B
:10C370001207BE5D120F2E706444BA5CC0B26270C8
:10C380000428E8D35B1CDBB2042BD9D32031CDB217
:10C390002F4C00210320401AC2000198D040C2B2A5
:10C3A0004800401900191609BE5D431C06701007AD
:10C3B000000F491C385CC9B218700429EAD308354B
:10C3C000E9B2002666543546201DFBF7BFFFC3B215
:10C3D0005800214A811C11700321517002215B0019
:10C3E000002B07D9EB0722D04B19D6546D1CEDB2A8
:10C3F000A842F7D84018C0B216540021104B174A73
:10C4000008465C5C1454401C491CC9B2C0B20429E3
:10C41000F7D30C4B00211C68645C1454401C491C6D
:10C42000C9B2C0B20429F6D3165403B0F0BD6B08EC
:10C430001B191B794F19D355D8E700005002002073
:10C44000C40101009000010000F6FF1FC8010100B7
:10C4500060020020940001009502002019020020D3
:10C460000023002A0AD930B4DD000C46EC40C45445
:10C470005B1CDBB29342F7D330BC704770470000BF
:10C4800002468800064910B540184038C06B0028A5
:10C4900004D0114600F0C0FE00F0AEFE10BD00005A
:10C4A000BC00002080B5FBF757FE074F034A044944
:10C4B0000448BC4600DF002080BD000060FCFF1F78
:10C4C0000AE4000051C50000F9D30000012204492C
:10C4D00000280A7001D0022000E00120C8707047D7
:10C4E000D0F5FF1F0122044900288A7001D00220E4
:10C4F00000E0012048717047D0F5FF1F90B4044858
:10C50000044F81688020BC4600DF90BC704700006B
:10C51000D0F5FF1F81CC000090B40448044F81681F
:10C520000820BC4600DF90BC70470000D0F5FF1F1C
:10C5300081CC000090B40448044F81680420BC46BC
:10C5400000DF90BC70470000D0F5FF1F81CC0000D9
:10C5500084B00120029001900090002001260390F9
:10C56000FFF76AFD944F60219248BC4600DF934F6D
:10C57000BC4600DF924DA860FFF736FE0120FFF7B2
:10C5800071FE0120FFF764FE0120FFF775FE00F049
:10C590005FFAFFF795FE02F06DF8002001F062FFF0
:10C5A0000020E87128610120894FA8710B24002325
:10C5B000844A85498548BC4600DF022001F087FD9A
:10C5C000854F00228349BF20BC4600DF834FBC4615
:10C5D00000DF054600070CD5FFF726FD002802D036
:10C5E000022001F074FD76480021C1710B24062160
:10C5F0008171280605D5002171480C46C1710621BC
:10C600008171680702D5022001F061FDE8060FD5AF
:10C61000032001F05CFD002001F024FF0020FFF763
:10C6200021FE0020FFF714FE0020FFF725FEFEE7A5
:10C63000A80602D5032001F04AFDE80758D060495A
:10C64000C879012807D10869002802D0401E086176
:10C6500001D10020C8715A488079072848D20300C8
:10C660007B441B79DB189F44431843234303090091
:10C670005348C17900293BD1817139E05048C179D3
:10C68000002935D1002C01D0641E31D101218171E6
:10C6900021245349002008602AE0002C01D0641EA8
:10C6A00026D1012001F0DEFE4549032088711FE0FC
:10C6B00001F0D0FE00281BD00398002810D1444F71
:10C6C0000023484A48494948BC4600DF0023484AFD
:10C6D00048494948BC4600DF3949C86001200390F9
:10C6E00037480221817100F0C1F93D480121016004
:10C6F000A80700D464E7002E0AD0022E0ED0FFF760
:10C700006BFD00280ED10026012001F0D7FC09E0C6
:10C71000FFF762FD012805D1022603E0002001F0A9
:10C72000CDFC0126264D2878002813D0E878012872
:10C7300001D002280ED10299002902D000200290D7
:10C7400005E001210291012801D100202870029802
:10C75000FFF788FDA878002813D06879012801D058
:10C7600002280ED10099002902D00020009005E097
:10C7700001210091012801D10020A8700098FFF745
:10C780007BFD68780028B5D02879012801D00228DF
:10C79000B0D10199002902D00020019005E00121CB
:10C7A0000191012801D1002068700198FFF750FD28
:10C7B00006E7000040FDFF1F45CE00003DD600000B
:10C7C000D0F5FF1F90F9FF1F0B880000DDE000008F
:10C7D000BDD50000FFFF0000DDCC000029CC00002B
:10C7E00004F0FF1F18FAFF1F0F1001008DC2000098
:10C7F00028FBFF1F0138010081D60000FEE7FEE79D
:10C8000007480168074841610021816107210161F2
:10C810000548016AFF221206114301624017704762
:10C820006CFE000000E000E000ED00E070477047A3
:10C83000FFB583B0044604980E9D20180090002098
:10C8400028607E487E4EC0781F4600281CD07B4959
:10C850000020C8707B487C4902781846FBF728FE08
:10C86000701E00782968C719081828607348717805
:10C8700040683278000C0902000411430843711E1D
:10C88000097841186D484160009884427ED0207834
:10C890000A280CD00D280AD03A2878D067490978A0
:10C8A000002975D0C10674D50007000F8BE0654ADA
:10C8B0000021137802939C465B1D0846002B0DD97E
:10C8C00063465B1D9C46135C401C5918C0B2C9B23C
:10C8D0008445F8D8002901D0042699E0574881788A
:10C8E00000296CD1012181707078317800020843F1
:10C8F00040BA3070010A717001905248C078002827
:10C9000004D001282DD004287CD12CE025224D49CB
:10C910004E48FBF7CDFD494801994068020C1204CE
:10C920000A43824204D0012044490226C8706FE0C5
:10C9300045493846029AFBF7BBFD42482968007812
:10C940003E4AC71908182860506871783378000C7F
:10C9500009020004194308433A4909784018506015
:10C9600050E0012654E029680C98FF22411A38460D
:10C97000FBF70EFD314928684A68121A0D980260CB
:10C980000098021B0498821A059803E03FE00DE02E
:10C9900026E015E002602B48427903791002184323
:10C9A00040BA00044860022007B0F0BD25212548A8
:10C9B000FBF713FD2149002008704870887021E0C2
:10C9C0000007000F093001071C481E4A4078090F74
:10C9D000135C194311541949401C487000200FE0A2
:10C9E0001649497825290AD2C20602D50007000F48
:10C9F00002E00007000F0930124A000150540120E4
:10CA00000E4908700098641C844200D03FE700265D
:10CA100029680C98FF22411A3846FBF7B9FC0748F1
:10CA200029684068411A0D9801600098011B04981C
:10CA3000411A05980160304607B0F0BD38F0FF1F7D
:10CA4000C9F6FF1FC8F6FF1FCCF6FF1FEDF6FF1F4C
:10CA50007047000004490A6A0260CA694260896935
:10CA600081600021C160704740800440084930B4B3
:10CA70000A460C323CCA05483CC00B6ACA691038E9
:10CA8000496A43610261816130BC704714F9FF1F3C
:10CA900020F6000010B525210748FBF79EFC252154
:10CAA0000648FBF79AFC064800214160017041707E
:10CAB0008170C17010BD0000C8F6FF1FEDF6FF1FAA
:10CAC00038F0FF1F0146EFF31080C207D20F72B695
:10CAD0000868002801D003680B60002A00D162B604
:10CAE00070470000002813D070B50D4609490A4C64
:10CAF000884204D222680146104600F0ADFB20684F
:10CB00004570064800F01BF902216060417070BD5D
:10CB100070470000FFFF0000BCF5FF1F30F9FF1F4A
:10CB200070470000F0B4284FF868002849D0B88A50
:10CB3000401EB88200263EE08168002908D0426885
:10CB40004A604168002902D082688A604660866037
:10CB50001E4A00251178022903D0012901D003299A
:10CB600000D10125837800E00A465168002902D0EF
:10CB70008C789C42F8D241605060002D04D000298E
:10CB800000D08860826000E08660818AB982417846
:10CB9000042904D10E49C28A0988511881820121D1
:10CBA000417020221154C168F960C168002901D088
:10CBB0000F61C6600661B88A002802D1F8680028B3
:10CBC000BAD1F0BC7047000048F9FF1F30F9FF1FD1
:10CBD000C4F5FF1FF8B502260E4D044600280CD000
:10CBE0002868A1788278012791420CD900F082FB55
:10CBF000286847706C606670F8BD074800F09FF8C1
:10CC000068604670F8BD67702146034800F050FB2D
:10CC1000F8BD0000BCF5FF1F30F9FF1F10B5032160
:10CC2000FFF760FF10BD000001480068408B7047AF
:10CC3000BCF5FF1F10B50446008B084320836278C3
:10CC4000618B062A15D0052A12D10A4610420FD050
:10CC50000240628388432083204600F081FB01204C
:10CC600060700221202001552146044800F020FB7D
:10CC700010BD0A468243EDD010BD000030F9FF1F01
:10CC80000246880070B5144940184038C46B002C27
:10CC90001DD0208B104320836178658B062917D027
:10CCA000052914D12946084211D001406183A843C7
:10CCB0002083204600F054FB208B0221A8432083D0
:10CCC00001206070202001552046FFF783FF70BDD2
:10CCD00029468143EBD070BDBC00002010B50C4646
:10CCE0000C49002A0B68198B08D002468A4301D0F0
:10CCF000062109E081431983022010BD0A46024043
:10CD000001D05A83F6E7052158832046FFF7EAFE53
:10CD1000012010BDBCF5FF1F814202D342688A4248
:10CD200001D801207047EFF31082D207D20F72B6FC
:10CD300003680B60016000D162B6002070470146B5
:10CD40004068002342684A600A78022A05D0012A16
:10CD500003D0032A01D0436070474268002A01D003
:10CD6000916043608360704770B5044615460020AB
:10CD7000207001226270A1706060A060E06020619C
:10CD8000A082E0822083234660832033187058708D
:10CD9000608C002803D10448FFF794FEA062294666
:10CDA000204600F005F870BD00000020704700002C
:10CDB00030B4428C920803D10F4A12881204920CAC
:10CDC000836A92009B185A0700D51B1F403B012223
:10CDD0001206DA630022996314469500521C5C51D6
:10CDE0000E2AFAD3C2691A624362C162806A034999
:10CDF000016030BC7047000068FE0000A52E5AE2BA
:10CE00000349044A0968C8821288801888827047DA
:10CE1000BCF5FF1FC4F5FF1F0848016808488A8A4F
:10CE20000088CB8A101AD21880B28A82010404D4F6
:10CE300010B50421FFF756FE10BD7047BCF5FF1F6B
:10CE4000C4F5FF1F0122027000224270426002817D
:10CE500042818281024A89038918090CC181704785
:10CE60000000FCFFF8B50446406800260F46002885
:10CE700005D06078022818D0A08900282FD0A0897A
:10CE8000E18988423ED2208980000019076172B68C
:10CE9000A089401CA08162B62089401C80B22081FC
:10CEA000E189884200D12681F8BD66702046FFF7EF
:10CEB00046FF0546203006702189E8698900091976
:10CEC000086172B6A089401CA08162B62089401C0E
:10CED00080B22081E18988420AD1268108E020467B
:10CEE000FFF72DFF0546C06904210760202041554A
:10CEF00001206870284600F033FA2946034800F004
:10CF0000D7F9F8BD0320FFF779FCF8BD30F9FF1F12
:10CF1000F8B517460C46426800268189234D002A41
:10CF200001D000290BD0C38999422BD1002F18D0F2
:10CF30001E49002A096816D000F0BAF91AE0FFF776
:10CF4000FEFE0746C069042104602020C155384612
:10CF500000F006FA3846FFF73DFE286820300670DC
:10CF600021E00120F8BD416029684E602968886091
:10CF70000121417028680821C4613846FFF7B2FDDD
:10CF80000120F8BD0189890009180C6172B68189F8
:10CF9000491C818162B60189491C89B20181C2891B
:10CFA000914200D106810020F8BD0000BCF5FF1FB2
:10CFB000F7B50446808900262A4F0D46002834D054
:10CFC000608980000019006908606089401C80B297
:10CFD0006081E189884200D16681606800281CD0A8
:10CFE0002046FFF7ACFE0546203006702189E8692F
:10CFF0008900091908612089401C80B22081E189DB
:10D00000884200D12681284600F0AAF92846FFF779
:10D01000E1FD38682030067004E072B6A089401E39
:10D02000A08162B6002003B0F0BD0298002808D0AD
:10D030000C4960680968002806D0204600F038F9DD
:10D0400007E0012003B0F0BD6160386846603868D1
:10D05000846008210298FFF745FD3868C56101200A
:10D0600003B0F0BDBCF5FF1FF8B5044640880028AA
:10D0700004D0264EA1683268914201D0FF20F8BD4D
:10D08000401E0004000C60803ED1316860788870DA
:10D0900061680127002928D02046FFF750FE054689
:10D0A000052120300170284600F05AF96780A560FC
:10D0B000A87860701648316840688A788078824223
:10D0C00001D328460AE0124800F0F2F82946104839
:10D0D00000F0EEF8306847706F700020FFF77AFDBF
:10D0E00031680020203108700EE0094949688A78CB
:10D0F0003168824208D9064800F0DAF83068477093
:10D100000020FFF767FDEBE70020F8BDBCF5FF1F2F
:10D1100030F9FF1F70B50E46194D04464188286846
:10D12000002907D0A168814208D16088401C608036
:10D13000002070BDA06080786070F6E7002E0FD0F0
:10D1400062788078824203D28870A06800F0DCF8B0
:10D150006068002806D02046296800F0A9F808E099
:10D16000012070BD28686060296800204860286838
:10D17000846009213046FFF7B5FC012070BD000036
:10D18000BCF5FF1F70B51948012102685170006895
:10D1900000F0B0F8164DA8786C78002816D0E000A2
:10D1A000411948680278002A17D0012A1AD000F0E5
:10D1B000EDF8E878641C844200D1002472B6A878A7
:10D1C000401E0006000EA87062B6E8D16C700948D7
:10D1D000FFF7B5FD00F008F970BD098989B2FFF7C6
:10D1E00029FDE6E78968FFF73DFEE2E7BCF5FF1F92
:10D1F0009800002030F9FF1F05480178002902D06F
:10D2000001214170704701200249000748607047C2
:10D21000B4F5FF1F00ED00E0F8B50E4EF778B41C32
:10D22000354672B6B278BA4207D2521C22702A78BA
:10D23000531CBB4200D100232B7062B6F37893429B
:10D2400004D9D200921991605060F8BD0220FFF716
:10D25000D5FAF8BD9800002010B4144AD368002B0A
:10D260001BD013469B8A8B4203D307E0D468002C63
:10D2700013D0D268948AE3188B42F7D3D468C46081
:10D28000D0600261C468002C00D02061591A8182EC
:10D29000908A401A908210BC70470024C460D0600D
:10D2A000C91A02619182848210BC704748F9FF1F3D
:10D2B00030B402780023022A03D0012A01D0032AC5
:10D2C00000D101238C7800E010464268002A02D089
:10D2D0009578A542F8D24A604160002B05D0002A1B
:10D2E00000D09160886030BC70470020886030BCFE
:10D2F0007047000003494A6842600022826048602B
:10D300007047000030F9FF1F10B583680146002BFD
:10D3100004D01A781846002A05D008E04878012879
:10D320001AD10E4803E080680278002AFBD0002B57
:10D3300007D04A685A604A68002A0BD08B6893600D
:10D3400008E0064A53688B4202D14B68536001E003
:10D350001A00F7D1FFF7ACFF10BD000030F9FF1F36
:10D3600010B4016900290FD0C268CA60C3680022E6
:10D37000002B07D08B8A848A1B198B82C3681961A2
:10D38000C26000E08A82026110BC704710B541683B
:10D3900000290ED0FFF7D3FC0446FFF7E1FF012080
:10D3A000607003212020015521460448FFF780FFCB
:10D3B00010BD4188491C418010BD000030F9FF1F9D
:10D3C00007480068416A806A814203D300680549C2
:10D3D000884204D010B50120FFF710FA10BD704745
:10D3E000BCF5FF1FA52E5AE2024948600221417098
:10D3F00070470000BCF5FF1FF7B53A4900200988C7
:10D4000014460646002905D9374A8300401CD650E9
:10D410008842FAD33548302201883548FEF780FD2E
:10D42000344801210088C90780B242183248016897
:10D430003248FEF775FD32480822018831480068FD
:10D44000FEF76EFD304FFF25FD707E842F4A0021D0
:10D450003846FFF789FC2E480421017046602D48AC
:10D460000170C66006618682786A2030FAF76EFE27
:10D4700029482B49076002207870284806704670BA
:10D480000978C170FFF792FC2648016A2A0411430B
:10D490000162C169026A5202920E92061143C16191
:10D4A000FFF7AEF920490028086012DB82081F4907
:10D4B000920051180A688307DB0E9D402A430A60D8
:10D4C000C206D20E012191404011194A80008018F5
:10D4D0000160002322460199009800F06FF803B024
:10D4E000F0BD000064FE0000BC0000207CFE0000D7
:10D4F000E0FDFF1F68FE000080FE0000000000202D
:10D5000086FE0000E4F5FF1F60F9FF1FFFC7000063
:10D5100030F9FF1F48F9FF1FBCF5FF1F98000020DE
:10D5200084FE000000ED00E0B8F5FF1F00E400E01D
:10D5300000E100E010B50B4801210268517000685D
:10D54000FFF7D8FEFFF7ECFA07480168491C0160B5
:10D55000FFF7E8FA00F012F80448FFF7F0FBFFF7D6
:10D5600043FF10BDBCF5FF1FC4F5FF1F30F9FF1FBF
:10D570000148006870470000C4F5FF1F70B50D4DED
:10D580002868002815D0A8880B4E401EA8800AE005
:10D59000E088FFF74CF9A088A88020682860214621
:10D5A0003068FFF7B9FBA888002802D12C68002C4E
:10D5B000EED170BDC8F5FF1FE4F5FF1FFFB50806EB
:10D5C00081B01E4617460C46000E00D14C1C174871
:10D5D000FFF778FA050026D02002000CAF626884BD
:10D5E000EE61E1B22846019AFFF7BEFB1048012424
:10D5F0000188104A012908D3A00080184038C06B68
:10D60000002803D0641C8C42F6D90024A0008018A6
:10D610004038C563EC702846FFF7DCFA064800681E
:10D6200020300470204605B0F0BD0000E0FDFF1F73
:10D6300064FE0000BC000020BCF5FF1F024800682B
:10D64000002800D0C0787047BCF5FF1F002070474D
:10D65000034A11685268426001600120704700006F
:10D66000A0F5FF1F90B4054F002211460248BC46AA
:10D6700000DF90BC0120704740FDFF1F11CF00006C
:10D68000294C84B001252A4F002202A92748BC4614
:10D6900000DF002819D102980006000E06D00128EC
:10D6A00007D0022808D003280FD108E000F03AFD87
:10D6B0000BE000F0EFFD08E000F08AFD05E06846B1
:10D6C000FFF7C6FF684600F09FFDFCF7D5F840283D
:10D6D00001DD402001E000280ED081B2154800F0A5
:10D6E00051FD002808D001461248FCF7EDF800284B
:10D6F00002D065700120207100F024FE0146402810
:10D7000001DD402101E00029BDD00A48FCF7C0F846
:10D710000028B8D081B2074800F0CCFD0028B2D074
:10D72000657001202071AEE7D0F5FF1F40FDFF1F9F
:10D73000B1CF0000A0FDFF1F90B4054F00220221D1
:10D740000248BC4600DF90BC0120704740FDFF1F2F
:10D7500011CF000090B40749426800684A60086031
:10D76000064F002203210448BC4600DF90BC012084
:10D7700070470000A0F5FF1F40FDFF1F11CF000004
:10D78000FFB593B004461746442168461D9E1C9D74
:10D79000FAF725FE169802950097039601906068A7
:10D7A0000990A0680D9020680E9014980F900120A9
:10D7B000000610906D460021082000F0E1FA0028D4
:10D7C00078D00024A0002958204600F083FA0028D1
:10D7D00070D0641C042CF5D30920696A00F07AFA31
:10D7E000002867D00D24A0002958204600F072FAC6
:10D7F00000285FD0641C102CF5D31020296C00F099
:10D8000069FA002856D02E48406A826AC16A406A86
:10D8100000F02EFA00284DD02B4F2A49384600F050
:10D820000FFB002846D011A9042000F0EFF80028D3
:10D8300040D01199A02001423CD1244D002411AECA
:10D840002349002000F0E6F9002833D0314638465D
:10D8500000F0ACF800282DD01198800309D50021E4
:10D860006D460C4664261B4800F0EAFA002821D0D9
:10D8700003E0641CAC42E2D31CE01549002000F038
:10D88000C9F9002816D02946384600F08FF800283C
:10D8900010D02868C00302D4641CB442EDDBB4424B
:10D8A00008D029460C4800F0D1F8002802D0009892
:10D8B000002802D0002017B0F0BD012017B0F0BD45
:10D8C000C401010001005FA0F0ED00E0102700009E
:10D8D00052000023F4ED00E0F8ED00E010B5FBF796
:10D8E000B5FB094820214160402444608215426014
:10D8F00043690B43436141692143416141691143DC
:10D900004161012010BD000080F00F4038B50021BA
:10D910002448C94301604160FFF7E0FF00F0A4FA2A
:10D92000FBF7C2FB002828D01E21002000F028FAB7
:10D93000002822D00021082000F022FA00281CD064
:10D9400005210907042000F01BFA002815D0052442
:10D9500064070620694600F04DF96A46D17892784E
:10D960000906120411436A465278120211436A46AC
:10D9700012781143012801D0002038BD2046884389
:10D98000E7D10949042000F0FBF90028F5D000F0A8
:10D99000A2FB0021082000F0F3F90028EDD00120BF
:10D9A00038BD0000E8F5FF1F000F005010B50C4611
:10D9B00082B00146042201A8FEF752FD052001A90C
:10D9C00000F018F901281ED10F20694600F012F965
:10D9D000012818D10E20694600F00CF900216A4692
:10D9E0002160D178090621609278120411436A46B9
:10D9F00021605278120211436A4621601278114365
:10DA00002160012800D0002002B010BD38B50C46BE
:10DA10000C210840801C694600F0ECF800216A46A1
:10DA20002160D178090621609278120411436A4678
:10DA300021605278120211436A4621601278114324
:10DA40002160012800D0002038BD000070B50C46D0
:10DA500005460749002000F0DDF8002806D02146E1
:10DA60002846FFF7A3FF002800D0012070BD00006A
:10DA70005200002370B520250B4C4026002810D002
:10DA8000FFF744FF0949042000F0C4F8002807D03C
:10DA900001210C2000F0BEF8002801D0A560A6608E
:10DAA00070BD6560666070BD80F00F404405004049
:10DAB000F8B50446FFF712FF454D052C7ED2230032
:10DAC0007B441B79DB189F44021406596000012037
:10DAD000FFF7D0FF78E00120FFF7CCFF3D4F022099
