:04000005000080C1B6
:020000040000FA
:10800000A022002029830000318300007D90000021
:108010000000000000000000000000008946FEDFB4
:108020008F9E939B01999697F1000000D9810000E3
:1080300000000000000000007D820000DD820000E2
:108040003B8300003B8300003B8300003B83000038
:108050003B8300003B8300003B8300003B83000028
:108060003B8300003B8300003B8300003B83000018
:108070003B830000419700003B8300003B830000EE
:108080003B8300003B8300003B8300003B830000F8
:108090003B8300003B8300003B8300003B830000E8
:1080A000CD9700003B8300003B8300003B83000032
:1080B0003B8300003B8300003B8300003B830000C8
:1080C00000F002F800F040F80CA030C8083824187E
:1080D0002D18A246671EAB4654465D46AC4201D100
:1080E00000F032F87E460F3E0FCCB64601263342F2
:1080F00000D0FB1AA246AB46334318470CA1000040
:108100003CA10000103A02D378C878C1FAD85207CF
:1081100001D330C830C101D504680C60704700003D
:108120000023002400250026103A01D378C1FBD893
:10813000520700D330C100D50B6070471FB5C04651
:10814000C0461FBD10B510BD00F047FB1146FFF73C
:10815000F5FF05F007F900F05FFB03B4FFF7F2FF4E
:1081600003BC00F05FFB000080F309887047EFF369
:1081700009807047684680F3098806480078C00780
:1081800003D1032080F314887047022080F3148801
:1081900070470000A4180100064B9C46EFF30583CE
:1081A0001B0605D1EFF31483DB0701D000DF704716
:1081B00060470000D5E10000064B9C46EFF30583C5
:1081C0001B0605D1EFF31483DB0701D000DF7047F6
:1081D00060470000E9E30000EFF309808169891E30
:1081E0000978002933D1A6461FC8A4467446E04743
:1081F0001F4B06CB914224D0083B002910D00CB471
:10820000203101234B70EFF30983203B4B60F0C317
:1082100044464D4656465F46F0C306F077FC0CBC1C
:108220001A60203253681033F0CBA046A946B246FC
:10823000BB4683F30988203BF0CB5078002803D05D
:108240001078EFF3098318600223DB43184710B559
:10825000084A1268914209D8074C89006458A6461A
:108260001FC8A446F047EFF309840FC410BD0000F7
:10827000DCF1FF1F6C8800006C88000006F0E6FA55
:10828000154B06CB914223D0083B0CB42031002380
:108290004B70EFF30983203B4B60F0C344464D46DF
:1082A00056465F46F0C306F031FC0CBC1A60203223
:1082B00053681033F0CBA046A946B246BB4683F3C1
:1082C0000988203BF0CB5078002801D01078186145
:1082D0000223DB4318470000DCF1FF1F06F0CEFC51
:1082E000CEE7000005F002FA06F0C8FCC8E700007F
:1082F00070B505460C46164602E00FCC0FC5103E81
:10830000102EFAD2082E02D303CC03C5083E042E49
:1083100007D301CC01C5361F03E021782970641C06
:108320006D1C761EF9D270BD07488047074800478C
:10833000FEE7FEE7FEE7FEE7FEE7FEE70448054945
:10834000054A064B70470000A9960000C180000056
:10835000A0200020A0220020A0210020A021002099
:10836000004870473C200020034610B50B439B0794
:108370000FD1042A0DD308C810C9121FA342F8D088
:1083800018BA21BA884201D9012010BD0020C0438B
:1083900010BD002A03D0D30703D0521C07E00020F1
:1083A00010BD03780C78401C491C1B1B07D10378B7
:1083B0000C78401C491C1B1B01D1921EF1D11846A0
:1083C00010BD421E521C1378002BFBD10B78491CA8
:1083D0001370521C002BF9D17047D2B210B51302A2
:1083E0009A1813049A1800F024F910BD020A0870B4
:1083F0004A70020C8A70020ECA707047704770474C
:10840000FFFFFFFFFFFFFFFFFFFFFFFFFEFFFFFF7D
:1084100003B40148019001BD01F0FF1F30B5441CB9
:1084200003E00178401C00290DD08107F9D10B4BE6
:10843000DD0104C8D11A91432940FAD0001B0A0675
:1084400003D0C01E30BD001B30BD0A0401D0801E09
:1084500030BD0902FCD0401E30BD00000101010109
:108460000346F0B50B439B072DD1244DEF01042AA1
:1084700029D308C810C9121F5E1B9E433E4017D067
:10848000D8B2E1B2401A3106014310D198B2A1B27C
:10849000401A310401430AD118022102000A090AD4
:1084A000401A3102014302D1180E210E401AF0BDCC
:1084B000A342DCD018BA21BA884201D90120F0BD0C
:1084C0000020C043F0BD002A01D10020F0BD037898
:1084D0000C78401C491C002B0DD0A3420BD1521E1E
:1084E00009D003780C78401C491C002B03D0A34210
:1084F00001D1521EEBD1181BF0BD0000010101019A
:10850000F8B5042A2CD3830712D00B78491C0370CA
:10851000401C521E83070BD00B78491C0370401C73
:10852000521E830704D00B78491C0370401C521E56
:108530008B079B0F05D0C91ADF002023DE1B08C95B
:108540000AE0FFF7D5FEF8BD1D4608C9FD401C46F0
:10855000B4402C4310C0121F042AF5D2F308C91AE4
:10856000521EF0D40B78491C0370401C521EEAD4F2
:108570000B78491C0370401C521EE4D4097801702A
:10858000F8BD431A70B593421BD28918801804E0D5
:10859000491E521E0B78401E03709307F8D106E067
:1085A00010390B461038103A78CB78C01038102AA2
:1085B000F6D203E0001F091F0B680360121FF9D5F4
:1085C00070BDFFF795FE70BDF8B50646144608432A
:1085D000800707D0751AA54219D20819102D13D299
:1085E000311907E03046FFF7CCFFF8BD401E491EA9
:1085F00002780A70641EF9D2F8BD471B2A46394634
:10860000FFF77EFF641B3846A542F6D3011B2246C6
:108610003046FFF775FFF8BD01E004C0091F0429CB
:10862000FBD28B0701D50280801CC90700D00270E5
:10863000704700290BD0C30702D00270401C491EAE
:10864000022904D3830702D50280801C891EE3E738
:108650000022EEE70022DFE70378C278194643786C
:1086600012061B0219438378C0781B041943114377
:108670000902090A000608437047002203098B42D9
:108680002CD3030A8B4211D300239C464EE00346B1
:108690000B433CD4002243088B4231D303098B4265
:1086A0001CD3030A8B4201D394463FE0C3098B429B
:1086B00001D3CB01C01A524183098B4201D38B01F4
:1086C000C01A524143098B4201D34B01C01A524197
:1086D00003098B4201D30B01C01A5241C3088B42DC
:1086E00001D3CB00C01A524183088B4201D38B00C7
:1086F000C01A524143088B4201D34B00C01A524169
:10870000411A00D201465241104670475DE0CA0F3F
:1087100000D04942031000D34042534000229C46FF
:1087200003098B422DD3030A8B4212D3FC22890109
:1087300012BA030A8B420CD3890192118B4208D3DF
:10874000890192118B4204D389013AD0921100E041
:108750008909C3098B4201D3CB01C01A5241830955
:108760008B4201D38B01C01A524143098B4201D382
:108770004B01C01A524103098B4201D30B01C01AAD
:108780005241C3088B4201D3CB00C01A5241830827
:108790008B4201D38B00C01A5241D9D243088B427D
:1087A00001D34B00C01A5241411A00D20146634620
:1087B00052415B10104601D34042002B00D5494284
:1087C000704763465B1000D3404201B50020C046AD
:1087D000C04602BD7047704770477546FFF7C0FD41
:1087E000AE46050069465346C008C000854618B02D
:1087F00020B5FFF7A3FD60BC00274908B646002658
:10880000C0C5C0C5C0C5C0C5C0C5C0C5C0C5C0C540
:10881000403D49008D4670470446C046C04620464C
:10882000FFF79BFC01491820ABBEFEE726000200C3
:1088300030B58C180278401C13071B0F01D1037848
:10884000401C120906D10278401C03E00578401C48
:108850000D70491C5B1EF9D101E00B70491C521EC2
:10886000FBD1A142E6D3002030BD00000000000093
:1088700070B50078002805D0012803D000200870CA
:10888000012070BD0A48012404700A482025456073
:10889000402646608215426043692B434361436929
:1088A000334343614369134343610C70E8E70000BD
:1088B000981E002080F00F40F8B502781346803BE8
:1088C0001F2B02D800F0D0F8F8BD0A7002784C1CBB
:1088D000401C00250126FF276049130003F0D6F94C
:1088E000170D3943477D8A95B9A1565EB9B9B9B913
:1088F000B961656974A4A4A4B9000078631C00215F
:10890000052823D008DC012820D002281ED0032807
:108910001CD004281AD108E0062817D0F0280BD064
:10892000FE2810D0FF2811D108E004224C49184637
:10893000FFF7E6FD042109E01E7006E040201870F4
:108940005D70022102E00520187001212170881C51
:10895000F8BD0078002803D0012801D0277000E07E
:108960002570012073E02146FFF782FF6FE03D484C
:108970000D704169202291434161426940218A433F
:108980004261426981158A4342615EE04178027822
:10899000080210430001401EFDD156E065702570AD
:1089A0002DE0214600F0A4FA51E0214600F074FACF
:1089B0004DE00278401C002A01D1FF22013201461D
:1089C000104600F04BFE40E000788207920F521CE8
:1089D00040070A75C00F487537E002780A7282783E
:1089E000437812021A434A810279C378100218436D
:1089F00088812AE00978012903D02570657002205A
:108A000025E0214600F04AF821E00978012904D048
:108A100025706570A570032019E0214600F0ACF9BF
:108A200015E00978012902D027700220F8BD074619
:108A3000401CFFF711FE39790002000A09060843BD
:108A400000906946002000F09DFB25703046401CD8
:108A5000F8BD203CE7770120F8BD0000981E0020FB
:108A60001019010080F00F4070B500780C46802886
:108A700003D0FF200870012070BD04F0F3FA064611
:108A8000FFF7CCFCC5B28020207065702A463146C5
:108A9000A01CFFF735FDA81C70BD0000F0B5054611
:108AA00087B000208C1C0391B1490290087000909F
:108AB00069780746AD1C04911AE12E786D1CB10748
:108AC00071D5002F32D0AB48408900901120304042
:108AD000012807D0A64F01A90E2000F053FB022861
:108AE00010D017E001A9304600F04CFB022812D14B
:108AF0000099491E0091491C03D09D49097800291D
:108B0000F0D02BE10099491E0091491C02D0397820
:108B10000029E0D000270128F3D1019921700A0A29
:108B200062700A0CA270090EE170241DF10657D57F
:108B30002846FFF791FDE9780002000A090608437C
:108B400006908C482D1D80890590F00715D0894826
:108B5000408900900021304600F014FB022802D02A
:108B60000128CED109E00099491E0091491CC8D0C6
:108B70007F4909780029EDD0F0E07E4840890090D7
:108B800001A9304600F0FEFA022802D001281BD1CC
:108B90000AE00099491E0091491C15D074490978D2
:108BA0000029EDD010E055E07249019A09691140A1
:108BB000069A914208D00599491E0591491C03D097
:108BC0006B4909780029D8D06A49019A096911408E
:108BD000069A914201D010210843012819D137E0AB
:108BE000644949890091F10716D0002F30D1604FB8
:108BF0000021304600F0C6FA022802D0012808D130
:108C000008E00099491E0091491C02D039780029DA
:108C1000EED0A3E001271BE001A9304600F0B2FA34
:108C2000022802D0012809D109E00099491E0091CB
:108C3000491C03D04E4909780029EDD08EE00199F6
:108C400021700A0A62700A0CA270090EE170241DDC
:108C5000002144E0002F1BD04648478901A90E207F
:108C600000F090FA022802D0012877D106E07F1E9A
:108C700074D33F4909780029F0D06FE00198207043
:108C8000010A6170010CA170000EE070241D002724
:108C90002846FFF7E1FCE9780002000A09060843CC
:108CA0002D1D0190B10603D532490861012017E05E
:108CB00030484089009001A9304600F063FA02284C
:108CC00002D001284AD109E00099491E0091491CAF
:108CD00044D0274909780029EDD03FE001210091D7
:108CE0000299491C029122490978002905D1049969
:108CF000491E0491491C00D0DFE601282ED1002F27
:108D00001BD01C481A4E458901A90E2000F03AFAE2
:108D1000022802D0012821D105E06D1E1ED3317832
:108D20000029F1D01AE0019921700A0A62700A0C38
:108D3000A270090EE170241D10E0009900290DD0E9
:108D40000C480B4E458900210E2000F01BFA02282A
:108D500004D16D1E02D331780029F4D0039A029910
:108D6000117003994870039807B0201AF0BD0000F5
:108D700030F2FF1F981E0020F3B583B00025CE1CF3
:108D800001914349024628460D7091785378D21CD0
:108D90000C021C4370D01178521C00910392890779
:108DA0005AD50099C90734D03A484789002100981C
:108DB00000F0E8F9022802D001285DD129E07F1EE9
:108DC0005AD3334909780029F0D055E0002C04D15A
:108DD0000098C00701D00E2000902E48478902A9B4
:108DE000009800F0CFF9022802D0012844D106E013
:108DF0007F1E41D3264909780029F0D03CE0029932
:108E000031700A0A72700A0CB270090EF170361DC8
:108E10006D1C641EDAD22FE00398FFF71DFC039946
:108E20000002C978000A0906084302900398001D51
:108E300003901848478902A9009800F0A3F9022876
:108E400002D0012818D106E07F1E15D310490978F9
:108E50000029F0D010E06D1C641EDDD20D480C4FCF
:108E6000448900210E2000F08DF9022804D1641EEF
:108E700002D339780029F4D001990D70019A290A9A
:108E8000517001998870019805B0301AF0BD00004A
:108E900030F2FF1F981E002070B50C460546FFF704
:108EA000DBFB0102E878090A0006014307D00E48FF
:108EB00000260E4D814205D30120687010E0FF208E
:108EC00020700FE008486E70401E0818FFF7D5FBB1
:108ED000012804D90321401CFFF7CFFB00E001204B
:108EE00068602670012070BD00366E01981E00205B
:108EF000F3B506460578447881B0801CFFF7ACFBDB
:108F000071790002000A09060843314EE10706D0D4
:108F1000EA072021002A01D0716000E0B160A107BA
:108F200006D5AA074021002A01DA716000E0B1608D
:108F3000210606D5E909CA07264901D0716000E07B
:108F4000B160002833D0244A904200D91046234F04
:108F50000021B961224948432249FFF78EFB78611D
:108F600005203861E00704D030698006C00FA842B0
:108F700017D1A00705D5306969084006C00F88429F
:108F80000FD1600701D5A8080BD1A00601D568094B
:108F900007D1200609D53069E909C005C00F88420C
:108FA00003D03869C003C00FDCD0002038613069BD
:108FB00031698006C00F4906C90F4900084331696D
:108FC000C905C90FC9010843029908700120FEBDF7
:108FD00080F00F4000010000C0C62D0000E000E05E
:108FE000006CDC0240420F0010B5134803214160C1
:108FF00064214181012101751048816B1F225202B9
:1090000011438163FF200E49033048610D4820223F
:109010004260436913434361FF2404348C6140225E
:1090200042604369934343610C6281154160426928
:109030000A43426110BD0000981E002000800440D9
:1090400000B0044080F00F4070B50A4E054601465E
:10905000094B3046F26803F07BFC040006D1002384
:1090600029463046F26803F053FE044603F052FAF4
:10907000204670BD7C1E00206B66656BA72206A192
:10908000002002F053FEBFF34F8F0F490D48C86018
:10909000BFF34F8FFEE700002E2E5C2E2E5C2E2E8F
:1090A0005C736F757263655C6461706C696E6B5C38
:1090B000696E746572666163655C6D61696E2E636D
:1090C000000000000400FA0500ED00E010B50549BD
:1090D00000200860044803F07FFC002800D0012035
:1090E00010BD0000008104407C1E00201CB506F06D
:1090F00007FA00281AD09E2069460870E7204870B9
:10910000102000F0ABFA012406F0FAF900280DD087
:10911000002069460870082000F0A0FA01A900208C
:1091200006F0BAF9012802D1002C00D01CBD0020A5
:109130001CBD0000BFF34F8F03490248C860BFF356
:109140004F8FFEE70400FA0500ED00E0FEB50D4686
:109150000B46074601461646094803F09FFD0400EA
:109160000AD1012101900091029033462A463946E6
:10917000034803F005FE044603F0CCF92046FEBD8B
:109180007C1E002000B5054A5278002A02D000F06B
:1091900007F800BD00F0DEF800BD0000981E0020BA
:1091A000F0B58C46694E4021024671602027B760B9
:1091B0007760C00701D0716000E0B160B760776090
:1091C0005008C40701D0716000E0B160B7607760FB
:1091D00013189008C40701D0716000E0B160B76057
:1091E00077601B18D008C40701D0716000E0B1603F
:1091F000B76077601818C00701D0716000E0B160F7
:10920000B7607760B160B76077607160B7607760B2
:109210007069884370614E48007D040003D0B760D8
:109220007760401EFBD1B760306977604006C00FA1
:10923000B760336977605B06DB0F5B000343B760A1
:10924000306977604006C00F8000184301280BD0BA
:1092500002285BD0042859D0213403D0B76077604E
:10926000641EFBD17160F0BD920726D500231C4619
:109270002022B760356977606D06ED0F64195B08D1
:10928000ED072B43521EF4D1B76032697760520666
:10929000D20F5440E20700D008206246002A00D0D6
:1092A00013602B4A127D002A03D0B7607760521EEC
:1092B000FBD172690A4372611EE0002C03D0B760D3
:1092C0007760641EF9E772690A4372616246126848
:1092D00000242023D50701D0716000E0B160B760A1
:1092E0007760A41852085B1EF4D1E20701D07160C8
:1092F00000E0B160B7607760154A127A002AB1D0F9
:10930000B160B7607760521EFBD1ABE7104B5D7D5B
:10931000002D06D0930704D52123B76077605B1E2C
:10932000FBD1002C03D0B7607760641EF9E7736946
:109330000B437361002D95D0920793D4B160212225
:10934000B7607760521EFBD18CE7000080F00F40C1
:10935000981E0020F0B503460022BE4D40208C46EA
:1093600068602024AC60BC4F79680E46761EFDD143
:109370006C600E46761EFDD1DE0701D0686000E00D
:10938000A860AC600E46761EFDD16C600E46761E5F
:10939000FDD1D6185A08D70701D0686000E0A86050
:1093A000AC600F467F1EFDD16C600F467F1EFDD165
:1093B000B6189A08D70701D0686000E0A860AC60D2
:1093C0000F467F1EFDD16C600F467F1EFDD1B61883
:1093D000DA08D70701D0686000E0A860AC600F46EB
:1093E0007F1EFDD16C600F467F1EFDD1B218D207E3
:1093F00001D0686000E0A860AC60974E0A46521E3B
:10940000FDD16C600A46521EFDD1A860AC600A46D0
:10941000521EFDD16C600A46521EFDD16860AC60E0
:109420000A46521EFDD16C600A46521EFDD16A6981
:10943000402082436A61327D160009D0AC60084644
:10944000401EFDD16C600846401EFDD1521EF5D174
:10945000AC600846401EFDD128696C604006C00F14
:109460000A46521EFDD1AC600A46521EFDD12A6941
:109470006C605206D20F0F467F1EFDD15200024390
:10948000AC600846401EFDD128694006C70F202069
:1094900068600846401EFDD1B8001043012813D073
:1094A00002287DD004287BD021360AD02023AB604F
:1094B0000A46521EFDD16B600A46521EFDD1761E31
:1094C000F5D140216960F0BD9A073CD500242646BD
:1094D00020232027AF600A46521EFDD12A696F6003
:1094E0005206D20F0F467F1EFDD16708D407B6186B
:1094F0003C435B1EEDD120232A46AB600F467F1E06
:10950000FDD1176953607F06FF0F491EFDD17E40D4
:10951000F10700D008206146002900D00C604E49B8
:109520000C7D002C0AD04E6893603146491EFDD157
:1095300053603146491EFDD1641EF5D15369402167
:109540000B4353613AE0002E0AD02023AB600A4659
:10955000521EFDD16B600A46521EFDD1761EF5D11A
:109560006A6940231A436A61624600261268202411
:109570002746D30702D040236B6001E04023AB6055
:10958000AF600B465B1EFDD16F600B465B1EFDD1CD
:10959000B6185208641EECD1F20704D0402200E055
:1095A00020E06A6001E04022AA603B462C46AF60A2
:1095B0000A46521EFDD16360491EFDD126490A7A32
:1095C000002A00D17DE74023AB604B682024AC60CB
:1095D0001946491EFDD16C601946491EFDD1521E27
:1095E000F5D16EE71C4A527D9446002A0DD09A07A9
:1095F0000BD521242027AF600A46521EFDD16F6093
:109600000A46521EFDD1641EF5D1002E0AD0202438
:10961000AC600A46521EFDD16C600A46521EFDD156
:10962000761EF5D16A69402422436A616246002AA7
:109630000ED09A070CD4AC6021232026AE600A46D7
:10964000521EFDD16E600A46521EFDD15B1EF5D141
:109650006C60F0BD80F00F40981E0020F0B5002334
:10966000104C1A460E4E2027656815E0002A02D1DC
:109670000B78491C0822DC0702D04024746001E00A
:109680004024B460B7602C46641EFDD177602C4640
:10969000641EFDD15B08521E401EE7D2F0BD0000E3
:1096A00080F00F40981E00201E48002202601E48D5
:1096B000816B4315194381631B491C484031486045
:1096C0001B4883681B490B408360C3680B40C36021
:1096D000194980200870194824214170A221017085
:1096E000C178C906C90EC170032101714271817927
:1096F000C906FCD481790907890F0229FAD14021D2
:10970000417181790907890F0229FAD181794906C6
:10971000FCD51A21017081790907890F0329FAD133
:1097200070470000008104400080044000000110E8
:1097300040900440FFF8FFFE005006400040064005
:1097400038B51D4A11791D488368C5681C4CAB4269
:109750001AD00B060FD543681A4DED185B1C4360F9
:109760002B78D3714368DB05DB0D4360C3685B1C5A
:10977000C36001202060880605D54807800F09D006
:10978000D0796946087038BDD0784006400ED07058
:109790000020EFE7D2790C480168084B10335B18C2
:1097A000491C01601A700168C905C90D0160816812
:1097B000491C816038BD000000B006405CF4FF1F0A
:1097C00034F0FF1F5CF2FF1F6CF6FF1F10B5012085
:1097D00002490006086002F005FA10BD80E100E0D1
:1097E00000207047034801694069081A0249098846
:1097F000081A704768F0FF1FF611010070B50B4D95
:109800000C460346696B286B88420BD9401A844288
:1098100000DD044622461846FEF772FE686B00190A
:10982000686300E00024204670BD000068F0FF1F60
:1098300000207047F8B5184F0C460646796938691C
:10984000401A16490988081A002801DC0020F8BDD2
:10985000844200DD0446FA69B869002590420DD3C0
:109860000F4A031951188B4208D30D1A2A46314664
:10987000FEF746FE76190A48641BB861002C06D034
:1098800022463146FEF73CFEB8690019B8613969D5
:10989000601909183961F8BD68F0FF1FF611010061
:1098A0007EF7FF1F10B5054C6068002805D1012028
:1098B000606000F005F80020606010BD68F0FF1FD8
:1098C000F8B5234CA06800283DD0616920690026C6
:1098D000421AE06811460143002935D021461D4F48
:1098E000C9691D4D002A10D0A069814205D338886E
:1098F0008B182818834200D3421A18480078430076
:109900001748C05A904200DA02461648E6600078CE
:109910008023184302F08EF9E1690918E161626958
:10992000121862613B88EB188B4200D1E561216916
:1099300091420BD1094909784A000949895A814263
:1099400004D10120E060F8BDA660F8BDE660F8BD76
:1099500068F0FF1FF61101007EF7FF1FABF0FF1F3D
:10996000FA110100F411010010B50C4C206A002816
:1099700003D0A06A401CA06210BD0120206260627A
:1099800000F00EF8002060622062616B206B88425C
:10999000F2D0401AFFF74CFF10BD000068F0FF1F27
:1099A00010B5134C1348216B154B0A1A1248008846
:1099B000821A124800784000185A82420EDB114881
:1099C000007801F001FD216B08182063A06A0028CF
:1099D0000CD0616A002909D1401E06E00120E06236
:1099E000606A002802D0A06A401CA06210BD00007E
:1099F00068F0FF1FBEF7FF1FF8110100ABF0FF1F5B
:109A0000FA110100F511010010B50446400702D516
:109A10002046FFF7A9FF200702D52046FFF742FFA7
:109A200010BD0020704700207047000010B50C48A2
:109A300000F01EF8002812D00948FEF70DFE094973
:109A4000020A08704A70020C8A70000EC87004483E
:109A500002790A7142794A7180798871012010BDBA
:109A6000A0F0FF1F7CF6FF1F10B500F017F810BD27
:109A700070B50446084805F08DF900280BD0064D56
:109A800021462868FEF7B2FC2879A07168796071D8
:109A9000A8792071012070BD60F0FF1F10B505F09E
:109AA00081F910BD10B505F0E5F910BD0120704732
:109AB00010B50446FEF7D0FD06490860A07908718C
:109AC00060794871207988710020C871084605F0D6
:109AD000DFF910BD60F0FF1F10B51148002444608D
:109AE0008460C46004610F4981614461046244621E
:109AF0008462C462C1610C49016341630480FFF761
:109B0000D1FF07494B203831C001FEF76FFC0448F4
:109B100008213830047144718171FFF7C9FF10BD0D
:109B200068F0FF1F7EF7FF1FBEF7FF1F10B5FFF79E
:109B3000D3FF10BD70B5194C0025206A01260028FE
:109B40000AD1616B206B884206D11549884203D047
:109B50002163E56225626163A06A002810D0206A53
:109B600000280DD1E06A00280AD12662FFF718FF0D
:109B70002562616B206B884202D0401AFFF758FEC5
:109B8000A1686068084308D161692069884204D0EF
:109B90006660A660FFF794FE656070BD68F0FF1F09
:109BA000BEF7FF1FB0B50D4C0D4F002806D0BC46C8
:109BB00000DF2060002005F0E4FF0CE0BC4600DF81
:109BC0002168401AFF212D31884201D3012000E095
:109BD000002003F005FC0120B0BD00005CF0FF1F79
:109BE000B9EC0000002070470020704710B5024912
:109BF0000880FFF75BFF10BD68F0FF1F10B50B4832
:109C0000FEF72AFD094C0002E178000A0906084324
:109C10000749FEF7EBFB0648217901716179417133
:109C2000A1798171FFF744FF10BD00007CF6FF1F92
:109C3000A0F0FF1F01078A0E044910B551180A78D9
:109C4000FD231A400A7001F05FFF10BDC0200740DD
:109C500010B501464A790B79807811021943020642
:109C600001D4024A115401F04FFF10BD4CF0FF1F08
:109C7000704710B500F07AFA10BD0000094A094992
:109C800080320028087D04D0012318430875102075
:109C900005E0400840000875107AEF210840107276
:109CA000704700008020074010B50C4C0C48A2887B
:109CB0000078824200D90246002A03D107490020D9
:109CC000143908718020216801F0B4FF2168091857
:109CD0002160A188081AA08010BD0000BCF0FF1F01
:109CE000D611010010B5064C0020A288216801F0B1
:109CF0006BFB216809182160A188081AA08010BD9B
:109D0000BCF0FF1F704700000749020605D5000799
:109D1000800E40180178FA2203E080004018017894
:109D2000F622114001707047C02007400749020623
:109D300005D50007800E40180178052203E0800059
:109D4000401801780922114301707047C020074074
:109D5000F8B50446694F6A4D6A4E80071ED501F07A
:109D600037FF3878C009FFF7CDFFF888A88038782A
:109D70004106890F02D001296BD159E079780B0097
:109D800001F084FF0C070D6713671928672D333B1B
:109D90004A6701F099FC1FE0FFF786FF66E00020AC
:109DA00004E001F029FF58483DE0012001F0CEFC1D
:109DB00000284ED0F5E7C006C00E4AD1B878802101
:109DC000084330704006400E012101F0EBFE01F027
:109DD00013FF4BE001F082FB00283AD0DCE7C0061D
:109DE000C00E36D14748401C14E001F003FD0028A6
:109DF0002FD001F001FF454815E0C006C00E012834
:109E000027D17078002824D03879B178884220D2C0
:109E10003F4940182860BFE701F0B0FD002818D086
:109E200001F0EAFE3B48006800281FD080471DE093
:109E3000C006C00E0DD001280BD100F007F9002894
:109E400014D100F059F9002810D100F0ABF8002827
:109E50000CD13878C00904D1F888002801D000203E
:109E600000E0802001F0A8FE0020A880600704D553
:109E70003878C0090DD001F0C7FE200733D53878F7
:109E8000C00927D0A888317908432CD0FFF70CFFF0
:109E900029E0A8880028F0D0FFF724FFA888002830
:109EA000EBD138784106890F0ED001290CD1C006BC
:109EB000C00E09D0012807D100F05CF80028DCD1E1
:109EC00000F02AF80028D8D1802001F075FE00208B
:109ED000A880D2E73078010605D54006400E3070E4
:109EE000002101F05FFE600602D50020FFF7A2FE10
:109EF000200602D58020FFF79DFEF8BDC4F0FF1FAD
:109F0000BCF0FF1FA8F0FF1F5C12010054120100FB
:109F10003CF0FF1F5812010010B51349134A08798D
:109F20001278904203D0124A1278904219D14878A0
:109F3000002804D0022805D0202812D10EE0FFF717
:109F400051FE05E0C878897800020843FFF74CFE0F
:109F5000002806D001F050FE012010BDFFF74EFE94
:109F6000F6E7002010BD0000C4F0FF1FF211010051
:109F7000F311010010B50948094A0179127891429C
:109F80000AD14078092807D100F0F0FA002803D060
:109F900001F032FE012010BD002010BDC4F0FF1FF3
:109FA000D711010070B52449244A087912789042EB
:109FB00003D0234A127890423BD11F484978C27897
:109FC000837810021F4C204D1843042920D008DC50
:109FD00000290FD001290FD002290BD0032928D145
:109FE00011E0202906D0212919D022291AD02329AD
:109FF0001FD11AE02C6010E0FFF715FD05E02C6082
:10A00000FFF752FE09E0FFF70CFD0028F7D110E042
:10A01000FFF7E6FB0BE001F0EFFD012070BDFFF75D
:10A0200005FDF2E7FFF7E2FD01E0FFF7BBFD0028C9
:10A03000F1D1002070BD0000C4F0FF1FF21101003B
:10A04000F31101007CF6FF1FBCF0FF1FF8B5234E93
:10A0500023493079097888423DD17078214C224DCE
:10A06000224F030001F012FE0C3707232D3737373C
:10A0700037371826333700F097F900282BD0F078BF
:10A08000012802D0032803D003E01948206000E033
:10A090002560FFF709FE12E0F078022802D00328BD
:10A0A00003D00CE01348206009E0256007E000F0D1
:10A0B00063F908E000F032FA0BE001F09DFD0120A9
:10A0C000F8BD00F067F9002805D02760E1E700F04F
:10A0D00043FA0028F1D10020F8BD0000C4F0FF1FB2
:10A0E000D7110100BCF0FF1F46F0FF1F7CF6FF1FD9
:10A0F000BDF6FF1FFEF6FF1F10B51848184A01797C
:10A100001278914227D142780146C8788B780002B4
:10A110001843CB798C7919022143FE2A0CD0FF2AEF
:10A1200019D1002817D1002915D101F091F8002884
:10A1300011D001F061FD0CE000280CD101290AD1F9
:10A1400000F072FD002806D0074906480860FFF7B6
:10A15000ABFD012010BD002010BD0000C4F0FF1FAA
:10A16000E81101007CF6FF1FBCF0FF1F074800212B
:10A170004170C16001614161418081808161C16143
:10A18000C18001810162418170470000CCF0FF1F56
:10A19000F8B5484EB0887188474F00257C1C88422E
:10A1A00018D3B069002815D17561B58001233978BD
:10A1B0007A1C184606F0ACF870807088002809D028
:10A1C0003E4877610078012801D8746102E0708808
:10A1D000401C7080708800283AD1F068002801D0B7
:10A1E000F56035E03069002832D03449097801291A
:10A1F0000ED83D70B58002237A1C0021012006F0A4
:10A2000087F870807088002800D0746135611FE085
:10A210003C780127202C00D300243946A14001427C
:10A2200042D0601CC1B2244A02231170521CB58076
:10A23000012006F06DF870807088002804D01E4858
:10A2400070617088401C70803069A740B8433061ED
:10A250007088B169084326D07088B188184F401AB9
:10A2600084B2387841001748405AA04200D20446D0
:10A2700015488021007822460843716901F0DAFC14
:10A280007069124900197061B088001980B2B080FD
:10A29000098888420BD2387841000A48405AA042C7
:10A2A00005D10120B061F8BD641CE4B2B2E7B5612C
:10A2B000F8BD0000CCF0FF1FBCF6FF1FE21101004B
:10A2C000ABF0FF1FDE110100D8110100E411010005
:10A2D000F8B51B4C002720891A4D1B4E002802D1CF
:10A2E000E5613188E180E1880A1A1848E16900785F
:10A2F00001F06AF8E16980B20918E1612189091861
:10A300008BB22381002809D031888B4206D21049B4
:10A31000104A09784900515A81420FD90E480178F4
:10A3200001200129009002D8064A002102E0297884
:10A330005B1E6A1C022006F09DF82781F8BD000014
:10A34000CCF0FF1FFDF6FF1FE6110100D91101003F
:10A35000ABF0FF1FDE110100E311010010B5044650
:10A36000000702D52046FFF713FF600702D52046FD
:10A37000FFF7AEFF10BD0000034804498078085C79
:10A380000349087001207047C4F0FF1F44F0FF1F0D
:10A390007CF6FF1F10B505F0B9FF024908700120D7
:10A3A00010BD00007CF6FF1F10B50B490022C878D5
:10A3B000012804D0022804D0032806D103E0074A6C
:10A3C00002E0002010BD064A521C8978002305F0E7
:10A3D0009FFF012010BD0000C4F0FF1FBCF6FF1F4F
:10A3E00045F0FF1FFEB54448007800287ED0434E5C
:10A3F000002031788446481C30704148042300789E
:10A400004200821893405B1E0192994203DB0021B7
:10A41000317001218C463B4A00251188FF2901D269
:10A42000491C118041003848405A3649009009883B
:10A43000884200D101253549002009788E4648E040
:10A4400000216246002A0DD0314A135CFF2B01D255
:10A450005B1C13542F4B1B5C002B03D0125C9A42E5
:10A4600000D301212B4A0223145C019A9340224617
:10A470009A40009B9A4203DA002C01D0012200E0AE
:10A480000022002D06D0002A04D001233769834022
:10A490003B433361204B1B5C9C420CD01C4C245C26
:10A4A0009C4206D30124376984403C433461002434
:10A4B0003470184C2354002909D0002A04D10121FA
:10A4C0003269814011433161114A00211154401C0D
:10A4D000C0B27045B4D3002D02D00A4900200880D4
:10A4E0003069002806D07088002800E002E001D121
:10A4F000FFF74EFEFEBD0000A9F0FF1FCCF0FF1FCE
:10A50000ABF0FF1F40F0FF1FDA110100E211010064
:10A5100042F0FF1F43F0FF1F44F0FF1F0A480A49A3
:10A520008078C978002802D0084A815409E0094B94
:10A530000020074A1B7802E01154401CC0B2984228
:10A54000FAD3012070470000C4F0FF1F43F0FF1F43
:10A5500044F0FF1FE211010010B50348807805F0B8
:10A5600087FF012010BD0000C4F0FF1F38B50D4962
:10A570000022C878012804D0022804D0032806D17C
:10A5800003E0002038BD084A00E0084A521C0023BE
:10A590000093CB798C791B022343897805F06AFFFD
:10A5A000012038BDC4F0FF1FFDF6FF1F45F0FF1F5F
:10A5B000F8B53C4E3078357C307034790440E00793
:10A5C00008D001F071FA05F0F5FF3748006800285F
:10A5D00000D08047E00606D501F022FB3348006832
:10A5E000002800D08047A00606D501F0CDFA3048FB
:10A5F0000068002800D08047600704D52D48006817
:10A60000002800D08047022C07D12B480168002980
:10A6100001D0307A8847FF20307220073DD52806C8
:10A6200029076A07000FC90FD20F244E244D0028B6
:10A6300007D14B009B18DB00F35C9B061B0F0D2B17
:10A640000AD08400480020188018C700F05D8006FA
:10A65000000F012812D016E01A4802220168914327
:10A660000160307E4006400E3076307C4006400E61
:10A6700030742968002910D002200DE029590029E2
:10A6800001D004208847F05D8006000F092804D11E
:10A690002959002901D00820884701200A490006CD
:10A6A0000860F8BD8020074000120100041201007C
:10A6B000081201000C1201001012010000F8FF1F27
:10A6C0001412010048F0FF1F00E100E010B51C4823
:10A6D000402303701B484168052212041143416066
:10A6E000416B1A031143416300F036F81648017BB1
:10A6F000802211430173017B0906FCD41349124CDB
:10A70000090A803C217711490A0C0F4960390A7403
:10A710000E4A120E0A75FF2121700D4909680029A1
:10A7200000D004210B4A1268002A00D002221143F3
:10A730001922114321710370017B1943017310BD6C
:10A740004CF0FF1F008004400021074000F8FF1F6D
:10A750000C120100101201000120024900060860DD
:10A760007047000000E100E070B500F001F900283A
:10A770002AD01648022404704470154E0320346316
:10A78000307014480546FDF767FF022808D91149C3
:10A7900020461F39FDF72AFE29462046FDF726FEF2
:10A7A0000D488021007822460843084901F042FA0A
:10A7B0002846FDF751FF316B401A2946FDF716FE7A
:10A7C000044901200839087370BD00003EF7FF1FDF
:10A7D000F0F0FF1FC7FDFF1FE911010010B5104980
:10A7E0000878022808D003280FD0042810D00528A4
:10A7F00001D10020087010BD0A48C07B282801D074
:10A80000A828F8D100F054FA10BD00F05FFD10BD8B
:10A81000054880210078084300F072FDF5E700004C
:10A82000F0F0FF1FA0FDFF1FE911010010B5154852
:10A83000007800280DD001280ED005281BD0124822
:10A84000007800F05DFD11490220087300F03EFD24
:10A8500010BD00F0F9F810BD0C481F38C07B2A2845
:10A8600003D02F2804D0AA28F5D100F003FB10BD97
:10A8700000F090FA10BD064A06A1002001F056FA39
:10A8800010BD0000F0F0FF1FEA110100BFFDFF1F27
:10A89000270400002E2E5C2E2E5C2E2E5C736F750E
:10A8A0007263655C7573625C6D73635C757362641F
:10A8B0005F6D73632E63000010B511494868C8606E
:10A8C000002801D0012010BD0E48FDF7C5FE00286C
:10A8D0000DD00C480838007B000604D50A488021BA
:10A8E0000078084301E00948007800F009FD0549B7
:10A8F00001201731087300F0E9FC002010BD0000B2
:10A90000F0F0FF1FA8FDFF1FE9110100EA1101008F
:10A9100010B5124801798F200140080605D50807B7
:10A92000000F01221204824001E001228A400C48FB
:10A930000478802004438C420ED10A4800681042FB
:10A940000AD00948FDF788FE0849884204D10D2243
:10A950000549204601F06EF910BD0000C4F0FF1F4C
:10A96000E9110100B4F0FF1FBFFDFF1F5553425313
:10A9700070B50C48FDF770FE0A4C0225173400280C
:10A9800008D020461F38007B000608D4064800780F
:10A9900000F0B6FC257300F099FC002070BD01208A
:10A9A00070BD0000A8FDFF1FEA11010070B511483D
:10A9B000FDF752FE104C216B884202D82063032021
:10A9C00000E0042020700D4880210078226B0843AD
:10A9D0000B4901F02FF907481F300546FDF73CFEF3
:10A9E000216B401A2946FDF701FD0249002017316D
:10A9F000087370BDA8FDFF1FF0F0FF1FE9110100F3
:10AA00003EF7FF1F10B50648064902880648007841
:10AA100000F0DAFC05490863FFF708FF10BD0000ED
:10AA2000F01101003EF7FF1FEA110100F0F0FF1FD7
:10AA300010B50446400702D50020FFF7E3FF2007CA
:10AA400001D5FFF7CBFE10BDF8B5704E316B1F2955
:10AA500001D20A4600E01F2200206D4D6D4B02E03E
:10AA60001C5C2C54401C9042FAD36B488022007826
:10AA70000127104300901F2970D16548FDF7ECFDB8
:10AA8000664988426AD1281DFDF7E6FD604C1F34F7
:10AA9000211DFDF7ABFC20461738FDF7DDFD2146F3
:10AAA0000831FDF7A3FC687B002804D1A87B0028AF
:10AAB00001D0102801D9277374E0E87B2A283BD005
:10AAC00020DC1A2847D00EDC0428F4D006DC00284D
:10AAD0003BD00328EFD100F079FBF8BD1228EAD172
:10AAE00000F0AAF8F8BD23283CD006DC1B282FD0A4
:10AAF0001E28E0D100F0CCF8F8BD252835D0282854
:10AB0000D9D13BE09E2836D00EDC5528D3D004DCCA
:10AB10002F2842D03528CED103E05A281FD09128C3
:10AB2000C9D100F01DFCF8BDA12821D0A3284ED02A
:10AB3000A82823D0AA28BED100F088FA0028F2D095
:10AB4000287B00063BD43770F8BD00F013FCF8BD3D
:10AB500000F0ECFBF8BD00F04BFAF8BD3BE000F074
:10AB600015FAFAE700F0F6FAF7E700F0CDFAF4E7A5
:10AB7000FFF7FAFDF1E700F07DFBEEE700F066FA83
:10AB80000028EAD0287B000604D50220307000F0AF
:10AB90008FF8E2E72248007815E0287C800704D48B
:10ABA0000020207300F092FBD7E700F04FFA002856
:10ABB000D3D0287B000602D437703762CDE7164821
:10ABC00080210078084300F09BFB0220E9E7009811
:10ABD00000F096FB6FE7104C009800F091FB207896
:10ABE000104C0107090F01200004884021680C4D1A
:10ABF00008432060287800F083FB2878874020688D
:10AC00000743062027603070A7E70000F0F0FF1F21
:10AC1000A0FDFF1F3EF7FF1FE911010055534243FE
:10AC2000EA110100B8F0FF1F02490020087001205E
:10AC3000704700007CF6FF1F10B5FFF799FE002853
:10AC40001FD0104B0020187080215970022199707C
:10AC5000D97020241C7158719871D8710A48016804
:10AC600008200A78002A02D01A54491C00E01C541B
:10AC7000401CC0B22428F4D3044924200863FFF701
:10AC800095FE10BD3EF7FF1F38F0FF1FF0F0FF1FCD
:10AC900010B50548C07CC107044800D001210173EC
:10ACA00000F014FB10BD0000A0FDFF1FBFFDFF1F43
:10ACB000F8B5334D334FA969686A002688420AD334
:10ACC000387880210024084300F01AFB2E480673D0
:10ACD00000F0FCFA08E02D48007841002C48445A66
:10ACE000E86A844200D30446FFF7E6FD002800D15D
:10ACF0000024A86A00282ED0002C0ED0A96AE8698A
:10AD00008022411838781043224600F093FFA86A49
:10AD10000019A862E86A001BE86229696869AA6AE2
:10AD20004143914203D1AE62696A081868621648CD
:10AD300008300746FDF790FC001B3946FDF756FB2F
:10AD4000002C07D0E86A002817D02878022801D004
:10AD50000D480673F8BD002CDFD02969E86A401859
:10AD6000401EFDF78AFC69690246884200D90A46FE
:10AD7000E969686A05F0E0FBC0E703202870E7E7AF
:10AD8000F0F0FF1FE9110100BFFDFF1FABF0FF1F37
:10AD9000EC110100F8B5334C0025A169606A8842C6
:10ADA00008D331482563007800F0AAFA2F480573CC
:10ADB00000F08CFAFFF780FD002806D0206B0028F9
:10ADC00024D0A06A002802D010E025631EE021698B
:10ADD000E06A4018401EFDF750FC61690246884257
:10ADE00000D90A46E169606A05F0A6FB0020204907
:10ADF000A76A266B08E0E3693A189A5C0B5C9A42F2
:10AE000001D0256202E0401CB042F4D3266BA06A58
:10AE10008119A162E06A871BE76222696069424387
:10AE20008A4203D1A562616A081860620F4808303F
:10AE30000546FDF711FC801B2946FDF7D7FA002EC9
:10AE40000CD0002F02D02078052807D1206A0028D6
:10AE500005D000200549087300F038FAF8BD01203C
:10AE6000F8E70000F0F0FF1FEA110100BFFDFF1F2F
:10AE70003EF7FF1FF8B5384D384FA969686A0026BC
:10AE8000884207D336482E63007800F039FA3E73C3
:10AE900000F01CFAFFF710FD002800D12E63296B8B
:10AEA000A86A40182969401E884205D9ED222DA1C3
:10AEB000002000F03BFFF8BD0020334905E0AB6AFD
:10AEC0000A5C1B18EC69401CE2542A6B9042F6D3D2
:10AED000A86A8018A862E96A891AE962002A25D05E
:10AEE000002914D1002812D029694018401EFDF70E
:10AEF000C4FB69690446884200D90C462246E969C8
:10AF0000686A05F031FBAE62686A00190DE0696994
:10AF10002B690A465943814208D1E969686A05F0FC
:10AF200023FBAE626969686A401868620B480830A2
:10AF30000090FDF791FB2C6B0099001BFDF756FA72
:10AF4000002CB8D0E86A002802D028780528B2D1B1
:10AF50003E7300F0BBF9F8BDF0F0FF1FBFFDFF1F0F
:10AF6000EA1101002E2E5C2E2E5C2E2E5C736F7566
:10AF70007263655C7573625C6D73635C7573626448
:10AF80005F6D73632E6300003EF7FF1F70B5FFF720
:10AF9000EFFC002824D0FFF78FFC002820D01148B8
:10AFA00000210170062242700F4B81701A7A08242A
:10AFB000D201C270017141718171C1710B481C6372
:10AFC0000546FDF749FB082808D9084920461F39DE
:10AFD000FDF70CFA29462046FDF708FAFFF7E6FCD4
:10AFE00070BD00003EF7FF1FF0F0FF1FC7FDFF1F01
:10AFF00070B5FFF7BDFC002820D0FFF75DFC0028EE
:10B000001CD00F480321017000210E4B41701A7AA9
:10B010000424D2018270C1700B481C630546FDF701
:10B020001BFB042808D9084920461F39FDF7DEF923
:10B0300029462046FDF7DAF9FFF7B8FC70BD00009D
:10B040003EF7FF1FF0F0FF1FC7FDFF1FF8B52A48AE
:10B05000FDF702FB284D00BA040A113D287D2402A9
:10B060000443264E00207462B062E87B2F280AD089
:10B0700004DC28280BD02A281CD104E0A82810D0F2
:10B08000AA2817D109E0FFF717FC002830D0E87D87
:10B09000A97D0002084344BA0CE0FFF70DFC00282C
:10B0A00026D01548001DFDF7D7FA00BA040A287EFD
:10B0B00024020443306944430F48F4620938FDF721
:10B0C000CBFA0D4F01260E3700280DD0A04210D02C
:10B0D000287B000604D50A4880210078084301E057
:10B0E0000848007800F00CF93E7300F0EFF80020FB
:10B0F000F8BD0120F8BD0000B1FDFF1FF0F0FF1FFB
:10B10000E9110100EA11010010B5FFF731FC002838
:10B110001AD0FFF7D1FB002816D00C4A0C489169D1
:10B12000491E0B0E03700B0C43700B0A8370C17029
:10B1300011690B0E03710B0C43710B0A8371C17102
:10B1400008201063FFF732FC10BD0000F0F0FF1F75
:10B150003EF7FF1F70B5FFF70BFC00282ED0FFF75E
:10B16000ABFB00282AD01648002101704170817085
:10B170000821144AC17091690C240B0E03710B0C49
:10B1800043710B0A8371C1710221017211690B0CA9
:10B1900043720B0A8372C1720B4814630546FDF7B4
:10B1A0005BFA0C2808D9084920461F39FDF71EF91B
:10B1B00029462046FDF71AF9FFF7F8FB70BD00009D
:10B1C0003EF7FF1FF0F0FF1FC7FDFF1F70B5FFF731
:10B1D000CFFB00282ED01B487021017000211A4B94
:10B1E00041705A68DD681446AC4306D0062484706A
:10B1F000282404734173DA600AE0002A1BD0134A42
:10B20000127B002A1BD00522827020220273417318
:10B21000C1700171417181710A22C2710172417262
:10B220008172C1728173C1730174417412201863F9
:10B23000FFF7BCFB70BD022282703A22E6E7817004
:10B240000173E4E73EF7FF1FF0F0FF1FBFFDFF1F94
:10B2500010B505480024046004492046FDF7C6F8EF
:10B2600003480470012010BDB8F0FF1FBFFDFF1F91
:10B27000F0F0FF1F70B5FFF77BFB00281DD00F48D3
:10B280002022027000214170C1770D4C03202263FF
:10B2900020700C48802100780843084900F0CAFC5F
:10B2A00009480546FDF7D8F9216B401A2946FDF7F4
:10B2B0009DF8054901200839087370BD3EF7FF1F4E
:10B2C000F0F0FF1FE9110100C7FDFF1F10B508498D
:10B2D0000848FDF78BF80848802100780D220843C4
:10B2E000034900F0A7FC05490520087010BD0000C7
:10B2F000BFFDFF1F55534253E9110100F0F0FF1F3E
:10B3000010B5044600F058FC200605D52107090FAA
:10B3100001200004884001E00120A04002490A68A1
:10B320001043086010BD0000B4F0FF1F10B50A48BC
:10B33000817C04461F34002904D001202073FFF7CC
:10B34000C5FF10BDC07C0549C007C00F486005F0AF
:10B3500009F90020F2E70000A0FDFF1FF0F0FF1F39
:10B3600010B5034900200873FFF7B0FF10BD0000BF
:10B37000BFFDFF1F10B51048FDF76EF90E4C1734D6
:10B3800000280FD020461F38007B000604D50B484C
:10B3900080210078084301E009480078FFF7B0FFFA
:10B3A000012004E0FFF788FA002803D00020207372
:10B3B000FFF78CFF10BD0000A8FDFF1FE911010081
:10B3C000EA11010070470000F7B5074682B000207F
:10B3D00000903807860E2E48F50028180190448802
:10B3E000002F07D12A48405D8006000F0D2801D1AB
:10B3F000012000900498A04206D2FF22B73225A176
:10B40000002000F093FC049C214A0020B101A032EE
:10B41000891803E0039A0B5C1354401CA042F9D333
:10B420002A487608C15D0198194F41802748795D07
:10B43000001F0068F040C0074906C00FC90F8842CE
:10B440000CD10098002803D00398807900280DD0F3
:10B4500001211E48B140001F02F029FB1B48001FBC
:10B460000068F040C00708D0C82007E01748012155
:10B47000C943001F02F00FFBF0E7882078551448FD
:10B48000017DDF2211400175204605B0F0BD0000AE
:10B4900000F8FF1F2E2E5C2E2E5C2E2E5C736F7517
:10B4A0007263655C6869635F68616C5C6672656540
:10B4B0007363616C655C6B6C32367A5C7573626465
:10B4C0005F4D4B4C32365A342E6300004CF0FF1F58
:10B4D0008020074010B5FFF71BFA10BDFEB54B4E9C
:10B4E0004B4D30784B4CC006C00E02D0012873D1B2
:10B4F00073E04948F778027845484449C07889782C
:10B500003B0000F0C3FB087C05134E7C7C09367CB5
:10B510004248206012205DE0002A70D0002803D04D
:10B520003F4820600A2055E03E48FAE7002A01D152
:10B53000012864D0002803D03B48009000200CE094
:10B540003A48FAE7009A1378002B05D0D37896781A
:10B550001B0233439A180092401C8142F2D100989A
:10B56000017800294BD02060C1788278080210430E
:10B5700030E0002A43D0002803D02D48009000205E
:10B580000CE02C48FAE7009A1378002B05D0D3780A
:10B5900096781B0233439A180092401C8142F2D1E4
:10B5A000DDE725480090032901D0002009E001F0E3
:10B5B0005DFD0DE0009A1178002901D089180091F5
:10B5C000401CB1788142F5D100980178002916D04D
:10B5D00020600078019006E011E001A9684600F0C3
:10B5E0002FF800280CD0A188019881420BD980B295
:10B5F0001249A0800978491E084202D003E00020C9
:10B60000FEBD012028710120FEBD0000C4F0FF1F17
:10B61000A8F0FF1FBCF0FF1FD3110100861201002C
:10B6200099120100981201001D1301009A120100E5
:10B630001F1301001E13010020130100D611010089
:10B6400030B5174A174B164CD278174D24791B7812
:10B65000212A02D0222A20D116E09C421DD1134A71
:10B660001378134A002B127801D1012A15D0002A31
:10B6700008D0104A026010460F4A128880182860CD
:10B68000092007E00D4AF5E79C4206D10C482860E6
:10B690000C4800880860012030BD002030BD00004B
:10B6A000C4F0FF1FD7110100BCF0FF1FD311010030
:10B6B000ABF0FF1F1D130100841201009A1201005C
:10B6C000601201008212010070B51D481D4B007808
:10B6D000C106C90E0AD01D461948143D1A4C6A7895
:10B6E0000079012906D0022928D10AE015480E3830
:10B6F000186021E0002A21D0A97888421ED20020BB
:10B7000016E08F210840010605D50607360F0121F6
:10B710000904B14001E001218140002A01D1000764
:10B720000CD1A868084209D0E868084000D0012080
:10B730002070000A60701C60012070BD002070BD88
:10B74000C4F0FF1FBCF0FF1F7CF6FF1F70B5274B36
:10B75000024618781946C0064988254EC00E04D006
:10B7600001282BD0022829D111E0012926D1022459
:10B77000002A05D0012000F05BFAF088204304E0A5
:10B78000002000F055FAF088A043F0802CE01C79EE
:10B790008F200440200605D52007000F01252D0429
:10B7A000854001E00125A5407078002806D02007DB
:10B7B00004D0B068284201D0002901D0002070BD1B
:10B7C000002A05D0204600F0F7F9F06828430AE087
:10B7D0003069284208D12046FEF72CFA2046FFF7B0
:10B7E00079FEF068A843F060012070BDC4F0FF1F2F
:10B7F000A8F0FF1FF8B55A4800260178C906C90EFF
:10B800007ED1574F80781C3F00287FD05548017863
:10B810003846C078002901D1012871D0002801D014
:10B82000514C6CE0514C6AE06078022804D0042846
:10B8300046D0052861D145E0494861798078814248
:10B8400039D178702079B8704A490020484A0B886D
:10B8500002E000211154401C9842FAD30125012036
:10B86000B968A840084202D02846FEF74DFA0120E8
:10B870000004B968A840084204D028468021084343
:10B88000FEF742FA6D1C102DE9D33B48B86000204A
:10B89000F86038613D460120FEF7EAF9E07940069C
:10B8A00004D5E98801200143E98026E0E8884008C2
:10B8B0004000E88021E0E078A178000208431DE024
:10B8C000E6781AE0002E18D1A5788F2005402806CA
:10B8D00005D52907090F01200004884001E0012057
:10B8E000A840B96801432046B960FEF7B1F928467F
:10B8F000FEF71CFA284600F007F92078041901E049
:10B9000029E003E0207800288ED11FE000250124E3
:10B910007D7080260120B968A040084202D02046F0
:10B92000FEF7F2F901200004B968A040084203D0F4
:10B9300020463043FEF7E8F9641C102CEAD3FD6082
:10B940000D483D61B8600020FEF792F9044879780F
:10B950008078884201D00020F8BD0120F8BD0000A9
:10B96000C4F0FF1FD31101001D1301009A12010042
:10B970003CF0FF1FD411010001000100F0B585B0BB
:10B98000002744480397019700783E46C006C00E42
:10B9900001287DD13F491C394878002875D0002006
:10B9A00002903D4802780846C078002A01D101285B
:10B9B0006ED0002801D0394C63E0394C61E06078EA
:10B9C000022804D004280DD0052858D11CE03148A5
:10B9D00061791C384078814251D0E078A17800022A
:10B9E00008434DE0A778E6780020019029480179C6
:10B9F000B94244D18078B04241D101200290294817
:10BA0000C15D0391C6553AE022490879B84236D162
:10BA1000A0788F22104000900006009804D50007FF
:10BA2000000F01252D0400E0012585408878B042F3
:10BA300014D118481C38816829438160C168A94322
:10BA4000C1602046FEF704F90098FEF76FF90098F0
:10BA500000F05AF801982843019010E003988642BC
:10BA60000DD1019828420AD10A481C388168A9439F
:10BA70008160C168A943C1600098FEF745F920784C
:10BA80000419207800289AD1029805B0F0BDFFE78C
:10BA90000020FAE7C4F0FF1FD31101001D130100BD
:10BAA0009A1201003CF0FF1F0120124A002183007E
:10BAB0009B181970401C1028F9D30F48402343806D
:10BAC0000346A0334360C823037001720B4B4361EC
:10BAD000C1610D2010700B4A0948106005484038BC
:10BAE000027D02231A430275FF2202700272027362
:10BAF00001767047C020074000F8FF1F20F9FF1FA4
:10BB00005555555548F0FF1FF8B505461A4F010623
:10BB10003E462C070120A03E240F002917DA6100C1
:10BB2000491C8840EFF31081C907C90F72B6134B47
:10BB30001A6802431A60002900D162B62002C119B6
:10BB400080316001801941610021C161F8BD690047
:10BB50008840C143094801F09EFF08486101001D6B
:10BB6000425D881942802202D219426088227254B2
:10BB700000210172F8BD0000A0F8FF1F48F0FF1F70
:10BB800010B5FDF7D3FF10BD02480179DF22114047
:10BB9000017170478020074010B5FEF723FCFDF7C8
:10BBA000C9FF10BD002903D140060249400E0876A6
:10BBB00070470000802007400007810E03480818E6
:10BBC000017802221143017070470000C020074035
:10BBD00010B5082202490020FFF7F6FB10BD000057
:10BBE000C4F0FF1F10B5034881680120400201F036
:10BBF000A7FB10BD10F2FF1F10B5002211468020D8
:10BC000000F018F810BD000010B503480349027891
:10BC10000020FFF7D9FB10BDD61101007CF6FF1FF5
:10BC200002480179202211430171704780200740AA
:10BC300070470000F8B50007114F840E1646A41C8B
:10BC4000E200D01946803D460023A001A0354519E9
:10BC500002E0C85CE8545B1CB342FAD309496008AF
:10BC60000968C140C90701D0882100E0C821B95442
:10BC700001218140034801F01AFF3046F8BD000061
:10BC800000F8FF1F48F0FF1F0020704730B47446D3
:10BC9000641E2578641CAB4200D21D46635D5B00C8
:10BCA000E31830BC184710B5002A06DA52005208D3
:10BCB000D21DD308DB00102203E0D21C93089B00A6
:10BCC0000C22002B02D09C188C4201D9012010BDFF
:10BCD00082188360411802604160C91AD0188842F6
:10BCE00002D810600246F9E70020106010BD000085
:10BCF000B0B5044603F044F8002804D0034F0249CD
:10BD0000BC46206800DFB0BDFFFF0000E1E7000097
:10BD1000B0B5044603F034F8002803D0024F206881
:10BD2000BC4600DFB0BD000039E70000F8B516469C
:10BD30000F4600281BD1EFF31080C507ED0F72B638
:10BD400000231A461946184600F0DCF8040003D117
:10BD50003146384600F01AF9002D00D162B6002CA9
:10BD600005D1EFF30380C00601D104F06DFEF8BDEC
:10BD700010B524220D490E48FCF7BAFA04F038FF3A
:10BD80000C4804F02FFF04F0B3FD0B4901220860BA
:10BD90000A4952020A600A4A012111600949400A0F
:10BDA00008600A490848086010BD0000FC13010043
:10BDB000A8090020ADC3000024F1FF1F00F1FF1F00
:10BDC00004F1FF1F08F1FF1FA80700200CF1FF1F5F
:10BDD000044841788078814201D0012070470020DA
:10BDE00070470000ACF1FF1F70B501256D02BB224A
:10BDF00029460A48FCF7F1FA094800240460446027
:10BE00008460C460BB2229460648FCF7E6FA034872
:10BE10001038046044608460C46070BD6CF4FF1F1F
:10BE20006CF6FF1F5CF2FF1F10B500F0A1FB10BD08
:10BE300010B500F09DFB10BD02488079002800D0AD
:10BE40000120704728F1FF1F0248C079002800D068
:10BE50000120704728F1FF1FF8B54B211F48FCF760
:10BE6000F7FB4B271E48FCF7F7FB1C4C1D4E1C4DE7
:10BE70004034B04213D168792A79010211434B2929
:10BE800001D20A4600E04B224B2901D90F4600E0BF
:10BE90004B2713491148FCF733FB0020E0714B217D
:10BEA0000F48FCF7D5FB0E493046FCF79FFA2F717F
:10BEB000390A697109494122C91DE81DFCF720FBB7
:10BEC000607A227A01020648114340300172090A61
:10BED0004172A17A817200F08BF8F8BDCCFDFF1F92
:10BEE000002F0020646C766B10B541210448FCF7EC
:10BEF000AFFB0348002139300172417210BD0000D0
:10BF0000072F0020FFB581B01D4616460F461A4880
:10BF1000FCF784FA441C0198002802D03946FCF74B
:10BF200097FB0020002E00D03080002D00D028701C
:10BF30001149C91FC87900281CD0BC4202D8C91DAC
:10BF4000224603E0E01B4118C91D3A460A4C0198FD
:10BF50003934002804D0607A237A000218433080F4
:10BF6000002E02D00198FCF7CBFA002D01D0A07A68
:10BF70002870012005B0F0BD072F0020024880790D
:10BF8000002800D001207047002F0020F3B581B0B9
:10BF90000746FCF743FA124D441C41263146E81D82
:10BFA000FCF756FB412C02D83946224602E0413CC0
:10BFB000E1193246E81DFCF7A3FA094C0298403417
:10BFC0002072000A607200F0FCF8002801D0012005
:10BFD00004E000F0F8F8002800D00220A072FEBDB6
:10BFE000002F00200149887170470000002F0020B9
:10BFF00070B5002211461046FDF768F808221C496A
:10C000001C48FCF77DFA1C48FCF726FB1B4D1A4C1C
:10C01000A8420FD16079217900020843082804D290
:10C020006079217902020A4300E00822124911488E
:10C03000FCF766FA0F492846FCF7D8F90D4A0821A3
:10C040001171002050710C48FCF706FBA84205D185
:10C050006079217900020843082801D2012000E01C
:10C060000020002802D0034801F03CFC70BD000015
:10C07000D213010028F1FF1F00FC0100646C766BF5
:10C0800010B503498871084601F02CFC10BD000072
:10C0900028F1FF1F10B50349C871084601F022FCC2
:10C0A00010BD000028F1FF1FF8B50024E4430F463F
:10C0B0000646002512E0705D082102F061F80006D6
:10C0C00044400A490820002C02DA64004C4000E099
:10C0D0006400401E0006000EF5D16D1CBD42EADB77
:10C0E0002021204602F04CF8C043F8BDB71DC10422
:10C0F000F8B50E4617462021C04302F041F8044629
:10C10000002512E0705D082102F03AF80006444074
:10C110000A490820002C02DA64004C4000E0640068
:10C12000401E0006000EF5D16D1CBD42EADB202149
:10C13000204602F025F8C043F8BD0000B71DC10439
:10C1400070B514460D460646FF2A07D8FF22DD3299
:10C150000AA10020FFF7EAFD022070BD00F030FCCC
:10C16000002801D00E2070BD2A462146304600F03E
:10C17000C3FD0028F7D01C2070BD00002E2E5C2EC1
:10C180002E5C2E2E5C736F757263655C6461706CDF
:10C19000696E6B5C647261672D6E2D64726F705C8A
:10C1A0006961705F666C6173685F696E74662E6347
:10C1B00000000000C1060007000F002900DB093065
:10C1C0007047002070470120704710B500231A46C1
:10C1D00000F008FA002800D0012010BD10B504F0CE
:10C1E00097FA012800D0002010BD0000F8B5164EC7
:10C1F0001F2530780024AD02012806D0FF223732F7
:10C2000012A10020FFF792FD0AE0B0780227002873
:10C2100008D0FF223D320DA10020FFF787FD3770C7
:10C220000220F8BD204600F02DF8002802D037701B
:10C230001E20F8BD012080022418AC42F2D3012058
:10C24000B0700020F8BD000088F1FF1F2E2E5C2E7C
:10C250002E5C2E2E5C736F757263655C6461706C0E
:10C26000696E6B5C647261672D6E2D64726F705CB9
:10C270006961705F666C6173685F696E74662E6376
:10C2800000000000F8B5254E05463078012805D09D
:10C29000FE2223A10020FFF749FD1AE00127BF027B
:10C2A00039462846FCF7E9F90224002902D0FF228A
:10C2B000073209E0F07800280DD0F168B068401826
:10C2C000A84208D0FF220E3215A10020FFF72EFD54
:10C2D00034700220F8BD01227F20D20380020121A8
:10C2E000954203D3854201D2002000E00846002891
:10C2F00010D0F170F7602846B56000F0DFFF22280B
:10C3000003D00028E6D03470F8BD284600F058FB72
:10C310000028F9D034701D20F8BD000088F1FF1FFF
:10C320002E2E5C2E2E5C2E2E5C736F757263655CF8
:10C330006461706C696E6B5C647261672D6E2D64F4
:10C34000726F705C6961705F666C6173685F696E63
:10C3500074662E6300000000012080027047000018
:10C3600010B5242804D2064980000858002805D1B9
:10C37000832204A10020FFF7D9FC0AA010BD000011
:10C38000081801002E2E5C2E2E5C2E2E5C736F750D
:10C390007263655C6461706C696E6B5C6572726F10
:10C3A000722E63000000000070470000F8B51E46C2
:10C3B00015460C46074604F0A9FC022C1DD0002CA3
:10C3C0001AD1384602F00EFF032815D0304604F08B
:10C3D00065FA800710D4384602F004FF074630465D
:10C3E00004F05EFA0446304604F060FA01463B462B
:10C3F0002246284603F0A4FCF8BD09480068A8427C
:10C40000FAD1304604F04CFA0446304604F04EFAB5
:10C410000646384602F0E6FE034622463146E8E785
:10C42000A8090020F7B51B4E0446B07F55021746F9
:10C4300000280BD12946019802F090FE032802D073
:10C44000214603F029FCB07F002810D07068A0427C
:10C450000DD8B068A0420BD0A04208D9F068401CAB
:10C4600000D1F460F068A04200D20446F460FEBD42
:10C47000B0692A468018B061E019B060F07F0028EA
:10C4800003D0002003F0A8FCFEBD2046019903F074
:10C49000ABFBFEBDA8090020F0B585B018A1096866
:10C4A00004910378002104AA545C9C4226D0491CC4
:10C4B0000329F9D313A10A688E6896464A68CD68A5
:10C4C00000239446C25C714664466F4652C71146CB
:10C4D00061390395192911D9202A01D2052A0DD1D4
:10C4E00000216C46675C974208D0491C1029F9D39B
:10C4F0005B1C042BE6D3012005B0F0BD0020FBE758
:10C50000E5002000222A2B2C2E2F3A3B3C3D3E3FBB
:10C510005B5C5D7C0348C168012292021143C160EB
:10C5200070470000003000F010B5002804D05B1EFA
:10C530000C461C4204D101E0042010BD1A4201D077
:10C54000652010BD03688B4204D84068891818180C
:10C55000884201D2662010BD002010BD03498842E8
:10C5600001D06B2070470020704700006B66656B40
:10C5700070B50E4D00202C78002C0FD000212970B2
:10C58000A978002901D000F037FB022C05D069788A
:10C59000032902D0002800D1212070BDFF223432AF
:10C5A00003A10020FFF7C2FB022070BD5CF1FF1F5A
:10C5B0002E2E5C2E2E5C2E2E5C736F757263655C66
:10C5C0006461706C696E6B5C647261672D6E2D6462
:10C5D000726F705C666C6173685F6465636F6465DD
:10C5E000722E63003EB51D460446302901D301205A
:10C5F00000E00020402212A1FFF798FB21460C2208
:10C6000020316846FBF77CFF1A49019888420BD11C
:10C6100019490098884201D102203EBD1649FC39D3
:10C6200088420AD101203EBD204604F04BF8002884
:10C6300001D1002D01D003203EBD00203EBD0000F1
:10C640002E2E5C2E2E5C2E2E5C736F757263655CD5
:10C650006461706C696E6B5C647261672D6E2D64D1
:10C66000726F705C666C6173685F6465636F64654C
:10C67000722E6300019996978F9E939BFFB581B0B0
:10C680000746002504982C46002813D00A98002855
:10C6900010D00499002008600A9906460860FFF748
:10C6A00090FD002812D00120C003022F04D0032FD8
:10C6B0000AD024E0652237E00399002904D00299CA
:10C6C000814201D018251AE0064610E0FFF77BFDF5
:10C6D000002813D0012F02D0032F0AD00FE00398B7
:10C6E000002804D00298002801D0172507E011483F
:10C6F00002E0114886681148046800E01925FFF738
:10C70000A3FB002801D1012F04D0002D04D028461E
:10C7100005B0F0BD1925FAE7002C04D00498066096
:10C720000A980460F3E79D2205A10020FFF7FEFAB6
:10C730000220EDE7F81301002C1A0100D8180100BF
:10C740002E2E5C2E2E5C2E2E5C736F757263655CD4
:10C750006461706C696E6B5C647261672D6E2D64D0
:10C76000726F705C666C6173685F6465636F64654B
:10C77000722E630010B50D4C2078002806D0AC2234
:10C780000BA10020FFF7D2FA022010BDFF223021BA
:10C790001448FBF722FE01202070002060706060CA
:10C7A000A060E060A070E07010BD00005CF1FF1FB1
:10C7B0002E2E5C2E2E5C2E2E5C736F757263655C64
:10C7C0006461706C696E6B5C647261672D6E2D6460
:10C7D000726F705C666C6173685F6465636F6465DB
:10C7E000722E63002CFFFF1FF7B5494F05463878BE
:10C7F00084B01446012807D0C12246A10020FFF7CB
:10C8000095FA022007B0F0BDF878002803D1BD608A
:10C810000120FD60F870B878002856D1F9688D4283
:10C8200001D1012000E000200919F96000282FD073
:10C83000786830210E1AA64200D91646424932467F
:10C8400008180599FBF75CFE7868A41B80197860CE
:10C850000599AD1989190591302829D316D00020E2
:10C86000E3222CA1FFF762FA01233748BA687968FE
:10C87000FFF7B8FE787001A8009002AB012278782B
:10C88000B968FFF7FBFE002826D103E00120E7E7A7
:10C890000320EFE7B87801267040FC221DA1FFF7C6
:10C8A00045FA019800F046F9002815D1BE7002E063
:10C8B000B878002813D024497A68B86800F0ACF83A
:10C8C000002809D1B878002809D0224628460599C1
:10C8D00000F0A2F8002802D00321397092E778789E
:10C8E000012804D0022805D003280FD105E01F201D
:10C8F000800204E07F20800201E01448C06829190A
:10C90000814203D30220387010207BE7002079E7B2
:10C910005CF1FF1F2E2E5C2E2E5C2E2E5C736F752D
:10C920007263655C6461706C696E6B5C6472616794
:10C930002D6E2D64726F705C666C6173685F6465E8
:10C94000636F6465722E63002CFFFF1F2C1A0100B9
:10C95000F8B5064617460C461846FFF7FFFD0028B7
:10C9600029D104233A4621463046FFF7DDFD050074
:10C9700021D1E7197F1EF16838460091FBF77DFE53
:10C98000002915D0009F401C47437F1E10E00A4835
:10C990000068046009490920C871FBF739FD0546A4
:10C9A000B069002800D08047002D03D1F068041939
:10C9B000BC42ECD92846F8BDF01801000000024046
:10C9C00010B5EFF31081CC07E40F72B6FCF73CFB17
:10C9D000002C00D162B610BD002814D00C49C968E3
:10C9E0001E22C90D11400B4A515A09030DD00022D5
:10C9F00002604160012181600261426189028261BD
:10CA0000C1601046704704207047642070470000E2
:10CA100040800440B2110100F7B5374F0446387822
:10CA2000002582B01646012805D0782233A10020C7
:10CA3000FFF77CF909E07869844209D280222FA1AE
:10CA40000020FFF773F902203870022005B0F0BD16
:10CA5000B878002809D10120B870204602F084FA85
:10CA6000050002D00220387044E0234FBA6878688D
:10CA70008118A14215D8B9698B682D4998470500DE
:10CA800003D01D490220087034E0B968FF2228480D
:10CA90000091FBF7A2FC01207870796800980818D3
:10CAA0007860002E24D03969F8684018A04204D874
:10CAB000204602F059FA0500E3D10F494868896819
:10CAC000201A0F1ABE4200D2374619493A460818B2
:10CAD0000399FBF715FD002F08D000200649E41943
:10CAE00048700398C019F61B0390BEE70120F5E7D4
:10CAF000014844612846A9E76CF1FF1F2E2E5C2EE9
:10CB00002E5C2E2E5C736F757263655C6461706C55
:10CB1000696E6B5C647261672D6E2D64726F705C00
:10CB2000666C6173685F6D616E616765722E63002C
:10CB30005CFFFF1F70B5214D04462878002801D006
:10CB4000462232E0002C2FD0606800282CD0A0684C
:10CB5000002829D0E068002826D02069002823D0AA
:10CB60006069002820D0A06900281DD00121FF2283
:10CB700089021348FBF731FC01266E700020A87073
:10CB80006860A860E8602861AC61686120688047DF
:10CB9000002808D1A8690069804704000BD0A86963
:10CBA00040688047204670BD4C2206A10020FFF758
:10CBB000BDF8022070BD2E7070BD00006CF1FF1F2B
:10CBC0005CFFFF1F2E2E5C2E2E5C2E2E5C736F756D
:10CBD0007263655C6461706C696E6B5C64726167E2
:10CBE0002D6E2D64726F705C666C6173685F6D6131
:10CBF0006E616765722E630070B5194C0025207850
:10CC0000002802D0012807D010E0CA2215A1002078
:10CC1000FFF78CF8022070BD6078002806D1A0696B
:10CC20001D498368A268606898470546A069406806
:10CC3000804706460121FF2289021748FBF7CDFBFA
:10CC4000012000216070A1706160A160E16021613C
:10CC500061612170002E01D0304670BD284670BD44
:10CC60006CF1FF1F2E2E5C2E2E5C2E2E5C736F75CA
:10CC70007263655C6461706C696E6B5C6472616741
:10CC80002D6E2D64726F705C666C6173685F6D6190
:10CC90006E616765722E63005CFFFF1FFFB581B098
:10CCA0001E4615000F4607D0042332460198FFF7B1
:10CCB0003BFC040001D116E0042005B0F0BD0C4897
:10CCC0000068076002CD41600A490620C871FBF781
:10CCD0009FFB044601988069002800D08047002C03
:10CCE00003D13F1D361F002EE9D12046E5E70000A5
:10CCF000F01801000000024010B5EFF31083DC07CC
:10CD0000E40F72B6FCF722FA002C00D162B610BD17
:10CD1000FFB581B015460F4604460423FFF704FC17
:10CD2000002826D1A1686068FBF7A7FC0090794233
:10CD3000404201404E42BE4201D100983618002DBB
:10CD400016D0F41BAC4200D92C460B49A008096848
:10CD50000F600A490122CA71020ACA7288720498D5
:10CD60004872FBF755FB002803D12D1B3F19E4E760
:10CD7000002005B0F0BD0000F018010000000240E6
:10CD8000F8B5079F1C0016460D4605D00423FFF793
:10CD9000CBFB002801D11BE00420F8BD0E48006841
:10CDA00005600E490222CA71069ACA722168816022
:10CDB000FBF72EFB002808D0002F00D03D6008991B
:10CDC0000029EAD000220A60F8BD361F241D2D1D5F
:10CDD000002EE3D1F8BD0000F01801000000024071
:10CDE000034601220149002018470000D80900200D
:10CDF000024800698007C00F7047000040F00F40F4
:10CE000000B51848816B1F225202114381631649F5
:10CE10008015086108610861144A5060886000202C
:10CE200000F032F8002000F025F8002000F036F87D
:10CE30000F480168042319430160426910210A4325
:10CE4000426142690A43426142690A43426141695F
:10CE5000194341610648803841690222914341618A
:10CE600000BD00000080044000C0044000A0044059
:10CE7000C0F00F4010220349012801D04A607047DA
:10CE80008A607047C0F00F4010220349012801D08A
:10CE90004A6070478A607047C0F00F401022034913
:10CEA000012801D04A6070478A607047C0F00F4087
:10CEB000264E274C274D2648274F31461830BC4672
:10CEC00000DFA0682349800140194039FBF7F4FCDA
:10CED000A06820498001401940224039FBF710FB2F
:10CEE000A0680521401CFBF7C8FB19481B4F2030E8
:10CEF000BC46A16000DF1B4F31461948BC4600DF2D
:10CF00002078002819D0002020701148124F314697
:10CF10002030BC4600DFE06840228001411900203B
:10CF200003F03EFAE0680521401CFBF7A6FB084829
:10CF30000A4F1030BC46E16000DF0B4F0848BC468A
:10CF400000DF002000F034FAB5E70000FFFF00002A
:10CF500034F2FF1FF01E0020C9EA00008DEA000035
:10CF600030200020E1E7000039E7000070B50F4CE9
:10CF700000206060A060E0600D492061FFF794F838
:10CF8000606001200B49C003FFF78EF80125A06007
:10CF9000AD021F2029468002FFF786F8E0607F205F
:10CFA00029468002FFF780F8206170BDF0F1FF1F75
:10CFB000FC7B0000FC7B01000048704704F2FF1F6F
:10CFC0000021064B0A6A01209A4200D00020496ADB
:10CFD000034A914200D0002070470000939D939B2C
:10CFE0000199969700B5FFF7EBFF002801D00020CC
:10CFF000806A00BD0148406870470000F0F1FF1FE3
:10D000000148806870470000F0F1FF1F004870473A
:10D01000DC150020004870479A1500200120C1034C
:10D02000054B0A6A9A4200D00020496A034A91429D
:10D0300000D00020704700008F9E939B0199969727
:10D0400000B5FFF7EBFF002802D00120C003806A83
:10D0500000BD0000004870478D1500200048704753
:10D06000BB150020004870475C1500200048704741
:10D07000E51500200048704709F2FF1F70B5FFF763
:10D0800075FF1F4800F0FCFF01F014FF1C48312120
:10D090002030FBF7DFFA1A481A492030FBF791F9E4
:10D0A000174819A12030FBF78CF915495E31084665
:10D0B0003E38FBF786F91249A03108468038FBF765
:10D0C00080F90F4800242030FBF7A8F90C4AC1B2C0
:10D0D0004800A932801C10700320507002200023E9
:10D0E0001546893D08E02E5D1654401CC0B213540D
:10D0F000401C641CC0B2E4B28C42F4D370BD00008A
:10D100003C15002004F2FF1F3030303000000000DA
:10D1100010B5134C2078002806D0612211A1002000
:10D12000FEF704FE022010BD002211461046FBF758
:10D13000CDFF002801D01A2010BD00206070A07023
:10D14000E070A060E0602071206160610121A06159
:10D1500089021248FBF77CFA01202070002010BDE4
:10D1600088F1FF1F2E2E5C2E2E5C2E2E5C736F75A9
:10D170007263655C6461706C696E6B5C647261673C
:10D180002D6E2D64726F705C6961705F666C617387
:10D19000685F696E74662E63000000005C03002007
:10D1A00030B5002305E0DD000C46EC40C4545B1CA8
:10D1B000DBB29342F7D330BDF7B504462F481F25A5
:10D1C0000078AD0282B01746012808D0FF227932DC
:10D1D0002BA10020FEF7AAFD022005B0F0BDAC4255
:10D1E00001D31F20F9E7FEF7EEFF002844D02E1BE5
:10D1F000301FB84201D93A4600E0321F1F48039958
:10D200008069FEF775FF1D4988610090012080024A
:10D21000844207D228483A4600190399FBF770F96F
:10D220000020DAE7E019A84226D103988519281FC3
:10D23000FBF712FA0102203DE87F090A00060143CC
:10D2400000980E4D884201D02320C6E7394620467B
:10D25000039AFFF751FD002801D01C20BDE70122F1
:10D26000920215490020FEF76BFF0446FFF77EFE91
:10D27000012068702046B0E72220AEE788F1FF1F4A
:10D280002E2E5C2E2E5C2E2E5C736F757263655C89
:10D290006461706C696E6B5C647261672D6E2D6485
:10D2A000726F705C6961705F666C6173685F696EF4
:10D2B00074662E63000000005C03002010B5114965
:10D2C00004461F2009788002012907D0FF22BB32C3
:10D2D0000DA10020FEF72AFD022010BD844201D3DB
:10D2E0001F2010BDFEF76FFF002801D0002C01D0D9
:10D2F000222010BDFF2201320020D101FEF720FFC5
:10D3000010BD000088F1FF1F2E2E5C2E2E5C2E2EED
:10D310005C736F757263655C6461706C696E6B5C85
:10D32000647261672D6E2D64726F705C6961705FED
:10D33000666C6173685F696E74662E63000000003E
:10D3400002468800064910B540184038C06B0028D6
:10D3500004D0114601F0C2FA01F0B0FA10BD00008D
:10D360006C1E002080B501200649C0038860FAF7D2
:10D3700001FF084F044A05490548BC4600DF00206C
:10D3800080BD000000ED00E0201900200A2003000D
:10D39000F9D3000045EB00000122044900284A703F
:10D3A00001D0022000E001200871704710F2FF1F39
:10D3B0000122044900280A7001D0022000E0012067
:10D3C000C870704710F2FF1F0122044900288A70BC
:10D3D00001D0022000E001204871704710F2FF1FC9
:10D3E00080B50348034F81680420BC4600DF80BD40
:10D3F00010F2FF1F4DE300001FB50120019006460B
:10D400000090002001250390FEF726FD794F602152
:10D410007748BC4600DF784FBC4600DF774CA06001
:10D42000FFF7EEFC0120FFF72FFD0120FFF722FDA3
:10D430000120FFF733FDFBF7D7FD00F051FAFFF7AE
:10D440001DFE03F04DF8012003F0E4FA002002F085
:10D4500059FF0120A0710B206C4F02900023684AF5
:10D4600068496948BC4600DF6B4F0022684969483B
:10D47000BC4600DF694FBC4600DF0446800501D58D
:10D48000FDF796F8600702D5022002F07AFBE0066D
:10D490000FD5032002F075FB002002F033FF0020BF
:10D4A000FFF7F2FC0020FFF7E5FC0020FFF7F6FC99
:10D4B000FEE7A00602D5032002F063FBE00739D0A7
:10D4C0005A2003F0E1FA4D488079002832D0012833
:10D4D00009D0032812D005282CD148490020887192
:10D4E00002F010FF26E00298002802D0401E0290B1
:10D4F00020D1012002F006FF032119E002F0FAFE1C
:10D50000002817D00398002811D13D4A3F4F00232F
:10D51000883243494348BC4600DF0023424A43491E
:10D520004348BC4600DF3549C86001200390022112
:10D5300032488171A00797D5002D0AD0022D0ED058
:10D54000FFF756FC00280ED10025012002F010FB49
:10D5500009E0FFF74DFC012805D1022503E000207A
:10D5600002F006FB0125254C2078002813D0E07836
:10D57000012801D002280ED10199002902D00020F3
:10D58000019005E001210191012801D100202070C6
:10D590000198FFF779FCA078002810D06079012865
:10D5A00001D002280BD1002E01D0002604E0012674
:10D5B000012801D10020A0703046FFF76FFC607891
:10D5C000002800D150E72079012801D00228F9D1A4
:10D5D0000099002902D00020009005E0012100916F
:10D5E000012801D1002060700098FFF743FC3BE761
:10D5F000401C002011E5000081ED000010F2FF1F2B
:10D60000501600200B880000A1FB000005ED000073
:10D61000FFFF000037020000A9E30000F5E2000070
:10D620000F100100B1CE0000E81700200138010002
:10D63000C1ED000010B5FFF79DF810BD10B5FF213A
:10D6400004460231FBF704F800F0AEFD0020207024
:10D65000FFF790F810BD0000012805D0022805D082
:10D66000032810D0CF2202E0C32200E0C72207A186
:10D670000020FEF75BFBBFF34F8F0F490D48C860DA
:10D68000BFF34F8FFEE7CB22F1E700002E2E5C2E7A
:10D690002E5C2E2E5C736F757263655C6461706CBA
:10D6A000696E6B5C5254585F436F6E6669672E6398
:10D6B000000000000400FA0500ED00E0FEE70000B5
:10D6C0000748016807484161002181610721016124
:10D6D0000548016AFF221206114301624017704794
:10D6E000A018010000E000E000ED00E07047704786
:10D6F000FFB583B0054604980E9C281800900020C2
:10D70000754F2060F878754E00281BD00020F87007
:10D71000701E0278011D0698FAF7F2FE701E00785E
:10D720000699411806912168081820607868717878
:10D730003278000C0902000411430843711E097875
:10D7400040187860ADE028780A2813D00D2811D051
:10D750003A287DD0397800297BD0FEF72BFD0207CF
:10D760005E497878491E0B5C120F1A430A54401C1C
:10D77000787090E0594A0021521E137808465B1DCC
:10D780009C4604E0135C5918401CC9B2C0B28445E1
:10D79000F8D8002901D0042688E0B87800287FD185
:10D7A0000120B870707831780002084340BA3070B8
:10D7B000010A717001904948401EC078002804D0C9
:10D7C000012831D004286BD130E044492522491E7C
:10D7D0008818FAF795FE7868019A010C090411433C
:10D7E000814203D00120F87002265FE03B48401ED2
:10D7F0000278011D0698FAF783FE38480699401E04
:10D8000000784118069121680818206078683278FD
:10D81000010C707809040002104301432F48401E98
:10D820000078081878603BE001263FE021680C98FA
:10D83000FF22411A0698FAF7D0FD20687968091A84
:10D840000D9801600098411B0498411A059801E069
:10D850000DE016E001602148401E4179027908027E
:10D86000104340BA00047860022007B0F0BD1B48A6
:10D870002521401EFAF7ECFE002038707870B87051
:10D880000EE07978252925D2FEF794FC1349000192
:10D890007A78491E8854387800281BD000203870C8
:10D8A0006D1C0098854200D04DE7002621680C9839
:10D8B000FF22411A0698FAF790FD20687968091A44
:10D8C0000D9801600098411B0498411A0598016069
:10D8D0003046CAE70120E2E7A4F1FF1F5D07002000
:10D8E0007047000070B5134D0646EFF31080C40773
:10D8F000E40F72B62846FBF7A7FB002C00D162B6F6
:10D90000002816D1FF2210210B48FAF766FD0822E5
:10D9100031460948FAF7F4FDEFF31080C407E40F2D
:10D9200072B6054A10212846FBF710FC002C00D1E6
:10D9300062B670BD00FC010018FEFF1FF7B504467B
:10D940001F2084B08002434F029038781646012889
:10D9500005D0A12240A10020FEF7E8F941E0FF2117
:10D9600001318800009001912046FAF786FE0225D9
:10D97000002901D0AA222FE00198864205D3014652
:10D980003046FAF77AFE002901D0B12224E0204681
:10D990000099FAF772FE00988919814201D9B822DC
:10D9A0001AE0B87800280DD1F878002808D0B968B6
:10D9B0008C4203D3F8680818A04203D8C6220BE0B3
:10D9C000C02209E03979384600290DD07A693969D1
:10D9D0008918A14208D0CE221FA10020FEF7A6F987
:10D9E0003D70022007B0F0BD7F218902A7198C424B
:10D9F00005D20121C9038F4201D9002100E0012194
:10DA0000002910D01348012101714661046132469A
:10DA100020460599FFF7D0FB222807D00028E1D047
:10DA20000C490D70DEE705701C20DBE7314620460F
:10DA3000059AFFF761F9002801D00648F3E702983C
:10DA4000874204D3FFF792FA024901204870002070
:10DA5000C8E7000088F1FF1F2E2E5C2E2E5C2E2EB4
:10DA60005C736F757263655C6461706C696E6B5C2E
:10DA7000647261672D6E2D64726F705C6961705F96
:10DA8000666C6173685F696E74662E6300000000E7
:10DA9000FF2001307047EFF31082D207D20F72B629
:10DAA00003680B400360002A00D162B67047EFF3B1
:10DAB0001082D207D20F72B603684B400360002A6F
:10DAC00000D162B67047000010B50B4681180124E2
