:04000003000084BDB8
:020000040000FA
:10800000007F0020BD840000E5840000BD9D0000CD
:10801000E9840000EB840000ED840000E04AFCDF0E
:108020008F9E939B2028056E00010000F9840000BC
:10803000F18400000864010063850000738500007E
:10804000F1970000F7840000190A0100FD03010008
:10805000F78400000000000091970000000000007D
:10806000F7840000F7840000F7840000F784000024
:10807000F7840000F7840000F7840000F784000014
:10808000F7840000F7840000F7840000F784000004
:10809000F7840000F7840000F7840000F7840000F4
:1080A000F7840000F7840000F7840000000000005F
:1080B00000000000000000000000000000000000C0
:1080C00000000000000000000000000000000000B0
:1080D000000000000000000000000000051C01007E
:1080E0000000000000000000000000000000000090
:1080F0000000000000000000000000000000000080
:10810000000000000000000000000000000000006F
:10811000000000000000000000000000000000005F
:1084000010B5054C237833B9044B13B10448AFF3CE
:1084100000800123237010BDC80C00200000000064
:10842000A47F010008B5034B1BB103490348AFF318
:10843000008008BD00000000CC0C0020A47F0100DB
:10844000A3F5803A704700BF174B002B08BF134BB2
:108450009D46FFF7F5FF00218B460F461348144A4F
:10846000121A0DF097FE0E4B002B00D098470D4BC3
:10847000002B00D098470020002104000D000D487B
:10848000002802D00C48AFF3008005F0C8FF2000A0
:10849000290006F053F90DF031FE00BF000008007E
:1084A000000000001DE40000007F0020C80C002038
:1084B0000C4F002000000000000000000649074AA1
:1084C000074B9B1A03DD043BC858D050FBDC08F077
:1084D00031FBFFF7B9FF0000CC7F01000000002056
:1084E000C80C0020FEE7FEE7FEE7FEE7FEE7FEE73A
:1084F000FEE7FEE7FEE7FEE71EF0040F0CBFEFF31A
:108500000880EFF30980816911F8021CD9B901B51F
:1085100090E80F10E047BDE800508CE80300194BCD
:1085200093E80600914208BF704719B12CE9F00F9B
:10853000C1F838C01A60906BB0E8F00F80F309887A
:108540006FF0020E7047104A13689942FAD801B5CD
:1085500052F821C00FC8E047BDE80050CCF8000039
:10856000704701B50AF046FABDE80140EFF3098C07
:10857000D5E701B50AF006FABDE80140EFF3098C32
:10858000CDE70000900B0020307C0100034613F87B
:10859000012B002AFBD1181A0138704700F030BEB9
:1085A0000378132B05D14378072B02BF024B05221A
:1085B0001A7000F025BE00BFEB0C00202DE9F04141
:1085C0004378827807791E0446EA0226C278164369
:1085D000427947EA0227827947EA0247C27947EAA5
:1085E00002670278013A86B004460D4606F5043665
:1085F0003FBA0B2A19D8DFE812F055008700200196
:108600003B01520179017E018501BE0029000C0069
:10861000300007F108039D4207D100F108023946F6
:10862000304601F03DFB014610B12023237037E0B6
:108630000822204600F034FF3A460821304600F078
:108640002FFF06B0BDE8F04100F02ABEF319B3F5E4
:10865000802FEAD808220021EBE7857943792D02A3
:1086600045EA0345C3791D4305F5043546EA05038C
:10867000C3F30B03002BD8D1AE42D6D8B6F5802F6A
:10868000D3D2B5F5802FD0D2304606F5805601F012
:1086900021FBB54202D30028F6D0C6E70028C4D19A
:1086A000012226E1012D08D101220021204600F0FF
:1086B000F7FE99480B220121C1E70C2DB5D1471CCB
:1086C000384605F0C3FB0028AFD0944E0FCE01AD65
:1086D0000FC533682B6001AE002504F1090856F878
:1086E000041B032240460DF01DFD002800F00E8102
:1086F0000135052DF3D10822394687480DF022FDBA
:1087000087498848032204E1012D16D1864A117C4D
:10871000D37B43EA0123517C927C43EA014343EA41
:1087200002631BBA012200212046019300F0B8FE2B
:10873000042201210DEB020081E7052D7FF475AFC6
:108740008278437843EA0223C27843EA02430279FB
:1087500043EA02631ABAB2F5F83F01923FF665AFF9
:108760007149C2F30720CA730874C2F30740120E9E
:1087700048748A74D6E7012D24D16B4A517D137D4C
:1087800043EA0123917D43EA0143D17D43EA01633A
:108790001BBA0093517E137E43EA0123917ED27E61
:1087A00043EA014343EA02631BBA2A4600210193CC
:1087B00000F076FE04222946684600F071FE04228D
:1087C0000521B7E7092D7FF430AF83784578A2798A
:1087D00045EA0325C37845EA0345037945EA03657D
:1087E000637943EA0223E27943EA0243227A43EAC5
:1087F000026328BA19BA814200900191FFF415AFC3
:10880000494A0095C0F3072610755675C0F3074610
:10881000000ED075C1F3072011765076C1F30740E2
:10882000090E9076D176967500210122204601939B
:1088300000F036FE04220121BEE7012D07D12A46B1
:10884000002100F02DFE39482A462946F7E6022D80
:108850007FF4EBAE003B344D18BF01230122002111
:10886000EB7400F01DFE0122114605F11300E6E64F
:108870002D481C224FF400310DF054FC00283FF429
:108880000FAF4FF4003001F025FA00287FF4CDAE91
:10889000254A1C214FF4003001F002FA00E74FF4A2
:1088A000003001F017FA064600287FF4BEAE1E4DD8
:1088B0001F4964232B706C236B707623AB700B22E3
:1088C0006B23281DEB700DF03DFC6FF01F032B7424
:1088D0000123EE736B74AE74EE742E756E75AE7507
:1088E000EE752E766E76AE76EE76D9E61F23437061
:1088F0000222002104E01023002143708170032232
:1089000020469CE60B4B01221A70F2E702480B222C
:1089100039460DF017FCC7E604000020F0610100A5
:10892000846301000C0000200000002013000020E0
:108930007C630100E50C002030B587B00D4604468D
:108940000B22002103A80DF025FCD5B12378132BB1
:108950000ED80F2B05D8A3B120238DF80C3032236D
:108960005FE0113B022B0ED8DFE803F063680400E0
:10897000202BF1D10B22002103A800F091FD00F083
:108980008FFC07B030BD11238DF80C3063788DF863
:108990000D30013B062B47D8DFE803F0040D151816
:1089A000203A3F0002224F498DF80E200DF10F00B2
:1089B0000DF0C8FBDEE701230222ADF808308DF888
:1089C0000E2002A9F2E74FF48073F5E701F0DEF81C
:1089D0004549012208708DF80E20E7E701F080F884
:1089E0004FF47A746043019001F0F8F80823604373
:1089F000029004220DEB03010DF10F008DF80E30F3
:108A00000DF0A0FB04220DEB02010DF11300CFE7E6
:108A1000012236498DF80E20C8E720238DF80C304E
:108A200036238DF80D30A5E720238DF80C30342344
:108A3000F7E720238DF80C303323F2E76378013B0E
:108A4000092BF1D801A252F823F000BF758A00006B
:108A5000758A0000758A0000758A0000758A00001A
:108A6000758A00007F8A0000AD8A0000298A000014
:108A7000C98A000020238DF80C303723D1E7A37872
:108A8000012B0ED1E378082B09BF194A202313705C
:108A900013230BBF8DF80C308DF80C3007233823CF
:108AA000BFE720238DF80C303523BAE7A378012BDC
:108AB000F7D1E3780F4A003B18BF0123137013234B
:108AC0008DF80C300823ACE7A378012BE9D1E378CB
:108AD000094A003B18BF0123137013238DF80C3093
:108AE0000A239EE706080020EC0C00208C3B0020A7
:108AF0000A0800200C080020040800204FF4003170
:108B000008B50A680D4B9A4203D10D481C220DF09E
:108B100019FB00F0B5FC70210A4800F06FFC7021D1
:108B2000094800F07DFC7221084800F067FCBDE8B0
:108B300008400748722100F073BC00BF646C766B7C
:108B40000000002039890000A1850000BD850000DB
:108B50009D850000004870470000002008B50349CB
:108B600003481C220DF0EEFA08BD00BF04620100AC
:108B700000000020F8B500F584700D464402FFF7B0
:108B8000E9FF437E027E417D42EA0322837E42EA80
:108B90000342C37E42EA0363027D42EA0122817DF1
:108BA00042EA0142C17D42EA01629E1A06F5802135
:108BB000A1421FD922442946A4F504377600002596
:108BC000D21A90F815C0037D43EA0C2390F816C022
:108BD00043EA0C4390F817C043EA0C6307EB050C1B
:108BE00063450AD9635D0B700135B5F5007F01F16E
:108BF0000101E6D14FF40070F8BD03EB060EE64527
:108C000010D93B442B445B0803F5043315F0010FE6
:108C10001B780CBF1B0903F00F03092B94BF3033E3
:108C20003733E0E7535DDEE710B5002008F07CF84D
:108C30004FF080533049D3F80021304B9A42304BEB
:108C400049D03048824235D12F4A83F89C21C2F363
:108C5000072083F89D01C2F30740120E83F89E019E
:108C600083F89F2149F605130B8000F0C5FC00F046
:108C70000FFF00F08BFF254C207000F017FE00F076
:108C800017FE2378224A022B0CBF6423FF2313FB19
:108C900003F05843137000F5FE404FF60163B0FB3C
:108CA000F3F0C0B200F018FEFFF728FFBDE8104057
:108CB00000F0BABA174A83F89C21C2F3072083F860
:108CC0009D01C2F30740120E83F89E0183F89F2195
:108CD00049F60313C8E7104A83F89C21C2F3072022
:108CE00083F89D01C2F30740120E83F89E0183F8BA
:108CF0009F2149F60613B7E7060800202028050043
:108D0000380800203328050088630100EC0C00209F
:108D10000B0800208D6301009263010038B5284BD9
:108D20001B68DB69984760BB264C23788BB108F041
:108D300019F8054640BB02200AF070FC224B257052
:108D400001221A70214B1B884F2B214B1AD8072266
:108D500012E008F007F81F4D08B92B7873B1012015
:108D60000AF05CFC00F06EFB184A0123237000231C
:108D700013802B70164B09221A7002E02378002B07
:108D8000D5D138BD0622F7E72378002BF9D007F0BC
:108D9000E9FF0028F5D00D490D4A0B880A2B04D8AD
:108DA0000220107001330B80EBE74F2BF8D9772BA3
:108DB00001D80320F5E70420782B1070E1D1F1E70A
:108DC000A0770100ED0C00200C080020E80C00202A
:108DD000EB0C0020EF0C0020F0B5874D2B78022B18
:108DE00085B04AD100F0E4F9844BFF221A70844E1A
:108DF000844C33782BB12B78062222700BB90123D7
:108E00002B70814F3B780BB1013B3B702B78002BD3
:108E10003AD17E4B1B78002B36D12378002B33D1EF
:108E20007B4B1B78002B51D000F050FB60BB3B7894
:108E300053BB00F055FB38B3764B06221A7005235E
:108E40002370754B1B78022B07D02B78002B40F03A
:108E5000A1806E4B1B78002B47D105F049FC6F4B6E
:108E60001A786F4B002A00F093806A4A1278082A19
:108E700040F08A80FF221A707FE0002BB7D100F00B
:108E8000ABF95E4B6422B1E723780A2B2DD801A2FF
:108E900052F823F0CD8E0000DD8F0000D58E00004B
:108EA000238F00002F8F0000438E00003B8F0000B7
:108EB000CD8F00009D8F0000C18E0000C98E000084
:108EC000574BC8221A7010E0002323704B4B1A78BE
:108ED000534BF7E7534B1B88782253436FF04F02F5
:108EE00093FBF2F34E4A383B13702378042B7DD06A
:108EF0004B4B1B7813FB03F0584300F5FE404FF635
:108F00000163B0FBF3F0C0B200F0E6FC464B1A7808
:108F1000002A6ED000221A7005B0BDE8F04003F0C0
:108F2000DFBD3F4B50221A70404B0822CAE73F4A30
:108F30001378002BD9D0013BD6E700F061F90B2262
:108F4000002101A80DF026F911238DF804303278A4
:108F500009238DF8053001238DF8063082B10222F5
:108F60008DF80720002232702C4A13700B2200214A
:108F700001A800F095FA00F093F900232370B4E7FC
:108F800003238DF80730F1E7062A01D1642272E746
:108F9000002270E7022BA8D10823EFE7204A1378BC
:108FA000092B09D8013313702B78002B9DD1174B57
:108FB0001B78002BE1D098E70A2B01D1FF23F2E7C1
:108FC000F52B94BF002303F1FF33ECE7184A137825
:108FD0003BB1013BDBB2052B1370EAD1104B0022F1
:108FE00070E70A2313700E4BFF226BE70F4B1878C4
:108FF0008AE705B0F0BD00BF8C3B00200B080020C5
:10900000F00C0020EB0C0020EA0C0020EE0C0020FD
:10901000040800200A080020EC0C00200C080020A6
:109020000D080020E80C0020E50C0020E60C0020D4
:10903000E40C0020054B1B78062B02D0082B02D035
:10904000704700F043BB00F037BB00BF0A080020A8
:10905000014B01221A707047EE0C0020074A08B538
:1090600000231370064A01211170064A137000F0A4
:10907000E9F9BDE8084000F0C3B800BFED0C0020DE
:109080000C080020EB0C002008B505490B220DF060
:1090900049F818B900F02EFEFFF760FD002008BD6A
:1090A0009763010010B503F005FF70B32D4B1A68EC
:1090B0002D4BA0F10C01995400F5FA701344C0F344
:1090C00007205870294B186802F0E2FF28B12849A0
:1090D00040F20E22002006F013FF264B22491A68A8
:1090E000002003F039F838B103F0D8F820494FF4E4
:1090F0000572002006F004FF03F0D0F828B11C49E7
:1091000040F21922002006F0FBFEFFF723FDC37C8E
:1091100033B3037CC27B417E42EA0322437C42EAB2
:109120000342837C42EA0362037E43EA0123817E99
:1091300043EA0143C17E43EA01631A44417D037D52
:1091400043EA0123817D43EA0143C17D43EA016390
:10915000D31ABDE8104008490022043004F004BFCF
:1091600010BD00BF1C00002020000020A0770100DF
:10917000A363010000080020758B00001FB50023C9
:109180000C2201A910300193029303930CF0CAFF43
:10919000C0B2B0FA80F0400905B05DF804FB037876
:1091A000832B03BF4078B0FA80F04009002070475D
:1091B000074B1B681F2B07D84FF0A04203F5E07345
:1091C000032142F823107047024A03F01F03F5E71A
:1091D000CC3C002000030050074B1B681F2B07D816
:1091E0004FF0A04203F5E073022142F823107047CC
:1091F000024A03F01F03F5E7CC3C002000030050B7
:10920000074B1B681F2B07D84FF0A04203F5E073F4
:10921000022142F823107047024A03F01F03F5E7CA
:10922000F40C0020000300504FF08053D3F80021CD
:10923000164B9A42164B25D109221A604FF0102284
:10924000D2F80C32D9071FD5124B0121C3F80415EF
:10925000D2F80C1221F00101C2F80C12D3F800244C
:10926000D207FBD50022C3F80425BFF34F8F0A496C
:109270000A4BCA6802F4E0621343CB60BFF34F8F1E
:1092800000BFFDE710221A60FFF7BABF33280500C0
:10929000F40C002000E0014000ED00E00400FA05BD
:1092A0000A4B1B681F2B0CD84FF0A04203F5E0714E
:1092B000032042F82100012101FA03F3C2F80C3522
:1092C0007047034A03F01F03F0E700BFF40C0020CF
:1092D0000003005010F0010F38B5244D044616D09D
:1092E000234B00221A702B681A072DD5214B5B6A7D
:1092F000984760B1204A13784BB123041FD51F4B08
:109300001F49096819605A60187205F0F9F92207B7
:1093100008D5184B18481B6A4FF481619847194BC0
:1093200004221A70630708D5124B1748DB694FF403
:1093300081619847134B04221A702C6038BD610478
:10934000E5D50E4B1149DCE75A07E0D5094B5B6ABE
:109350009847230405D5094B0D4A12681A600A4A3A
:10936000D1E76104D3D5054B0A4AF6E7241500205E
:109370000E08002070790100040D0020F80C002078
:109380001C150020EA0C00200C11002020150020E4
:10939000141500201815002010B5104C236853B187
:1093A000217A6068984700222368626022602272F6
:1093B0000B4A012111700B4A12680AB19A4204D07B
:1093C000094A12684AB19A4207D1BDE810400748DD
:1093D0004FF4816200210CF0DDBE10BDF80C0020BE
:1093E0000E08002014150020181500200C11002074
:1093F000014BDB68184700BF70790100712905D067
:10940000722905D0702905D1034B186000207047E0
:10941000024BFAE7012070471C15002020150020A0
:10942000712905D0722905D0702905D1034B186028
:1094300000207047024BFAE7012070471415002006
:109440001815002008B54FF48162002108480CF07F
:10945000A1FE4FF48162074800210CF09BFE064BF1
:1094600000221A605A601A72044B01221A7008BD59
:109470000C110020040D0020F80C00200E08002024
:1094800010B5054CFFF7DEFFA36804489847236931
:109490000220BDE81040184770790100D592000005
:1094A0008B18B3F5816F07D8064B024419449042DC
:1094B00003D1054B00221A70704710F8013B01F8E8
:1094C000013BF4E70C1100200E08002008B5034B07
:1094D000DB6A984700F0010008BD00BF7079010009
:1094E000014B1878704700BF0E0800204FF08053E2
:1094F00030B5D3F800210E4B0E4C0F480F499A425D
:109500000F4A104B0AD11F2525601E240460062037
:10951000106000220A600B221A6030BD022525600F
:10952000032404600120106007220A60F4E700BFF2
:1095300033280500281500202C15002038150020A0
:10954000301500203415002010B5044607F09EFFAA
:10955000FFF742FE4FF0A0430222C3F80027C3F8F2
:1095600004270CB1FFF744FF1D4B1E4A1B681E4920
:10957000C3F3801313701D4BD3F804230A60D3F890
:109580000413C3F808131A4B1B681F2B24D84FF081
:10959000A04101EB830442F00042D4F8000740F4FC
:1095A0004030C4F80007012000FA03F3C1F8203569
:1095B0000E4B0021C3F87C11C3F80423084A402352
:1095C00013604FF08043D3F80413C3F808138021CD
:1095D000C3F80413106010BD064903F01F03D8E759
:1095E00000E100E03C150020401500200060004034
:1095F000D03C00200003005008B54FF08043D3F862
:109600000024D20242BF244A01211170D3F8003451
:10961000DB0342BF214B01221A70FFF767FF204B8B
:109620002049D3F804230A60D3F80413C3F80813BD
:109630001D4B1B681F2B2BD84FF0A04003F5E07388
:10964000002140F82310194B1B681F2B1CD84FF02A
:10965000A04003F5E07342F0004240F82310104BA5
:10966000C3F87C11C3F80423114A402313604FF060
:109670008043D3F80413C3F808134FF4C071C3F840
:1096800004130123136008BD0A4803F01F03E0E739
:10969000084803F01F03D1E7F00C0020EF0C002076
:1096A0000060004040150020D03C00203415002010
:1096B00000E100E00003005008B50120FFF744FF7F
:1096C0004FF080430122C3F8002508BD10B50020EB
:1096D000FFF73AFF30BF4FF08043D3F80423C3F8BD
:1096E00008234FF4C072C3F80423234B01221A60ED
:1096F0002248027832B94022C3F88020BFF34F8F4E
:10970000BFF36F8F1E4BD3F80423C3F808231D4B00
:109710001B681F2B2CD84FF0A04202EB8304D4F817
:10972000001721F44031C4F80017012101FA03F3B6
:10973000C2F82035124B0022C3F87C21124A12686D
:10974000C3F80423037813B10B4B40221A604FF087
:10975000A0430322C3F804270222C3F808250122EC
:10976000C3F80027BDE81040C3F8082507F06CBE19
:10977000064A03F01F03D0E700E100E03C1500209B
:1097800000600040D03C0020401500200003005045
:10979000134BD3F87C2110B5EAB10022C3F87C2129
:1097A000104B1B681F2B17D84FF0A042D2F8200592
:1097B000012404FA03F108420DD002EB8303C2F83E
:1097C0002015D3F8000720F44030C3F80007064BFB
:1097D000C2F820151C7010BD044A03F01F03E5E712
:1097E00000600040D03C0020EF0C0020000300503F
:1097F0004FF0804310B5D3F81C214AB10022C3F8C2
:109800001C2100F0C3F90D4B18700D4B01221A708A
:109810004FF08043D3F8202172B10024C3F82041D7
:1098200000F0B4F9054B187008F06CF80BF0C6FFA7
:10983000044B1C70044B1C7010BD00BFEC0C0020CE
:10984000F00C0020EE0C00208C3B0020124B1B780B
:10985000013BDBB2FD2B1DD8104B4FF08062C3F8EB
:109860008020BFF34F8FBFF36F8F0D4BD3F80425CC
:10987000C3F808250B4A0121516011610A490022F1
:10988000C1F81025C3F81025C3F81425C3F818250E
:10989000C3F81C25704700BF4415002000E100E01C
:1098A00000F0014000A0014000600040704700004F
:1098B000074B1B681F2B07D84FF0A04203F5E0733E
:1098C000032142F823107047024A03F01F03F5E713
:1098D000C83C00200003005038B53B4C237883423D
:1098E0000ED070B9FFF7B2FF384B1B681F2B62D840
:1098F0004FF0A041012202FA03F3C1F80C352070A9
:1099000038BDFF280DD1FFF7A1FF304B1B681F2B7F
:1099100055D84FF0A041012202FA03F3C1F80835EF
:10992000EDE7013BDBB2FD2B31D9294A0321C2F817
:1099300008150721C2F8101500250121C2F80012F0
:10994000C2F80455C2F8441540F6F611C2F84015A5
:109950001E4A11681F4A42EA01221F49C1F8102518
:109960001E4A01F5A03101F5A271C2F81015A1F54A
:10997000A031E439C2F8141501F5A031E031C2F884
:109980001815A1F5A031A1F58871C2F81C15104A6F
:1099900000EB80014900FD2BC2F84415AFD9104BF4
:1099A0004FF0806119600D4B0321C3F804150123AA
:1099B000D3601360A3E70B4903F01F039AE709493B
:1099C00003F01F03A7E700BF44150020C83C002098
:1099D00000A00140030013000060004000F00140BF
:1099E00000E100E0000300502DE9F04306460029A5
:1099F00047D00868254C002301256560C4F8003570
:109A0000C4F80032D4F80423C4F808233F27C4F86C
:109A100038354FF0020CC4F808359E46C4F804658A
:109A20009846C4F83455DA19013202EBD27252105A
:109A300042EA0229C4F83095C4F800C5C4F8008190
:109A40002560D4F80091B9F1000FFAD0A560D4F8E0
:109A500000946560C4F800E5B9F1000F13D1571EFA
:109A6000FA1A002A00F10100DDDC01B108604FF4B0
:109A7000966043439809072E08BF00EB8000BDE8BD
:109A8000F0830846B6E71346EAE700BF003001401E
:109A900008B5FFF72BFD0F4B1B681F2B16D84FF097
:109AA000A04203F5E073032142F823100A4B1B6820
:109AB0001F2B07D84FF0A04203F5E073002142F8B6
:109AC000231008BD054A03F01F03F5E7034A03F01E
:109AD0001F03E6E7281500202C1500200003005086
:109AE0004FF08053D3F80021044B9A4201D100F08B
:109AF0007BB8034B00211868FFF776BF33280500B9
:109B0000381500202DE9F3411D4E002301933368E1
:109B10001F2B00F131004FF032040D46B0FBF4F47E
:109B20002AD84FF0A041012202FA03F3154FC1F8E1
:109B3000083540F6B178386801A9FFF755FF4FF4B2
:109B40007A7308FB00F0B0FBF3F0019BA34203D251
:109B5000002DF0D0A842EED333681F2B8ABF0A49EC
:109B60004FF0A04103F01F03012202FA03F3C1F8F2
:109B70000C3502B0BDE8F081034903F01F03D2E7C2
:109B800028150020301500200003005038B5114B77
:109B90001C681F2C1AD84FF0A043D3F8105540F280
:109BA0000E6140F6B83025FA04F4FFF7ABFF14F06D
:109BB000010F40F20D6304D1984294BF01200320AD
:109BC00038BD98428CBF02200020F9E7024B04F018
:109BD0001F04E2E7341500200003005040F6E44182
:109BE00040F6B830FFF78EBF37B52C4B002003226C
:109BF000C3F8000501A9C3F8F0250122C3F8F80550
:109C0000C3F8F405C3F83026C3F82C164FF400311E
:109C1000C3F818150D21C3F81015C3F81405110168
:109C200001F1804103EB021401F5E0410132D3F868
:109C30001855C4F81855082AC1F81005C1F81405BC
:109C4000EDD10122C3F800251A60D3F80021002AC3
:109C5000FBD00022C3F8002101225A600F4BD3F839
:109C60000421002AFBD00022C3F8042101229A60BB
:109C7000D3F81421002AFBD00022C3F81421BDF828
:109C8000040000B220EAE070C0EB0010C0EB00104E
:109C9000800A00EB800003B030BD00BF00700040C0
:109CA0000B4B30B521F003010124C3F804451144E6
:109CB000801A8A4203D10020C3F8040530BD8418FD
:109CC00052F8045B2560D3F80044E407FBD5F0E7C5
:109CD00000E00140064B0222C3F80425C3F8080542
:109CE000D3F80024D207FBD50020C3F80405704741
:109CF00000E001400A4B0222C3F804254FF4003271
:109D0000C3F80825D3F80014C907FBD502F5805223
:109D1000B2F5802FF4D10020C3F80405704700BFCE
:109D200000E0014008B5EFF3088400F00F030D2BAD
:109D300001D1EFF30984E3699A0554BF04F12005CA
:109D400004F12405C30658BF483505F0BDFEEFF306
:109D5000098005F0B9FEEFF3088005F0B5FEEFF3DA
:109D6000148005F0B1FE284605F0AEFE606905F0EE
:109D7000ABFEA06905F0A8FEE0690E4C05F0A4FE5C
:109D8000E06A05F0A1FEA06A05F09EFE206B05F0DA
:109D90009BFEE06B05F098FE606B05F095FEA06BF6
:109DA00005F092FE04494322002006F0A9F801F0D4
:109DB00089FCFEE700ED00E08C6401007046FFF7CF
:109DC000B1FF704710B5EFF3108472B60023C16085
:109DD00082600360436084F3108810BD38B5044688
:109DE000EFF3108572B64368C268D1544368826845
:109DF00001339342436009D30B494FF030020CBF4B
:109E00000120002006F07CF800236360D4E9000301
:109E1000C01A05494FF0350218BF012006F070F84E
:109E200085F3108838BD00BFB864010070B50446E2
:109E3000EFF3108672B6D0E90003C01A4FF0420269
:109E400018BF01200C4906F05BF82368E268D55C76
:109E5000A26801339342236009D307494FF04702B8
:109E60000CBF0120002006F04BF80023236086F38E
:109E70001088284670BD00BFB8640100EFF3108160
:109E800072B6426803689A423BBF80688018D01A55
:109E9000C01A81F31088704738B5EFF3108572B699
:109EA0008468FFF7EBFF85F31088013C201A38BD6A
:109EB000F8B515460C460646FFF7E0FF854228BF79
:109EC00005466719BC4201D12846F8BD3046FFF768
:109ED000ADFF04F8010BF5E7F8B515460C4606464C
:109EE000FFF7DAFF854228BF05466719BC4201D15A
:109EF0002846F8BD14F8011B3046FFF76FFFF5E761
:109F000010B5EFF3108472B6D0E90023934238BF46
:109F10008368C0689B1A104484F3108801B10B60F9
:109F200010BD000070B505460C46EFF3108672B602
:109F300040682B6898420FD3C01AA04210494FF0D6
:109F4000A9028CBF0020012005F0DAFF2968214416
:109F5000296086F3108870BDAA6809491044C01AA8
:109F6000A0428CBF00200120AC2205F0C9FF296867
:109F70000C44A9682C608C4224BF641A2C60E8E76A
:109F8000B86401000D4B0E4A1B68B0EB930F03D36E
:109F9000012353705360704700EB5303013BB3FB45
:109FA000F0F002284FF0000194BF0120032351700C
:109FB00088BFB0FBF3F05060704700BFE409002099
:109FC0004815002070B5064608460D46FEF7DEFA35
:109FD00001303C280DD82846FEF7D8FA441C22460A
:109FE000294630460CF0AEF8002386F83B30E0B24C
:109FF00070BD3C24F3E7FF230B704FF00110704756
:10A000002DE9F04F047884F080031F2B8BB00546B8
:10A010008A4604D800F062FD0BB0BDE8F08F04F171
:10A020006003DBB25E2B02D8FFF7E5FFF4E70B46D7
:10A0300003F8014B05931D2C00F2BE84DFE814F0F9
:10A040001E009600A000B800EB01FD01F703BC0460
:10A05000A604C600D800BC04BC04BC04BC04BC04F8
:10A06000DD00510167017701CF01E501E901BC0481
:10A07000BC04BC04BC04BC04BC0482014378092BAE
:10A0800001F102050AD8012B10D9033B062B12D887
:10A09000DFE803F0171B2236474C5000FE2B61D03F
:10A0A000FF2B5BD0F02B48D0F12B4DD08AF801402C
:10A0B00004F10210B0E7AC492846FFF783FF0446DD
:10A0C000F4E704F039F80146F6E7A84906222846E5
:10A0D0000CF038F80624E9E7A54B1B69002BE5D006
:10A0E00093F8A52193F8A41141EA022193F8A6213F
:10A0F00093F8A73141EA024151EA0361DCD1D5E787
:10A100009B4B1B69002BD1D093F8A92193F8A81180
:10A1100041EA022193F8AA2193F8AB3141EA0241C6
:10A12000EAE7934BD96F0029C6D1BFE7904BD3F82C
:10A130008010F8E704F014F8C5E731238B70012391
:10A140008AF803300224B1E700238B70E123CB703F
:10A15000F5230B7105234B710424A7E740238B7073
:10A160000023EDE708238B7001249FE74378012B40
:10A170003CD9FF237F488AF8013000F101104BE7FA
:10A180004378012B00F2DC807B4A012313704FF0EF
:10A19000A0420321C2F804170221C2F80815C2F830
:10A1A0000037C2F808358AF801304FF00110E4E7B3
:10A1B000714A002313704FF0A0420221C2F8001729
:10A1C0000120C2F804178AF80130D6E74378827874
:10A1D0006A4943EA02226A4B1B68B3FBF1F303218D
:10A1E0000233B3FBF1F35343013BFDD10023C1E73D
:10A1F00000238B704B700220BFE78378C1784278D0
:10A20000007941EA0021687941EA0041A87913F018
:10A21000010541EA00610AD04FF0A04012F0010FA1
:10A220004FF0020414BFC0F80845C0F80C4513F005
:10A2300002060AD04FF0A04012F0020F4FF00104C6
:10A2400014BFC0F80845C0F80C45002939D003F008
:10A25000200001904B48814228BF0146642000FB4A
:10A2600001FC4948D109D0F804B0029103F0040779
:10A270004FEA520E5BB24FEA92084FEA52194FF082
:10A28000A0442DB1D4F80415C1F340018A4213D182
:10A290002EB1D4F8101501F001018E450CD117B183
:10A2A000B8F1000F08D1019911B1B9F1000F03D134
:10A2B000002B06DA029921B14168A1EB0B018C4514
:10A2C000DFD84FF0A0423148D2F80435D2F810253B
:10A2D0005200C3F3400302F0020213438AF8013034
:10A2E0004BE7AB78407840EA0320EB7840EA034044
:10A2F0002B7950EA036004D1FF2325488AF8013006
:10A300003BE71D4B9860FFF73DFE0023F5E74478DF
:10A31000002C08BF4FF48074811C204600F07EFCA6
:10A320000023E01D8AF80130C00801305EE0437868
:10A33000114903F003020132C3F380030A774B771C
:10A34000002330E74FF0000B81F801B0012443787F
:10A350008F1C2546811C4FF0A048A24603F1FF390F
:10A36000C3B944EA054008E7DB640100E364010087
:10A3700008640100010002004815002040420F005F
:10A38000E4090020C0C62D00001000E00100060016
:10A390000100040011F8010B10F03F0643B208BFA2
:10A3A0004026002BB4BFC8F800B7C8F818A5073678
:10A3B0003A4602930191F60800F072FC0199029B63
:10A3C000B9F1000F01D1C8F818A5002B05F101055E
:10A3D000B9BFBF19A4198919AD194B46BEE7FF23B0
:10A3E0004B704278811C0120013A03D2000440F0F6
:10A3F0000100C2E60B7813F03F0308BF4023073388
:10A40000DB08013319441844EEE7FF2340784B7012
:10A410008BE7FF23C7E6A84B42781A74C17882788D
:10A4200042EA01229A820279417942EA0122DA82E1
:10A430000023A2488AF801309FE6431C06939E4BF6
:10A4400082781B780192012B00F1030440F0E08137
:10A45000DFF86C924FF00008CD1C89F8008046466A
:10A460004046CDF80C80019BFBB9012811D1002E8C
:10A4700000F0AF81904B924F9E8A09A90E2000F008
:10A480008DFD022840F098811EB13B78013E002BE3
:10A49000F3D0039B8AF80130069B8AF80200E41A85
:10A4A000059BE81A40EA044067E62346DFF808B255
:10A4B00013F8017B029317F0020F00F01D81002EAC
:10A4C0004ED007F01103012BBBF814B01CD109A921
:10A4D000384600F063FD022828D1BBF1000F05D0FB
:10A4E00099F800300BF1FF3B002BF0D0029C237851
:10A4F0009A0740F15F81DF0600F15C810134019B26
:10A50000013B0193F3D1B0E709A90E2000F046FD0D
:10A5100002280AD1BBF1000F05D099F800300BF1E9
:10A52000FF3B002BF0D00026E0E700260128DDD11C
:10A53000099B2B701A0A6A701A0C1B0EAA70EB701A
:10A540002A1D002E43D03B0640D55B4BDB682B71A8
:10A550001A0A6A711A0C1B0EAA71EB713046083583
:10A56000554B17F01002B3F814B007F001015DD09D
:10A57000A0786278DB8A049342EA0022E07842EA1B
:10A580000042207942EA00620792621D029201BBFA
:10A59000494CB4F814B009A9384600F0FFFC022871
:10A5A000014629D1BBF1000F05D099F800300BF11D
:10A5B000FF3B002BEFD0404B9A69099B1340079A51
:10A5C0009A422DD041F01000C0B28FE730461546B8
:10A5D000C6E70021384600F0E1FC022809D1BBF1B2
:10A5E000000F83D099F800300BF1FF3B002BF0D027
:10A5F0007CE70128CCD079E7A369099A012803EA0E
:10A600000203D8D1079A9A42D5D0049B002BD2D00E
:10A61000049A99F80030013A0492002BB9D0CAE7A5
:10A6200001287FF463AF4FF0000826E091B3002EBD
:10A63000F9D10021384600F0B1FC02281E4B0AD1A6
:10A64000BBF1000F3FF46FAF99F800200BF1FF3B17
:10A65000002AEED04AE701287FF448AF3E0640F1D9
:10A66000A380DB682B701A0A6A701A0C1B0EAA7082
:10A67000EB704FF0000806460435039B99F8002064
:10A6800001330393019B013B002A7FF42FAF029C0F
:10A690000193E8E609A9384600F080FC0228064B41
:10A6A00010D1BBF1000F3FF421AF99F800200BF15E
:10A6B000FF3B002AEED019E74815002001000500F5
:10A6C0006815002001287FF411AF3C060AD5DB682D
:10A6D0002A46190A02F8043B6970190C1B0EA9706E
:10A6E000EB701546099B2B701A0A6A701A0C1B0E28
:10A6F000AA70EB70043596E7F6B1BBF814300493FA
:10A7000009A90E2000F04AFC022809D1049B002B65
:10A710003FF4ECAE99F80020013B002AEFD0E5E6CB
:10A7200001287FF4E3AE099B2B701A0A6A701A0C99
:10A730001B0EAA70EB700435A278637843EA0223FB
:10A74000E27843EA0243227917F0200F43EA0263DA
:10A7500004F10502029209939A4A03D093610026FC
:10A7600001208AE7968A09A9384600F017FC0228DA
:10A7700008D1002E3FF4BAAE99F80030013E002B0C
:10A78000F1D0D0E601287FF4CEAE390610D5DBF843
:10A790000C302B701A0A6A701A0C1B0EAA70EB7020
:10A7A00080460435002668E74FF00008064664E757
:10A7B0008046F7E70534A2E601287FF46AAE099BDC
:10A7C0002B701A0A6A701A0C1B0EAA70EB700435F3
:10A7D0005FE6B8F1000F3FF45CAE7A4B7A4F9E8A89
:10A7E00000210E2000F0DAFB02287FF452AE002E8A
:10A7F0003FF44FAE3B78013E002BF1D049E6237881
:10A80000990712D5DA0610D40134019B013B01935C
:10A81000019B002BF3D18AF801308AF80230069BA5
:10A82000E01A000440F00200A7E40534EDE7DFF889
:10A8300094B19BF80030012B4FF0000340F0A18051
:10A84000614C90F802802370C3780A1D58EA0328EF
:10A85000019200F09480077917F0020611D1431D90
:10A86000B045BBF8149069D100210E2000F096FB92
:10A87000022839D1B9F1010936D32378002BF3D05E
:10A8800032E017F0010010D0BBF814600021384608
:10A8900000F084FB022806D136B32378013E002B5A
:10A8A000F4D0002620E00128FBD1DDF804904346D7
:10A8B000A8EB0306CDF804905A1EABB11AB917F0F5
:10A8C000010F18BF0E27BBF81430039209A93846B0
:10A8D000029300F063FB0228039A1DD1029B1BB177
:10A8E0002178013B0029F0D0019B059A8AF801608C
:10A8F000360A8AF803008AF80260981A2B799B07B7
:10A900005FBFAC78ED7844EA052401344CBF40F4D5
:10A91000802040EA844030E4012809F10409E3D1B1
:10A92000099B09F8043C190A09F8031C190C1B0EB1
:10A9300009F8013C09F8021C1346B9E759781A785E
:10A9400042EA0122997842EA0142D97842EA016258
:10A950000992043309A93846029300F01FFB02282C
:10A96000029B08D1B9F1000FBED0227809F1FF395E
:10A97000002AEFD0B8E70128B6D1013670E740468B
:10A980008FE74B708B70CB700320B7E70D4B1B78B4
:10A99000012B0FD1C278837843EA0223027943EA7C
:10A9A0000243427909A943EA02630020099300F0B7
:10A9B000F5FA3DE5FF233CE5FF230B704FF0011056
:10A9C000FFF72ABB4815002068150020F8B5057868
:10A9D0007F2D15D10C46871C04F8025B45784D701D
:10A9E0004FF002160DB93046F8BD21463846FFF744
:10A9F00007FB013D064407EB104714FA80F4F1E72A
:10AA0000BDE8F840FFF7FCBA064B07489860002203
:10AA10001A701A7464219A61012259619A83FFF7AE
:10AA2000B1BA00BF4815002000127A0000230822A6
:10AA3000C0F81832C0F81C32C0F81022C0F8143226
:10AA400070470346D0F8140210B5B8B10138C3F806
:10AA50001402D3F81C0203EB80140C6000F5807123
:10AA6000013033F811101160D3F8102200F0070004
:10AA70000132C3F81C02C3F81022012010BD70B5CA
:10AA80000446D0F810020E461D4630B30138C4F813
:10AA90001002D4F81802412A28BF402204EB80108B
:10AAA0000BF050FBD4F81812304604EB8111FFF77D
:10AAB0008DFFD4F8182202F5807324F8130004EBFC
:10AAC00082132B60D4F81432013202F007020133F2
:10AAD000C4F81822C4F81432012070BD7FB5037881
:10AAE0000B70803B06460D460D2B00F28E80DFE892
:10AAF00003F007172239448C8C8C54626C71758377
:10AB000003F01AFB0646FDF741FDC4B26870224609
:10AB10003146A81C0BF016FB04F58030023008E02B
:10AB200002A805F0EBF8072202A9681C0BF00AFB4B
:10AB3000374804B070BD02A805F0E0F80422711C8B
:10AB40000DEB0200002401940BF0FCFA019B029330
:10AB500002A805F0B9F8204605F0E4F801232D48D5
:10AB60006B70E6E73E21A81C06F048FD044610B1D4
:10AB7000012003F0A9FD6C70CEE744780230214635
:10AB800006F026FD012003F09FFD0123E0180004DC
:10AB90006B70184300F10110CBE701234B70407834
:10ABA00020B903F0BDFD4FF00210C2E70128F8D034
:10ABB00000234B70F7E701234B7005F059F810B9EB
:10ABC000022008F02BFD1448B3E7407800F0E0FEC7
:10ABD0006870E8E700F048FF6870F4E74478012007
:10ABE00003F07CFD2146B01C00F008FF6870601C7B
:10ABF000000440F00100CDE700234B70407810B90D
:10AC000001F096FBCFE70120FAE74FF0011090E743
:10AC100009000100020005000200010000283BD0ED
:10AC20001E4B2DE9F0410024421E4FF0A04C586805
:10AC30004FF001082346022515E013F0010F04F13F
:10AC4000FF34074606461BD0CCF80885CCF80C55D7
:10AC5000013FFDD1CCF80855013EFDD1013A561C0B
:10AC60004FEA530316D08E46002CE6D11EF8013B66
:10AC700013F0010F4FF00704714607460646E3D173
:10AC8000CCF80C85CCF80C55013EFDD1CCF808551C
:10AC90000646E1E7BDE8F081704700BF4815002097
:10ACA00010F03F0C08BF4FF0400C0306F0B540F128
:10ACB000AD80554D14464FF0A04302206968C3F89B
:10ACC0000C050A46013AFDD1D3F81025C3F8080552
:10ACD0000E46013EFDD14FEAC21EBCF1010F0F46E8
:10ACE0005FFA8EF600F04081C3F80C05013FFDD1FC
:10ACF000D3F81025C3F808050F46013FFDD14FEAF0
:10AD0000C21E5FFA8EFEBCF1020F0A464EEA560ED4
:10AD100000F02F81C3F80C05013AFDD1D3F81025BE
:10AD2000C3F808050E46013EFDD1D201D2B2BCF1F6
:10AD3000030F0E4642EA5E0E00F01E81C3F80C05BA
:10AD4000013EFDD1D3F81025C3F808050E46013E9B
:10AD5000FDD1D201D2B2BCF1040F0E4642EA5E0E22
:10AD600000F00D81C3F80C05013EFDD1D3F810258C
:10AD7000C3F808050E46013EFDD1D201D2B2BCF1A6
:10AD8000050F0E4642EA5E0E00F0FC80C3F80C058B
:10AD9000013EFDD1D3F81025C3F808050E46013E4B
:10ADA000FDD1D201D2B2BCF1060F0E4642EA5E0ED0
:10ADB00000F0EB80C3F80C05013EFDD1D3F810255F
:10ADC000C3F808050E46013EFDD1D201D2B2BCF156
:10ADD000070F0E4642EA5E0E00F0DA80C3F80C055B
:10ADE000013EFDD1D3F81025C3F808050139FDD186
:10ADF000D201D2B242EA5E0EBCF1080C04F801EBBB
:10AE00007FF45CAFF0BD00BF48150020624A526875
:10AE10000E464FF0A0430124022016F801EB1EF06D
:10AE2000010F0CBFC3F80C45C3F808451546C3F81D
:10AE30000C05013DFDD1C3F808051546013DFDD1C6
:10AE4000BCF1010FDED01EF0020F0CBFC3F80C45A1
:10AE5000C3F808451146C3F80C050139FDD1C3F804
:10AE6000080511460139FDD1BCF1020FCAD01EF010
:10AE7000040F0CBFC3F80C45C3F808451146C3F8CE
:10AE80000C050139FDD1C3F8080511460139FDD182
:10AE9000BCF1030FB6D01EF0080F0CBFC3F80C4571
:10AEA000C3F808451146C3F80C050139FDD1C3F8B4
:10AEB000080511460139FDD1BCF1040FA2D01EF0E6
:10AEC000100F0CBFC3F80C45C3F808451146C3F872
:10AED0000C050139FDD1C3F8080511460139FDD132
:10AEE000BCF1050F8ED01EF0200F0CBFC3F80C452F
:10AEF000C3F808451146C3F80C050139FDD1C3F864
:10AF0000080511460139FDD1BCF1060F3FF47AAFB7
:10AF10001EF0400F0CBFC3F80C45C3F8084511469E
:10AF2000C3F80C050139FDD1C3F8080511460139F4
:10AF3000FDD1BCF1070F4FEADE113FF463AF81B9D9
:10AF4000C3F80C451146C3F80C050139FDD1C3F80F
:10AF5000080511460139FDD1BCF1080C7FF45DAF45
:10AF6000F0BDC3F80845EDE74FEAD61E84F800E0CF
:10AF7000F0BD4FEA9E1EF9E74FEA5E1EF6E74FEA84
:10AF80001E1EF3E74FEADE0EF0E74FEA9E0EEDE7F6
:10AF90004FEA5E0EEAE700BF481500202DE9F047B2
:10AFA0005A4E737886468A46002B00F0B1804FF0E7
:10AFB000A043012202201EF0010FC3F80825C3F8A8
:10AFC0000C05C3F8080514BFC3F80825C3F80C2501
:10AFD0004FF0A042022301201EF0020FC2F80C35F0
:10AFE000C2F8083514BFC2F80805C2F80C054FF0C6
:10AFF000A0420220C2F80C051EF0040FC2F808059A
:10B000004FF0010014BFC2F80805C2F80C054FEA62
:10B010005E034FF0A042022003EB9E03C2F80C0532
:10B020000124C2F808051EF0080F4FEADE00734441
:10B0300014BFC2F80845C2F80C4503444FF0A042C3
:10B04000022013F0010F4FF00103C2F80C05C2F803
:10B05000080514BFC2F80835C2F80C354FF0A043FC
:10B060000220C3F80C05C3F80805327F0124C3F899
:10B070000C45C3F80C05C3F80805C3F808450024BF
:10B08000C3F80C05C3F80805C3F8004714462AB1F5
:10B09000013CC3F80C05C3F80805F9D14FF0A043F3
:10B0A0000225C3F80C55D3F81075C3F80855C3F83A
:10B0B0000C55D3F81005C3F80855C3F80C55D3F850
:10B0C0001045C3F80855400004FA05FC28400CF070
:10B0D000040C07F0010740EA0C003843012800F097
:10B0E0008181022800F0C881042800F0C581213246
:10B0F000013AC3F80C55C3F80855F9D10122C3F839
:10B100001825C0B2C3F80825BDE8F087481500200F
:10B110004FF0A0420120C2F8080573680224C2F86B
:10B120000C451D46013DFDD1C2F808451C46013CB9
:10B13000FDD11EF0010F14BFC2F80805C2F80C05BE
:10B140004FF0A0400222C0F80C251C46013CFDD166
:10B15000C0F808251A46013AFDD101241EF0020F5D
:10B1600014BFC0F80845C0F80C454FF0A0400224B9
:10B170004FEA5E02C0F80C451D46013DFDD1C0F806
:10B1800008451C46013CFDD101241EF0040F14BFEC
:10B19000C0F80845C0F80C454FF0A040022402EB6F
:10B1A0009E02C0F80C451D46013DFDD1C0F8084582
:10B1B0001C46013CFDD101241EF0080F14BFC0F84D
:10B1C0000845C0F80C454FF0A040022472444FEAF5
:10B1D000DE07C0F80C451D46013DFDD1C0F808450D
:10B1E0001C46013CFDD13A4412F0010F4FF0010220
:10B1F00014BFC0F80825C0F80C254FF0A042022764
:10B20000C2F80C7518460138FDD1C2F80875184609
:10B210000138FDD10120C2F80C051C46C2F80C759E
:10B22000013CFDD1C2F808751C46013CFDD1C2F8B5
:10B230000805C2F80C7518460138FDD1C2F808752A
:10B2400018460138FDD1347F0020C2F80007A4461B
:10B2500064B1C2F80C7518460138FDD1C2F8087502
:10B260001D46013DFDD1BCF1010CF2D14FF0A042D1
:10B270000225C2F80C5518460138FDD1D2F81085C8
:10B28000C2F8085518460138FDD1C2F80C551846C9
:10B290000138FDD1D2F81075C2F8085518460138AA
:10B2A000FDD1C2F80C5518460138FDD1D2F8100571
:10B2B000C2F8085519460139FDD14FEA470CA8409C
:10B2C0000CEA050C00F004004CEA000C08F0010840
:10B2D0004CEA080CBCF1010F1DD0BCF1020F00F0CC
:10B2E000FA80BCF1040F00F0F6802134C2F80C554E
:10B2F00019460139FDD1C2F8085519460139FDD169
:10B30000013CF3D10123C2F818355FFA8CF0C2F882
:10B310000835BDE8F0871EF0020740F028815CB1D7
:10B32000C2F80C5518460138FDD1C2F80855184628
:10B330000138FDD1013CF3D14FF0A0404FF001089E
:10B34000C0F81885DAF800202021022412F0010F3D
:10B3500014BFC0F80885C0F80C851D46C0F80C4520
:10B36000013DFDD1C0F808451D46013DFDD1013923
:10B3700017444FEA5202E9D14FF0A042F8074FF0CC
:10B3800001014CBFC2F80815C2F80C154FF0A042DD
:10B390000221C2F80C1518460138FDD1C2F8081573
:10B3A000013BFDD101201EF0800F1EBF934B5B6857
:10B3B000F360337C93B14FF0A04101227468C1F86F
:10B3C0000C250225C1F80C552246013AFDD1C1F8E1
:10B3D00008552246013AFDD1013BF3D14FF0A0437D
:10B3E00001228FE61EF0020040F00A812AB1013AE4
:10B3F000C3F80C55C3F80855F9D14FF0A042012508
:10B40000C2F81855DAF8003020210224DF074CBFBB
:10B41000C2F80855C2F80C5501391844C2F80C4559
:10B420004FEA5303C2F80845F0D14FF0A043012280
:10B43000C4074CBFC3F80825C3F80C254FF0A04340
:10B440000222C3F80C250120C3F808251EF0800F46
:10B450001EBF6A4B5B68F360337C002BBED04FF09D
:10B46000A0420121C2F80C150221013BC2F80C15C3
:10B47000C2F80815F9D1B1E7757F002D6FD01EF025
:10B48000020640F00281002A00F013814FF0A04331
:10B490000221013AC3F80C15C3F80815F9D10122AD
:10B4A000C3F818257DB10EF0020666B94FF0A04230
:10B4B0000123C2F80C3502212123013BC2F80C15EF
:10B4C000C2F80815F9D14FF0A0430122C3F80825AE
:10B4D000C0B2BDE8F087767F002E38D01EF002079C
:10B4E00040F0C280002C00F0DB804FF0A041022031
:10B4F000C1F80C051A46013AFDD1C1F808051A46F3
:10B50000013AFDD1013CF3D10122C1F81825AEB1B9
:10B510000EF0020797B94FF0A0400122C0F80C25A9
:10B5200002242122C0F80C4519460139FDD1C0F88A
:10B53000084519460139FDD1013AF3D14FF0A04336
:10B540000122C3F808255FFA8CF0BDE8F087002CD3
:10B55000CBD14FF0A0430122C3F81825EEE7002A13
:10B5600094D14FF0A0430122C3F81825ABE74FF068
:10B5700000092027C846C2F80C5518460138FDD1ED
:10B58000D2F81005C2F8085500F00100194601393B
:10B59000FDD18044013F4FEAC07040EA5909EAD129
:10B5A000C2F80C5518460138FDD1D2F81005C2F882
:10B5B0000855013BFDD188EA000818F0010F0CBFC7
:10B5C00001200820BAF1000F01D0CAF800907CB128
:10B5D00072684FF0A0410225C1F80C551346013B9B
:10B5E000FDD1C1F808551346013BFDD1013CF3D113
:10B5F0004FF0A0430122C3F81825D4E6001000E064
:10B600004FF0000820244746C3F80C55D3F8100526
:10B61000C3F8085500F001000744013C4FEAC07030
:10B6200040EA5808F0D1C3F80C55D3F81005C3F818
:10B630000855474017F0010F0CBF01200820BAF150
:10B64000000F01D0CAF8008042B14FF0A0430221A0
:10B65000013AC3F80C15C3F80815F9D14FF0A0430F
:10B660000122C3F81825F1E621224FF0A04002255F
:10B67000C0F80C5519460139FDD1C0F808551946D6
:10B680000139FDD1013AF3D12CE721234FF0A0413C
:10B690000224013BC1F80C45C1F80845F9D1F2E696
:10B6A0004FF0A0420121C2F81815002F7FF446AFD9
:10B6B00031E74FF0A0430122C3F81825002E7FF494
:10B6C00002AFF3E6BFF34F8F0549064BCA6802F499
:10B6D000E0621343CB60BFF34F8F00BFFDE700BFB5
:10B6E00000ED00E00400FA05DFF854C0F0B54FF0BB
:10B6F000FF33002401278C4203DB93FAA3F0C043FD
:10B70000F0BD065D0722002516F0010F1CBF07FAE9
:10B7100002FE45EA0E05013A4FEA5606F4D283EAE4
:10B7200005630822002B02F1FF324FEA4303B8BF42
:10B7300083EA0C0312F0FF02F4D10134DBE700BF0F
:10B74000B71DC104DFF854C0F0B500240127C04381
:10B7500090FAA0F0944203DB90FAA0F0C043F0BD51
:10B760000E5D0723002516F0010F1CBF07FA03FE2C
:10B7700045EA0E05013B4FEA5606F4D280EA056021
:10B780000823002803F1FF334FEA4000B8BF80EAE6
:10B790000C0013F0FF03F4D10134DBE7B71DC10443
:10B7A00000F09EBBF0B5002389B0CDE906330D460D
:10B7B00016460593441C06AF05AB01934FF4807306
:10B7C00000930297234607AA3146284600F0D4FF8B
:10B7D00038B9069A1AB10598214600F081FA09B0E5
:10B7E000F0BD02280CD1069A1AB9079BF61A1D441F
:10B7F000E2E70598214600F073FA0028F5D0EEE75D
:10B80000012809D1069A2AB10598214600F068FA64
:10B810000028E4D11320E2E704280DD0431FDBB257
:10B82000012BC9D8053818BF012004494FF4B07264
:10B8300004F066FB1620D2E71520D0E7E96401008A
:10B8400010B540F20112044600210AF0A3FC00F0FA
:10B850006DFF00232370BDE8104000F00FBA00F028
:10B860000DBA08B504F0E4FB431E5842584108BD28
:10B8700008B500231A4600F013F9003818BF01205C
:10B8800008BDF0B5044690F830002F2885B00F466B
:10B8900015462DD8C0F13006964228BF16463246CE
:10B8A00020440AF04FFC94F830103144C9B22F29DB
:10B8B00084F8301027D900231A46204600F0F0F80B
:10B8C00020B303AB00220093114602AB00F028F92D
:10B8D000D0B9029894F830206063214600F000FA55
:10B8E00090B9636B94F8302013443744AD1B636305
:10B8F000606B2A46394600F0F3F928B9626B2A4496
:10B900006263142000E0002005B0F0BD1C20FBE7BE
:10B9100008B507F053FC054B05491B681B1A584234
:10B9200058416222BDE8084004F0EABA78160020C7
:10B93000E964010000F0D4BA70B5084E33680446DB
:10B940000D46984740B93369294620469847002854
:10B950000CBF0320012070BD0020FCE71008002070
:10B9600010B500F108040322074821460AF029FC1B
:10B9700040B10648032221460AF023FC00280CBFF0
:10B980000120032010BD00BF846301001B6501007E
:10B9900070B5144D2E78044636B185220020124928
:10B9A00004F0AEFA022070BD012801D98B22F5E720
:10B9B00007F004FC0D4B4FF48272186031460C48BE
:10B9C0000AF0E8FB01232B700A4B094803EB04142F
:10B9D000094B1C60636898470028E4D003232B7050
:10B9E000E1E700BF74160020E9640100781600202A
:10B9F00070150020100800206C15002070B5164D41
:10BA00002B78012B04460E4607D01449A4220020AF
:10BA100004F076FA0224204670BDFFF779FF104B40
:10BA200010481B6821469B683246984713280446F5
:10BA300002D102232B70EEE7142800D048B92878F1
:10BA40000649431E58424FF0B202584104F058FADA
:10BA5000E1E70323EEE700BF74160020E96401006C
:10BA60006C1500207015002010B5094C207828B9FD
:10BA70000849C02204F044FA022010BDFFF748FF35
:10BA8000054B06481B68DB68984700232370F4E7E2
:10BA900074160020E96401006C1500207015002068
:10BAA00030B5054608462F2885B094BF00200120F8
:10BAB000184947221C4604F023FA0C2205F1200104
:10BAC00001A80AF03FFB0CB9134B1C70134B029AF0
:10BAD0009A420ED103F13653019803F5672303F21E
:10BAE0006F63984213D0FC3BC31A5842584105B0CB
:10BAF00030BD284604F088FA28B114B9064B01225B
:10BB00001A700320F3E7002C18BF0320EFE7022090
:10BB1000EDE700BF1F650100B61600202028056E66
:10BB20002DE9F047DDF8208006460D4691461F4678
:10BB300013B1B8F1000F09D171224049002004F07F
:10BB4000DFF94FF002094846BDE8F0874FF0000AE0
:10BB5000C3F800A0C8F800A002F040FC044600B3FF
:10BB6000022E0CD1B9F1000F02D0B5F5004F55D11E
:10BB7000334B1C684FF400454FF0000905E0032EDD
:10BB8000F0D0002425464FF01C0904F079F808B9DC
:10BB9000012E50D0B9F1000FD5D1002C47D1B822D9
:10BBA000CBE702F01DFC0028EBD0012E08D1B9F143
:10BBB000000F01D0002D36D1214B00251C68DBE79A
:10BBC000032EDED11F4B1A69002ADAD00C325378CB
:10BBD000157845EA0325937845EA0345D37855EA75
:10BBE00003650DD15179137943EA0123917943EA31
:10BBF0000143D17953EA016302D1134B1C68BBE7BF
:10BC0000517A137A43EA0123917A43EA0143D17AC4
:10BC100043EA0163012BF0D01432D8E7544655466D
:10BC20004FF01B09B1E725464FF01A09ADE73D601B
:10BC3000C8F8004087E74FF01C0984E71F65010042
:10BC4000E065010008640100A077010070B50646B8
:10BC50000C46154602F0C4FB48B1032E07D1064B33
:10BC60001B6923B129462046FDF788FA08B9002050
:10BC700070BD1D20FCE700BF0864010038B50F4D02
:10BC80002C783CB10E49DA22002004F039F9022464
:10BC9000204638BD0B483022FF210AF07BFA0123F1
:10BCA0002B70094B1C70094B1C60094B1C60094B25
:10BCB0001C60094B1C70094B1C70E9E7BD16002085
:10BCC0001F65010080160020B5160020B016002068
:10BCD000B81600207C160020B4160020BC160020E8
:10BCE0002DE9F04F734E15463278012A85B004468F
:10BCF0000F4608D000207049EF2204F001F902201D
:10BD000005B0BDE8F08F6D4B197821B96C491A70F8
:10BD100008606C490860DFF8B08198F80030002BAB
:10BD200070D1684A13685919A342116048D1DFF8ED
:10BD30009CA1DFF89CB1DAF80000C0F13009A945F8
:10BD400028BFA94639464A4658440AF0FBF9DAF8B2
:10BD5000000048442F28CAF800004F44A5EB09050D
:10BD60004C444BD9A0F1300358425841524940F25B
:10BD7000111204F0C5F8524ADAF8001012680123D3
:10BD80005846FFF78DFE534B187002ABDFF8449115
:10BD90004B490093096899F8000003AB0122FFF7B3
:10BDA000BFFE50B903F07CFF70B1484B48491A6898
:10BDB00099F80000FFF74AFF30B1032333709FE783
:10BDC000444B03221A70E0E798F800003A4980F0EB
:10BDD00001004FF49A7204F093F8029800F058F9B9
:10BDE0000028EAD1012388F80030384B38491A6816
:10BDF000334B186800F0B0F920B1DEE798F8003056
:10BE0000002BF2D198F8003033B12A46394620464B
:10BE100000F0A2F90028D0D12E4B1B78022B43D082
:10BE2000032B03D0012B42D0002069E72A4B18785E
:10BE300000283FF465AF294B186900283FF460AF34
:10BE400000F10C025178137843EA0123917843EA18
:10BE50000143D17853EA01630BD15079137943EA56
:10BE60000023907943EA0043D07953EA006002D17D
:10BE700046E79C420CD35379107940EA032093792A
:10BE800040EA0340D37940EA03608442034601D983
:10BE90001432D7E700283FF433AF2C449C42C3D37D
:10BEA0000223337013202BE74FF4F833F5E74FF4F8
:10BEB0000043F2E7BD1600201F650100BC160020FC
:10BEC000B81600207C160020B4160020B016002002
:10BED00080160020B5160020B61600200864010068
:10BEE00010B50E4B1C783CB920460D4940F26B1240
:10BEF00004F006F8022010BD00221A70094B1878D1
:10BF000008B100F0CBF9022CF5D0074B1B78032BBE
:10BF1000F1D0002808BF2520EDE700BFBD160020A6
:10BF20001F650100B4160020B51600202DE9F04170
:10BF3000DFF84480114E98F80030114F0446CBB919
:10BF4000104B32681B6810499B683868984701237A
:10BF5000054688F8003032680B48FF210AF01AF9CC
:10BF60003368B4FBF3F003FB1040241A3C6028460E
:10BF7000BDE8F0810025EEE7C01A0020D41A0020A9
:10BF8000D01A0020D81A0020C0160020F8B5384F6B
:10BF90003B685B69054698473B6806469B692846AF
:10BFA0009847044606B140B9324940F235120020A4
:10BFB00003F0A6FF02242046F8BDB6F5806F8CBFC3
:10BFC000002001202B494FF49D7203F099FF4FF49C
:10BFD0008060B0FBF6F07043A0F580635842584192
:10BFE000244940F23B1203F08BFFA6428CBF002095
:10BFF000012020494FF49E7203F082FFB4FBF6F05B
:10C0000006FB1040B0FA80F040091A491A4E40F27F
:10C010003D1203F075FFB5FBF4F0184B04FB105014
:10C020001C60174B281A18603B68164D1B6A30605D
:10C03000B4F5806F28BF4FF480642C6033B198470B
:10C04000044618B13B685B689847B4E70E4B1B7811
:10C0500033B13B683068DB68984704460028F1D16B
:10C060002A680A48FF210AF095F80024A3E700BFD8
:10C07000D81A002053650100C41A0020C81A0020F5
:10C08000D01A0020D41A0020E01A0020C016002088
:10C09000F8B5254F3D78044635B1472223490020A5
:10C0A00003F02EFF02242AE000282AD0436843B37D
:10C0B000836833B3C36823B3036913B3436903B31A
:10C0C0008369F3B1C369E3B14FF48062FF2118487B
:10C0D000184E0AF05FF8184B346001221A70174BA3
:10C0E0001D70174B1D60174B1D60174B1D60174BC4
:10C0F0001D60174B1D6023689847044618B1204601
:10C10000F8BD4D22CAE7134B1B784BB933681B6946
:10C110009847054620B133685B6898472C46EEE7A0
:10C1200001233B70EBE700BFE11A002053650100DB
:10C13000C0160020D81A0020C01A0020CC1A0020F7
:10C14000D01A0020D41A0020C41A0020C81A0020D7
:10C15000DC1A0020E01A00202DE9F74F454D95F834
:10C160000080B8F1010F83460E46144608D0002027
:10C1700041497B2203F0C4FE022003B0BDE8F08FEA
:10C180003E4F3A7852B9FFF701FF10B102232B70EE
:10C19000F3E73B4A87F80080C2F800B0DFF8E4809C
:10C1A000374FD8F800003A68BBFBF0F1B2FBF0FC67
:10C1B00000FB11B100FB1C20ABEB0101121A9142F4
:10C1C00004D05846FFF7B2FE0028DFD1DFF8B8A050
:10C1D0003A68DAF80000BBFBF0F1B2FBF0FC00FBC0
:10C1E00011B100FB1C20ABEB0101121A914236D1B8
:10C1F000DFF89890D9F80020D8F800100A445A4582
:10C2000004D85846FFF792FE0028BFD16CB3204BEC
:10C21000DAF800101A680A445A4504D85846FFF75D
:10C22000B5FE0028B2D1D9F80000D8F80020194B8B
:10C230000244A2EB0B02A242ABEB000028BF224655
:10C2400031461844019209F07DFF019A1248B2FA72
:10C2500082F14909017093441644A41ACAE758466A
:10C26000FFF794FE0028C3D090E7C7F800B020463F
:10C2700083E700BFE11A002053650100CC1A0020BB
:10C28000DC1A0020D41A0020C81A0020D01A00207E
:10C29000C41A0020C0160020C01A002070B5194E24
:10C2A000307830B91849CC2203F02AFE0224204607
:10C2B00070BD012823D10020FFF738FE0546134B3F
:10C2C0001B685B6898474FF480620446FF21104862
:10C2D00009F060FF0F4B01221A700F4A0023137000
:10C2E0000E4A337013600E4A13600E4A13600E4AF2
:10C2F00013600E4A9C4208BF2C461360D7E7002506
:10C30000DDE700BFE11A002053650100D81A0020C4
:10C31000C0160020C01A0020CC1A0020D01A00201D
:10C32000D41A0020C41A0020C81A0020DC1A0020E9
:10C3300010B5044603F0FAFB014B1C7010BD00BFA2
:10C34000E01A00204FF4807070474FF4805070471F
:10C35000024B1878431E584258417047012B002069
:10C3600008B50D4B187828B90C49832203F0C8FD95
:10C37000022008BD0020187004F06AFC50B9084B78
:10C380001B780BB10020F4E702F028F80028F9D15F
:10C390002520EEE71F20ECE7012B00208765010038
:10C3A000022B002038B5174D2C783CB1164962227B
:10C3B000002003F0A5FD0224204638BD2246214678
:10C3C000204604F043FCD0B9104B11481C70114BAF
:10C3D0001C70114B1C70114B1C60114B1C60114BDD
:10C3E0001C70114B1C60114B1C60114B4FF48052A0
:10C3F00021461C6009F0CEFE01232B70DCE71E24D1
:10C40000DAE700BF012B002087650100022B002026
:10C41000011B0020001B0020F81A0020F41A002045
:10C42000FC1A0020EC1A0020E81A0020F01A002064
:10C43000E41A002038B52C4D2B78012B044606D089
:10C4400000202A49FF2203F05BFD022038BDC0F323
:10C450000B0040B1254940F20712002003F050FDC7
:10C4600002202870F2E7224A137853B1214B224967
:10C470001B6809680B449C4203D01C494FF4877227
:10C48000ECE7A4F50043B3F5B83F03D202232B70C9
:10C490002120DBE701231370164B1C60164B4FF471
:10C4A0008052B4F5004F1A6016D201F099FF68B1BE
:10C4B00064B9204601F020FE90B94FF400424FF4D9
:10C4C000807101F022FE68B90020BFE7204601F02C
:10C4D00013FE0028F8D0D9E7232002232B70B5E7FC
:10C4E0001020FAE72020F8E7012B002087650100E3
:10C4F000F81A0020F41A0020FC1A002070B5144D20
:10C500002B78012B07D00020124940F2371203F09C
:10C51000F7FC022070BD104E347844B100200D4964
:10C5200040F23D1203F0ECFC02202870F2E72046B6
:10C53000FFF780FF18B102232B702220EAE704F5F1
:10C540008054B4F5004FF2D101233370E2E700BF0D
:10C55000012B002087650100001B00202DE9F84316
:10C56000664D2B78012B06460C46174608D06449C9
:10C57000A222002003F0C4FC02242046BDE8F88378
:10C58000C3B21BB1AB225E4900200EE0FF2A02D9E4
:10C5900012F0FF0001D0B222F5E7C6F30B031344FB
:10C5A000B3F5805F06D9B9225549022403F0A8FCEF
:10C5B0002C70E2E7534B1B787BB9534B187808B9C2
:10C5C000C122F1E7514B1B689E4204D3504A1268C6
:10C5D00013449E4201D3C722D5E74E4A137843B194
:10C5E0004D4B4E491B6809680B449E4201D0CF2237
:10C5F000C9E7B6F5F83F07D2F319B3F5004F03D9F1
:10C6000002232B702024B8E701231370424B1E60D5
:10C61000424BB6F5004F1F6057D201F0E1FE0028F3
:10C6200059D0C6F5FF48DFF8F89008F17C08474577
:10C630003A46D9F8000028BF42462146FFF782F863
:10C64000B6F5805FC9F8000007D236483A46214661
:10C65000304409F077FD00248FE7F319B3F5004F5C
:10C6600039D1C6F5FF43C6F5FF427D337E32E15C2A
:10C67000A35C14F808201B0443EA01231343C6F506
:10C68000FF427F32A25C43EA026398421FD12246F6
:10C690003946304601F039FDD8B901F02DFD90B989
:10C6A000204A4FF4805101F030FD00280CBF0024D7
:10C6B000202401F083FD1C4B01221A70002CCAD0EB
:10C6C00002232B7059E71024F3E72324F8E72724EB
:10C6D000F6E72024F4E722463946304601F015FDFE
:10C6E000044600288CD13E44B6F5004FB3D301F088
:10C6F00065FD0D4B01221A703FE700BF012B0020A2
:10C7000087650100001B0020F81A0020F41A0020A1
:10C71000FC1A0020EC1A0020E81A0020F01A002071
:10C72000E41A0020011B0020022B002008B525225E
:10C730000948002109F02EFD084A00231360084A29
:10C740001370084A1370084A1370084A1370084A95
:10C750001380084A137008BD072B0020302B0020DF
:10C760002D2B0020062B0020342B00202C2B00200A
:10C77000042B0020352B00202DE9F74F9246984AD4
:10C780000E9E8946451811781F4600238046336067
:10C7900021B101783A2940F0D8801370914B1A7872
:10C7A000C2B1914C214600221A70384611F8042B70
:10C7B00009F0C8FC227833688C49607813443360F0
:10C7C0000B68A4781B0C1B0440EA042003431344A9
:10C7D00017440B60844CCDF80480DDF80480A84534
:10C7E00000F0B380019B13F8012B01930D2AF4D0C4
:10C7F0003A2A1DD00A2AF0D07D497E4B09781B7851
:10C80000002900F0DE80D00602F00F0158BF093188
:10C81000E25C784801F00F011143E15422780133C2
:10C82000DBB2111D9942037040DA0023184610E074
:10C8300025220021204609F0ADFC6D4A002313702B
:10C840006C4A13706C4A1370C7E714F80CC060444C
:10C85000C0B25FFA83FC614503F10103F5DA0028F9
:10C8600040F0BA80644B197801BB012119706378DC
:10C87000A17894F803B043EA01235BBA98B26370DD
:10C88000C3F30723A370BBF10D0F0FD8DFE80BF044
:10C89000142E600E7D0E0E0E0E0E070E0E14627913
:10C8A000237943EA0223554A5BBA1380504A13782E
:10C8B000B3FA83F35B09C6E7504B1B883BB1504981
:10C8C0000988994203D04F49098899423AD1DFF843
:10C8D0001CB14D4BDBF800C00CEA030101438C4551
:10C8E000404917D001230B704FF0020B0C9B3268AC
:10C8F000FF219A1A384609F04DFC3C4B32681B6800
:10C90000A5EB08059B1A0D9AA9EB05051360CAF85B
:10C91000005036E0002008703C49384609F012FC0F
:10C9200021783268384B0A443260DBF80020A07866
:10C930001340627842EA002213430B440F44CBF8C1
:10C940000030B3E7264B01221A704FF0000BCDE701
:10C950000C9B3268FF219A1A384609F01BFC234AC7
:10C96000316813685B1A0D990B6063792179A5EB27
:10C9700008051B01A9EB050543EA0133CAF800507D
:10C980001360584603B0BDE8F08F0C9B3268FF215E
:10C990009A1A384609F0FEFB144A316813685B1A8C
:10C9A0000D990B6063792179A5EB08051B04A9EBB0
:10C9B000050543EA0163CAF8005013604FF0020B0B
:10C9C000DFE7242B3FF672AF02F00F01D20658BF0B
:10C9D00009310901E15469E74FF0040B86E700BF14
:10C9E000352B00202C2B0020072B0020302B002083
:10C9F0002D2B0020062B0020342B0020042B0020A0
:10CA000008080020060800200000FFFF0B2B002074
:10CA1000024B0021186805F07FBF00BF602B00208B
:10CA2000014B186805F08CBF602B002008B506F09C
:10CA3000C5FB064B06491B681B1A5842584140F279
:10CA40006912BDE8084003F05BBA00BF642B002008
:10CA5000E465010038B5104D104C0FCD0FC40FCD5B
:10CA60000FC495E8030084E8030000F033FB0C4892
:10CA700001F084F901F020F90A4B18600A4B4FF4D9
:10CA800000721A60094B01221A60094B094A400AD8
:10CA90001860094B1A6038BD18660100382B002059
:10CAA000A9CC0000E04E0020A84E0020A44E00209B
:10CAB000A04E00206C2B00209C4E002010B5044698
:10CAC000FFF7A6FF054B3CB11A780AB902221A708B
:10CAD000BDE81040FFF7A4BF1C70F9E76D2D0020E2
:10CAE00008B5FFF795FF074B1978074B1A788A426C
:10CAF00003D1022A04BF01221A70BDE80840FFF7E3
:10CB00008FBF00BF6C2D00206D2D00202DE9F84354
:10CB1000064613380128454C454994BF00200120A2
:10CB20004FF43A7203F0ECF994F82030032B07D15C
:10CB3000BDE8F8433E494FF43B72002003F0E0B9F2
:10CB40002368002B50D0A569E269AA424CD325B1D5
:10CB50006568A268AA1A5542554105F0010294F889
:10CB6000269084F82520002B40D194F82770033FAD
:10CB700018BF0127002D3BD094F8248094F823306F
:10CB8000002B236908BF0025013333D06068284992
:10CB9000013040F20A3218BF012003F0B1F9626897
:10CBA00023699B1A6269B2EB432F8CBF01230023D8
:10CBB00016B3032384F8203094F82030032B0CD1D3
:10CBC00094F821303BB1FEF74FFF002384F8213069
:10CBD0009E4208BF0646174B1E70B9F1000F23D1C5
:10CBE000BDE8F843FFF77CBF0025B6E70127C1E7A2
:10CBF000A846C3E70023DBE7B9F1000F09D033B93A
:10CC0000002FD6D0B8F1000F08BF0426D1E70626C2
:10CC1000CFE7002DCDD1B8F1000F01D00223C9E735
:10CC2000002FC9D00123C5E7BDE8F883382B0020C9
:10CC3000E4650100362B002030B4194C94F82050E4
:10CC4000032D06D130BC174940F23522002003F0F5
:10CC500057B9256805B92060A068013094F827000D
:10CC600008BFA1600328A06908BF84F8273090425C
:10CC700007D9E069904204D91AB1032030BCFFF70C
:10CC800045BF481C02D0A0688842F6D1032B03D0D0
:10CC900094F827109942F0D1A2610020EEE700BF7E
:10CCA000382B0020E46501002DE9F041354C1D468C
:10CCB00007468846164600F08FFA94F82030032B7A
:10CCC0001FD0B8F1020F16D1D4F80080B04518D1AA
:10CCD000284601F045F80646284601F01DF80446AE
:10CCE0003846FEF73DFE3246034621464046BDE843
:10CCF000F041FFF7A1BFB8F1000F04D0B8F1010F68
:10CD00001BD0BDE8F0813846FEF72AFE0328F8D094
:10CD1000284601F030F88307F3D43846FEF720FEAA
:10CD20000746284601F01CF80446284600F0F4FFA8
:10CD30003B46014622463046D9E72368B342E0D15C
:10CD400094F8223033B100234FF0FF322360A26009
:10CD5000A361D6E70C4D0FCD0FC40FCD0FC495E8DE
:10CD6000030084E80300FFF753FE084B1A78012AFA
:10CD700004D1074A1278022A08BF1A70BDE8F041B0
:10CD8000FFF74EBE382B0020186601006D2D0020E5
:10CD90006C2D0020F8B5414E414C0546FFF746FE8C
:10CDA000FFF736FE327823789A4203D1BDE8F84087
:10CDB000FFF736BE3B4940F2F912012003F0A0F81C
:10CDC0003378022B11D1384B93F82030012B55D0FA
:10CDD00008D9023B012B05D9324940F20B22002031
:10CDE00003F08EF84FF4FA7304E0002B37D1227869
:10CDF000022A3BD12D4A11684EF65F20814203D8AA
:10CE00000D4499421560D1D9257837783570012DB8
:10CE100008BF02234FF0000608BF23701660FFF71B
:10CE2000FFFD022F16D1204C94F82030032B05D0A3
:10CE30000123304684F82630FFF768FE94F820007E
:10CE40001849C31E584240F21112584103F058F8D5
:10CE500000F064FA012D17D9022D19D0F8BD012B6D
:10CE600004D12378022B0CD0002BC3D00D4940F203
:10CE70001B22002003F044F80023BBE744F62063A4
:10CE8000B8E740F6C413B5E7094B00221A60E5E79E
:10CE9000FFF7E0FD064B0122F8E700BF6C2D0020F4
:10CEA0006D2D0020E4650100382B0020682B002048
:10CEB000D84E002008B5FFF7B9FD014B187808BD22
:10CEC000362B002008B506F079F9094B18600020D0
:10CED00005F010FD074B1860FFF7BCFD064A002364
:10CEE0001370064A1370064A1360064A136008BDA1
:10CEF000642B0020602B00206C2D00206D2D002065
:10CF0000682B0020D84E002070B504460D4616460A
:10CF1000FFF78CFD064B1B684BB1012001F0DEFBD7
:10CF2000324629462046BDE8704000F02DBF70BD56
:10CF3000D84E00202DE9F041054688461646FFF7F9
:10CF400075FD534B1B68CBB1524B534C00221A60FA
:10CF500094F82030032B11D0012001F0BFFB3246A2
:10CF60004146284600F03CFF94F82030032B05D0C2
:10CF700094F8223023B163689D423ED2BDE8F0812F
:10CF800071024046FEF7D8FC0328074620D094F8EB
:10CF90002100424940F2852280F0010002F0B0FFFA
:10CFA000681C18BF01203D4940F2862202F0A8FF0C
:10CFB0006368013394F8273008BF6560032B63680A
:10CFC00008BF84F827709D4207D00320FFF79EFD1D
:10CFD00094F82230002BD1D0CDE794F82730BB4213
:10CFE000F3D13846FEF7D4FC0028EFD10123E560E9
:10CFF00084F8213084F82230E8E7E3689D420AD0C3
:10D00000BCD22369013308BF25612369AB4294BFB9
:10D0100023612561B2E7E369354403EB46237702D8
:10D0200094F82360E361E56026B10020BDE8F0419B
:10D03000FFF76CBD19494FF43172012002F060FF17
:10D04000164994F8210040F2C52202F059FF3946F2
:10D050004046FEF7D3FC1328054610D1FEF704FD29
:10D060000123054684F8216084F8233084F82430B5
:10D07000FBF7F4FF63693B4463612846D6E7142855
:10D0800003BF012384F82430354684F82460F1E797
:10D09000D84E0020682B0020382B0020E4650100CA
:10D0A00000220346114610461847000070B5064698
:10D0B00007480D46FBF76AFA04462DB136B9024619
:10D0C0000349284609F03EF8204670BD0024FBE7DE
:10D0D0004066010037B5304C304A23464FF080613E
:10D0E00013F81F0F002814BF1846104600F0FAFC72
:10D0F0002B48FFF7D5FF14F8145F29490346294848
:10D100000022954218BF204600F02EFF2648FFF768
:10D11000C7FF254903460022244800F025FFFFF7FA
:10D12000C9FE40B12248FFF7BBFF21490346002258
:10D13000204800F019FF204B204A2148412102F0ED
:10D1400083FC58B11F48FFF7ABFF1E49034600227E
:10D150001D4800F009FF002100F0DCFD00230093D2
:10D160004FF40043019301F03BF980B1009801991D
:10D170004FF4807208F0D6FF044640B91348FFF719
:10D180008FFF124903462246114800F0EDFEFBF7DF
:10D1900089FF03B030BD00BF08640100AC66010028
:10D1A000B9D40000B866010029D80000C4660100A7
:10D1B0007DD50000D0660100B22D0020B02D0020EA
:10D1C0006E2D0020B1D600001D6B0100ADD0000017
:10D1D000DC66010000207047F7B507460C46FFF7F4
:10D1E000F9FF20B903F0BCFD18B1022C0AD103B03D
:10D1F000F0BD03F0B7FD0028F7D102F041FD002893
:10D20000F3D1F4E7002C6FD101230DF1070138466B
:10D210008DF80730FBF738FF10BB3C4E4FF0FF3561
:10D2200031680B22384608F07DFF00B935790134AA
:10D23000102C06F10806F3D16B1C1DD00F2D4CD815
:10D24000DFE805F008150E1E272B2D313337393D49
:10D250003F43454901F0C4F810B1012002F0A4FB9E
:10D260009DF80730002BC2D0FFF73AFCBFE72849F2
:10D27000E722002002F044FE00238DF80730EFE79C
:10D28000244B1C682368984723699847636898472C
:10D29000E6E7012002F0D4FCE2E70020FAE70120F3
:10D2A00002F0D4FCDCE70020FAE7012002F0D4FC15
:10D2B000D6E70020FAE7002002F02CFCD0E701209E
:10D2C000FAE7012002F0CEFCCAE70020FAE70120CD
:10D2D00002F02CFCC4E70020FAE70D4940F21512D9
:10D2E000002002F00DFEBBE7012C80D10A490B2281
:10D2F000384608F017FF00287FF479AF02F01CFED3
:10D3000003B0BDE8F040FFF7EBBB00BF3C6B010092
:10D31000E8660100A07701001D6B010008B501F06F
:10D320005DF820B1FFF7C6FD08B9FEF7CBF901F0B3
:10D3300057F820B102F080FB30B1FEF7C3F9054A7F
:10D3400013680133136008BD02F0EAFB0128F6D12F
:10D35000F3E700BFB42D00202DE9F04FA5B004AED7
:10D360002E9C0746884691460021802230469A46E8
:10D3700008F010FF631E31467E3413F8012F1AB1F6
:10D380009C4201F8012BF8D1DFF81CB135462B780F
:10D39000402B0ED05BB9AD1B0195009653464A4613
:10D3A0004146384602F077FD25B0BDE8F08F0135E3
:10D3B000EDE76B78562B33D8412B01D83B4C37E047
:10D3C000423B142BFAD801A252F823F075D4000086
:10D3D000BDD3000087D40000BDD30000BDD3000042
:10D3E000BDD300007BD40000BDD30000BDD300003E
:10D3F000BDD30000BDD300002BD40000BDD300007E
:10D40000BDD30000BDD30000BDD3000093D4000005
:10D41000BDD3000081D400006FD400008DD4000083
:10D42000623BDAB2142ACCD9C8E700F09DFE04466C
:10D430002846FBF7ABF803902046FBF7A7F8039AC2
:10D44000111802390346294424A8884229D9023AEE
:10D45000A91CE818039308F083FE039B21461A4693
:10D46000284608F06FFE2B78002B90D193E700F050
:10D4700063FEDCE700F064FED9E700F065FED6E766
:10D4800000F066FED3E700F067FED0E700F068FE2C
:10D49000CDE79BF82A30064C064A002B08BF1446FD
:10D4A000C6E7154477E700BF08640100176701006D
:10D4B000326401001D670100F7B50F4600B1F1B9F4
:10D4C000450256020F4B00932A4600233146384648
:10D4D00002F0FFFC0C4B0093044603462A463146FB
:10D4E0003846FFF739FF094B0093044423462A4688
:10D4F0003146384602F0EDFC204403B0F0BD002078
:10D50000FBE700BF5667010026680100296801009B
:10D510002DE9F7430A9C0094984605460E461746A7
:10D5200002F0D7FC4FF00209124B00933A4608EB89
:10D53000000331460446CDF80490284602F0ABFCC7
:10D540000B9B0093044408EB04033A4631462846FB
:10D5500002F0BFFC084B00930444CDF8049008EBA4
:10D5600004033A463146284602F095FC204403B0B5
:10D57000BDE8F08356680100EB6801002DE9F74F24
:10D580000D4692460446FFF795FC064600F098FDCE
:10D590000746304600F0A8FD06460CB1002D4BD1E1
:10D5A0004FEA442B254B01974FEA4A2A00935A46EB
:10D5B000002351462846FFF7ABFF214B009304465A
:10D5C00003465A465146284602F083FC1D4F044448
:10D5D00007F114094FF001086EB9022301931A4BA9
:10D5E00000935A4623465146284602F054FC2044F4
:10D5F00003B0BDE8F08F4F45EFD0B8F1000F0AD16E
:10D6000002230193114B00935A4623465146284664
:10D6100002F041FC0444F3070AD53B6800935A46E4
:10D6200023465146284602F054FC4FF000080444BB
:10D63000C6F347060437CFE70020D9E74C6801005E
:10D6400052680100286B0100EB6801005968010075
:10D6500070B4049E044D054C002E08BF2C46049463
:10D6600070BCFFF755BF00BF5C680100217A010064
:10D670002DE9F04186B00DF10C0804460D464046F8
:10D680000D991F46164602F0CCFB06AB184400234A
:10D6900000F80C3C0C9B0093CDF804803B463246CE
:10D6A00029462046FFF734FF06B0BDE8F0810000B0
:10D6B0002DE9F04F87B000230E46029308B10029F0
:10D6C00075D13C4B1B78012B6ED0022B3A4B14BF0B
:10D6D0004FF00008984644025502384B009322460A
:10D6E00000232946304602F0F4FB354B0193354BBD
:10D6F000009307460346224629463046FFF708FFB7
:10D70000314B1B8801930744304B009322463B4624
:10D7100029463046FFF7ACFF07EB000AB8F1000FCF
:10D720000AD02B4A00925346CDF80480224629465F
:10D730003046FFF7EDFE824402A802F0E1F9804690
:10D7400070B3029A62B3234A009253462246294696
:10D75000304602F0BEFBDFF880B0824400270DF1B6
:10D760000C090AF10A02B2F5007F19D20A225946C1
:10D77000484608F0E7FC029A484652F8271002F0A3
:10D7800037FB0A23019322465346CDF800902946E1
:10D79000304602F080FB0137FAB290458244E0D86F
:10D7A000504607B0BDE8F08FDFF8308093E79A4627
:10D7B000F6E700BFB22D002069680100756801001E
:10D7C0006E2D00207E680100B02D002083680100CE
:10D7D000886801008F680100206201005E68010016
:10D7E0002DE9F04186B0002405460E4698460D9975
:10D7F000049447F630030DF10E0017460393ADF87D
:10D8000014408DF8164002F0F3FA03AB01930C9B21
:10D8100000933A464346314628468DF81640FFF7B6
:10D8200077FE06B0BDE8F0812DE9F04385B00D46E6
:10D8300056024702644B00933A460023314628467D
:10D8400002F047FB614B0093044603463A463146DB
:10D850002846FFF781FD5E4B0093044423463A4679
:10D8600031462846FFF778FD044402F001FA594B8F
:10D8700001903A463146009328462346FFF7E8FEDA
:10D88000044402F0FDF9544B01903A4631460093AE
:10D8900028462346FFF7DCFE044402F0F9F94F4B1B
:10D8A00001903A463146009328462346FFF7D0FEC2
:10D8B000044402F0F5F94A4B01903A463146009390
:10D8C00028462346FFF7C4FE044402F035F9454BD1
:10D8D000019000933A46234631462846FFF7B8FEAA
:10D8E000414B0093044423463A463146284602F011
:10D8F000F0FA3E4B0093044423463A46314628460C
:10D90000FFF72AFD044400F037FC08B30DF10808C6
:10D910004FF0060936494A46404608F013FC354B9D
:10D9200000933A4623463146284602F0D2FA044490
:10D9300000F04CFD04220146404602F096FA2346D0
:10D94000CDE900893A463146284602F0A4FA04445B
:10D95000294B00933A4623463146284602F0B9FA4D
:10D96000044400F009FC58B100F01CFC234B01906A
:10D9700000933A46234631462846FFF731FF0444D8
:10D9800000F016FC1E4B019000933A4623463146A8
:10D990002846FFF725FF1B4B1B68019304441A4BD5
:10D9A00000933A46234631462846FFF761FE174B5F
:10D9B0000093044423463A4631462846FFF7CCFC00
:10D9C000204405B0BDE8F0839A680100EE680100CC
:10D9D000FE6801000B690100166901002969010058
:10D9E0003C69010059690100666901008069010014
:10D9F0002A62010098690100AD690100176A0100FF
:10DA0000266A0100B42D0020346A0100426A010038
:10DA10007047704710B5540208462246002108F0AE
:10DA2000B9FB204610BD000008B5034608463BB9C7
:10DA300004494FF4007208F085FB4FF4007008BDF4
:10DA40000020FCE7C031002008B5034608463BB97A
:10DA500004494FF4007208F075FB4FF4007008BDE4
:10DA60000020FCE7C933002083185B02B3F5806F08
:10DA700070B506460D46144607D900200B4940F202
:10DA8000632202F03DFA002070BD4FF400720021C5
:10DA9000284608F07FFB36B9054B06491A68284628
:10DAA000520108F04FFB6002EEE700BFBC6B0100C3
:10DAB000BC310020BC2D002043000133B3F5007FB2
:10DAC00005D3064940F23912002002F019BA044A7F
:10DAD00002F81010090AD154704700BFBC6B010056
:10DAE000C03100202DE9F84FDFF89091644D654C6E
:10DAF000DFF89481654F8A464FF400720021064694
:10DB000048464FF0000B08F045FB4FF4007200212F
:10DB10005F4808F03FFBC02259465E48C5F800B098
:10DB200008F038FB4FF4806259465B4808F032FB3E
:10DB30005A4B5B4A83F800B05A4B5B491A6048461F
:10DB40004FF40072C4F800B0C8F800B0C7F800B0D5
:10DB500008F0F8FA99F80C3099F80B200AF5803A99
:10DB600042EA0322BAFBF2F399F80D2041F25A0A75
:10DB70000AFB02F199426AD94FF4AB724B495846FD
:10DB800002F0BEF999F80D300AFB03F3B3F5803FBC
:10DB90004FF0000264D389F8132089F81420C3F3EE
:10DBA000072289F82120C3F3074289F8222089F847
:10DBB00020301A0E89F8232099F80D20B3FBF2F3D8
:10DBC0005B00DFF8D0A03A4903F2FF13C3F347220A
:10DBD00089F81620C3F347433022504689F817309E
:10DBE00008F0B0FA99F8172099F8163043EA0223A2
:10DBF0000422C8F80020DAF808205B02CAF81430C2
:10DC0000CAF8203002EB4302DAF82C301A44204BD9
:10DC10003A60F8221A70FF225A7001204FF6FF7105
:10DC20002860FFF749FF2B6822491B4801332B600E
:10DC300020220023236008F085FA17480B22314682
:10DC400008F080FA236801332360BDE8F88F4FF6AF
:10DC5000917A0AFB02F29A4298D240F259128DE769
:10DC6000C3F3072189F8133089F8141089F82020AC
:10DC700089F8212089F822209CE700BFC9330020C1
:10DC8000C0330020BC3100208C360020B82D00208D
:10DC9000C0310020CC350020BC2D0020C83300202E
:10DCA00013DA0000C43300201E6C0100BC6B0100BD
:10DCB000406E01001E6E010010B5144BDC7C187D17
:10DCC00054EA002006D0DC7A1B7B44EA0324444358
:10DCD000204610BD93F8210093F8204044EA002428
:10DCE00093F8220044EA004493F8230054EA0064C5
:10DCF00005D0DA7A1B7B42EA03235C43E8E7044958
:10DD000040F28912204602F0FBF8E1E7C933002017
:10DD1000BC6B0100C1727047427F037F43EA02235C
:10DD2000827F43EA0243C27F53EA026311D0837EBB
:10DD3000C07E094A43EA0020517B831ED07A127BC1
:10DD400040EA022205480068B0FBF2F001FB030044
:10DD500070474FF0FF307047C9330020B82D0020C6
:10DD6000427F037F43EA0223827FC07F43EA02436C
:10DD700043EA00607047C07A70470000014B1860AA
:10DD8000704700BFC43300202DE9F04789460446A0
:10DD90001546002152024846104E08F0FBF906F1E4
:10DDA000C00A00273846B368844207EB53270ED3D6
