:04000005000000C136
:10000000000A00208501000091010000AD0A0000F7
:100010000000000000000000000000003DE8FFDFDD
:10002000939D939B0B999697FE000000950100000D
:10003000000000000664000097010000ED0C0000C5
:10004000A3010000A3010000A3010000A301000020
:10005000A3010000A3010000A3010000A301000010
:100060009B0100009F010000A3010000A30100000C
:10007000A3010000A50B0000A3010000A3010000E4
:10008000A3010000A3010000A3010000A3010000E0
:10009000A3010000A3010000A3010000A3010000D0
:1000A000B50D0000A3010000A3010000A3010000A2
:1000B000A3010000A3010000A3010000A3010000B0
:1000C00000F002F800F030F80CA030C8083824180E
:1000D0002D18A246671EAB4654465D46AC4201D180
:1000E00000F022F87E460F3E0FCCB6460126334282
:1000F00000D0FB1AA246AB46334318478C7300006E
:10010000AC7300000023002400250026103A01D320
:1001100078C1FBD8520700D330C100D50B607047BF
:100120001FB51FBD10B510BD00F0ACFA1146FFF7AA
:10013000F7FF03F0CDFE00F0C4FA03B4FFF7F2FFBF
:1001400003BC00F0C7FA00008546084770B50546B5
:100150000C46164602E00FCC0FC5103E102EFAD208
:10016000082E02D303CC03C5083E042E07D301CCCE
:1001700001C5361F03E021782970641C6D1C761EB2
:10018000F9D270BD72B60B48804762B60A48004784
:10019000FEE7FEE7FEE7FEE7FEE7084800470848FF
:1001A000004708480047000007480849084A094B2B
:1001B00070470000250D0000C1000000210B000069
:1001C000390B0000A301000000080020000A0020F5
:1001D0000009002000090020034610B50B439B07CF
:1001E0000FD1042A0DD308C810C9121FA342F8D09A
:1001F00018BA21BA884201D9012010BD0020C0439D
:1002000010BD002A03D0D30703D0521C07E0002002
:1002100010BD03780C78401C491C1B1B07D10378C8
:100220000C78401C491C1B1B01D1921EF1D11846B1
:1002300010BD000030B5441C03E00178401C0029CB
:100240000DD08107F9D10B4BDD0104C8D11A9143C0
:100250002940FAD0001B0A0603D0C01E30BD001B87
:1002600030BD0A0401D0801E30BD0902FCD0401E02
:1002700030BD0000010101010346F0B50B439B07AF
:100280002DD1244DEF01042A29D308C810C95E1BC3
:100290009E43121F3E4017D0D8B2E1B2401A310639
:1002A000014310D198B2A1B2401A310401430AD1DE
:1002B00018022102000A090A401A3102014302D140
:1002C000180E210E401AF0BDA342DCD018BA21BA94
:1002D000884201D90120F0BD0020C043F0BD002AB2
:1002E00001D10020F0BD03780C78401C491C002B84
:1002F0000DD0A3420BD1521E09D003780C78401CBC
:10030000491C002B03D0A34201D1521EEBD1181B74
:10031000F0BD000001010101421E5378521C002B68
:10032000FBD10B78491C1370521C002BF9D170477C
:10033000F8B5042A2CD3830712D00B78491C03701C
:10034000401C521E83070BD00B78491C0370401CC5
:10035000521E830704D00B78491C0370401C521EA8
:100360008B079B0F05D0C91ADF002023DE1B08C9AD
:100370000AE0FFF7EBFEF8BD1D4608C9FD401C462C
:10038000B4402C4310C0121F042AF5D2F308C91A36
:10039000521EF0D40B78491C0370401C521EEAD444
:1003A0000B78491C0370401C012AE4D409780170C1
:1003B000F8BD704770477047004870479C070020A1
:1003C0006B636667FFFFFFFFFFFFFFFFFFFFFFFF9E
:1003D00010FFFFFFFFFFFFFFFFFFFFFFFFFFFFFF1C
:1003E000FFFFFFFFFFFFFFFFFFFFFFFFFFFFFFFF1D
:1003F000FFFFFFFFFFFFFFFFFFFFFFFFFFFFFFFF0D
:10040000FFFFFFFFFFFFFFFFFFFFFFFFFE39FFFFC3
:10041000431A70B593421BD28918801804E0491E14
:10042000401E0B78521E03709307F8D106E0103976
:10043000103878C9103978C01038103A102AF6D21E
:1004400003E0091F001F0B680360121FF9D570BD80
:10045000FFF77CFE70BDF8B50646144608438007DA
:1004600007D0751AA54219D20819102D13D23119C7
:1004700007E03046FFF7CCFFF8BD401E491E02786A
:100480000A70641EF9D2F8BD471B2A463946FFF7A9
:100490004FFF641B3846A542F6D3011B2246304667
:1004A000FFF746FFF8BDD2B210B513029A18130435
:1004B0009A1800F00EF810BD01E004C0091F0429CD
:1004C000FBD28B0701D50280801CC90700D00270C7
:1004D000704700290BD0C30702D00270401C491E90
:1004E000022904D3830702D50280801C891EE3E71A
:1004F0000022EEE70022DFE70378C278194643784E
:1005000012061B0219438378C0781B041943114358
:100510000902090A000608437047020A08704A7077
:10052000020C8A70020ECA707047002203098B42C7
:100530002CD3030A8B4211D300239C464EE0034682
:100540000B433CD4002243088B4231D303098B4236
:100550001CD3030A8B4201D394463FE0C3098B426C
:1005600001D3CB01C01A524183098B4201D38B01C5
:10057000C01A524143098B4201D34B01C01A524168
:1005800003098B4201D30B01C01A5241C3088B42AD
:1005900001D3CB00C01A524183088B4201D38B0098
:1005A000C01A524143088B4201D34B00C01A52413A
:1005B000411A00D201465241104670475DE0CA0F11
:1005C00000D04942031000D34042534000229C46D1
:1005D00003098B422DD3030A8B4212D3FC228901DB
:1005E00012BA030A8B420CD3890192118B4208D3B1
:1005F000890192118B4204D389013AD0921100E013
:100600008909C3098B4201D3CB01C01A5241830926
:100610008B4201D38B01C01A524143098B4201D353
:100620004B01C01A524103098B4201D30B01C01A7E
:100630005241C3088B4201D3CB00C01A52418308F8
:100640008B4201D38B00C01A5241D9D243088B424E
:1006500001D34B00C01A5241411A00D201466346F1
:1006600052415B10104601D34042002B00D5494255
:10067000704763465B1000D3404201B50020C0467E
:10068000C04602BD7546FFF797FEAE4605006946B7
:100690005346C008C000854618B020B5FFF784FD5A
:1006A00060BC00274908B6460026C0C5C0C5C0C505
:1006B000C0C5C0C5C0C5C0C5C0C5403D49008D4608
:1006C000704710B50446C046C0462046FFF735FDCA
:1006D00010BD000001491820ABBEFEE72600020055
:1006E000704770B58C180578401C6B075B0F01D103
:1006F0000378401C2A1106D10278401C03E00678DA
:10070000401C0E70491C5B1EF9D12B0705D4002339
:10071000521E0DD40B70491CFAE70378401CCB1A0B
:10072000921C03E01D780D70491C5B1C521EF9D50C
:10073000A142D8D3002070BD70B50546EFF31080FC
:10074000C407E40F72B6094E094B29463046F268D9
:1007500000F010F8002805D1002329463046F26841
:1007600000F01EF9002C00D162B670BD18FCFF1F0E
:100770006B66656BFFB589B016460C466A460998EC
:1007800003F048F832462146049B099802F0D5FD53
:1007900005002BD1009C019FA619761E39463046D4
:1007A000FFF7C3FE00291BD0401C7843461E17E00C
:1007B00021020920090A000609180D4841600C9819
:1007C00002F0D4FD002811D1099802F0D9FD0546A8
:1007D00009980069002800D08047002D02D1E41953
:1007E000B442E5D9099802F07BFD28460DB0F0BD72
:1007F0000000024070B5040027D01648C068000110
:10080000000F0F2823D014494000085A8002002509
:10081000256060600220A0606561A56140022561DD
:10082000E060204602F07BFD00280AD00B4801461C
:1008300080390560416040318160E061204600F010
:100840000FF825620020656270BD042070BD012094
:100850008004DCE740800440A6690000CCFCFF1F58
:10086000F8B500280FD0C569224840244608224820
:100870007600400840006F68B0420ED9841B402CBF
:1008800003D8012002E00420F8BD00201B4A1CA16F
:1008900002F038F8402C00D9402422463146384630
:1008A000FFF746FD18487F1C07601848402446089B
:1008B0001748760040084000AF68B0420DD9841B4D
:1008C000402C01D8012000E000200C4A0CA18E32FF
:1008D00002F018F8402C00D9402422463146384610
:1008E000FFF726FD08487F1C476002202860002093
:1008F000F8BD0000913A00009D3A00008E0700000C
:100900002866696C65290000BCE2FF1F09330000FE
:100910001D330000FFB589B01F4614000D460DD0F1
:100920006A46099802F076FF3A462946039B0998E1
:1009300002F003FD060002D1009D28E004200DB066
:10094000F0BD02CC154881600399042902D0082922
:1009500007D00EE029020322090A520689184160D5
:1009600007E002CCC16029020722090A1206891891
:100970004160099802F004FD0646099800690028C4
:1009800000D08047002E04D1039845193F1A002F4C
:10099000D7D1099802F0A4FC3046D0E7000002400D
:1009A000FFB589B014460D466A46099802F032FF39
:1009B00022462946059B099802F0BFFC00282FD14A
:1009C0006A462946099802F025FF009D0298089082
:1009D0006942404201404F42AF4201D108983F185E
:1009E000002C1CD07E1BA64200D926463046059915
:1009F000FFF79BFD29020122090A12068A180949FC
:100A00004A600C9A000412021043FF308860099873
:100A100002F0B6FC002803D1A41BAD19DEE70020CC
:100A20000DB0F0BD00000240FFB589B0129F1D005F
:100A300016460C4610D06A46099802F0EBFE324684
:100A40002146079B099802F078FC002805D1154A39
:100A500039068F18009C22E004200DB0F0BD210261
:100A60000120090A400609180F484160876029687B
:100A7000C160099802F084FC002809D0139900296C
:100A800000D00C6014990029E7D000220A60E4E746
:100A90000799761A890889004D1907990C19002EB3
:100AA000DDD1DAE7FFFFFF0000000240EFF308842A
:100AB00070460007000F0D2801D1EFF30984254689
:100AC000A08B2035800500D52D1D7046C00600D4B2
:100AD0004835704602F074F8EFF3098002F070F8C0
:100AE000EFF3088002F06CF8EFF3148002F068F87E
:100AF000284602F065F8606902F062F8A06902F029
:100B00005FF8E06902F05CF84A2203A1002001F0DE
:100B1000F9FE00F041F9FEE72866696C65290000DE
:100B200010B503480168034800F012F810BD00003A
:100B3000CCE2FF1F0060064010B50348416803483F
:100B400000F006F810BD0000CCE2FF1F0070064068
:100B500010B5C37882789406054A01D4DB0601D526
:100B6000126800E052689047BFF34F8F10BD00003D
:100B7000C4E2FF1F10B5EFF31080C007C00F72B6BC
:100B80000021064A1160002800D162B60448FFF730
:100B900031FE002800D0012010BD0000008104407B
:100BA00018FCFF1FF8B5354D6C68A868800202D4A8
:100BB000012040058443A868314E000200D4B443AC
:100BC000304F200313D5686801213840C90440180C
:100BD000686001F09AFF002809D02B4801F0F2FE6E
:100BE000132804D3132229A1274801F06BFF200208
:100BF00018D52B4801F0F7FE002800D00120FC2278
:100C000028A101F07FFE264801F000FFE86024489B
:100C100001F0E9FE002805D1A868B043A8600D20C6
:100C200001F058FEA0020BD56003800FE86808D0E1
:100C300069460870686803213840490440186860B4
:100C4000F8BDC5B2104801F0BDFE0446132804D912
:100C500029460D4801F008FFF8BD01F056FF0028B5
:100C600007D0132CF8D1132208A1074801F02AFF5E
:100C7000F8BD054801F0CAFEEAE700000050054053
:100C8000000080000000E03FE8FEFF1F3C444150B0
:100C90004C696E6B3A4F766572666C6F773E0A00F0
:100CA000D8FCFF1F2866696C65290000FEB5074661
:100CB00016460D46EFF31080C407E40F72B60B46DC
:100CC00039460948FFF726FE002809D10121019085
:100CD0000091029033462A4639460348FFF7A4FEA6
:100CE000002C00D162B6FEBD18FCFF1F70B50C4D84
:100CF000EC68002C09D02969002906D02868FFF784
:100D000014FC002901D10020A0472868401C28605D
:100D1000A868002802D0A868401EA86070BD000026
:100D2000F8E2FF1F15488178090703D5817808226A
:100D30001143817012480021016001221048120401
:100D4000C03842600F48026803239B049A43026044
:100D50000D4842680D4B1A4003231B06D21842600F
:100D60000B48017280220276017001224270094A0A
:100D7000117081790907890FFBD1704700D00740B6
:100D8000008104400070044000800440FFFFFBC06D
:100D90000040064000500640BFF34F8F044903480F
:100DA000C860BFF34F8F00BFFDE700000400FA05E5
:100DB00000ED00E0F8B52E4E0024357800952807A8
:100DC00041D5317C0A090807C00F4B07DB0F1546D8
:100DD00005431AD1950040002818C018254BC000C3
:100DE0001D5CAD062D0F012D0FD1C5186F88002F8A
:100DF0000BD1214FBA5C6A801A5C520601D5882259
:100E000000E0C8221A5401200143EFF31080C50707
:100E1000ED0F72B6194A184FBF1EF86811540D2114
:100E2000401CFFF782FBF960002D00D162B608205C
:100E30003070002C02D1307D800601D5012400E005
:100E400000243578BBE700990B4829430E3003F0A6
:100E50002EFB002C01D0012000E000200649891E55
:100E60000A7810430870357001F0D2FCF8BD00001C
:100E70008020074000040020E2E2FF1F60070020FE
:100E800001078A0E044910B551180A78FD231A404B
:100E90000A7001F063FC10BDC020074010B5014688
:100EA0004A790B79807811021943020601D4024A6B
:100EB000115401F053FC10BDE2E2FF1F7047000027
:100EC000094A094980320028087D04D001231843CB
:100ED0000875102005E0400840000875107AEF21E1
:100EE00008401072704700008020074010B50C4C7D
:100EF0000C48A2880078824200D90246002A03D119
:100F000007490020143908718020216801F0A8FCED
:100F1000216809182160A188081AA08010BD00006E
:100F20005CE3FF1FC769000010B5064C0020A288D3
:100F3000216801F093F8216809182160A188081A36
:100F4000A08010BD5CE3FF1F704700000749020648
:100F500005D50007800E40180178FA2203E08000D2
:100F600040180178F622114001707047C0200740F8
:100F70000749020605D50007800E401801780522B2
:100F800003E0800040180178092211430170704786
:100F9000C0200740F8B504466F4F704D704E800773
:100FA00020D501F02BFC3878C009FFF7CDFFF88879
:100FB000A88038784106890F04D001295CD0022925
:100FC00075D169E079780B0001F076FC0C070D71A2
:100FD00013711928712D333B4A7101F085F91FE017
:100FE000FFF784FF70E0002004E001F01BFC5D4887
:100FF0003DE0012001F0BAF9002858D0F5E7C0061D
:10100000C00E54D1B8788021084330704006400E9D
:10101000012101F0DDFB01F005FC55E001F098F83D
:10102000002844D0DCE7C006C00E40D14C48401C2C
:1010300014E001F0EFF9002839D001F0F3FB4A4841
:1010400015E0C006C00E012831D1707800282ED0DE
:101050003879B17888422AD2444940182860BFE7DD
:1010600001F09CFA002822D001F0DCFB4048006827
:10107000002829D0804727E0C006C00E17D00128DD
:1010800015D100F07DF800281ED100F07BF8002873
:101090001AD100F073F808E0C006C00E07D100F0C6
:1010A000ABF8002810D100F0A9F800280CD138784E
:1010B000C00904D1F888002801D0002000E0802079
:1010C00001F090FB0020A880600704D53878C009A3
:1010D0000DD001F0AFFB200733D53878C00927D0F9
:1010E000A888317908432CD0FFF700FF29E0A888B1
:1010F0000028F0D0FFF718FFA8880028EBD1387837
:101100004106890F0ED001290CD1C006C00E09D0AE
:10111000012807D100F030F80028DCD100F02AF8CF
:101120000028D8D1802001F05DFB0020A880D2E704
:101130003078010605D54006400E3070002101F0E0
:1011400047FB600602D50020FFF79AFE200602D575
:101150008020FFF795FEF8BD64E3FF1F5CE3FF1FEF
:1011600048E3FF1F2C6A0000246A0000DEE2FF1F34
:10117000286A000000207047002070470020704758
:101180000020704710B51848184A0179127891422A
:1011900027D142780146C8788B7800021843CB7972
:1011A0008C7919022143FE2A0CD0FF2A19D100287C
:1011B00017D1002915D100F095FE002811D001F0BB
:1011C00031FB0CE000280CD101290AD100F088FB8A
:1011D000002806D0074906480860FFF787FE01206F
:1011E00010BD002010BD000064E3FF1FDDE2FF1F03
:1011F000C00100205CE3FF1F002070470020704703
:10120000F8B5EFF31080C007C00F72B6564D00213D
:101210002C6929612A7800922970002800D162B6D1
:10122000E00708D001F052FA04F0C6FA4F4800680F
:10123000002800D08047E00606D501F007FB4C48A7
:101240000068002800D08047A00606D501F0B8FA53
:1012500048480068002800D08047600704D5464809
:101260000068002800D08047022C09D1434801685B
:10127000002902D04248007A88474148FF21017284
:10128000200767D53F4FEFF31080C207D20F72B629
:10129000E968A868884257D1012156E0EFF3108130
:1012A000CE07F60F72B638490C5C0D21401CFFF7D3
:1012B0003CF9A960002E00D162B620462207D30F68
:1012C00021066207090FD20F002908D15C00A4187B
:1012D000E4003C5D0026A406240F0D2C0AD08C00EF
:1012E0005B00E3189A18D600BA5D9206120F012A25
:1012F00013D01DE06869022188436861387E40068A
:10130000400E3876387C4006400E38741F486E70A8
:1013100001680029B7D0022014E0002902D1C007DB
:10132000C00F687019480159002901D0042088476E
:10133000B85D8006000F0928A5D11448015900297D
:10134000A1D0082088479EE70021002A00D162B67C
:101350000029A3D00098002804D00949087DDF2285
:1013600010400875F8BD0000E0E2FF1FD0690000E2
:10137000D4690000D8690000DC690000E069000061
:10138000802007400004002060070020E46900007E
:1013900010B519484024047002F03AFC182001F0FE
:1013A000A5FA1648017B802211430173017B0906CF
:1013B000FCD41349114B090A803B197710490F4A95
:1013C000090C603A11740E49090E1175FF2119704C
:1013D0000C490968002900D004210B4A1268002A30
:1013E00000D0022211431922114319710470017BAC
:1013F0002143017310BD0000E2E2FF1F00210740FE
:1014000000040020DC690000E069000070B500F015
:101410000BF900282AD01648022404704470154E97
:1014200003203463307014480546FFF765F802283E
:1014300008D9114920461F39FFF76FF82946204681
:10144000FFF76BF80D4880210078224608430849D1
:1014500001F006FA2846FFF74FF8316B401A29468B
:10146000FFF75BF8044901200839087370BD0000DC
:101470000002002010E3FF1F94070020C86900004D
:1014800010B510490878022808D003280FD0042886
:1014900010D0052801D10020087010BD0A48C07B7B
:1014A000282801D0A828F8D100F05EFA10BD00F07D
:1014B00057FD10BD054880210078084300F06AFD03
:1014C000F5E7000010E3FF1F6D070020C86900006A
:1014D00010B51D4A117800290FD0012910D01B48E2
:1014E000052900781BD0072927D000F053FD1849A3
:1014F0000220087300F034FD10BD00F001F910BDAA
:1015000013481F38C07B2A2803D02F2804D0AA28CC
:10151000F5D100F007FB10BD00F094FA10BD0121D9
:1015200081400C480068014201D0012000E0002009
:10153000094A0AA101F0E6F910BD00201070106BF5
:101540001F28DAD010BD000010E3FF1FC96900009A
:101550008C07002054E3FF1F3F0400002866696CDD
:101560006529000010B5144C6068E060002801D0C7
:10157000012010BD1148FEF7BFFF002814D00F480E
:101580000838007B000604D50D4880210078084308
:1015900008E00A481F30FEF7AFFF216B884203D0F6
:1015A0000848007800F0F6FC044901201731087360
:1015B00000F0D6FC002010BD10E3FF1F75070020CF
:1015C000C8690000C969000010B5124801798F2070
:1015D0000140080605D50807000F012212048240C9
:1015E00001E001228A400C480478802004438C42A8
:1015F0000ED10A48006810420AD00948FEF77CFF65
:101600000849884204D10D220549204601F028F9F5
:1016100010BD000064E3FF1FC869000054E3FF1F12
:101620008C0700205553425370B50C48FEF764FFF9
:101630000A4C02251734002808D020461F38007BAA
:10164000000608D40648007800F0A4FC257300F0DA
:1016500087FC002070BD012070BD000075070020D0
:10166000C969000070B51148FEF746FF104C216BA8
:10167000884202D82063032000E0042020700D4837
:1016800080210078226B08430B4901F0E9F80748F4
:101690001F300546FEF730FF216B401A2946FEF742
:1016A0003CFF024900201731087370BD7507002008
:1016B00010E3FF1FC86900000002002010B50648B3
:1016C000064902880648007800F0C8FC054908630E
:1016D000FFF7FEFE10BD0000CE69000000020020F2
:1016E000C969000010E3FF1F10B50446400702D58A
:1016F0000020FFF7E3FF200701D5FFF7C1FE10BD73
:10170000F8B5704E316B1F2901D20A4600E01F2246
:1017100000206D4D6D4B02E01C5C2C54401C90422F
:10172000FAD36B48802200780127104300901F29CC
:1017300070D16548FEF7E0FE664988426AD1281DEF
:10174000FEF7DAFE604C1F34211DFEF7E6FE204650
:101750001738FEF7D1FE21460831FEF7DEFE687B22
:10176000002804D1A87B002801D0102801D92773B4
:1017700074E0E87B2A283BD020DC1A2847D00EDC16
:101780000428F4D006DC00283BD00328EFD100F079
:1017900067FBF8BD1228EAD100F0AAF8F8BD2328AB
:1017A0003CD006DC1B282FD01E28E0D100F0CCF85E
:1017B000F8BD252835D02828D9D13BE09E2836D041
:1017C0000EDC5528D3D004DC2F2842D03528CED1CA
:1017D00003E05A281FD09128C9D100F00BFCF8BDB6
:1017E000A12821D0A3284ED0A82823D0AA28BED132
:1017F00000F076FA0028F2D0287B00063BD4377040
:10180000F8BD00F001FCF8BD00F0DAFBF8BD00F017
:1018100039FAF8BD3BE000F003FAFAE700F0E4FA29
:10182000F7E700F0BBFAF4E7FFF7F0FDF1E700F0AF
:101830006BFBEEE700F054FA0028EAD0287B0006A4
:1018400004D50220307000F08FF8E2E722480078DB
:1018500015E0287C800704D40020207300F080FB72
:10186000D7E700F03DFA0028D3D0287B000602D449
:1018700037703762CDE7164880210078084300F0C2
:1018800089FB0220E9E7009800F084FB6FE7104C29
:10189000009800F07FFB2078104C0107090F012011
:1018A0000004884021680C4D08432060287800F02F
:1018B00071FB287887402068074306202760307036
:1018C000A7E7000010E3FF1F6D07002000020020C3
:1018D000C869000055534243C969000058E3FF1F1F
:1018E000024900200870012070470000C00100205C
:1018F00010B5FFF799FE00281FD0104B002018707C
:101900008021597002219970D97020241C7158715E
:101910009871D8710A48016808200A78002A02D014
:101920001A54491C00E01C54401CC0B22428F4D3B3
:10193000044924200863FFF795FE10BD0002002033
:10194000D8E2FF1F10E3FF1F10B50548C07CC10798
:10195000044800D00121017300F002FB10BD00001B
:101960006D0700208C070020F8B5314D314FA96973
:10197000686A002688420AD3387880210024084308
:1019800000F008FB2C48067300F0EAFA08E02B4848
:10199000007841002A48445AE86A844200D3044649
:1019A000FFF7E0FD002800D10024A86A00282DD010
:1019B000002C0ED0A96AE8698022411838781043BB
:1019C000224600F04DFFA86A0019A862E86A001BD1
:1019D000E86229696869AA6A4143914203D1AE620B
:1019E000696A08186862144808300746FEF784FDE3
:1019F000001B3946FEF791FD002C06D0E86A00284E
:101A000003D1032028700C480673F8BD002CE0D0E9
:101A10002969E86A4018401EFEF787FD6969024699
:101A2000884200D90A46E969686A03F085FEC1E781
:101A300010E3FF1FC86900008C0700204BE3FF1F65
:101A4000CA690000F8B5334C0025A169606A884274
:101A500008D331482563007800F09CFA2F480573BD
:101A600000F07EFAFFF77EFD002806D0206B0028EC
:101A700024D0A06A002802D010E025631EE021696E
:101A8000E06A4018401EFEF750FD61690246884238
:101A900000D90A46E169606A03F04EFE0020204941
:101AA000A76A266B08E0E3693A189A5C0B5C9A42D5
:101AB00001D0256202E0401CB042F4D3266BA06A3C
:101AC0008119A162E06A871BE7622269606942436B
:101AD0008A4203D1A562616A081860620F48083023
:101AE0000546FEF709FD801B2946FEF716FD002E70
:101AF0000CD0002F02D02078052807D1206A0028BA
:101B000005D000200549087300F02AFAF8BD01202D
:101B1000F8E7000010E3FF1FC96900008C070020F0
:101B200000020020F8B5384D384FA969686A0026D0
:101B3000884207D336482E63007800F02BFA3E73B4
:101B400000F00EFAFFF70EFD002800D12E63296B7E
:101B5000A86A40182969884205D9FE222DA10020D3
:101B600000F0D0FEF8BD00202C4905E0AB6A0A5C0D
:101B70001B18EC69401CE2542A6B9042F6D3A86A09
:101B80008018A862E96A891AE962002A25D000292A
:101B900014D1002812D029694018401EFEF7C5FC58
:101BA00069690446884200D90C462246E969686A98
:101BB00003F0DAFDAE62686A00190DE069692B690D
:101BC0000A465943814208D1E969686A03F0CCFDAD
:101BD000AE626969686A401868620C480830009013
:101BE000FEF78AFC2C6B0099001BFEF796FC002C7C
:101BF000B8D0E86A002802D028780528B2D13E7310
:101C000000F0AEF9F8BD000010E3FF1F8C070020C4
:101C1000C96900002866696C65290000000200207F
:101C200070B5FFF701FD002824D0FFF79BFC0028CA
:101C300020D0114800210170062242700F4B8170A4
:101C40001A7A0824D201C270017141718171C17187
:101C50000B481C630546FEF74FFC082808D90849C5
:101C600020461F39FEF759FC29462046FEF755FC51
:101C7000FFF7F8FC70BD00000002002010E3FF1F1A
:101C80009407002070B5FFF7CFFC002820D0FFF7A5
:101C900069FC00281CD00F480321017000210E4B65
:101CA00041701A7A0424D2018270C1700B481C63FF
:101CB0000546FEF721FC042808D9084920461F39AB
:101CC000FEF72BFC29462046FEF727FCFFF7CAFC4F
:101CD00070BD00000002002010E3FF1F94070020E9
:101CE000F8B52A48FEF708FC284D00BA040A113D51
:101CF000287D24020443264E00207462B062E87BF3
:101D00002F280AD004DC28280BD02A281CD104E074
:101D1000A82810D0AA2817D109E0FFF723FC002833
:101D200030D0E87DA97D0002084344BA0CE0FFF7FB
:101D300019FC002826D01548001DFEF7DDFB00BA6F
:101D4000040A287E24020443306944430F48F462A5
:101D50000938FEF7D1FB0D4F01260E3700280DD0B4
:101D6000A04210D0287B000604D50A4880210078C4
:101D7000084301E00848007800F00CF93E7300F0D9
:101D8000EFF80020F8BD0120F8BD00007E0700201C
:101D900010E3FF1FC8690000C969000010B5FFF714
:101DA00043FC00281AD0FFF7DDFB002816D00C4AB0
:101DB0000C489169491E0B0E03700B0C43700B0A03
:101DC0008370C17011690B0E03710B0C43710B0A08
:101DD0008371C17108201063FFF744FC10BD00003F
:101DE00010E3FF1F0002002070B5FFF71DFC002864
:101DF0002ED0FFF7B7FB00282AD01648002101702B
:101E0000417081700821144AC17091690C240B0E35
:101E100003710B0C43710B0A8371C17102210172B2
:101E200011690B0C43720B0A8372C1720B48146365
:101E30000546FEF761FB0C2808D9084920461F39E2
:101E4000FEF76BFB29462046FEF767FBFFF70AFC0F
:101E500070BD00000002002010E3FF1F9407002067
:101E600070B5FFF7E1FB00282ED01B4870210170F0
:101E700000211A4B41705A68DD681446AC4306D005
:101E800006248470282404734173DA600AE0002A6F
:101E90001BD0134A127B002A1BD0052282702022FD
:101EA00002734173C1700171417181710A22C27163
:101EB000017241728172C1728173C1730174417484
:101EC00012201863FFF7CEFB70BD022282703A2207
:101ED000E6E781700173E4E70002002010E3FF1FD2
:101EE0008C07002010B50549002008600449FEF762
:101EF00014FB044907200870012010BD58E3FF1FA0
:101F00008C07002010E3FF1F70B5FFF78DFB002842
:101F10001DD00F482022027000214170C1770D4C66
:101F20000320226320700C48802100780843084970
:101F300000F096FC09480546FEF7DEFA216B401AD0
:101F40002946FEF7EAFA054901200839087370BDF1
:101F50000002002010E3FF1FC86900009407002062
:101F600010B508490848FEF7D8FA084880210078DB
:101F70000D220843034900F073FC05490520087051
:101F800010BD00008C07002055534253C869000063
:101F900010E3FF1F10B5044600F024FC200605D511
:101FA0002107090F01200004884001E00120A04022
:101FB00002490A681043086010BD000054E3FF1F87
:101FC00010B50A48817C04461F34002904D0012042
:101FD0002073FFF7C5FF10BDC07C0549C007C00FC7
:101FE000486003F0BFFB0020F2E700006D0700200F
:101FF00010E3FF1F10B5034900200873FFF7B0FF7F
:1020000010BD00008C07002010B51048FEF774FAD0
:102010000E4C173400280FD020461F38007B0006D6
:1020200004D50B4880210078084301E00948007876
:10203000FFF7B0FF012004E0FFF794FA002803D077
:1020400000202073FFF78CFF10BD000075070020F3
:10205000C8690000C969000070470000F7B507466D
:1020600082B0002000903807860E3348F50028180B
:1020700001904488002F15D130484078002809D0BD
:102080007008012181402D48143002F01CFA002014
:1020900005B0F0BD2848405D8006000F0D2801D135
:1020A000012000900498A04206D2FF22E73224A12A
:1020B000002000F027FC049C1F4A0020B101603280
:1020C000891803E0039A0B5C1354401CA042F9D317
:1020D0001A48801CC15D0198174F41801748760847
:1020E0004069795DF040C0074906C00FC90F8842BA
:1020F0000FD10398C1798279080200991043002911
:1021000001D000280CD001210C48B140143002F05D
:10211000DAF90A484069F040C00708D0C82007E053
:1021200006480121C943143002F0B5F9F1E78820CF
:1021300078552046ACE7000000040020E0E2FF1FD5
:102140002866696C6529000010B5FFF73DFA10BDDF
:10215000FEB5574A574D1078574CC006C00E02D0F6
:1021600001287CD18CE05549D0780B785149544EE8
:10217000544FC978062810D006DC012809D002285F
:1021800015D003286BD14FE0072832D00F2866D135
:1021900066E04D482060122070E0002B5FD00029DF
:1021A00003D04A4820600A2068E04948FAE7002B3B
:1021B00001D1012979D00220002904D0009778703C
:1021C000002092780DE000967070F9E700990B7886
:1021D000002B05D0CB788E781B0233435918009121
:1021E000401C8242F2D10098017800295DD0206025
:1021F00040E0002B59D00720002904D000967070D1
:10220000002092780DE000977870F9E700990B783C
:10221000002B05D0CB788E781B02334359180091E0
:10222000401C8242F2D1DEE72A48009090780328D1
:1022300001D0002009E001F093FD0DE000990B783A
:10224000002B01D059180091401C91788142F5D1A2
:1022500000980178002928D0206000780EE024E062
:102260001D48007800281FD01C480090206001788D
:1022700000291AD0C178827808021043019005E045
:1022800001A9684600F02EF800280DD0A188019819
:10229000814208D980B21249A0800978491E0842BB
:1022A00001D1012028710120FEBD0020FEBD0000EB
:1022B00064E3FF1F48E3FF1F5CE3FF1FC5690000E5
:1022C000F8000020DCE2FF1F306A0000436A0000D3
:1022D000426A0000466A0000C6690000446A0000C5
:1022E000C76900000020704770B51D481D4B00787D
:1022F000C106C90E0AD01D461948143D1A4C6A7809
:102300000079012906D0022928D10AE015480E38A3
:10231000186021E0002A21D0A97888421ED200202E
:1023200016E08F210840010605D50607360F01216A
:102330000904B14001E001218140002A01D10007D8
:102340000CD1A868084209D0E868084000D00120F4
:102350002070000A60701C60012070BD002070BDFC
:1023600064E3FF1F5CE3FF1FC001002070B5274B33
:10237000024618781946C0064988254EC00E04D07A
:1023800001282BD0022829D111E0012926D10224CD
:10239000002A05D0012000F061FAF088204304E013
:1023A000002000F05BFAF088A043F0802CE01C795C
:1023B0008F200440200605D52007000F01252D049D
:1023C000854001E00125A5407078002806D020074F
:1023D00004D0B068284201D0002901D0002070BD8F
:1023E000002A05D0204600F0FDF9F06828430AE0F5
:1023F0003069284208D12046FEF742FD2046FFF70B
:10240000A3FEF068A843F060012070BD64E3FF1FE5
:1024100048E3FF1FF8B55A4800260178C906C90EDF
:102420007ED1574F80781C3F00287AD055480178DC
:102430003846C078002901D1012871D0002801D088
:10244000514C70E0514C6EE06078022805D00428B1
:1024500047D0052847D0072860D14948617980785E
:10246000814239D178702079B8704A490020484AB1
:102470000B8802E000211154401C9842FAD3012538
:102480000120B968A840084202D02846FEF75EFD48
:1024900001200004B968A840084204D028468021E1
:1024A0000843FEF753FD6D1C102DE9D33A48B86080
:1024B0000020F86038613D460120FEF7FFFCE0791E
:1024C000400604D5E98801200143E98026E0E88838
:1024D00040084000E88021E0E078A178000208434D
:1024E0001DE0E6781AE0002E18D1A5788F2005406F
:1024F000280605D52907090F01200004884001E0BE
:102500000120A840B96801432046B960FEF7C6FC27
:102510002846FEF72DFD284600F020F9207801E03E
:102520002AE004E00419207800288DD11FE000255E
:1025300001247D7080260120B968A040084202D0A5
:102540002046FEF703FD01200004B968A0400842C0
:1025500003D020463043FEF7F9FC641C102CEAD36C
:10256000FD600D483D61B8600020FEF7A7FC0448FF
:1025700079788078884201D00020F8BD0120F8BD2C
:1025800064E3FF1FC5690000DCE2FF1FF8000020C4
:10259000DEE2FF1FD4E2FF1F01000100F0B585B0AD
:1025A000002745480397019700783E46C006C00EB5
:1025B00001287ED140491C394878002876D0002077
:1025C00002903E4802780846C078002A01D10128CE
:1025D0006FD0002801D03A4C64E03A4C62E0607859
:1025E000022805D004280ED005281ED0072857D170
:1025F000314861791C384078814251D0E078A17827
:10260000000208434DE0A778E678002001902A48B0
:102610000179B94244D18078B04241D10120029081
:102620002948C15D0391C6553AE023490879B8426B
:1026300036D1A0788F22104000900006009804D573
:102640000007000F01252D0400E001258540887852
:10265000B04214D118481C38816829438160C16890
:10266000A943C1602046FEF719FC0098FEF780FCE4
:10267000009800F073F801982843019010E0039847
:1026800086420DD1019828420AD10B481C38816836
:10269000A9438160C168A943C1600098FEF756FC58
:1026A000207804192078002899D1029805B0F0BD4F
:1026B000FFE70020FAE7000064E3FF1FC5690000A0
:1026C000DCE2FF1FF8000020DEE2FF1F70B50120F2
:1026D0001C4900060860BFF34F8FBFF36F8F0120C6
:1026E000194D0024810049190C70401C1028F9D3A1
:1026F0000D211648FDF7FEFE154816498460C4609A
:1027000004610470447040224A800A4660324A6084
:10271000C8220A700C720A46E032CC614A610D216F
:1027200029700D49416108484038017D022211435A
:102730000175FF210170017201730476182000F009
:10274000D5F870BD80E100E0C020074060070020A0
:10275000E0E2FF1F0004002055555555F8B5054629
:10276000154F2C073E4600060121603E240F00282D
:102770000EDA6000401C8140104801F098FE2002F3
:10278000C11960018019803141610021C161F8BD2A
:1027900068008140C943094801F07DFE0748610196
:1027A0001238425D881942802202D2194260882282
:1027B000725400210172F8BD60040020F4E2FF1F92
:1027C00002480179DF2211400171704780200740E3
:1027D000002903D140060249400E087670470000E8
:1027E000802007400007810E034808180178022264
:1027F0001143017070470000C020074010B5082247
:1028000002490020FFF72AFC10BD000064E3FF1F0F
:1028100010B5034801214902806801F055FC10BD44
:10282000A8E1FF1F10B500221146802000F018F823
:1028300010BD000010B50348034902780020FFF7DF
:102840000DFC10BDC7690000C001002002480179DD
:10285000202211430171704780200740704700001B
:10286000F8B50007114F840E1646A41CE200D019DB
:1028700046803D460023A0016035451902E0C85C52
:10288000E8545B1CB342FAD3094960084969C14066
:10289000C90701D0882100E0C821B9540121814035
:1028A0000348143001F00FFE3046F8BD000400204C
:1028B000E0E2FF1F0020704730B47446641E2578A4
:1028C000641CAB4200D21D46635D5B00E31830BC64
:1028D00018470000002805DBC106C90E012088400A
:1028E000014908607047000080E200E0002805DB35
:1028F000C106C90E012088400149086070470000E8
:1029000000E100E0F8B516460F4600281BD1EFF3B2
:102910001080C507ED0F72B600231A4619461846F7
:1029200000F072F9040003D13146384600F0D4F9C2
:10293000002D00D162B6002C05D1EFF30380C00654
:1029400001D103F0E9F9F8BD0020704710B5282245
:102950000D490E48FDF7FAFB03F09EFA0C4803F010
:1029600095FA03F0FBF80B49012208600A4952026C
:102970000A600A4A012111600949400A08600A49AF
:102980000848086010BD0000B8640000ECEEFF1FAE
:102990002131000044E3FF1F20E3FF1F24E3FF1F5A
:1029A00028E3FF1FECECFF1F2CE3FF1F04484178D6
:1029B0008078814201D001207047002070470000DC
:1029C00040E2FF1F30B50546EFF31080C407E40F67
:1029D00072B6284600F007F8A968081A401E002CB5
:1029E00000D162B630BDEFF31081CB07DB0F72B6BA
:1029F00006C808388A4201D3501A02E080681018CD
:102A0000401A002B00D162B67047000070B5044632
:102A1000EFF31080C507ED0F72B603CC083C884277
:102A200001D0012000E0002042220DA1FFF76AFF43
:102A3000E16820680E5C401C2060A16888420AD3CF
:102A4000884201D1012000E00020472204A1FFF7C5
:102A500059FF00202060002D00D162B6304670BDC5
:102A60002866696C6529000070B50446EFF3108094
:102A7000C507ED0F72B66268E06881546068401C5B
:102A80006060A16888420AD3884201D1012000E039
:102A90000020302209A1FFF735FF0020606003CC41
:102AA000884201D0012000E00020352203A1FFF779
:102AB00029FF002D00D162B670BD00002866696C48
:102AC00065290000F8B514460E460746FFF77AFF61
:102AD000844200D220460546002404E0315D384699
:102AE000FFF7C2FF641CAC42F8D32846F8BD10B50E
:102AF00000F064FC10BD10B500F060FC10BD0020BB
:102B00007047012070470020704700207047000088
:102B1000F8B58E212748FDF7EBFC8E272648FDF7F8
:102B2000EBFC244C254E244D4034B04213D168793F
:102B30002A79010211438E2901D20A4600E08E2231
:102B40008E2901D90F4600E08E271B491948FDF751
:102B5000EFFB0020E0718E211748FDF7C9FC1649F4
:102B60003046FDF7DAFC2F71390A697111494122AB
:102B7000C91DE81DFDF7DCFB607A227A01020E48D0
:102B8000114340300172090A4172A17A8172E17ADF
:102B9000C1728A0007490C304C31FDF7C9FB05486A
:102BA00005498030027B80310A73407B487300F016
:102BB000D1F8F8BD89FBFF1F005F0020646C766BC5
:102BC00010B5094CE17A102901D3002010BD064A46
:102BD0008900403A89184C31FDF79FFCE07A401C8F
:102BE000C0B2E07210BD0000405F002010B541216E
:102BF0000448FDF77DFC0348002139300172417221
:102C0000C17210BD075F0020FFB581B01D4616469A
:102C10000F461A48FDF70EFB441C0198002802D00D
:102C20003946FDF765FC0020002E00D03080002DD5
:102C300000D028701149C91FC87900281BD0BC4298
:102C400001D8224602E0E01B41183A460B4C01989D
:102C5000C91D3934002804D0607A237A0002184351
:102C60003080002E02D00198FDF762FB002D01D0CC
:102C7000A07A2870012005B0F0BD0000075F002099
:102C80000148007B70470000805F00200549CA7A38
:102C9000002A04D00A460C320260C87A704700202D
:102CA00070470000405F002002488079002800D073
:102CB00001207047005F002002488079002800D082
:102CC0000120704789FBFF1F0248407B002800D08D
:102CD00001207047805F0020F3B581B00746FDF703
:102CE000A9FA124D441C41263146E81DFDF700FCAF
:102CF000412C02D83946224602E0413CE1193246D5
:102D0000E81DFDF715FB094C029840342072000ABB
:102D1000607200F09AF8002801D0012004E000F071
:102D200096F8002800D00220A072FEBD005F0020AF
:102D30000149087370470000805F002001498871D5
:102D400070470000005F0020014948737047000091
:102D5000805F0020704770477047704770470000E1
:102D6000F8B50024E4430F460646002512E0705DE6
:102D7000082101F0A9FD000644400A490820002C62
:102D800002DA64004C4000E06400401E0006000EC1
:102D9000F5D16D1CBD42EADB2021204601F094FDF7
:102DA000C043F8BDB71DC104F8B50E461746202133
:102DB000C04301F089FD0446002512E0705D082142
:102DC00001F082FD000644400A490820002C02DA86
:102DD00064004C4000E06400401E0006000EF5D187
:102DE0006D1CBD42EADB2021204601F06DFDC04391
:102DF000F8BD0000B71DC10470B514460D46064667
:102E0000FF2A07D8FF22DE320AA10020FFF77AFD51
:102E1000022070BD00F0F2FC002801D0102070BD2F
:102E20002A462146304600F027FE0028F7D0202011
:102E300070BD00002866696C65290000C1060007A6
:102E4000000F002900DB0930704701207047002087
:102E5000704710B500231A4600F0D4FA002800D0BD
:102E6000012010BD10B502F095FD012800D0002012
:102E700010BD0000F8B5164E01247F253078E4031C
:102E8000AD02012806D0FF22383212A10020FFF740
:102E900039FD0AE0B0780227002808D0FF223E3230
:102EA0000CA10020FFF72EFD37700220F8BD204650
:102EB00000F014F8002802D037702220F8BD01205D
:102EC00080022418AC42F2D30120B0700020F8BD7B
:102ED00014E2FF1F2866696C65290000F8B52D4EC5
:102EE00004463078012805D0FF222BA10020FFF7EF
:102EF00009FD1AE00127BF0239462046FDF715FB00
:102F00000225002902D0FF22083209E0F0780028CB
:102F10000DD0F168B0684018A04208D0FF220F32EF
:102F20001DA10020FFF7EEFC35700220F8BD012145
:102F3000C90301228C4201D2002000E01046002883
:102F400024D0F270F7607F200F468002B460BC424C
:102F500001D3844201D323200DE0FFF778FF01461F
:102F60002620002907D0BC4205D1FF223846013275
:102F70003946FFF741FF262803D00028D6D0357008
:102F8000F8BD204600F03AFC0028F9D03570212029
:102F9000F8BD000014E2FF1F2866696C6529000077
:102FA000012080027047000010B5282804D206498D
:102FB00080000858002805D1F02204A10020FFF766
:102FC000A1FC04A010BD0000F46800002866696C34
:102FD000652900000000000001460120282901D2D7
:102FE0000148405C7047000070E2FF1FF3B581B0FC
:102FF0000446009000E0641C2078402802D000289D
:10300000F9D164E06078622848D012DC522854D0AC
:1030100008DC422842D0442849D0482841D04D28D5
:1030200017D134E054283FD0552833D0562810D13A
:1030300040E0722841D006DC642838D0682830D0BF
:103040006D2806D123E074282ED0752822D076284A
:1030500030D020A52046FDF7EDF807462846FDF7BD
:10306000E9F80646A019029B009AC119D218891ED8
:1030700091422BD2BA1EA11CFDF7EDF9324629462A
:103080002046FDF755F920780028B5D11FE000F063
:103090005BFE01E000F060FE0546DBE700F002FEAB
:1030A000FAE700F02FFEF7E700F052FEF4E700F039
:1030B00025FEF1E700F058FEEEE70848807A002888
:1030C00002D0064D0A35C5E705A5C3E7E419009807
:1030D000201AFEBD4552524F5200000026640000E7
:1030E00068747470733A2F2F6D6265642E6F726707
:1030F0002F6465766963652F3F636F64653D405556
:103100003F76657273696F6E3D40563F74617267BA
:1031100065745F69643D4054000000007047000022
:10312000F8B51E4615460C46074602F06BFF2C48C4
:103130000178032912D001462039022C0FD0002C2F
:103140001FD0012C0AD10A68AA4207D18078002832
:1031500033D00020421E08608A608861F8BD08688C
:10316000A842FBD1304602F0D1FC0446304602F0C2
:10317000D3FC0646384601F0DBFD034622463146C5
:1031800017E0384601F0D4FD0328E7D0304602F0BE
:10319000BBFC8007E2D4384601F0CAFD0746304642
:1031A00002F0B4FC0446304602F0B6FC01463B4651
:1031B0002246284601F02EFFF8BD09482822094979
:1031C0002038FCF7C3FF01F017FE0748817801297A
:1031D00003D14178022900D1817001F017FEF8BDBA
:1031E0000CEFFF1FB864000040E2FF1FF7B51C4E54
:1031F0000446B0785502174600280BD1294601989D
:1032000001F06AFD032802D0214601F0C7FEB07824
:10321000002812D0124920394868A0420DD8C86849
:10322000A0420BD0A04208D90869401C00D10C6113
:103230000869A04200D204460C61FEBDC8692A4656
:103240008018C861E019C860F078002803D0002019
:1032500001F01AFFFEBD2046019901F061FEFEBD9E
:103260000CEFFF1FF0B585B018A109680491037831
:10327000002104AA545C9C4226D0491C0329F9D39E
:1032800013A10A688E6896464A68CD680023944662
:10329000C25C714664466F46039552C71146613958
:1032A000192911D9202A01D2052A0DD100216C46F5
:1032B000675C974208D0491C1029F9D35B1C0B2B83
:1032C000E6D3012005B0F0BD0020FBE7E5002000BB
:1032D000222A2B2C2E2F3A3B3C3D3E3F5B5C5D7CF3
:1032E00070B50446204600F01AF80546002D00D0BF
:1032F00070BD044902480968884700BFF8E700002C
:103300000C3000F0C0E2FF1F01680122920211435D
:103310000160BFF36F8FBFF34F8F70477047002876
:1033200007D0C069002802D00068022803D06D20B1
:103330007047042070470020704710B5002806D061
:103340005B1E194201D11A4203D0652010BD042032
:1033500010BD03688B4204D8406889181818884249
:1033600001D2662010BD002010BD00000349884234
:1033700001D06B2070470020704700006B66656BC2
:1033800010B50C4C70212170FFF7C9FF002807D140
:1033900009492046096888472078810601D56720B9
:1033A00010BDC10601D5682010BDC007FCD0692042
:1033B00010BD000000000240BCE2FF1F70B50E4DC2
:1033C00000202C78002C0FD000212970A97800292A
:1033D00001D000F01BFB022C05D06978032902D034
:1033E000002800D1252070BDFF226F3203A10020EC
:1033F000FFF788FA022070BDE4E1FF1F2866696CC0
:1034000065290000FEB51C460546302901D3012080
:1034100000E00020472217A1FFF774FA29460C228A
:1034200020316846FCF784FF144E002C01D10020A7
:1034300030711349019888420BD112490098884293
:1034400001D10220FEBD0F49FC3988420FD1012075
:10345000FEBD284602F038FA002804D0002C04D122
:103460000120307101E0002C01D00320FEBD0020BE
:10347000FEBD00002866696C65290000E4E1FF1FBD
:103480000B9996978F9E939BFFB581B006460024BB
:1034900004982546002813D00A98002810D00499D3
:1034A000002008600A9907460860FFF7CEFC002854
:1034B00012D00120C003022E06D0032E04D03FE01C
:1034C000712253E0074618E003990029FAD00299C7
:1034D0008142F7D01B2434E0FFF7B9FC00282FD03D
:1034E000012E02D0032E0AD02AE00398002804D02F
:1034F0000298002801D01A2423E01F4819E01F4831
:10350000FCF7FAFF00281BD005460C3506E02846DC
:103510000830FCF7F1FF01280DD014352846FCF7E0
:10352000EBFF0028F3D1281DFCF7E6FF0028EED1C1
:103530001348056805E02846FCF7DEFF0746F7E775
:103540001C24FFF7DEFA002801D1012E04D0002C44
:1035500004D0204605B0F0BD1C24FAE7002D04D0AD
:10356000049807600A980560F3E7B82205A10020D7
:10357000FFF7C8F90220EDE7B4640000166400000C
:103580008C6400002866696C65290000F7B51E4947
:10359000064648780025012804D0022805D00328D3
:1035A00030D105E00125ED0326E07F25AD0223E0C3
:1035B0000879002826D01548FCF79EFF002821D066
:1035C00004460C340CE0B74209D8201DFCF794FFE8
:1035D000B04204D3201DFCF78FFF05460AE01434E7
:1035E0002046FCF789FF0700EDD1201DFCF784FF82
:1035F0000028E8D1002D05D002983018A84201D348
:103600000120FEBD0020FEBDE4E1FF1F16640000A6
:1036100010B50D4C2078002806D0DD220BA100202B
:10362000FFF770F9022010BDFF2230210948FCF796
:103630003AFF0120207000206070A060E0602061EF
:10364000A070E07010BD0000E4E1FF1F2866696C07
:103650006529000070E4FF1FF8B516460F460446C2
:103660000025FFF7F4FB002817D0032C15D10C48D8
:10367000FCF742FF002810D031463846FFF764F9C6
:1036800000280AD0074C1D25206800688047206864
:10369000006980472068406880472846F8BD0000E0
:1036A000166400008C640000F7B506464F4884B0ED
:1036B00001781546012907D0F2224DA10020FFF71D
:1036C00021F9022007B0F0BDC178002903D1C660FE
:1036D00001210661C17045480327807800286FD119
:1036E000424A11698E4201D1012000E000203F4A88
:1036F0004919116100282AD0114688683022141A0D
:10370000AC4200D92C463C4A059910182246FCF7D9
:103710000FFE3648354980682D1B001988600599D1
:10372000361909190591302839D3304C0DD00020B5
:10373000FF2215322EA1FFF7E5F801232E48E2689B
:10374000A168FFF75FFE607003E00120F0E7274803
:10375000477001A8254C009002AB01226078E16817
:10376000FFF792FE002826D1FFF7CDF9002806D0FA
:1037700021496078A268FFF76FFF00281BD1A0786D
:1037800001214840FF22383219A1FFF7BBF8019808
:1037900000F0EAF800280ED10120A07003E01348E1
:1037A0008078002816D0114C1349A268E06800F018
:1037B0004DF8002801D0277084E7A078002809D0B0
:1037C0002A463046059900F041F8002802D0074902
:1037D0000F7077E72A4630460599FFF7D7FE002895
:1037E000EAD002480221017013206BE7E4E1FF1FD9
:1037F0002866696C6529000070E4FF1F10B5EFF3BF
:103800001081CC07E40F72B6FCF796FF002C00D1B4
:1038100062B610BD70B50E460500144613D02021C7
:103820001046FCF767FE2660E8686060A968686873
:10383000FCF77BFEA0600420E06020616061A06175
:10384000E061002070BD042070BD0000F7B5424E5D
:1038500004467078002582B01746012807D07B22E5
:103860003EA10020FFF74EF8022005B0F0BDF07831
:1038700000280AD1204601F019F9050002D00220E3
:10388000707066E00120F0707461334881682046F2
:103890000091FCF74AFE3048661A00994069009092
:1038A000FCF743FE0098401A864208D0204600F0FC
:1038B000F7F8050003D028490220487049E026485F
:1038C000016920460091FCF730FE2348661A0099F2
:1038D00040690090FCF729FE0098401A864204D007
:1038E000204601F0E3F80500E5D11B4EB168706891
:1038F0004018A04204D8204600F0D2F80500DAD1E2
:10390000002F24D03169F0684018A04204D8204626
:1039100001F0CCF80500CED10F4948688968201A1B
:103920000E1AB74200D23E460E4932460818039995
:10393000FCF7FEFC002E08D000200749A41988706F
:1039400003988019BF1B0390CFE70120F5E70248D9
:103950004461284689E70000F8E1FF1F2866696C8A
:1039600065290000A0E4FF1F70B5244D0446687867
:10397000002801D047222FE0002C2CD060680028BE
:1039800029D0A068002826D0E068002823D020692C
:10399000002820D0606900281DD0A06900281AD016
:1039A000E069002817D00121FF2289021448FCF7A2
:1039B0007AFD0126AE700020E8706860A860E860BB
:1039C0002861AC61686120688047040009D12878CB
:1039D000002807D010E04D220AA10020FEF792FF38
:1039E000022070BDA86900698047040004D0A8695E
:1039F00040688047204670BD6E70FBE7F8E1FF1F0E
:103A0000A0E4FF1F2866696C6529000070B5164C9C
:103A100000256078002802D0012807D00AE0CC22D7
:103A200012A10020FEF76EFF022070BD002000F002
:103A300037F80546A0694068804706460121FF2205
:103A400089020C48FCF72FFD01200021A070E170D5
:103A50006160A160E160216161616170002E01D04F
:103A6000304670BD284670BDF8E1FF1F2866696CBE
:103A700065290000A0E4FF1F10B5EFF31083DC07F9
:103A8000E40F72B6FDF712F9002C00D162B610BD3A
:103A90008021017001780906FCD57047704700004D
:103AA00070B50E4D0646A8780024002808D1A869F4
:103AB0000B498368AA686868984704460120A87083
:103AC000FF220748A968FCF7EEFC3046A968FCF71E
:103AD0002CFD701A6860204670BD0000F8E1FF1FE1
:103AE000A0E4FF1F10B50748FCF706FD002805D02D
:103AF000FF309D30FCF700FD002801D101480C3853
:103B000010BD00001664000010B50948FCF7F4FC75
:103B1000002806D0FF30A130417802780802104317
:103B200005D103481038C17882780802104310BDCF
:103B300016640000034601220149002018470000D6
:103B400014EFFF1F02480069C006C017401C7047F1
:103B5000C0F00F400020704708B51648816B1F2247
:103B6000520211438163144980150860086008609F
:103B700012490861002000F031F8002000F024F81C
:103B8000002000F035F80E48426901210A434261E5
:103B900042690A43426142690A43426108488030EF
:103BA000416910229143416106480090401E0090F7
:103BB000FCD108BD0080044000A0044000C00440C7
:103BC00040F00F4040420F0001220349012801D07C
:103BD0008A6070474A60704740F00F4001220349F5
:103BE000012801D08A6070474A60704740F00F405A
:103BF00001220349012801D08A6070474A6070475A
:103C000040F00F40092800D927303030C0B270474B
:103C100030B50B48017E8023194301760948416B7A
:103C2000DC022143416308490A7D02252A430A75C3
:103C30000A781A430A7041682143416030BD000090
:103C400000400640008004404021074010B50F4965
:103C5000002008600E4908600E4908600E4908609F
:103C60000E49FFF77DF80949086001200C49C0039F
:103C7000FFF776F80649086001217F20890280025B
:103C8000FFF76EF80449086010BD00009CE2FF1FBA
:103C9000A0E2FF1FA4E2FF1FA8E2FF1FFC7F0000BD
:103CA000FC7B010000487047ACE2FF1F01200021AF
:103CB000096A054A914200D000200021496A034A5E
:103CC000914200D000207047939D939B0B9996974B
:103CD00000B5FFF7EBFF002800D100BD0020806A8F
:103CE000FBE7000001480068704700009CE2FF1FEE
:103CF0000148006870470000A0E2FF1F00487047BD
:103D00001CFBFF1F00487047DAFAFF1F0120C103A8
:103D1000096A064A914200D000200121C903496A7C
:103D2000034A914200D00020704700008F9E939B71
:103D30000B99969700B5FFF7E9FF002800D100BD69
:103D40000120C003806AFAE700487047CDFAFF1FE0
:103D500000487047FBFAFF1F004870479CFAFF1F9E
:103D60000048704725FBFF1F00487047B6E2FF1F61
:103D700010B5FFF76BFF054800F03CFD00F0E4FDD7
:103D800000F03CFF00F00EFF10BD00007CFAFF1FAA
:103D900010B5134C2078002806D0622211A1002013
:103DA000FEF7B0FD022010BD002211461046FCF7C0
:103DB000E1FE002801D01E2010BD00206070A07020
:103DC000E070A060E0602071206160610121A0616D
:103DD00089020648FCF78CFB01202070002010BDF2
:103DE00014E2FF1F2866696C65290000A0E8FF1F28
:103DF000F7B50446324801277F250078FF03AD025E
:103E000082B0012808D0FF227A322EA10020FEF7CE
:103E100079FD022005B0F0BDBC4201D3AC4201D314
:103E20002320F7E7FFF713F8002847D02E1B04994B
:103E3000301F884201D90A4600E0321F204803990A
:103E40008069FEF7B1FF1E49886100902120800241
:103E5000844208D21D49E01B0818049A0399FCF714
:103E600067FA0020D6E704982018A84226D10398C4
:103E70008519281FFCF740FB0102203DE87F090A55
:103E80000006014300980E4D884201D02720C1E76B
:103E90002046039A0499FFF7EFFD002801D0202067
:103EA000B8E70122920209493846FEF7A5FF044609
:103EB000FFF7CCFE012068702046ABE72620A9E77B
:103EC00014E2FF1F2866696C65290000A0E8FF1F47
:103ED00000F038FDFFF740FEFEF71AFE00F008FD87
:103EE00000281FD114480446FCF706FB002819D00F
:103EF0000C30FCF701FB01F0E7FC002812D0FEF7C4
:103F0000DBFE00280ED12046FCF7F6FA0C30044602
:103F1000FCF7F2FA094988602046FCF7EDFA03C87D
:103F2000FCF712F900F0C0F800221146044800F036
:103F3000D8F800F0BEF8FEE71664000000ED00E0DF
:103F4000553F0000024901220A7048707047000086
:103F5000A8E1FF1F0125FEF7AFFE002802D0642074
:103F600000F09DF800F0BBF8414FB8600020FFF76B
:103F700035FE0020FFF728FE2846FFF739FEFFF741
:103F8000F7FE01F0B5FB012001F0E0FE002001F09A
:103F9000ABFB0020F870F8600120B87000230146E8
:103FA0000B241A46334800F0A1F8032100F0A3F8CF
:103FB0000022D2430021304800F08DF886B2B005CF
:103FC00001D5FDF71DF9F00734D05A2001F0D6FED7
:103FD000F878012807D1F868002802D0401EF86060
:103FE00001D10020F870B878002821D001280FD026
:103FF000032817D004281DD1F87800281AD1002CE6
:1040000001D0641E16D1002001F06EFB002007E0F5
:10401000002C01D0641E0DD1012001F065FB0320AE
:10402000B87007E001F058FB002803D00220F7E742
:10403000FCF7B2FEB007BBD538780028B8D0787846
:10404000012808D0022806D0012500203870284613
:10405000FFF7CEFDACE7012D01D0012500E00025E2
:10406000002DF4D00128F2D1002038707870EEE7EE
:10407000A8E1FF1FF54E00000302000010B5FFF796
:10408000C7FA10BD10B5FF2104460231FCF730FA23
:1040900000F040FC00202070FFF7BAFA10BD10B508
:1040A00000F010FF002010BD10B500F0D5FE00207C
:1040B00010BD10B500F0FCFE002010BD00207047C0
:1040C000002070470020704710B50C46084600F0ED
:1040D000A5FE204610BD10B500F0AAFE10BD0120BF
:1040E000704710B500F0DEFE012010BD10B500F0E5
:1040F000D3FE012010BD10B5084600F0A7FE002039
:1041000010BD0000FFB583B0054604980E9C28182A
:1041100000900020924F2060F878924E00281BD02B
:104120000020F870701E0278011D0698FCF700F957
:10413000701E0078069941180691216808182060C1
:10414000F8683278010C70780904000210430143CA
:10415000701E00780818F860E6E028780A2829D050
:104160000D28FCD03A281CD03978002973D0FEF7EE
:1041700065FE02077B497878491E0B5C120F1A43D3
:104180000A54401CC0B2787009780291491D8842D7
:1041900044D3744A0021521E137808465B1D9C4686
:1041A0000EE070482521401EFCF7A2F9002038706F
:1041B0007870B870B7E0135C5918401CC9B2C0B22F
:1041C0008445F8D8002901D00426B3E0B878002847
:1041D00024D10120B870707831780002084340BAC9
:1041E0003070010A717001905E48401EC07804284A
:1041F0006CD006DC002812D001284AD002280DD14C
:1042000049E00A2802D00D2808D108E05548401E90
:10421000417900790902014348BAB8807EE05149EA
:104220002522491E8818FCF783F8B888002807D093
:104230004D49098888427CD34C490988884278D8FE
:10424000F868019A010C09041143814204D001204D
:10425000F87002266EE057E04249029AC91C06989F
:10426000FCF766F83F480699401E00784118069111
:10427000216808182060F86871783278000C09020B
:104280000004114308433749491E09784018F86073
:1042900044E001264EE021680C98FF22411A06985E
:1042A000FCF701F92068F968091A0D980160009877
:1042B000411B0498411A059801602A48401E017963
:1042C0004079090300010143F9601AE021680C9864
:1042D000FF22411A0698FCF7E6F82068F968091AE7
:1042E0000D9801600098411B0498411A05980160DF
:1042F0001C48401E417902790802104340BA00046C
:10430000F860022007B0F0BD7978252926D2FEF7A3
:1043100095FD144900017A78491E885438780028A0
:104320001CD0002038706D1C0098854201D014E725
:10433000FFE7002621680C98FF22411A0698FCF737
:10434000B2F82068F968091A0D9801600098411BBD
:104350000498411A059801603046D3E70120E1E74F
:1043600030E2FF1FA1ECFF1F38E2FF1F36E2FF1F04
:10437000F7B504467F2084B08002424F029038781F
:104380001646012805D0A2223FA10020FEF7BAFA66
:1043900041E0FF2101318800009001912046FCF7A7
:1043A000C4F80225002901D0AB222FE001988642F3
:1043B00005D301463046FCF7B8F8002901D0B222F7
:1043C00024E020460099FCF7B0F800988919814252
:1043D00001D9B9221AE0B87800280DD1F878002860
:1043E00008D0B9688C4203D3F8680818A04203D8F3
:1043F000C7220BE0C12209E03979384600290DD0E7
:104400007A6939698918A14208D0CF221EA10020FB
:10441000FEF778FA3D70022007B0F0BD0121C90314
:10442000A7198C4203D2002F01D0002100E0012106
:10443000002910D013480121017146610461324600
:1044400020460599FFF7D4FC262807D00028E3D0A2
:104450000C490D70E0E705702020DDE7314620466D
:10446000059AFFF709FB002801D00648F3E70298F8
:10447000874204D3FFF7EAFB02490120487000207D
:10448000CAE7000014E2FF1F2866696C6529000076
:10449000FF2001307047EFF31082D207D20F72B6BF
:1044A00003680B400360002A00D162B67047EFF347
:1044B0001082D207D20F72B603680B430360002A42
:1044C00000D162B67047EFF31082D207D20F72B6F6
:1044D00003684B400360002A00D162B670470000B9
:1044E00070B514460E4605460019012140028902A6
:1044F000884206D90B4A0CA10020FEF703FA0020DF
:1045000070BD012149023046FBF7F2FF002D06D1B4
:1045100007480849006942013046FBF709FF60027D
:1045200070BD0000630200002866696C6529000008
:1045300058E2FF1F7CF6FF1F10B5012464020B46F2
:10454000002801D0002010BD224603491846FBF781
:10455000EFFE204610BD0000BCF3FF1FF8B50C466F
:1045600000210E460091002801D00020F8BD3148FE
:104570000078012842D0022842D0002720462EA1F0
:1045800001F05EF9054660192EA101F059F94519AF
:1045900060192E4901F054F9451960192CA101F058
:1045A0004FF9451960192BA101F04AF92149451924
:1045B0006019498801F04DF94519601924A101F0ED
:1045C0003FF94519002F0ED0601924A101F038F9E8
:1045D00045196019394601F033F9451960191CA1D4
:1045E00001F02EF945196846FEF750FB07001FD071
:1045F000009800281CD060191BA10EE01DA7BDE784
:104600001FA7BBE7B0000099761C0958F6B26019E5
:1046100001F0F0F8451960190DA101F011F94519E3
:10462000BE4205D2284601210A3049028842E9D318
:104630002846F8BD50E2FF1F4173736572740D0A7E
:104640000000000046696C653A20000078F1FF1F09
:104650000D0A00004C696E653A200000536F7572B8
:1046600063653A200000000048657864756D7073DA
:104670000D0A0000426F6F746C6F61646572000018
:104680004170706C69636174696F6E0070B50D463E
:104690000646012801D9002070BD992189000948EA
:1046A00000F0B8FD0446700206490122231A5202A6
:1046B0004118934200D81A462846FBF739FE204697
:1046C00070BD000014EFFF1FF8B50D46044601F061
:1046D00035FB0646FEF768FC07463046FEF77CFCD5
:1046E0000646002C01D00020F8BD28461B4901F0E9
:1046F000A7F804462819394601F0A2F80419281928
:1047000017A101F09DF8154904192819C91F01F0D6
:1047100097F8041900270120009014E00098002861
:1047200004D128190FA101F08BF80419F00708D063
:104730000D49B8000958281901F082F80419002021
:10474000009076087F1C002E01D0052FE6D3281993
:1047500003A101F075F80019F8BD0000E76400003E
:104760000D0A00002C2000007066000070B50C4699
:10477000002801D0002070BD01256D022946204689
:10478000FBF7B6FE0648FBF755FD024604492046F6
:10479000FBF7CEFD29462046FEF728FC70BD000041
:1047A000EF640000F8B5094D06460F462846FBF7B2
:1047B00041FD0446002E01D00020F8BD02462946E6
:1047C0003846FBF7B5FD2046F8BD0000A06A0000A2
:1047D00010B5012464020B46002801D0002010BD52
:1047E000224603491846FBF7A3FD204610BD0000F2
:1047F000BCF1FF1F04490A6A0260CA694260896904
:1048000081600021C16070474080044010B50846B7
:1048100054022146FBF76CFE204610BD70B5234DB7
:1048200000246878A978E443884201D0012000E0A0
:104830000020FF22F9321EA1FEF764F868780228F2
:1048400004D0002816D0012818D020E01A48FF24F0
:104850000078F53400281AD0012809D0022816D093
:10486000032814D0154A12A10020FEF74BF80EE0E1
:10487000134C0CE0A878022808D008E0A878022899
:1048800002D0002802D002E00E4C00E00024601CA0
:1048900005D10A4A06A11032FEF734F80024A868B0
:1048A000A04201D9012070BD002070BD40E2FF1F71
:1048B0002866696C652900000CEFFF1F0A020000E2
:1048C000204E0000C409000070B5034600200246D7
:1048D000012509E0DC0704D08E1A2C46761EB44070
:1048E00020435B08521CD2B28A42F3D370BD000051
:1048F00010B5074900200978C90708D1FFF72AF940
:10490000002803D1FFF71EF9002800D0012010BDB8
:1049100000F0074010B525210848FBF7E9FD0748DE
:1049200025212530FBF7E4FD05480021C160017019
:1049300041708170C170818010BD0000A0ECFF1F2C
:1049400030E2FF1F70470000F8B500250024FFF794
:10495000DBF8064605214C48FBF7CCFD21214B48EE
:10496000FBF7C6FD21214A48FBF7C2FD0921494852
:10497000FBF7C0FD05214448FBF7BCFD00BF00BFAD
:104980000AE0454BAA009958404A101900F032FF3E
:104990000019C4B2681CC5B2042DF2DB0022214606
:1049A000601CC4B239484254002400250AE03B4B45
:1049B000AA009958364A101900F01CFF0019C4B219
:1049C000681CC5B2042DF2DB00222046611CCCB26B
:1049D0002F490A5400242F4908193149096800F069
:1049E00009FF0019C4B22046611CCCB2294900223B
:1049F0000A54FFF777F80746042239462248FBF7A6
:104A000097FC21490020087100243104080FFFF7AA
:104A1000F9F8014622462348641C81543105080FE9
:104A2000FFF7F0F8014622461E48641C8154310607
:104A3000080FFFF7E7F8014622461A48641C815424
:104A40003007000FFFF7DEF8014622461548641CC8
:104A5000815400222146641C425400243022214605
:104A60001148641C425432222146641C42543522AF
:104A70002146641C425434222146641C42540022C4
:104A80002146641C4254F8BDACE2FF1FDAFAFF1F56
:104A9000FBFAFF1F1CFBFF1F7CFAFF1F8CFAFF1F96
:104AA00098E2FF1FB1E2FF1FB6E2FF1FF1B5394DDB
:104AB000A8694169009888470746A86981690098F4
:104AC00088470446002F07D0002C05D00126B602E7
:104AD000B74209D8012008E0FF2236322EA100207B
:104AE000FDF710FF0220F8BD0020FF223B322AA173
:104AF000FDF708FF39463046FBF717FD002909D0BE
:104B00000020FF223C3224A1FDF7FCFEBC4203D36F
:104B1000012002E00120F4E70020FF223D321EA127
:104B2000FDF7F0FE39462046FBF7FFFC00291AD0BE
:104B30000020FF223E3218A1FDF7E4FE2146009836
:104B4000FBF7F3FC0098401AE8602C616860B442FF
:104B500000D33446AC60A969096A002905D08847AA
:104B600004000BD101E00120E3E7287800280AD0F7
:104B7000A869C168E8688847040004D0A86940684B
:104B800080472046F8BDFF220548A968FBF78BFC4B
:104B90000020F8BDF8E1FF1F2866696C6529000058
:104BA000A0E4FF1F70B50025002400261148FBF784
:104BB00041FBC6B27000801CC2B221460E48641C84
:104BC000425403222146641C425400BF0EE00948AF
:104BD000611C425D2046CCB207490A54002220469F
:104BE000611CCCB204490A54681CC5B2B542EEDB64
:104BF00070BD00009CFAFF1F25FBFF1F10B531217F
:104C00000948FBF777FC09490748FBF785FB08498A
:104C10000548FBF781FB07490348FBF77DFB064985
:104C20000148FBF779FB10BD9CFAFF1FACE2FF1FA8
:104C3000B1E2FF1FDAFAFF1F1CFBFF1F10B50A4C81
:104C40002078002808D000F05DF86068C168074847
:104C500088470021217010BDC02205A10020FDF76A
:104C600051FE022010BD0000B8E1FF1F6CE3FF1FE2
:104C70002866696C6529000070B5134C05462078DC
:104C8000002801D0852202E0022D06D38B220FA13D
:104C90000020FDF737FE022070BDFFF720FAFF214C
:104CA000A06005310B48FBF725FC01200649207068
:104CB00028010C3140186060416806488847002888
:104CC000EAD00321217070BDB8E1FF1F2866696C2E
:104CD000652900006CE3FF1FF8B5094D0E46074635
:104CE000002420012A58314638469047002801D038
:104CF0002046F8BD641CE4B2022CF2D30320F8BDB8
:104D0000C4E1FF1F10B5FFF7EAF906498968884238
:104D100001D1012000E00020622203A1FDF7F2FD95
:104D200010BD0000B8E1FF1F2866696C652900000E
:104D3000014610B5083103220C4608A0FBF79CFA87
:104D4000002807D00322214605A0FBF795FA00288A
:104D500001D0032010BD012010BD000042494E00CB
:104D60004845580070B5154D064628780C46012870
:104D700006D0A42212A10020FDF7C4FD022070BDC0
:104D8000FFF7C0FF68682246836831460E4898479F
:104D90000446132807D0142C07D0002C05D003207C
:104DA0002870204670BD0220FAE72878012800D03C
:104DB0000020B22202A1FDF7A5FDF2E7B8E1FF1F36
:104DC0002866696C652900006CE3FF1F10B5FFF7CA
:104DD00086F906494968884201D1012000E0002097
:104DE000FF22693202A1FDF78DFD10BD40E2FF1FD9
:104DF0002866696C6529000010B503480021C06869
:104E0000FFF75CF910BD000040E2FF1F10B502483B
:104E1000C068FFF757F910BD40E2FF1F72B60349A3
:104E20004A6802434A6062B670470000F8E2FF1F1A
:104E3000054903464A681342FCD0486872B64A687E
:104E400082434A6062B67047F8E2FF1F0149086179
:104E500070470000F8E2FF1F30B50B4900200860E2
:104E600048608860C860086148610949074A4A612A
:104E7000084A0724D3691B021B0A4D042B43D36144
:104E800088610C6130BD0000F8E2FF1FFE52070090
:104E900000E000E004ED00E00149C8607047000058
:104EA000F8E2FF1F0149486170470000F8E2FF1F68
:104EB00003484169002901D00020084770470000DD
:104EC000F8E2FF1F0249886088680028FCD170471B
:104ED000F8E2FF1F02480078012800D00020704748
:104EE00014E2FF1F884203D3904201D8012070478B
:104EF0000020704770B5094C0221A068FFF7E4F864
:104F0000606803210546FBF710FB6D1C65600029F6
:104F100003D10121A068FFF7D7F870BDA8E1FF1FFA
:104F2000F8B51B4C1546E0780E46002805D0194A06
:104F300019490020FDF7E6FCF8BDE8051ED0002069
:104F4000144A1549121DFDF7DDFCB122607892006C
:104F50001149FDF7D7FC29463046FFF703FF00272C
:104F6000012613280CD014280FD0277108492039A6
:104F70004A6952194A6100F087F8F8BD0120DFE75D
:104F8000FFF75CFE6770E67000E000202671EDE739
:104F90000CEFFF1FBF020000F04D0000F8B51A4CE7
:104FA000074660780D46002812D00020A12292000A
:104FB0001649FDF7A7FC681C00D00120144A1349CC
:104FC000FDF7A0FC104E203E7068401C02D002E0AD
:104FD0000120EBE77560E079032800D1E771706884
:104FE000A84202D1E079B84201D0032008E0384657
:104FF000FFF742FE002803D10121F5606170A17026
:1050000000F042F8F8BD00000CEFFF1FF04D00006B
:105010008502000070B5194C2578032D05D0254672
:10502000203D2E68002E07D007E08D22920014A1AB
:105030000020FDF767FC70BD2860A868401C00D107
:10504000A960E079032800D1E371A869904206D9EC
:10505000E869904203D9002A01D003200BE0481CE4
:1050600002D0A8688842F8D1032B02D0E079984298
:10507000F3D10020AA6100F007F870BD0CEFFF1F0C
:105080002866696C65290000FEB50546132803D023
:10509000142D01D0012000E00020B922920045A18A
:1050A000FDF730FC454C2078032810D02246203AEA
:1050B0001168002912D0D369906983420ED3002869
:1050C0000CD093685068984208D1012007E05D2217
:1050D000D20038A10020FDF715FCFEBD0020607154
:1050E000A3790193002902D1E179032901D001219B
:1050F00000E000210091002804D02179002901D08E
:10510000012600E00026E178002903D0002801D024
:10511000012000E00020029010690027401C13D0FD
:10512000264820384068401C00D00120244A21A194
:10513000FDF7E8FB21482038426801694069891A77
:105140004902884200D901270320002D01D0207098
:105150001DE0019900290AD0002F01D00625F6E7AD
:1051600000990029F3D0002EF1D10425EFE7029930
:105170000029ECD1002E01D0022003E00098002885
:1051800002D00120207011E0207803280BD1607834
:10519000002806D0FFF752FD00216170002D00D1DC
:1051A0000546084805700198002896D100F0B4FD26
:1051B000FEBD00002866696C652900000CEFFF1F2A
:1051C0000603000040E2FF1F10B50F4C20780028B6
:1051D00007D000202070FDF76DFB002808D01F20AD
:1051E00010BD832209A10020FDF78CFB022010BD19
:1051F0006078002803D1FDF728FE002801D00020A8
:1052000010BD252010BD000014E2FF1F2866696C48
:1052100065290000F8B50F460446FBF769F92046FA
:105220009BA100F00DFB05466019A6A100F008FB4C
:1052300045196019A7A100F003FB45196019A9A140
:1052400000F0FEFA4519FDF75AFC002801D0A9A18B
:1052500000E0A9A1601900F0F3FA45196019A7A1AF
:1052600000F0EEFA45196019A5A100F0E9FA451918
:10527000FDF747FC002801D09EA100E09EA1601927
:1052800000F0DEFA451960199CA100F0D9FA451921
:105290006019A1A100F0D4FA4519FDF736FC0028E9
:1052A00001D094A100E094A1601900F0C9FA451959
:1052B000601992A100F0C4FA451960199CA100F090
:1052C000BFFA4519FDF71FFC002801D089A100E0B5
:1052D00089A1601900F0B4FA4519601987A100F09E
:1052E000AFFA451960199AA100F0AAFA4519FDF71D
:1052F000EBFC002801D07FA100E07FA1601900F045
:105300009FFA451960197DA100F09AFA4519FDF739
:105310009CFD002801D092A600E094A6601996A1F9
:1053200000F08EFA45196019314600F089FA4519E6
:10533000601972A100F084FA45196019314600F035
:105340007FFA4519601990A100F07AFA4519FDF726
:105350007CFD002815D1FEF7A9FC002811D06019AA
:105360008DA100F06DFA4519FEF7B2FC01466019F7
:10537000042200F094FA4519601960A100F060FA67
:105380004519FDF764FD002815D1FEF7BFFC002884
:1053900011D0601986A100F053FA4519FEF7CAFC36
:1053A00001466019042200F07AFA4519601953A1E8
:1053B00000F046FA4519601982A100F041FA45193A
:1053C000601983A100F03CFA451960194BA100F067
:1053D00037FA4519601989A100F032FA45196019A8
:1053E000002100F036FA4519601944A100F028FAAE
:1053F0004519601985A100F023FA4519601988A1A3
:1054000000F01EFA451960193CA100F019FA45197F
:10541000FEF74CFC002810D0601982A100F010FAB1
:105420004519FEF75FFC0146601900F0E3F94519E4
:10543000601932A100F004FA451960197EA100F04C
:10544000FFF94519FEF754FC0146601900F0D2F946
:105450004519601929A100F0F3F9451960197BA1DC
:1054600000F0EEF97D4945196019496800F0F1F93D
:105470004519601921A100F0E3F94019201878A11D
:1054800000F0DEF939462046FDF7B0FDF8BD00001A
:1054900023204441504C696E6B204669726D7761E0
:1054A0007265202D207365652068747470733A2FBF
:1054B0002F6D6265642E636F6D2F6461706C696E11
:1054C0006B0D0A00556E697175652049443A20409C
:1054D000550D0A004849432049443A2040440D0AEA
:1054E000000000004175746F2052657365743A20A6
:1054F0000000000031000000300000000D0A000034
:105500004175746F6D6174696F6E20616C6C6F773B
:1055100065643A20000000004F766572666C6F7714
:1055200020646574656374696F6E3A200000000042
:10553000496E636F6D70617469626C6520696D613D
:10554000676520646574656374696F6E3A20000056
:10555000506167652065726173696E673A2000006B
:10556000426F6F746C6F616465720000496E7465A0
:1055700072666163650000004461706C696E6B2047
:105580004D6F64653A2000002056657273696F6E36
:105590003A2040560D0A0000426F6F746C6F6164D0
:1055A00065722056657273696F6E3A2000000000C4
:1055B000496E746572666163652056657273696FC2
:1055C0006E3A2000476974205348413A2000000099
:1055D00065633366656339316538313562316665D7
:1055E0003237636566623862633466666138356394
:1055F0006133333137353032000000004C6F636166
:105600006C204D6F64733A20000000005553422017
:10561000496E74657266616365733A20000000002C
:105620004D534400426F6F746C6F61646572204328
:1056300052433A2030780000496E746572666163A7
:1056400065204352433A20307800000052656D6F68
:10565000756E7420636F756E743A200050E2FF1F00
:1056600055524C3A2040520D0A00000030B510A3AC
:105670000ECB87B06C460EC400250C480922694643
:10568000FAF756FE0D48094C4570093418220CA152
:105690006846FAF75BFD172269462046FAF748FE8E
:1056A000A57000F033F807B030BD0000F80000200E
:1056B000090220000101008096000000DCE2FF1FCB
:1056C0000904000002080650040705820240000099
:1056D000070502024000000002484078002800D080
:1056E0000120704748E3FF1F10B5FBF7E9FB10BD31
:1056F00010B505490020C870FFF7B8FFFCF7ACFCF7
:10570000FBF746FE10BD000048E3FF1F10B5FEF793
:10571000E6FC074C60600020FEF7D2FCE060FDF77D
:1057200015F900206070A0700249A060086010BDEB
:1057300040E2FF1F14E3FF1F70B514460D460646F6
:10574000FFF744FB064B1868002807D00120FEF73E
:10575000F9FB22462946304600F06AFB70BD000086
:1057600014E3FF1F70470000F8B515460E460746C4
:10577000FFF72CFB0D480068002816D00C490020CC
:105780000C4C8860207803280FD00120FEF7DAFB4C
:105790002A463146384600F0DBFC2078032804D046
:1057A0002A4631463846FDF721FDF8BD14E3FF1FB8
:1057B00040E2FF1F0CEFFF1F0548074A017805482C
:1057C000C180002101704170C16082600161704739
:1057D000C469000048E3FF1F0100010010B5EFF3AA
:1057E0001080C407E40F72B6FDF700FA002C00D158
:1057F00062B610BD70B50D460446090E00F014F8EF
:1058000006462802010EA01900F00EF88619280499
:10581000010EA01900F008F88619E9B2A01900F0ED
:1058200003F8801970BD00000B09044A0907D35C16
:105830000370090F515C41700220704794690000A9
:105840000346002001E01A54401C0A5C002AFAD1E9
:105850007047F3B581B0074600242546029805E05D
:105860000A21FAF762FE0021641C4D410028F7D19D
:105870002046284301D101240025002609E00A2101
:105880000298FAF752FEA21B3031521EB954761C10
:1058900002900020311BA841F1D32046FEBDF8B58F
:1058A00015460E460746FFF7D4FF0446A8420AD223
:1058B000302229463846FAF7F6FD281BC019314632
:1058C000FFF7C7FF2846F8BDF1B5304882B0006841
:1058D000002808D0016A002905D0029888470028CE
:1058E00000D00120FEBD2A480190FAF705FE040011
:1058F0004AD000200425074600902A4668460299AF
:10590000FAF716FDD4340AE0201DFAF7F5FD024639
:1059100031460098FFF7E6FA012832D014342046C9
:10592000FAF7EAFD0600EFD1201DFAF7E5FD0028A1
:10593000EAD1002F28D024E0029800264119042241
:105940006846FAF7F5FC0198FAF7D6FD04460C34E0
:105950000AE0201DFAF7D0FD024639460098FFF70D
:10596000C1FA01280CD014342046FAF7C5FD07000F
:10597000EFD1201DFAF7C0FD0028EAD1002E03D098
:105980002D1D0C2DD8D9ACE70020FEBDA4E1FF1FD2
:10599000166400000C490968002903D0496A0029EF
:1059A00000D0084701783A290AD1007A302809D076
:1059B000322807D0332805D0342803D0352801D029
:1059C0000020704701207047A4E1FF1FFFB583B09E
:1059D0000398FDF747FCFF22963241A1FCF792FFA6
:1059E00041480190417A007A090201433E48C01EB5
:1059F000407B414306984018401EFAF796FD054645
:105A000006980027394E002819D00024681EF76830
:105A100000900AE0F168481C82B2354800F080FC32
:105A2000F068401CF0600098641C8442F2D3314A54
:105A30002F48F16800F074FCF068401CF060306999
:105A4000202802D3FF22AB321FE041012A4A401C2A
:105A50008C183061202229492046FAF769FC0B2274
:105A600020460399FAF764FC21461C310698FAF7A0
:105A700054FD380C2075000A6075A776380AE07668
:105A8000B168102908D3FF22B93215A10020FCF714
:105A900039FF002007B0F0BD08460C225043164ADB
:105AA000174BC03A1350174B87187B60049B002B91
:105AB00000D013500598002800D078600198491C48
:105AC000427A037A1002084A1843D21E527B50438E
:105AD0006843B860B1603078401C30702046D9E728
