:04000005000080C1B6
:020000040000FA
:10800000D02B002009830000158300008D9F000005
:10801000000000000000000000000000852EFEDFD0
:108020008F9E939B0B999697FE000000B9810000EC
:1080300000000000385201005D820000BD82000097
:108040002783000027830000278300002783000088
:1080500027830000278300002783000035A7000046
:108060001F83000023830000278300002783000074
:1080700027830000ADA700002783000027830000AE
:108080002783000027830000278300002783000048
:108090002783000027830000278300002783000038
:1080A0000DB2000027830000278300002783000013
:1080B000278300002783000027830000E1A8000039
:1080C00000F002F800F030F80CA030C8083824188E
:1080D0002D18A246671EAB4654465D46AC4201D100
:1080E00000F022F87E460F3E0FCCB6460126334202
:1080F00000D0FB1AA246AB463343184744E90000C0
:1081000064E900000023002400250026103A01D372
:1081100078C1FBD8520700D330C100D50B6070473F
:108120001FB51FBD10B510BD00F04EFB1146FFF787
:10813000F7FF08F0E1F800F066FB03B4FFF7F2FF89
:1081400003BC00F069FB000080F309887047EFF37F
:1081500009807047684680F3098806480078C007A0
:1081600003D1032080F314887047022080F3148821
:1081700070470000B45D0100064B9C46EFF3058399
:108180001B0605D1EFF31483DB0701D000DF704736
:1081900060470000ED140100064B9C46EFF3058399
:1081A0001B0605D1EFF31483DB0701D000DF704716
:1081B0006047000001170100EFF309808169891E03
:1081C0000978002933D1A6461FC8A4467446E04763
:1081D0001F4B06CB914224D0083B002910D00CB491
:1081E000203101234B70EFF30983203B4B60F0C338
:1081F00044464D4656465F46F0C309F017FD0CBC99
:108200001A60203253681033F0CBA046A946B2461C
:10821000BB4683F30988203BF0CB5078002803D07D
:108220001078EFF3098318600223DB43184710B579
:10823000084A1268914209D8074C89006458A6463A
:108240001FC8A446F047EFF309840FC410BD000017
:10825000DCEEFF1F7C8800007C88000009F0CCFB6E
:10826000154B06CB914223D0083B0CB420310023A0
:108270004B70EFF30983203B4B60F0C344464D46FF
:1082800056465F46F0C309F0D1FC0CBC1A602032A0
:1082900053681033F0CBA046A946B246BB4683F3E1
:1082A0000988203BF0CB5078002801D01078186165
:1082B0000223DB4318470000DCEEFF1F09F06EFDD0
:1082C000CEE7000008F0B8FA09F068FDC8E7000042
:1082D00070B505460C46164602E00FCC0FC5103EA1
:1082E000102EFAD2082E02D303CC03C5083E042E6A
:1082F00007D301CC01C5361F03E021782970641C27
:108300006D1C761EF9D270BD72B60B48804762B6FE
:108310000A480047FEE7FEE7FEE7FEE7FEE70848FB
:108320000047084800470848004700000748084938
:10833000084A094B704700007DB10000C180000071
:1083400021A0000039A0000027830000D0290020D0
:10835000D02B0020D02A0020D02A002000487047CF
:1083600070290020034610B50B439B070FD1042A48
:108370000DD308C810C9121FA342F8D018BA21BAE9
:10838000884201D9012010BD0020C04310BD002A41
:1083900003D0D30703D0521C07E0002010BD0378A0
:1083A0000C78401C491C1B1B07D103780C78401C1F
:1083B000491C1B1B01D1921EF1D1184610BD421E53
:1083C0005378521C002BFBD10B78491C1370521CA4
:1083D000002BF9D17047D2B210B513029A181304CA
:1083E0009A1800F020F910BD020A08704A70020CB9
:1083F0008A70020ECA7070477047704770477047A6
:10840000FFFFFFFFFFFFFFFFFFFFFFFFFE39FFFF43
:1084100030B5441C03E00178401C00290DD08107D1
:10842000F9D10B4BDD0104C8D11A91432940FAD090
:10843000001B0A0603D0C01E30BD001B30BD0A045D
:1084400001D0801E30BD0902FCD0401E30BD0000AE
:10845000010101010346F0B50B439B072DD1244DCB
:10846000EF01042A29D308C810C95E1B9E43121FBE
:108470003E4017D0D8B2E1B2401A3106014310D1C4
:1084800098B2A1B2401A310401430AD11802210264
:10849000000A090A401A3102014302D1180E210EC6
:1084A000401AF0BDA342DCD018BA21BA884201D9E3
:1084B0000120F0BD0020C043F0BD002A01D1002002
:1084C000F0BD03780C78401C491C002B0DD0A34252
:1084D0000BD1521E09D003780C78401C491C002B8C
:1084E00003D0A34201D1521EEBD1181BF0BD0000F6
:1084F00001010101F8B5042A2CD3830712D00B78AF
:10850000491C0370401C521E83070BD00B78491C7A
:108510000370401C521E830704D00B78491C037063
:10852000401C521E8B079B0F05D0C91ADF00202369
:10853000DE1B08C90AE0FFF7CBFEF8BD1D4608C9DF
:10854000FD401C46B4402C4310C0121F042AF5D233
:10855000F308C91A521EF0D40B78491C0370401C52
:10856000521EEAD40B78491C0370401C012AE4D443
:1085700009780170F8BD431A70B593421BD289186F
:10858000801804E0491E401E0B78521E03709307AA
:10859000F8D106E01039103878C9103978C0103891
:1085A000103A102AF6D203E0091F001F0B6803607F
:1085B000121FF9D570BDFFF78BFE70BDF8B50646EA
:1085C00014460843800707D0751AA54219D2081926
:1085D000102D13D2311907E03046FFF7CCFFF8BD5C
:1085E000401E491E02780A70641EF9D2F8BD471B6E
:1085F0002A463946FFF77EFF641B3846A542F6D36C
:10860000011B22463046FFF775FFF8BD01E004C0AC
:10861000091F0429FBD28B0701D50280801CC907E2
:1086200000D00270704700290BD0C30702D002703F
:10863000401C491E022904D3830702D50280801CF6
:10864000891EE3E70022EEE70022DFE70378C27825
:108650001946437812061B0219438378C0781B041D
:10866000194311430902090A000608437047002212
:1086700003098B422CD3030A8B4211D300239C465F
:108680004EE003460B433CD4002243088B4231D3D7
:1086900003098B421CD3030A8B4201D394463FE06B
:1086A000C3098B4201D3CB01C01A524183098B42CB
:1086B00001D38B01C01A524143098B4201D34B01B4
:1086C000C01A524103098B4201D30B01C01A524117
:1086D000C3088B4201D3CB00C01A524183088B429E
:1086E00001D38B00C01A524143088B4201D34B0087
:1086F000C01A5241411A00D20146524110467047F9
:108700005DE0CA0F00D04942031000D340425340FD
:1087100000229C4603098B422DD3030A8B4212D3BD
:10872000FC22890112BA030A8B420CD389019211EF
:108730008B4208D3890192118B4204D389013AD02C
:10874000921100E08909C3098B4201D3CB01C01A01
:10875000524183098B4201D38B01C01A5241430914
:108760008B4201D34B01C01A524103098B4201D302
:108770000B01C01A5241C3088B4201D3CB00C01A6F
:10878000524183088B4201D38B00C01A5241D9D287
:1087900043088B4201D34B00C01A5241411A00D208
:1087A0000146634652415B10104601D34042002B04
:1087B00000D54942704763465B1000D3404201B583
:1087C0000020C046C04602BD7546FFF7C7FDAE4655
:1087D000050069465346C008C000854618B020B55C
:1087E000FFF7A4FD60BC00274908B6460026C0C5B7
:1087F000C0C5C0C5C0C5C0C5C0C5C0C5C0C5403D59
:1088000049008D46704710B50446C046C046204614
:10881000FFF793FC10BD000001491820ABBEFEE736
:108820002600020070B58C180578401C6B075B0FA2
:1088300001D10378401C2A1106D10278401C03E0C4
:108840000678401C0E70491C5B1EF9D12B0705D41D
:108850000023521E0DD40B70491CFAE70378401C0C
:10886000CB1A921C03E01D780D70491C5B1C521E34
:10887000F9D5A142D8D3002070BD0000000000004F
:10888000F8B504460026006A354640064027002811
:1088900003DA206A0126B8432062606AC0210843D7
:1088A000606206E0204600F099F8400601D50125F7
:1088B00005E00021204600F037F80006F2D52069D7
:1088C0000090002E02D0206A38432062204600F03B
:1088D00085F8400601D5012501E0002D01D028468C
:1088E000F8BDE06CA16C4018616C226C89184018CE
:1088F000E16B4018A16B401841080120C0030143FF
:108900000091E162E16EA26E8918626E236ED21848
:108910008918E26D8918A26D8918490801430091F0
:1089200021630020F8BD000070B50C460546022901
:1089300001D2012000E00020FF226A3204A105F0EC
:108940005DF90020A1006958090600D5802070BD9E
:108950002E5C736F757263655C6869635F68616CD8
:108960005C667265657363616C655C6B6C32377AEB
:108970005C66736C5F61646331362E6300000000D7
:1089800010B509490024A2008A58824201D0641C13
:10899000F9D0002C06D00020462204A105F02EF9C3
:1089A000204610BD0120F7E7BC5A01002E5C736F12
:1089B000757263655C6869635F68616C5C6672654B
:1089C000657363616C655C6B6C32377A5C66736C83
:1089D0005F61646331362E630000000001460A6A5D
:1089E0000020120600D58020496A490601D54021A1
:1089F0000843704770B50C00054601D0012000E027
:108A000000204D2225A105F0F9F82846FFF7B8FF10
:108A10002E49800009582E4A080C8018026801234C
:108A20008B401A4302606078217980078907800FA4
:108A3000090F08436179042901D010210843E17826
:108A40008907490E0143E079002801D080200143C5
:108A5000A960E868617900090001042902D089074A
:108A6000890F0843A179002901D004210843A27885
:108A70000821002A00D00843E860286A227880088C
:108A800080009207920F02432A62207A0028686AC7
:108A900001D0084300E08843686270BD2E5C736FAC
:108AA000757263655C6869635F68616C5C6672655A
:108AB000657363616C655C6B6C32377A5C66736C92
:108AC0005F61646331362E6300000000C05A01000C
:108AD0000070044070B514460D460646022901D2C6
:108AE000012000E00020FF2254320EA105F086F89C
:108AF000002C01D0012000E00020FF22553209A106
:108B000005F07CF82078C3066079DB0E002801D0E0
:108B1000202003432079002801D040200343A800EF
:108B2000335070BD2E5C736F757263655C686963EA
:108B30005F68616C5C667265657363616C655C6BD4
:108B40006C32377A5C66736C5F61646331362E63B6
:108B50000000000010220029C16802D01143C1604A
:108B600070479143FBE7426AD208D200042903D040
:108B70008907890F091D0A4342627047044A010CA4
:108B800089180A68012383409A430A6070470000ED
:108B900000700440044A010C89180A6801238340CC
:108BA0001A430A60704700000070044010B5114875
:108BB0000068800C8007800F05D002280CD00328A5
:108BC00015D0002010BD00F091F80121C9038842A2
:108BD00000D00021084610BD074C6068002800D076
:108BE0000120912205A105F009F8606810BD7D20E3
:108BF000C00010BD00700440A8ECFF1F2E5C736F16
:108C0000757263655C6869635F68616C5C667265F8
:108C1000657363616C655C6B6C32377A5C4D4B4C91
:108C200032375A345C66736C5F636C6F636B2E63B0
:108C30000000000010B5194C030004F04FFF140BA6
:108C40000B102D102D2D1E212D2D2D242D2D2D2DD4
:108C500027272A2D00F07CF86168090F09E000F051
:108C600077F86168090F491CFFF701FD6168490346
:108C7000490F491CFFF7FBFC10BDFFF797FF10BD24
:108C800000F034F810BD00F00BF810BD00F0A4F8AF
:108C900010BD7D20C00010BD002010BD40800440EC
:108CA00070B50648017A007E09074C0F45076D0F25
:108CB00000F006F86119C84070BD00000040064091
:108CC00008480178890706D481790907890F0129A5
:108CD00001D00020704740780349C007400F085872
:108CE0007047000000400640B45A010010B5084823
:108CF000007800060AD5074C2068002800D0012023
:108D0000782205A104F07AFF206810BD002010BD74
:108D100000500640A8ECFF1F2E5C736F75726365F0
:108D20005C6869635F68616C5C66726565736361EA
:108D30006C655C6B6C32377A5C4D4B4C32375A3415
:108D40005C66736C5F636C6F636B2E630000000086
:108D500010B5104CA07980088007800F05D001283D
:108D600005D002280AD0002010BD0B4810BDFFF727
:108D7000A7FF217A0907490FC84010BD074C20689A
:108D8000002800D00120FF226B3205A104F036FF3D
:108D9000206810BD00400640006CDC02A8ECFF1FFC
:108DA0002E5C736F757263655C6869635F68616C84
:108DB0005C667265657363616C655C6B6C32377A97
:108DC0005C4D4B4C32375A345C66736C5F636C6F2E
:108DD000636B2E63000000000548017E090605D480
:108DE00080790007800F01D000207047014870474C
:108DF00000400640006CDC02F8B502787F2A02D001
:108E000000F04EF8F8BD0A704478861C4C708D1C3A
:108E1000074F08E02946304600F042F8010C3F18A1
:108E20008E1980B24519641EF4D23846F8BD000090
:108E3000020002000A4670B50146002003460629DA
:108E400016D006DC0B0004F049FE051313131418AA
:108E50001300FD290CD003DCF02909D111201CE0FE
:108E6000FE2919D0FF2903D1402010705370022031
:108E700070BD154607F0E0F802E0154607F0E4F88B
:108E80000646FFF7C5FA401CC4B2224631462846C2
:108E9000FFF730FB204670BD05201070012070BD2B
:108EA000F8B502781346803B1F2B02D800F032F948
:108EB000F8BD1346A03B5E2B02D800F0B9F9F8BD0F
:108EC0000A7007784C1C421C0025FF218848894EF7
:108ED0003B0004F003FE1E10182140A9B6D3F1F2A6
:108EE0005264F1F1F1F1F1686D728190A63DF1F1FA
:108EF000F1F1F1F18BF11078611CFFF79BFF7E49D6
:108F000020704018F8BD1078002846D0012844D0C1
:108F100021707948401ED5E01178002903D001293D
:108F200002D0002114E00121012202707348402385
:108F3000436020254560724A4703576047691F43D5
:108F4000476143692B4343615069EB031843506108
:108F500021703046B6E0057068484169402291436F
:108F60004161426920218A43426165484269C903DF
:108F70008A43426125700120A4E0507811780702ED
:108F800061480F435F490068FFF771FB0321801CB4
:108F9000FFF76DFB7843401EFDD12570B9E7657082
:108FA000257002208EE02146104600F0E5FB89E0A6
:108FB0002146104600F0AAFB84E01778511C002FD0
:108FC00001D1FF270137384602F0B2F8FF1D2570A6
:108FD000F8080004801975E011788A07920F521C76
:108FE00049070276C90F41762570B2E7214610463F
:108FF00000F024F966E02170012113780C46521C20
:109000000AE01078521C8006800E00D14020C01D5E
:10901000C00812180918491C5B1EF2D2080420432C
:1090200050E010782170D4E7117801739378577865
:109030001902394301821179D27809021143418220
:1090400050E000782146012814D01346521C1078B5
:10905000521C002808D01778521CBC0701D5FC060A
:1090600000D5121D401EF6D1D01A0D7000044D70AF
:10907000801C27E0104600F025F923E00078174611
:10908000214601280AD00D704D70A5700320F97893
:109090001E4A890706D5104301460AE0104600F033
:1090A000A3FAF4E7B9787B7809021943890489188F
:1090B0000143084606E000E016E00078012803D0EE
:1090C000217013488019F8BD1746501CFFF7BEFAEF
:1090D00039790002000A0906084300906946002019
:1090E00001F040FD2570ECE7203CE1773046F8BD0B
:1090F00000F0FF1F0100010002000200800000F8E4
:1091000000F00F4040420F00B0ECFF1F00000400D1
:1091100001000500FEB502780A704D1C0178424C32
:10912000401C8039064667000B0004F0D7FC0E088F
:10913000162238407272724755616569747206F082
:109140007BFF0746FFF764F9C6B22E70681C3246F3
:109150003946FFF7CFF9A41927E00724684602F043
:1091600091FA224669462846FFF7C4F92E4C083486
:109170004FE0684602F086FA002002900422314651
:1091800002A8FFF7B7F902980090684602F09AFA31
:10919000002002F017FB01202870244C39E03E210A
:1091A000681C0AF0C3FB28702418641C31E037786F
:1091B000401C39460AF03AFC012026E001202870C4
:1091C0003078002805D0012803D0002028703C46C4
:1091D0001FE007F035FAFAE70120287005F010F8D3
:1091E000002802D102200AF06DF90F4C641C10E037
:1091F000007809F073F8E9E709F040F82870F4E71F
:109200003778401C394609F003F9287039040819E9
:1092100004192046FEBD002028703078002800D0B8
:10922000012006F007F9D2E7010001000200050065
:10923000FF2008700048704701000100F3B583B0BB
:1092400000220A70491C0125009504910178441CF4
:1092500001912AE02778641CB806800E00D14020D6
:10926000C01DC60838061648416902D52022914320
:1092700001E020221143416121463846049A01F061
:1092800025FC0198002804D10D4841692022114392
:109290004161380606D50498801904900098801919
:1092A000009001E0A419AD196D1C0198401E0190B9
:1092B000401CCFD100992804084305B0F0BD000040
:1092C000800000F8F0B589B00890044600208D1C9D
:1092D0000391C34902900870049005906678A41C1D
:1092E000002E6FD02778641CB9076CD5049900292B
:1092F00035D0BC48008A01901120384001280FD198
:109300006946384601F02EFC02281AD10199491EFF
:109310000191491C03D0B24909780029F0D012E12B
:1093200069460E2001F01EFC022808D10199491E51
:109330000191491C03D0AA4909780029F0D00021E5
:1093400004910128EBD1009929700099090A6970EC
:109350000099090CA9700099090EE9702D1DF906F4
:1093600058D52046FFF772F9E1780002000A090695
:10937000084307909B48241D408A0690F80715D0A3
:109380009848008A01900021384601F0EBFB022842
:1093900002D00128C3D109E00199491E0191491C5D
:1093A000BDD08F4909780029EDD0CCE08D48008AE6
:1093B00001906946384601F0D5FB022804D0012807
:1093C0001CD10BE0E0E064E00199491E0191491CC9
:1093D00014D0834909780029EBD00FE08149009A25
:1093E00049691140079A914208D00699491E069191
:1093F000491C03D07A4909780029D7D07949009AC5
:1094000049691140079A914201D01021084301286F
:109410001AD13CE07349098A0191F90718D00499DF
:10942000002934D10021384601F09CFB022802D0EB
:10943000012809D109E00199491E0191491C03D075
:10944000674909780029EDD07DE0012104911EE0F3
:109450006946384601F086FB022802D0012872D105
:1094600009E00199491E0191491C6CD05C490978B9
:109470000029EDD067E0009929700099090A697008
:109480000099090CA9700099090EE9702D1D0021A1
:109490004DE00498002823D05248008A0190694684
:1094A0000E2001F05FFB022802D001284BD109E019
:1094B0000199491E0191491C45D049490978002963
:1094C000EDD040E0009828700098000A687000987D
:1094D000000CA8700098000EE87000202D1D04906C
:1094E0002046FFF7B3F8E1780002000A09060843B6
:1094F000241D0090B90603D53A494861012017E0C0
:109500003848008A01906946384601F02BFB022852
:1095100002D0012817D109E00199491E0191491C87
:1095200011D02F4909780029EDD00CE001210591D7
:109530000299491C02912A490978002903D1761E13
:1095400000D0CFE60AE0002E08D02178641C8A07FC
:1095500001D5C90600D5241D761EF4E7012832D1B5
:10956000049900291ED01F481D4F068A69460E2007
:1095700001F0F8FA022802D0012824D105E0761E75
:1095800021D339780029F1D01DE000992970009984
:10959000090A69700099090CA9700099090EE9700F
:1095A0002D1D10E0059900290DD00E480C4F068A9C
:1095B00000210E2001F0D6FA022804D1761E02D333
:1095C00039780029F4D0039A0299117003994870F0
:1095D00008980399201A0004691A084309B0F0BDDD
:1095E00013E8FF1F00F0FF1FF3B583B00025CE1C6A
:1095F00002914449024628460D70917853780C0236
:10960000D21C1C4373D01178521C0091039289071D
:109610005DD50099C90737D03B48078A00210098DB
:1096200001F0A0FA022802D0012860D12CE07F1EB0
:109630005DD3344909780029F0D058E0002C04D1DA
:109640000098C00701D00E2000902F48078A01A97A
:10965000009801F087FA022802D0012847D106E0DD
:109660007F1E44D3274909780029F0D03FE00199B3
:10967000317001996D1C090A71700199090CB17062
:109680000199090EF170361D641ED7D22FE00398A0
:10969000FEF7DCFF03990002C978000A09060843B7
:1096A00001900398001D03901748078A01A90098AC
:1096B00001F058FA022802D0012818D106E07F1ED6
:1096C00015D3104909780029F0D010E06D1C641EF4
:1096D000DDD20D480B4F048A00210E2001F042FA22
:1096E000022804D1641E02D339780029F4D00299EB
:1096F0000D70029A290A517002998870029805B07B
:10970000301AF0BD13E8FF1F00F0FF1FF8B50D463B
:109710000646FEF79BFF0402F078240A0006044385
:109720000CD01248062100680090FEF7A0FF002729
:109730000F4EA04205D80120707012E0FF20287063
:1097400011E077700098214640080019401EFEF78E
:109750008EFF012804D90321401CFEF788FF00E09A
:10976000012070602F700348F8BD0000B0ECFF1FAF
:1097700000F0FF1F01000400F3B5064605784478A9
:1097800081B0801CFEF762FF01027079090A0006B1
:1097900001432A48E20706D0EB074022002B01D004
:1097A000426000E08260A20706D5AB072022002BB2
:1097B00001DA426000E08260214A230606D5EB0907
:1097C000DE07204B01D0536000E09360002923D0D6
:1097D00001260023E10704D001694906C90FA94207
:1097E00017D1A10705D501696F088906C90FB942CC
:1097F0000FD1610701D5A9080BD1A10601D56909CF
:1098000007D1210608D51169EF09C902C90FB9426C
:1098100002D05942B142DDD3016900694906C90F3E
:109820008006C00F400001431069C002C00FC00194
:109830000143029801700448FEBD0000800000F85A
:1098400000F00F40000010000100060010B5224C8F
:1098500000202070207364212182608201226061D7
:1098600022761E49607609681D4B4908994202D844
:10987000627062600FE060701A4808181949491C4C
:10988000FEF7F5FE012804D90321401CFEF7EFFE88
:1098900000E0012060601449886B1F2252021043CF
:1098A0008863FF20114A03309061114840234360D0
:1098B000416919434161FF21043151612022426015
:1098C0004369934343610B4801610B48D1034160F5
:1098D00042690A43426110BD00F0FF1FB0ECFF1F58
:1098E00002366E01FF117A000080044000B004408F
:1098F000800000F84090044000F00F40F8B5C41D0F
:109900000546F934E06C1E460F46002823D0402A55
:1099100000DD4022401EE064606D80014019FEF7CA
:10992000E9FD606D800141193846FFF765FA616D08
:1099300049004919FF3141310880606D05218001DE
:1099400040193060606D401CFEF791FE6165206D2E
:10995000401C20650120F8BD10B5C41DF934236DED
:10996000002B17D05B1E2365A36D9B011B180B609A
:10997000A16D49000818FF30413000881060A06DCB
:109980000521401CFEF773FEA165E06C401CE064FD
:10999000012010BD002010BDFF30002201304265C3
:1099A000826505210265C16470470000002805DB5F
:1099B000C106C90E012088400149086070470000B7
:1099C00000E100E070B50546EFF31080C407E40F36
:1099D00072B6094E094B29463046F26800F010F87D
:1099E000002805D1002329463046F26800F030F9FE
:1099F000002C00D162B670BDE40800206B66656B78
:109A0000FFB589B016460C466A46099805F0EEFB8C
:109A100032462146049B099805F0D1F805002BD168
:109A2000009C019FA619761E39463046FEF71FFEA0
:109A300000291BD0401C7843461E17E02102092054
:109A4000090A000609180D4841600C9805F0D0F885
:109A5000002811D1099805F0D5F805460998006944
:109A6000002800D08047002D02D1E419B442E5D986
:109A7000099805F077F828460DB0F0BD00000240C7
:109A800070B5040027D01648C0680001000F0F28E9
:109A900023D014494000085A8002002525606060E8
:109AA0000220A0606561A56140022561E06020465A
:109AB00005F077F800280AD00B4801468039056088
:109AC000416040318160E061204600F00FF825627E
:109AD0000020656270BD042070BD01208004DCE7B9
:109AE00040800440945A010098090020F8B50028ED
:109AF0000FD0C56922484024460822487600400815
:109B000040006F68B0420ED9841B402C03D801205E
:109B100002E00420F8BD00201B4A1CA104F06EF8EE
:109B2000402C00D94024224631463846FEF7E2FC5C
:109B300021487F1C076021484024460820487600C1
:109B400040084000AF68B0420DD9841B402C01D8BA
:109B5000012000E000200C4A0CA18E3204F04EF8E7
:109B6000402C00D94024224631463846FEF7C2FC3C
:109B700011487F1C4760022028600020F8BD0000CB
:109B8000F5F4000001F500008E0700002E5C736FF5
:109B9000757263655C6869635F68616C5C66726559
:109BA000657363616C655C6961705C66736C5F664C
:109BB0006C6173682E630000A0ECFF1F8DEB00004A
:109BC000A1EB0000FFB589B01F4614000D460DD073
:109BD0006A46099805F00AFB3A462946039B09980C
:109BE00004F0EDFF060002D1009D28E004200DB036
:109BF000F0BD02CC154881600399042902D00829E0
:109C000007D00EE029020322090A52068918416092
:109C100007E002CCC16029020722090A120689184E
:109C20004160099804F0EEFF064609980069002893
:109C300000D08047002E04D1039845193F1A002F09
:109C4000D7D1099804F08EFF3046D0E700000240DB
:109C5000FFB589B014460D466A46099805F0C6FA64
:109C600022462946059B099804F0A9FF00282FD118
:109C70006A462946099805F0B9FA009D02980890AD
:109C80006942404201404F42AF4201D108983F181B
:109C9000002C1CD07E1BA64200D9264630460599D2
:109CA000FEF7E5FC29020122090A12068A18094971
:109CB0004A600C9A000412021043FF308860099831
:109CC00004F0A0FF002803D1A41BAD19DEE700209B
:109CD0000DB0F0BD00000240FFB589B0129F1D001D
:109CE00016460C4610D06A46099805F07FFA3246AF
:109CF0002146079B099804F062FF002805D1154A08
:109D000039068F18009C22E004200DB0F0BD21021E
:109D10000120090A400609180F4841608760296838
:109D2000C160099804F06EFF002809D0139900293A
:109D300000D00C6014990029E7D000220A60E4E703
:109D40000799761A890889004D1907990C19002E70
:109D5000DDD1DAE7FFFFFF000000024010B504008C
:109D600001D0012000E000208B2207A103F046FF74
:109D700004212046FEF766FC01212170002060705E
:109D8000A170E07010BD00002E5C736F757263658A
:109D90005C6869635F68616C5C667265657363616A
:109DA0006C655C6B6C32377A5C66736C5F666C6595
:109DB00078696F2E6300000010B509490024A200E5
:109DC0008A58824201D0641CF9D0002C06D00020B1
:109DD000412204A103F012FF204610BD0120F7E745
:109DE000C45A01002E5C736F757263655C686963A9
:109DF0005F68616C5C667265657363616C655C6B02
:109E00006C32377A5C66736C5F666C6578696F2E4E
:109E10006300000070B50C460546FFF7CDFF124900
:109E200080000858114A010C89180A6801238340F0
:109E30001A430A60284600F01DF8A8680C4908403B
:109E4000A178C9074A08E178C907490F0A43217870
:109E5000C907C90F0A4302436078002802D10120D4
:109E6000C0070243AA6070BDC85A010000700440D8
:109E7000FAFFFF3F81680222114381600021816067
:109E8000704710B5937BD47B9B07A4079B09A40A5A
:109E90002343147C89006407640B2343547C081813
:109EA0006407640C2343947C09216407640D2343F5
:109EB000D47CC901A407A40E2343147DE407A40F96
:109EC000234341180B60118B05231B0289B2C31871
:109ED0001960117813790907DB0709091B0A19436F
:109EE0005379DB075B0A194393799B079B0B194353
:109EF000137A5B075B0D1943137B527BDB071B0E49
:109F000092071943920F11430122920280180160B7
:109F100010BD000070B515000E46044601D00120AA
:109F200000E0002064220AA103F068FE29780120E5
:109F3000B040002907D06978002907D060606169C6
:109F40000143616170BD61698143FAE7A060F6E792
:109F50002E5C736F757263655C6869635F68616CC2
:109F60005C667265657363616C655C6B6C32377AD5
:109F70005C66736C5F6770696F2E630001238B40B2
:109F8000002A01D04360704783607047EFF3088474
:109F900070460007000F0D2801D1EFF30984254614
:109FA000A08B2035800500D52D1D7046C00600D43D
:109FB0004835704604F09CF9EFF3098004F098F9F5
:109FC000EFF3088004F094F9EFF3148004F090F9B3
:109FD000284604F08DF9606904F08AF9A06904F05C
:109FE00087F9E06904F084F94A2203A1002003F014
:109FF00005FE01F0FDF8FEE72E5C736F7572636578
:10A000005C6461706C696E6B5C486172644661751A
:10A010006C745F48616E646C65722E6300000000B2
:10A0200010B503480168034800F012FB10BD0000A2
:10A03000BCECFF1F0060064010B5034841680348B0
:10A0400000F006FB10BD0000BCECFF1F00700640D6
:10A050004A0603D58278BF231A408270890603D549
:10A0600081798F221140817170470029817802D057
:10A070008022114301E04906490E817070474A066B
:10A0800003D5827840231A438270890605D58179E9
:10A09000AF221140202211438171704710B50A4947
:10A0A0000024A2008A58824202D0641C022CF8D3F9
:10A0B000022C01D2012000E00020AF2203A103F016
:10A0C0009DFD204610BD0000D85A01002E5C736F24
:10A0D000757263655C6869635F68616C5C66726514
:10A0E000657363616C655C6B6C32377A5C66736C4C
:10A0F0005F6932635F6D6F642E6300000A04CB04F6
:10A10000120E002B02DA8379134383714B0402D5BC
:10A11000837913438371C17070470146C0788A798F
:10A12000520602D50122920310438979C90602D54D
:10A130000121090308437047F7B586B0002000905D
:10A1400001900F46012000267D210490F643002552
:10A15000C9001046FEF78BFA039004981649A840F0
:10A1600000244843029015486200805A029A0399DD
:10A170005043FEF77CFA874201D9381A00E0C01B31
:10A18000B04203D200950194060003D0641CE4B2EF
:10A19000402CE8D36D1CEDB2022D01D8002EDCD18D
:10A1A000009801998007000E8906890E08430699D8
:10A1B000487009B0F0BD000020A10700E05A01007E
:10A1C00010B504460021FFF750FF2046FFF766FF59
:10A1D000024980000858FEF7D1FC10BDD05A01009A
:10A1E00010B5040001D0012000E00020084A09A1B8
:10A1F00003F004FD002020606060A06020726070A9
:10A20000A070E0707D204001E0600120207010BD52
:10A21000030700002E5C736F757263655C68696389
:10A220005F68616C5C667265657363616C655C6BCD
:10A230006C32377A5C66736C5F6932635F6D6F6432
:10A240002E63000070B516460D00044601D00120B3
:10A2500000E00020294A2AA103F0D0FC2046FFF7A5
:10A260001DFF334980000858FEF794FC0020207041
:10A270006070A070FF21E17060715021A171E071E8
:10A28000287A002802D002281AD103E02879400059
:10A29000207015E0A888E988884201D2012000E0FA
:10A2A0000020164A16A11D3203F0A8FC28794000B0
:10A2B0002070A8794000E07160790821084360713E
:10A2C000A078FD210840A978C907890F01432878A3
:10A2D000C007000E0143A17060796F210840E97842
:10A2E0006A78C907C90ED207120E11430143617182
:10A2F00032462046E968FFF71FFF70BDA90600003F
:10A300002E5C736F757263655C6869635F68616C0E
:10A310005C667265657363616C655C6B6C32377A21
:10A320005C66736C5F6932635F6D6F642E630000FF
:10A33000D05A0100F8B51D4616460C00074601D05C
:10A34000012000E000200C4A0CA103F057FC384625
:10A35000FFF7A4FE074624212046FEF775F91349AE
:10A36000E661B80025620C50114808394860114870
:10A37000C057FFF71BFBF8BDC70700002E5C736FCB
:10A38000757263655C6869635F68616C5C66726561
:10A39000657363616C655C6B6C32377A5C66736C99
:10A3A0005F6932635F6D6F642E630000BCECFF1F5A
:10A3B000B9A30000CC5A0100FEB50C00064601D03E
:10A3C000012000E00020714A71A103F017FC002079
:10A3D0006946019008700878401C08703046FFF705
:10A3E0009CFE87B2251D78041AD5012189033046C9
:10A3F000FFF784FE0220F070207801280ED1202083
:10A4000028700021E9602170A169014206D0E3694A
:10A41000002B03D029463046226A9847780634D567
:10A42000F80414D5012109033046FFF767FE022026
:10A43000F07010202870A169014206D0E369002B5A
:10A4400003D029463046226A984778061DD5022057
:10A45000F070F8071AD0B078E7210840B070307972
:10A4600069460870E06800280FD020212970544800
:10A47000E86000202070A069084206D0E369002B44
:10A4800003D029463046226A9847FEBD780634D567
:10A49000012020702870780709D5B1781020014379
:10A4A000B170012001903079694608700BE0B078F6
:10A4B000E7210840B07030796946087008780028B4
:10A4C00001D1402028702978A06908420BD0E069AA
:10A4D000002808D068460078216A0870E369294698
:10A4E0003046226A984701980028CED0A86869684B
:10A4F00000292BD0002829D033E0380622D5780750
:10A50000F4D4A8686968002901D000280AD1042081
:10A510002870E369002B03D029463046226A984709
:10A52000002028613179E0680028AED0A068421C84
:10A53000A2600170E068401EE0602869401C28614C
:10A54000E068FEBD307969460870FEBD02202870C3
:10A55000E369002B03D029463046226A9847002041
:10A560002861E06800280BD0A068411CA160007839
:10A570003071E068401EE0602869401C2861FEBD23
:10A58000B078E7210840B070DCE700005608000012
:10A590002E5C736F757263655C6869635F68616C7C
:10A5A0005C667265657363616C655C6B6C32377A8F
:10A5B0005C66736C5F6932635F6D6F642E6300006D
:10A5C0004E04000070B515460C00064601D001206F
:10A5D00000E000200F4A10A103F010FB20780128B2
:10A5E00016D060213046FFF733FD1421201DFEF701
:10A5F0002BF8012020704620054330461249A56102
:10A60000FFF77CFD60213046FFF739FD002070BD6B
:10A610000E4870BDF60700002E5C736F757263659F
:10A620005C6869635F68616C5C66726565736361D1
:10A630006C655C6B6C32377A5C66736C5F69326335
:10A640005F6D6F642E630000125000004C04000028
:10A6500010B5C37882789406054A01D4DB0601D58B
:10A66000126800E052689047BFF34F8F10BD0000A2
:10A67000B4ECFF1F10B5EFF31080C007C00F72B627
:10A680000021064A1160002800D162B60448FFF795
:10A69000F7F9002800D0012010BD0000008104401F
:10A6A000E40800201CB508F047F900281AD09E20C5
:10A6B00069460870E7204870102000F039FD012439
:10A6C00008F03AF900280DD00020694608700820EB
:10A6D00000F02EFD01A9002008F0C4F8012802D1E5
:10A6E000002C00D01CBD00201CBDCA080AD0012AC5
:10A6F00007D1801D002804D04A07520F0121914044
:10A7000001707047401DF5E7CA0802D0012A0ED13A
:10A7100001E0401D00E0801D002808D000784A07B5
:10A72000520F01219140084000D0012070470020C5
:10A730007047000070B50D4D0E212846FFF7E4FF6D
:10A740000124002805D00E212846FFF7CEFF084837
:10A75000047008212846FFF7D7FF002805D00821FC
:10A760002846FFF7C2FF0348047070BD00C00740D1
:10A7700000E0FF1F01E0FF1F10B58B0806D0012B82
:10A7800010D0022B10D0032B0BD1C01C002808D0F6
:10A7900003788907490F03248C40A3438A401A4356
:10A7A000027010BD401CF1E7801CEFE7F8B5354D95
:10A7B0006C68A868800202D4012040058443A86820
:10A7C000314E000200D4B443304F200313D56868E3
:10A7D00001213840C9044018686003F029FD0028B1
:10A7E00009D02B4803F004FC132804D3132229A119
:10A7F000274803F0B4FC200218D52B4803F009FCCD
:10A80000002800D00120FC2228A103F0F7F92648F7
:10A8100003F020FCE860244803F0FBFB002805D18E
:10A82000A868B043A8600D2003F066F9A0020BD51C
:10A830006003800FE86808D06946087068680321E3
:10A840003840490440186860F8BDC5B2104803F0AC
:10A85000CFFB0446132804D929460D4803F032FCE7
:10A86000F8BD03F0E5FC002807D0132CF8D1132223
:10A8700008A1074803F073FCF8BD054803F0EAFBA4
:10A88000EAE7000000500540000080000000E03FC3
:10A89000E81300203C4441504C696E6B3A4F76659A
:10A8A00072666C6F773E0A00D81100202E5C736FC1
:10A8B000757263655C6869635F68616C5C6672652C
:10A8C000657363616C655C6B6C32377A5C75617261
:10A8D000742E63000A78497809010A438270704730
:10A8E00010B5134C12488034216AC90605D50022E0
:10A8F000042100F027F8102020620E4A0D49803212
:10A90000106AC00609D51020106208690003000F04
:10A91000092803D008490120087010BD02F0DAFFB1
:10A9200009F064FD0549002008700549F4E70000BE
:10A9300000C0044000B0044001E0FF1F02E0FF1F20
:10A9400020E9FF1F10B5890043580F242404120783
:10A95000A343120B1343435010BD10B58900435855
:10A96000072424025207A343520D1343435010BD42
:10A9700010B589004358072424025207A343520DFF
:10A980001343435010BD10B58900435807242402D7
:10A990005207A343520D1343435010BD10B5890015
:10A9A0004358072424025207A343520D1343435034
:10A9B00010BD10B589004358072424025207A34351
:10A9C000520D1343435010BDFEB5074616460D46C3
:10A9D000EFF31080C407E40F72B60B4639460948FE
:10A9E000FFF7F0F8002809D10121019000910290B1
:10A9F00033462A4639460348FFF76EF9002C00D14A
:10AA000062B6FEBDE40800200348006880F31088A9
:10AA1000BFF36F8F70470000C4ECFF1FEFF310808F
:10AA200072B602490860BFF36F8F7047C4ECFF1F16
:10AA300010B504460878002806D148780128A07887
:10AA40001AD020221043A07060780423C008C000F0
:10AA500018436070A078C2080878D2001043A07034
:10AA600008480169194301616078074880476078A8
:10AA7000000704D5054810BDDF221040E3E70020A1
:10AA800010BD000000ED00E0C9ECFF1F3C0F00000E
:10AA900010B5044640780221C008C0000843607029
:10AAA0000748016904221143016160780548804725
:10AAB0006078000701D5044810BD002010BD0000DB
:10AAC00000ED00E0C9ECFF1F3C0F0000F0B583066D
:10AAD0009B0E00D14023224C000640261F4D646887
:10AAE00000281BDB37E00021082012E0AE601C4C80
:10AAF000646827467F1EFDD12F696E60BF06FF0F79
:10AB0000641EFDD14C08F9012143401E5B1E002844
:10AB100001D0002BEAD1C1401170521C002BE2D1B0
:10AB2000F0BD0A780827491C12E0D00702D0202087
:10AB3000686001E02020A860AE602046401EFDD184
:10AB40006E602046401EFDD152085B1E7F1E02D063
:10AB5000002BEAD1F0BD002BE3D1F0BD800000F85E
:10AB600000F0FF1F10B5054A5278002A02D000F00D
:10AB700007F810BD00F04EF910BD000000F0FF1FF7
:10AB8000F0B5A24F20228C467A604021B96000BF08
:10AB900000BF796000BF00BFC30701D07A6000E04A
:10ABA000BA60B96000BF00BF796000BF00BF430852
:10ABB000DD0701D07A6000E0BA60B96000BF00BF75
:10ABC000796000BF00BFC4188308DD0701D07A6038
:10ABD00000E0BA60B96000BF00BF796000BF00BF8D
:10ABE000E418C308DD0701D07A6000E0BA60B960FC
:10ABF00000BF00BF796000BF00BFE318DB0701D0D2
:10AC00007A6000E0BA60B96000BF00BF796000BF41
:10AC100000BFBA60B96000BF00BF796000BF00BF6D
:10AC20007A60B96000BF00BF796000BF00BF7B6978
:10AC3000202293437B61764A127E131E07D0B960AF
:10AC400000BF00BF796000BF00BF521EF7D1B960DE
:10AC500000BF00BF3A6979609206D20F00BF00BF03
:10AC6000B96000BF00BF3C697960A406E40F00BF73
:10AC700000BF64001443B96000BF00BF3A69796047
:10AC80009206D20F00BF00BF92002243012A14D0C7
:10AC9000022A70D0042A6ED0213307D0B96000BFD9
:10ACA00000BF796000BF00BF5B1EF7D1796920202B
:10ACB0000143796178601046F0BD840733D50024E4
:10ACC00025462023B96000BF00BF3E697960B60603
:10ACD000F60F00BF00BFAD196408F60734435B1ED2
:10ACE000F0D1B96000BF00BF3B6979609B06DB0F04
:10ACF00000BF00BF5D40EB0700D008226346002B79
:10AD000000D01C60424B1B7E002B07D0B96000BFF7
:10AD100000BF796000BF00BF5B1EF7D17B692024B4
:10AD200023437B6130E0002B07D0B96000BF00BF38
:10AD3000796000BF00BF5B1EF5E77B6920263343C7
:10AD40007B6163461B6800253446DE0702D020265F
:10AD50007E6001E02026BE60B96000BF00BF796060
:10AD600000BF00BFED185B08641EEED1EB0703D0F7
:10AD700020237B6002E01CE02023BB60B96000BFA1
:10AD800000BF796000BF00BF000602D52048002345
:10AD900083601F48007B002809D02023BB60B96076
:10ADA00000BF00BF796000BF00BF401EF7D1202068
:10ADB00080E7174C657E002D0AD0840708D5212432
:10ADC000B96000BF00BF796000BF00BF641EF7D14B
:10ADD000002B07D0B96000BF00BF796000BF00BF83
:10ADE0005B1EF5E77C6920231C437C61002D0BD0A2
:10ADF000800709D4BB602120B96000BF00BF796023
:10AE000000BF00BF401EF7D17B6054E7800000F810
:10AE100000F0FF1FF3B50023C34E202272604024D0
:10AE2000B460C24F79680D466D1EFDD174600D4649
:10AE30006D1EFDD1C50701D0726000E0B260B46044
:10AE40000D466D1EFDD174600D466D1EFDD11D18A1
:10AE50004308DF0701D0726000E0B260B4600F46C3
:10AE60007F1EFDD174600F467F1EFDD1ED18830853
:10AE7000DF0701D0726000E0B260B4600F467F1E51
:10AE8000FDD174600F467F1EFDD1ED18C308DF07AA
:10AE900001D0726000E0B260B4600F467F1EFDD149
:10AEA00074600F467F1EFDD1EB18DB0701D0726086
:10AEB00000E0B260B4609D4D0B465B1EFDD1746036
:10AEC0000B465B1EFDD1B260B4600B465B1EFDD12C
:10AED00074600B465B1EFDD17260B4600B465B1E56
:10AEE000FDD174600B465B1EFDD173692022934334
:10AEF00073612B7E1D1E09D0B4600A46521EFDD11F
:10AF000074600A46521EFDD15B1EF5D1B4600A463C
:10AF1000521EFDD1326974609206D20F0B465B1E41
:10AF2000FDD1B4600B465B1EFDD1336974609B0696
:10AF3000DB0F0F467F1EFDD15B001343B4600A4652
:10AF4000521EFDD132699206D70F402272600A4626
:10AF5000521EFDD1BA001A43012A17D0022A70D01E
:10AF6000042A6ED021350AD04023B3600846401E23
:10AF7000FDD173600846401EFDD16D1EF5D171698B
:10AF800020200143716170601046FCBD83073ED5EF
:10AF90000024254620234027B7600F467F1EFDD1A1
:10AFA0003769BF06FF0FBC46402777600F467F1EFC
:10AFB000FDD167086446E4073C4365445B1EEAD163
:10AFC0004023B3600F467F1EFDD137697360BF0613
:10AFD000FF0F491EFDD17D40E90700D008220199ED
:10AFE000002900D00C6051490C7E002C0AD04D681D
:10AFF000B3602946491EFDD173602946491EFDD123
:10B00000641EF5D171692024214371613AE0002D5D
:10B010000AD04024B4600B465B1EFDD174600B4621
:10B020005B1EFDD16D1EF5D173692024234373612E
:10B03000019B00271B682546DC0703D02024746091
:10B0400002E038E02024B4604024B4600C46641E62
:10B05000FDD1402474600C46641EFDD1FF185B08CE
:10B060006D1EE9D1FB0702D02023736001E020238D
:10B07000B36040243546B4600B465B1EFDD16C6066
:10B08000491EFDD1000602D5284900208860274BC3
:10B09000197B00290DD02020B0605B684024B4608B
:10B0A0001846401EFDD174601846401EFDD1491E51
:10B0B000F5D1202067E71D4B5B7E9C46002B0DD011
:10B0C00083070BD521244027B7600B465B1EFDD1BB
:10B0D00077600B465B1EFDD1641EF5D1002D0AD0B2
:10B0E0004024B4600B465B1EFDD174600B465B1EB2
:10B0F000FDD16D1EF5D1746920231C437461644633
:10B10000002C0ED080070CD4B36021244025B560FC
:10B110000846401EFDD175600846401EFDD1641EE4
:10B12000F5D1736030E70000800000F800F0FF1FE9
:10B13000F0B50023104C1A460E4E4027656815E006
:10B14000002A02D10B780822491CDC0702D02024F7
:10B15000746001E02024B460B7602C46641EFDD109
:10B1600077602C46641EFDD15B08521E401EE7D25C
:10B17000F0BD0000800000F800F0FF1F1548817846
:10B18000090703D5817808221143817012480021F4
:10B190000160012210481204C03842600F48026862
:10B1A00003239B049A4302600D4842680D4B1A40EA
:10B1B00003231B06D21842600B48017280220276DC
:10B1C000017001224270094A117081790907890FC3
:10B1D000FBD1704700D0074000810440007004405C
:10B1E00000800440FFFFFBC00040064000500640C6
:10B1F000BFF34F8F04490348C860BFF34F8F00BFB0
:10B20000FDE700000400FA0500ED00E0F8B52E4E61
:10B21000002435780095280741D5317C0A090807B4
:10B22000C00F4B07DB0F154605431AD195004000B0
:10B230002818C018254BC0001D5CAD062D0F012D30
:10B240000FD1C5186F88002F0BD1214FBA5C6A80CF
:10B250001A5C520601D5882200E0C8221A54012047
:10B260000143EFF31080C507ED0F72B6194A184F6E
:10B27000143FB86811541921401CFDF7F8F9B96062
:10B28000002D00D162B608203070002C02D1307D34
:10B29000800601D5012400E000243578BBE7009941
:10B2A0000B482943083805F0E2FD002C01D00120AD
:10B2B00000E00020064914390A7810430870357000
:10B2C00002F0B8FBF8BD000080200740001A002003
:10B2D000BCEEFF1FC02000201CB5002001906A4674
:10B2E00001A90948FEF738FB002808D0074880214B
:10B2F0000078009A0843019902F0C4FB1CBD044980
:10B30000012008701CBD00008C260020885B010015
:10B3100034EFFF1F38B5174D174C28886188421A43
:10B3200016486168007801F041FF616880B2091831
:10B330006160618809188AB2628029888A4206D2CF
:10B340000F49104B09784900595A814211D96B466F
:10B350000D490E48FEF7D2FA0025002806D02078C5
:10B36000002803D00020FFF7B7FF2570658006484E
:10B37000606038BD8E5B010034EFFF1F895B010008
:10B38000DFEFFF1F8A5B0100421800208C2600209F
:10B3900010B50446400702D50020FFF7BBFF200789
:10B3A00002D50020FFF798FF10BD00207047000075
:10B3B000034801694069081A02490988081A704758
:10B3C0003CEFFF1F7E5B010070B50B4D0C46034642
:10B3D000696B286B88420BD9401A844200DD044611
:10B3E00022461846FDF786F8686B0019686300E08E
:10B3F0000024204670BD00003CEFFF1F0020704776
:10B40000F8B5184F0C46064679693869401A16494E
:10B410000988081A002801DC0020F8BD844200DDFC
:10B420000446FA69B869002590420DD30F4A031902
:10B4300051188B4208D30D1A2A463146FDF75AF8A7
:10B4400076190A48641BB861002C06D022463146A2
:10B45000FDF750F8B8690019B86139696019091821
:10B460003961F8BD3CEFFF1F7E5B0100C217002071
:10B4700010B5054C6068002805D10120606000F01F
:10B4800005F80020606010BD3CEFFF1FF8B5234CAD
:10B49000A06800283DD0616920690026421AE06852
:10B4A00011460143002935D021461D4FC9691D4D64
:10B4B000002A10D0A069814205D338888B1828183B
:10B4C000834200D3421A1848007843001748C05AF4
:10B4D000904200DA02461648E6600078802318435E
:10B4E00002F0D0FAE1690918E1616269121862613B
:10B4F0003B88EB188B4200D1E561216991420BD169
:10B50000094909784A000949895A814204D1012030
:10B51000E060F8BDA660F8BDE660F8BD3CEFFF1F37
:10B520007E5B0100C2170020DFEFFF1F825B01007E
:10B530007C5B010010B50C4C206A002803D0A06A87
:10B54000401CA06210BD01202062606200F00EF875
:10B55000002060622062616B206B8842F2D0401A4A
:10B56000FFF74CFF10BD00003CEFFF1F10B5134C60
:10B570001348216B154B0A1A12480088821A124888
:10B5800000784000185A82420EDB1148007801F022
:10B590000DFE216B08182063A06A00280CD0616A98
:10B5A000002909D1401E06E00120E062606A0028FF
:10B5B00002D0A06A401CA06210BD00003CEFFF1F3B
:10B5C00002180020805B0100DFEFFF1F825B01009B
:10B5D0007D5B010010B50446400702D52046FFF709
:10B5E000A9FF200702D52046FFF742FF10BD704794
:10B5F000002070470020704710B50C4800F042F85A
:10B60000002812D00948FDF721F80949020A0870FC
:10B610004A70020C8A70000EC870044802790A71E0
:10B6200042794A7180798871012010BD74EFFF1F43
:10B63000C016002010B51048002444608460C46027
:10B6400004610E4981614461046244628462C4629F
:10B65000C1610B4901634163014604804B203831CD
:10B66000C001FCF7C1FE0448082138300471447160
:10B67000817100F019F810BD3CEFFF1FC2170020C8
:10B680000218002070B50446064D21462868FCF7D4
:10B69000ABFE2879A07168796071A87920710120CA
:10B6A00070BD000050E9FF1F10B508F0FDF804F070
:10B6B0004FFE012010BD10B508F042F9012010BD69
:10B6C0000120704710B50446FCF7C0FF064908602A
:10B6D000A079087160794871207988710020C8715B
:10B6E000084608F041F910BD50E9FF1F10B5114898
:10B6F000002444608460C46004610F498161446136
:10B70000046244628462C462C1610C4901634163A2
:10B710000480FFF7D0FF07494B203831C001FCF708
:10B7200063FE044808213830047144718171FFF7C9
:10B73000C9FF10BD3CEFFF1FC217002002180020F8
:10B7400010B5FFF7D3FF10BD70B51B480078002877
:10B7500031D01A4C0025206A012600280AD1616BDD
:10B76000206B884206D11649884203D02163E562E6
:10B7700025626163A06A002810D0206A00280DD1DC
:10B78000E06A00280AD12662FFF7F0FE2562616BAD
:10B79000206B884202D0401AFFF730FEA168606833
:10B7A000084308D161692069884204D06660A660B8
:10B7B000FFF76CFE656070BDDDEFFF1F3CEFFF1F04
:10B7C0000218002070B505460F480068C169884717
:10B7D000002816D10D4C002D06D004F053FF206038
:10B7E000002007F06FFE0CE004F04CFF2168401AC7
:10B7F000FF212D31884201D3012000E0002004F018
:10B80000BBFD012070BD0000EC5701004CE9FF1F9B
:10B81000002070470020704710B502490880FFF7EC
:10B820004FFF10BD3CEFFF1F10B50B48FCF70EFF9C
:10B83000094C0002E178000A090608430749FCF7B1
:10B84000D3FD06482179017161794171A179817136
:10B85000FFF738FF10BD0000C016002074EFFF1F77
:10B8600001078A0E044910B551180A78FD231A40C1
:10B870000A7002F079F810BDC020074010B50146EB
:10B880004A790B79807811021943020601D4024AE1
:10B89000115402F069F810BDBCEEFF1F704710B5DF
:10B8A00000F016FB10BD0000094A0949803200284B
:10B8B000087D04D0012318430875102005E04008D6
:10B8C00040000875107AEF210840107270470000A0
:10B8D0008020074010B50C4C0C48A28800788242AA
:10B8E00000D90246002A03D1074900201439087103
:10B8F0008020216802F0C6F8216809182160A1881B
:10B90000081AA08010BD0000F0EFFF1F635B01006C
:10B9100010B5064C0020A288216801F047FC216880
:10B9200009182160A188081AA08010BDF0EFFF1F40
:10B93000704700000749020605D50007800E401831
:10B940000178FA2203E0800040180178F6221140C5
:10B9500001707047C02007400749020605D500075F
:10B96000800E40180178052203E08000401801781D
:10B970000922114301707047C0200740F8B5044602
:10B980006F4F704D704E800720D502F049F838781F
:10B99000C009FFF7CDFFF888A88038784106890FE5
:10B9A00004D001295CD0022975D169E079780B00B7
:10B9B00002F094F80C070D7113711928712D333BA7
:10B9C0004A7101F095FD1FE0FFF784FF70E0002051
:10B9D00004E002F039F85D483DE0012001F0CAFDC5
:10B9E000002858D0F5E7C006C00E54D1B8788021A1
:10B9F000084330704006400E012101F0FBFF02F0C9
:10BA000023F855E001F05EFC002844D0DCE7C006D6
:10BA1000C00E40D14C48401C14E001F0FFFD00284E
:10BA200039D002F011F84A4815E0C006C00E0128CE
:10BA300031D1707800282ED03879B17888422AD256
:10BA4000444940182860BFE701F0ACFE002822D02E
:10BA500001F0FAFF40480068002829D0804727E01D
:10BA6000C006C00E17D0012815D100F017F9002824
:10BA70001ED100F06FF900281AD100F0BBF808E0E1
:10BA8000C006C00E07D100F09FF9002810D100F0C9
:10BA9000E7F900280CD13878C00904D1F8880028CB
:10BAA00001D0002000E0802001F0AEFF0020A8803F
:10BAB000600704D53878C0090DD001F0CDFF20070C
:10BAC00033D53878C00927D0A888317908432CD0DD
:10BAD000FFF700FF29E0A8880028F0D0FFF718FF43
:10BAE000A8880028EBD138784106890F0ED00129AB
:10BAF0000CD1C006C00E09D0012807D100F05CF8B7
:10BB00000028DCD100F02AF80028D8D1802001F0EC
:10BB10007BFF0020A880D2E73078010605D54006DB
:10BB2000400E3070002101F065FF600602D5002054
:10BB3000FFF796FE200602D58020FFF791FEF8BDA4
:10BB4000F8EFFF1FF0EFFF1FDCEFFF1FEC5B0100C2
:10BB5000E45B010097EEFF1FE85B010010B513499D
:10BB6000134A08791278904203D0124A1278904210
:10BB700019D14878002804D0022805D0202812D1F5
:10BB80000EE0FFF745FE05E0C8788978000208431B
:10BB9000FFF740FE002806D001F056FF012010BD3F
:10BBA000FFF742FEF6E7002010BD0000F8EFFF1F90
:10BBB000FCECFF1FFDECFF1F10B50B490B4A087989
:10BBC0001278904203D00A4A127890420AD14878FB
:10BBD000092807D100F082FB002803D001F034FFD0
:10BBE000012010BD002010BDF8EFFF1F00EDFF1F6A
:10BBF00002EDFF1F70B52449244A0879127890425B
:10BC000003D0234A127890423BD11F484978C2782A
:10BC1000837810021F4C204D1843042920D008DCE3
:10BC200000290FD001290FD002290BD0032928D1D8
:10BC300011E0202906D0212919D022291AD0232940
:10BC40001FD11AE02C6010E0FFF7D4FC05E02C6057
:10BC5000FFF740FE09E0FFF7CBFC0028F7D110E02A
:10BC6000FFF7A3FB0BE001F0EFFE012070BDFFF733
:10BC7000C3FCF2E7FFF7D0FD01E0FFF7A3FD0028CA
:10BC8000F1D1002070BD0000F8EFFF1FFCECFF1F9A
:10BC9000FDECFF1FC0160020F0EFFF1FF8B5254E8A
:10BCA000254930790978884203D0244909788842A7
:10BCB0003DD17078224C234D234F030001F00EFF3D
:10BCC0000C3707232D37373737371826333700F02F
:10BCD00023FA00282BD0F078012802D0032803D0C3
:10BCE00003E01A48206000E02560FFF7F3FD12E052
:10BCF000F078022802D0032803D00CE0144820601A
:10BD000009E0256007E000F0EFF908E000F0BEFA76
:10BD10000BE001F099FE0120F8BD00F0F3F90028D6
:10BD200005D02760E1E700F0CFFA0028F1D100202C
:10BD3000F8BD0000F8EFFF1F00EDFF1F02EDFF1F31
:10BD4000F0EFFF1FA4EEFF1FC01600200117002018
:10BD50004217002010B51848184A0179127891420C
:10BD600027D142780146C8788B7800021843CB79F6
:10BD70008C7919022143FE2A0CD0FF2A19D1002800
:10BD800017D1002915D101F051F9002811D001F087
:10BD90005BFE0CE000280CD101290AD100F03AFE2C
:10BDA000002806D0074906480860FFF793FD0120E8
:10BDB00010BD002010BD0000F8EFFF1F01EDFF1FB8
:10BDC000C0160020F0EFFF1F70B51F4D1F496878A7
:10BDD00009780026884235D168792979000208431C
:10BDE00002282FD1AA781A4C002A2BD0002004E078
:10BDF0002178002900D00C19401C411C8A42F7D838
:10BE00002078002819D004F0BDF80146E01CFCF7AA
:10BE1000D6FA104A01261460E979AB792078090234
:10BE2000194381420BD90C4990800978491E084278
:10BE300006D10A490120087002E0002602E0918044
:10BE4000FFF748FD304670BDF8EFFF1F865B01002D
:10BE500058EEFF1FF0EFFF1F635B0100E0EFFF1FD5
:10BE600010B5154A1549507809780024884220D128
:10BE7000507911790002084307281AD1114B104854
:10BE80001860417A007A09020143D0799279000260
:10BE900001241043884209D90B4899800078401E3C
:10BEA000014204D109490120087000E09880FFF7A1
:10BEB00011FD204610BD0000F8EFFF1F875B010059
:10BEC00008EDFF1FF0EFFF1F635B0100E0EFFF1FB6
:10BED000074800214170C16001614161418081805A
:10BEE0008161C161C18001810162418170470000AF
:10BEF0007CEFFF1FF8B54A4EB0887188494F002586
:10BF00007C1C884218D3B069002815D17561B580B2
:10BF1000012339787A1C184608F024F9708070885B
:10BF2000002809D0404877610078012801D8746161
:10BF300002E07088401C7080708800283AD1F06858
:10BF4000002801D0F56035E03069002832D036494C
:10BF5000097801290ED83D70B58002237A1C002192
:10BF6000012008F0FFF870807088002800D074610C
:10BF700035611FE03C780127202C00D3002439468E
:10BF8000A14001421AD0601CC1B2264A022311709E
:10BF9000B5800120521C08F0E5F8708070880028F8
:10BFA00004D0204870617088401C70803069A740C0
:10BFB000B84330617088002806D102E0641CE4B206
:10BFC000DAE7B069002828D07088B188174F401A86
:10BFD00084B2387841001648405AA04200D2044644
:10BFE00014480078002805D0802108432246716952
:10BFF00001F048FD7069104900197061B08800199E
:10C0000080B2B0800988884208D238784100084858
:10C01000405AA04202D10120B061F8BDB561F8BD1F
:10C020007CEFFF1F001700206E5B0100DFEFFF1F9A
:10C030006A5B0100645B0100705B0100F8B51C4C99
:10C04000002620891B4D1C4F002803D1E56138884C
:10C05000E0802681E0882189421A1848E169007849
:10C0600001F0A4F8E16980B20918E1612189091899
:10C070008BB22381002809D039888B4206D210491F
:10C08000104A09784900515A814210D90E48017866
:10C0900001200129009003D80021064A022003E074
:10C0A00029786A1C02205B1E08F0F4F82681F8BD8E
:10C0B0007CEFFF1F41170020725B0100655B0100F0
:10C0C000DFEFFF1F6A5B01006F5B010010B50446E4
:10C0D000000702D52046FFF70DFF600702D5204676
:10C0E000FFF7ACFF10BD0000034804498078085CEE
:10C0F0000349087001207047F8EFFF1FA2EEFF1FF1
:10C10000C016002010B508F02BF802490870012075
:10C1100010BD0000C016002010B50B490022C878E1
:10C12000012804D0022804D0032806D103E0074ADE
:10C1300002E0002010BD064A521C8978002308F056
:10C1400011F8012010BD0000F8EFFF1F00170020BC
:10C15000A3EEFF1FFEB54448007800287ED0434E72
:10C16000002031788446481C307041480423007810
:10C170004200821893405B1E0192994203DB00212A
:10C18000317001218C463B4A00251188FF2901D2DC
:10C19000491C118041003848405A364900900988AE
:10C1A000884200D101253549002009788E4648E0B3
:10C1B00000216246002A0DD0314A135CFF2B01D2C8
:10C1C0005B1C13542F4B1B5C002B03D0125C9A4258
:10C1D00000D301212B4A0223145C019A934022468A
:10C1E0009A40009B9A4203DA002C01D0012200E021
:10C1F0000022002D06D0002A04D001233769834095
:10C200003B433361204B1B5C9C420CD01C4C245C98
:10C210009C4206D30124376984403C4334610024A6
:10C220003470184C2354002909D0002A04D101216C
:10C230003269814011433161114A00211154401C7F
:10C24000C0B27045B4D3002D02D00A490020088046
:10C250003069002806D07088002800E002E001D193
:10C26000FFF748FEFEBD0000DDEFFF1F7CEFFF1F64
:10C27000DFEFFF1F9EEEFF1F665B01006E5B01009C
:10C28000A0EEFF1FA1EEFF1FA2EEFF1F0A480A4902
:10C290008078C978002802D0084A815409E0094B07
:10C2A0000020074A1B7802E01154401CC0B298429B
:10C2B000FAD3012070470000F8EFFF1FA1EEFF1F27
:10C2C000A2EEFF1F6E5B010010B50348807807F0F7
:10C2D000DFFF012010BD0000F8EFFF1F38B50D494A
:10C2E0000022C878012804D0022804D0032806D1EF
:10C2F00003E0002038BD084A00E0084A521C002331
:10C300000093CB798C791B022343897807F0C2FF15
:10C31000012038BDF8EFFF1F41170020A3EEFF1FDB
:10C32000F8B5EFF31080C007C00F72B6564D00216C
:10C33000EC68E9602A7800922970002800D162B682
:10C34000E00708D001F0C6FA08F050F84F4800683E
:10C35000002800D08047E00606D501F089FB4C4854
:10C360000068002800D08047A00606D501F034FB05
:10C3700048480068002800D08047600704D5464838
:10C380000068002800D08047022C09D1434801688A
:10C39000002902D04248007A88474148FF210172B3
:10C3A000200767D53F4FEFF31080C207D20F72B658
:10C3B000A9686868884257D1012156E0EFF31081DF
:10C3C000CE07F60F72B638490C5C1921401CFCF7F9
:10C3D0004EF96960002E00D162B620462207D30FC5
:10C3E00021066207090FD20F002908D15C00A418AA
:10C3F000E4003C5D0026A406240F0D2C0AD08C001E
:10C400005B00E3189A18D600BA5D9206120F012A53
:10C4100013D01DE02869022188432861387E400638
:10C42000400E3876387C4006400E38741F486E70D7
:10C4300001680029B7D0022014E0002902D1C0070A
:10C44000C00F687019480159002901D0042088479D
:10C45000B85D8006000F0928A5D1144801590029AC
:10C46000A1D0082088479EE70021002A00D162B6AB
:10C470000029A3D00098002804D00949087DDF22B4
:10C4800010400875F8BD0000A8EEFF1F905B01008A
:10C49000945B0100985B01009C5B0100A05B0100C4
:10C4A00080200740001A0020C0200020A45B01006B
:10C4B00010B519484024047003F01CFA182001F04C
:10C4C0004FFB1648017B802211430173017B090653
:10C4D000FCD41349114B090A803B197710490F4AC4
:10C4E000090C603A11740E49090E1175FF2119707B
:10C4F0000C490968002900D004210B4A1268002A5F
:10C5000000D0022211431922114319710470017BDA
:10C510002143017310BD0000BCEEFF1F0021074046
:10C52000001A00209C5B0100A05B010070B500F0C8
:10C5300015F900282AD01648022404704470154EBC
:10C5400003203463307014480546FCF77FF8022856
:10C5500008D9114920461F39FBF746FF29462046D6
:10C56000FBF742FF0D488021007822460843084926
:10C5700001F088FA2846FCF769F8316B401A294621
:10C58000FBF732FF044901200839087370BD000031
:10C5900082170020A4EFFF1F6B290020745B0100AD
:10C5A00010B510490878022808D003280FD00428B5
:10C5B00010D0052801D10020087010BD0A48C07BAA
:10C5C000282801D0A828F8D100F068FA10BD00F0A2
:10C5D0006FFD10BD054880210078084300F082FD02
:10C5E000F5E70000A4EFFF1F44290020745B010061
:10C5F00010B51D4A117800290FD0012910D01B4811
:10C60000052900781BD0072927D000F06BFD1849B9
:10C610000220087300F04CFD10BD00F00BF910BDB6
:10C6200013481F38C07B2A2803D02F2804D0AA28FB
:10C63000F5D100F011FB10BD00F09EFA10BD0121F4
:10C6400081400C480068014201D0012000E0002038
:10C65000094A0AA101F0D2FA10BD00201070106B37
:10C660001F28DAD010BD0000A4EFFF1F755B01008A
:10C6700063290020E8EFFF1F3F0400002E5C736F6A
:10C68000757263655C7573625C6D73635C75736210
:10C69000645F6D73632E630010B5144C6068E060D6
:10C6A000002801D0012010BD1148FBF7CFFF002862
:10C6B00014D00F480838007B000604D50D488021AF
:10C6C0000078084308E00A481F30FBF7BFFF216BE2
:10C6D000884203D00848007800F004FD0449012096
:10C6E0001731087300F0E4FC002010BDA4EFFF1F19
:10C6F0004C290020745B0100755B010010B51248E5
:10C7000001798F200140080605D50807000F012296
:10C710001204824001E001228A400C480478802003
:10C7200004438C420ED10A48006810420AD00948DE
:10C73000FBF78CFF0849884204D10D2205492046A9
:10C7400001F0A0F910BD0000F8EFFF1F745B0100BD
:10C75000E8EFFF1F632900205553425370B50C4882
:10C76000FBF774FF0A4C02251734002808D0204636
:10C770001F38007B000608D40648007800F0B2FCA1
:10C78000257300F095FC002070BD012070BD0000F5
:10C790004C290020755B010070B51148FBF756FF6E
:10C7A000104C216B884202D82063032000E0042053
:10C7B00020700D4880210078226B08430B4901F05E
:10C7C00061F907481F300546FBF740FF216B401A0F
:10C7D0002946FBF709FE024900201731087370BD96
:10C7E0004C290020A4EFFF1F745B0100821700207A
:10C7F00010B50648064902880648007800F0D6FCC5
:10C8000005490863FFF7F4FE10BD00007A5B0100E4
:10C8100082170020755B0100A4EFFF1F10B50446CE
:10C82000400702D50020FFF7E3FF200701D5FFF7FF
:10C83000B7FE10BDF8B5704E316B1F2901D20A4604
:10C8400000E01F2200206D4D6D4B02E01C5C2C545B
:10C85000401C9042FAD36B48802200780127104395
:10C8600000901F2970D16548FBF7F0FE66498842A9
:10C870006AD1281DFBF7EAFE604C1F34211DFBF72F
:10C88000B3FD20461738FBF7E1FE21460831FBF7E0
:10C89000ABFD687B002804D1A87B002801D01028BC
:10C8A00001D9277374E0E87B2A283BD020DC1A28C2
:10C8B00047D00EDC0428F4D006DC00283BD0032847
:10C8C000EFD100F071FBF8BD1228EAD100F0AAF810
:10C8D000F8BD23283CD006DC1B282FD01E28E0D131
:10C8E00000F0CCF8F8BD252835D02828D9D13BE078
:10C8F0009E2836D00EDC5528D3D004DC2F2842D019
:10C900003528CED103E05A281FD09128C9D100F094
:10C9100019FCF8BDA12821D0A3284ED0A82823D0E7
:10C92000AA28BED100F080FA0028F2D0287B0006A9
:10C930003BD43770F8BD00F00FFCF8BD00F0E8FB09
:10C94000F8BD00F043FAF8BD3BE000F00DFAFAE75D
:10C9500000F0EEFAF7E700F0C5FAF4E7FFF7E6FDBE
:10C96000F1E700F079FBEEE700F05EFA0028EAD08C
:10C97000287B000604D50220307000F08FF8E2E733
:10C980002248007815E0287C800704D4002020731A
:10C9900000F08EFBD7E700F047FA0028D3D0287BC1
:10C9A000000602D437703762CDE716488021007840
:10C9B000084300F097FB0220E9E7009800F092FBA3
:10C9C0006FE7104C009800F08DFB2078104C0107A9
:10C9D000090F01200004884021680C4D08432060A5
:10C9E000287800F07FFB28788740206807430620DE
:10C9F00027603070A7E70000A4EFFF1F4429002044
:10CA000082170020745B010055534243755B01009F
:10CA1000ECEFFF1F02490020087001207047000062
:10CA2000C016002010B5FFF799FE00281FD0104B4C
:10CA3000002018708021597002219970D97020242B
:10CA40001C7158719871D8710A48016808200A78D9
:10CA5000002A02D01A54491C00E01C54401CC0B2E9
:10CA60002428F4D3044924200863FFF795FE10BD61
:10CA70008217002054EEFF1FA4EFFF1F10B50548DA
:10CA8000C07CC107044800D00121017300F010FBF5
:10CA900010BD00004429002063290020F8B5314D65
:10CAA000314FA969686A002688420AD33878802104
:10CAB0000024084300F016FB2C48067300F0F8FA37
:10CAC00008E02B48007841002A48445AE86A84422A
:10CAD00000D30446FFF7E0FD002800D10024A86A37
:10CAE00000282DD0002C0ED0A96AE86980224118B8
:10CAF00038781043224600F0C5FFA86A0019A862E2
:10CB0000E86A001BE86229696869AA6A41439142A0
:10CB100003D1AE62696A0818686214480830074693
:10CB2000FBF794FD001B3946FBF75EFC002C06D09A
:10CB3000E86A002803D1032028700C480673F8BD6A
:10CB4000002CE0D02969E86A4018401EFBF78FFDF1
:10CB500069690246884200D90A46E969686A07F0AD
:10CB600005FCC1E7A4EFFF1F745B010063290020EF
:10CB7000DFEFFF1F765B0100F8B5334C0025A1699C
:10CB8000606A884208D331482563007800F0AAFA29
:10CB90002F48057300F08CFAFFF77EFD002806D0C1
:10CBA000206B002824D0A06A002802D010E0256362
:10CBB0001EE02169E06A4018401EFBF758FD6169DC
:10CBC0000246884200D90A46E169606A07F0CEFB56
:10CBD00000202049A76A266B08E0E3693A189A5CAE
:10CBE0000B5C9A4201D0256202E0401CB042F4D3B3
:10CBF000266BA06A8119A162E06A871BE76222693D
:10CC0000606942438A4203D1A562616A0818606282
:10CC10000F4808300546FBF719FD801B2946FBF736
:10CC2000E3FB002E0CD0002F02D02078052807D17E
:10CC3000206A002805D000200549087300F038FA62
:10CC4000F8BD0120F8E70000A4EFFF1F755B0100AD
:10CC50006329002082170020F8B5384D384FA969A4
:10CC6000686A0026884207D336482E63007800F0B1
:10CC700039FA3E7300F01CFAFFF70EFD002800D1D0
:10CC80002E63296BA86A40182969884205D9FE22BB
:10CC90002DA1002000F0B2FFF8BD0020314905E0D1
:10CCA000AB6A0A5C1B18EC69401CE2542A6B904288
:10CCB000F6D3A86A8018A862E96A891AE962002A8C
:10CCC00025D0002914D1002812D029694018401E0F
:10CCD000FBF7CDFC69690446884200D90C46224620
:10CCE000E969686A07F05AFBAE62686A00190DE0EC
:10CCF00069692B690A465943814208D1E969686A22
:10CD000007F04CFBAE626969686A401868620C48BB
:10CD100008300090FBF79AFC2C6B0099001BFBF786
:10CD200063FB002CB8D0E86A002802D028780528D8
:10CD3000B2D13E7300F0BCF9F8BD0000A4EFFF1FB4
:10CD400063290020755B01002E5C736F757263654B
:10CD50005C7573625C6D73635C757362645F6D7345
:10CD6000632E63008217002070B5FFF7F7FC0028E0
:10CD700024D0FFF791FC002820D011480021017039
:10CD8000062242700F4B81701A7A0824D201C270B9
:10CD9000017141718171C1710B481C630546FBF73C
:10CDA00055FC082808D9084920461F39FBF71CFB09
:10CDB00029462046FBF718FBFFF7EEFC70BD00008C
:10CDC00082170020A4EFFF1F6B29002070B5FFF72A
:10CDD000C5FC002820D0FFF75FFC00281CD00F48BE
:10CDE0000321017000210E4B41701A7A0424D201F4
:10CDF0008270C1700B481C630546FBF727FC0428B2
:10CE000008D9084920461F39FBF7EEFA2946204683
:10CE1000FBF7EAFAFFF7C0FC70BD000082170020A4
:10CE2000A4EFFF1F6B290020F8B52A48FBF70EFC82
:10CE3000284D00BA040A113D287D24020443264EE1
:10CE400000207462B062E87B2F280AD004DC282816
:10CE50000BD02A281CD104E0A82810D0AA2817D16A
:10CE600009E0FFF719FC002830D0E87DA97D000219
:10CE7000084344BA0CE0FFF70FFC002826D0154801
:10CE8000001DFBF7E3FB00BA040A287E24020443DA
:10CE9000306944430F48F4620938FBF7D7FB0D4F64
:10CEA00001260E3700280DD0A04210D0287B0006A6
:10CEB00004D50A4880210078084301E0084800783A
:10CEC00000F010F93E7300F0F3F80020F8BD0120E7
:10CED000F8BD000055290020A4EFFF1F745B01007E
:10CEE000755B010010B5FFF739FC00281AD0FFF779
:10CEF000D3FB002816D00C4A0C489169491E0B0E32
:10CF000003700B0C43700B0A8370C17011690B0E18
:10CF100003710B0C43710B0A8371C17108201063FC
:10CF2000FFF73AFC10BD0000A4EFFF1F821700209E
:10CF300070B5FFF713FC00282ED0FFF7ADFB0028DB
:10CF40002AD0164800210170417081700821144ACE
:10CF5000C17091690C240B0E03710B0C43710B0A09
:10CF60008371C1710221017211690B0C43720B0AAA
:10CF70008372C1720B4814630546FBF767FB0C28EC
:10CF800008D9084920461F39FBF72EFA29462046C2
:10CF9000FBF72AFAFFF700FC70BD000082170020A3
:10CFA000A4EFFF1F6B29002070B5FFF7D7FB002807
:10CFB0002ED01B487021017000211A4B41705A6815
:10CFC000DD681446AC4306D006248470282404731C
:10CFD0004173DA600AE0002A1BD0134A127B002A50
:10CFE0001BD005228270202202734173C17001712F
:10CFF000417181710A22C271017241728172C172E2
:10D000008173C1730174417412201863FFF7C4FB6C
:10D0100070BD022282703A22E6E781700173E4E774
:10D0200082170020A4EFFF1F6329002010B50549D7
:10D03000002008600449FBF7D7F90449072008706D
:10D04000012010BDECEFFF1F63290020A4EFFF1F9C
:10D0500010B5FFF7EBFF10BD70B5FFF77FFB0028A1
:10D060001DD00F482022027000214170C1770D4C65
:10D070000320226320700C4880210078084308496F
:10D0800000F000FD09480546FBF7E0FA216B401A65
:10D090002946FBF7A9F9054901200839087370BD35
:10D0A00082170020A4EFFF1F745B01006B29002092
:10D0B00010B508490848FBF797F90848802100781F
:10D0C0000D220843034900F0DDFC054905200870E6
:10D0D00010BD00006329002055534253745B0100CA
:10D0E000A4EFFF1F10B5044600F08EFC200605D506
:10D0F0002107090F01200004884001E00120A04021
:10D1000002490A681043086010BD0000E8EFFF1FE5
:10D1100010B50A48817C04461F34002904D0012040
:10D120002073FFF7C5FF10BDC07C0549C007C00FC5
:10D13000486007F031F90020F2E7000044290020A0
:10D14000A4EFFF1F10B5034900200873FFF7B0FFDD
:10D1500010BD00006329002010B51048FBF776FAD7
:10D160000E4C173400280FD020461F38007B0006D5
:10D1700004D50B4880210078084301E00948007875
:10D18000FFF7B0FF012004E0FFF786FA002803D084
:10D1900000202073FFF78CFF10BD00004C290020F9
:10D1A000745B0100755B010070470000F7B507462E
:10D1B00082B0002000903807860E3348F50028180A
:10D1C00001904488002F15D130484078002809D0BC
:10D1D0007008012181402D48103003F054FE0020DA
:10D1E00005B0F0BD2848405D8006000F0D2801D134
:10D1F000012000900498A04206D2FF22E73224A129
:10D20000002000F0FBFC049C1F4A0020B101C0324A
:10D21000891803E0039A0B5C1354401CA042F9D315
:10D220001A481430C15D0198174F4180174876089D
:10D230000069795DF040C0074906C00FC90F8842F8
:10D240000FD10398C179827908020099104300290F
:10D2500001D000280CD001210C48B140103003F05F
:10D2600012FE0A480069F040C00708D0C82007E055
:10D2700006480121C943103003F0EDFDF1E7882095
:10D2800078552046ACE70000001A0020A8EEFF1FEA
:10D290002E5C736F757263655C6869635F68616C4F
:10D2A0005C667265657363616C655C757362645F0F
:10D2B0006B696E657469732E6300000010B5FFF72B
:10D2C0001DFA10BDFEB5574A574D1078574CC00691
:10D2D000C00E02D001287CD18CE05549D0780B7863
:10D2E0005149544E544FC978062810D006DC012805
:10D2F00009D0022815D003286BD14FE0072832D07F
:10D300000F2866D166E04D482060122070E0002BA7
:10D310005FD0002903D04A4820600A2068E04948CD
:10D32000FAE7002B01D1012979D00220002904D08D
:10D3300000977870002092780DE000967070F9E701
:10D3400000990B78002B05D0CB788E781B023343E5
:10D3500059180091401C8242F2D1009801780029AE
:10D360005DD0206040E0002B59D00720002904D078
:10D3700000967070002092780DE000977870F9E7C1
:10D3800000990B78002B05D0CB788E781B023343A5
:10D3900059180091401C8242F2D1DEE72A480090E1
:10D3A0009078032801D0002009E002F049FE0DE04A
:10D3B00000990B78002B01D059180091401C9178EE
:10D3C0008142F5D100980178002928D020600078AA
:10D3D0000EE024E01D48007800281FD01C48009073
:10D3E0002060017800291AD0C178827808021043A1
:10D3F000019005E001A9684600F02EF800280DD044
:10D40000A1880198814208D980B21249A080097888
:10D41000491E084201D1012028710120FEBD0020D3
:10D42000FEBD0000F8EFFF1FDCEFFF1FF0EFFF1F56
:10D43000615B0100F8150020FFECFF1F145C010088
:10D44000275C0100265C0100625C0100625B010058
:10D45000285C0100635B010070B51A4A1A4CD3784E
:10D460001A4A25781478174A194E1279212B02D0BE
:10D47000222B24D118E0AA4201D0A2421FD1154A82
:10D480001378154A002B127801D1012A17D0002AEF
:10D4900008D0124A02601046114A12888018306083
:10D4A000092009E00F4AF5E7AA4201D0A24206D1BD
:10D4B0000D4830600D4800880860012070BD0020D4
:10D4C00070BD0000F8EFFF1F00EDFF1F02EDFF1F12
:10D4D000F0EFFF1F615B0100DFEFFF1FFFECFF1F9D
:10D4E00006EDFF1FF8150020F05B0100125C010043
:10D4F00070B51D481D4B0078C106C90E0AD01D46E7
:10D500001948143D1A4C6A780079012906D002297D
:10D5100028D10AE015480E38186021E0002A21D0F1
:10D52000A97888421ED2002016E08F21084001060B
:10D5300005D50607360F01210904B14001E001219C
:10D540008140002A01D100070CD1A868084209D007
:10D55000E868084000D001202070000A60701C605C
:10D56000012070BD002070BDF8EFFF1FF0EFFF1F1E
:10D57000C016002070B5274B024618781946C00621
:10D580004988254EC00E04D001282BD0022829D16D
:10D5900011E0012926D10224002A05D0012000F043
:10D5A0006FFAF088204304E0002000F069FAF08868
:10D5B000A043F0802CE01C798F200440200605D584
:10D5C0002007000F01252D04854001E00125A5401D
:10D5D0007078002806D0200704D0B068284201D017
:10D5E000002901D0002070BD002A05D0204600F09F
:10D5F0000BFAF06828430AE03069284208D1204637
:10D60000FEF72EF92046FFF759FEF068A843F060B8
:10D61000012070BDF8EFFF1FDCEFFF1FF8B55A487F
:10D6200000260178C906C90E7ED1574F80781C3F6D
:10D6300000287AD0554801783846C078002901D1B1
:10D64000012871D0002801D0514C70E0514C6EE09F
:10D650006078022805D0042847D0052847D007283D
:10D6600060D1494861798078814239D178702079D8
:10D67000B8704A490020484A0B8802E00021115442
:10D68000401C9842FAD301250120B968A8400842FD
:10D6900002D02846FEF74EF901200004B968A840E0
:10D6A000084204D0284680210843FEF743F96D1C48
:10D6B000102DE9D33A48B8600020F86038613D4643
:10D6C0000120FEF7EBF8E079400604D5E988012057
:10D6D0000143E98026E0E88840084000E88021E036
:10D6E000E078A178000208431DE0E6781AE0002EF9
:10D6F00018D1A5788F200540280605D52907090FE0
:10D7000001200004884001E00120A840B9680143DD
:10D710002046B960FEF7B2F82846FEF71DF9284604
:10D7200000F022F9207801E02AE004E004192078D2
:10D7300000288DD11FE0002501247D708026012066
:10D74000B968A040084202D02046FEF7F3F8012055
:10D750000004B968A040084203D020463043FEF7D9
:10D76000E9F8641C102CEAD3FD600D483D61B860F7
:10D770000020FEF793F8044879788078884201D039
:10D780000020F8BD0120F8BDF8EFFF1F615B01002C
:10D79000FFECFF1FF815002097EEFF1F04EDFF1FA1
:10D7A00001000100F0B585B00027454803970197B7
:10D7B00000783E46C006C00E01287ED140491C3983
:10D7C0004878002876D0002002903E48027808462B
:10D7D000C078002A01D101286FD0002801D03A4C2E
:10D7E00064E03A4C62E06078022805D004280ED04C
:10D7F00005281ED0072857D1314861791C38407858
:10D80000814251D0E078A178000208434DE0A7782A
:10D81000E678002001902A480179B94244D1807805
:10D82000B04241D1012002902948C15D0391C65503
:10D830003AE023490879B84236D1A0788F221040C7
:10D8400000900006009804D50007000F01252D0464
:10D8500000E0012585408878B04214D118481C3872
:10D86000816829438160C168A943C1602046FEF7F1
:10D8700005F80098FEF770F8009800F075F8019828
:10D880002843019010E0039886420DD10198284268
:10D890000AD10B481C388168A9438160C168A9433B
:10D8A000C1600098FEF746F8207804192078002817
:10D8B00099D1029805B0F0BDFFE70020FAE700001B
:10D8C000F8EFFF1F615B0100FFECFF1FF815002060
:10D8D00097EEFF1F70B501201C4900060860BFF3DA
:10D8E0004F8FBFF36F8F0120194D0024810049191C
:10D8F0000C70401C1028F9D319211648FAF7A4FE21
:10D900001548164944608460C46004704470402225
:10D910004A800A46C0324A60C8220A700C72104A15
:10D92000CC614A610D2129700E49016108484038D7
:10D93000017D022211430175FF2101700172017303
:10D940000476182000F00CF970BD000080E100E0C2
:10D95000C0200740C0200020A8EEFF1F001A0020B2
:10D96000401B002055555555F8B50546154F2C0759
:10D970003E4600060121C03E240F00280EDA60005A
:10D98000401C8140104803F072FA2002C119600166
:10D990008019803141610021C161F8BD680081407A
:10D9A000C943094803F057FA07486101001D425D69
:10D9B000881942802202D2194260882272540021C2
:10D9C0000172F8BDC01A0020B8EEFF1F10B5FDF7B8
:10D9D000B7FEFFF73DFB10BD02480179DF22114081
:10D9E000017170478020074010B5FEF7B3FBFDF7CB
:10D9F000ABFE10BD002903D140060249400E087657
:10DA000070470000802007400007810E0348081877
:10DA1000017802221143017070470000C0200740C6
:10DA200010B5082202490020FFF7C0FB10BD00001E
:10DA3000F8EFFF1F10B5034801214902006902F009
:10DA40004FFE10BD18E9FF1F10B5002211468020BF
:10DA500000F018F810BD000010B503480349027823
:10DA60000020FFF7A3FB10BD635B0100C016002080
:10DA7000024801792022114301717047802007403C
:10DA800070470000F8B50007114F840E1646A41C1D
:10DA9000E200D01946803D460023A001C03545195B
:10DAA00002E0C85CE8545B1CB342FAD30949600841
:10DAB0000969C140C90701D0882100E0C821B954D3
:10DAC000012181400348103003F0DDF93046F8BDF4
