:04000003000084C9AC
:020000040000FA
:10800000005F0020C984000015850000D5A3000092
:108010000000000000000000000000004DF3FDDF44
:108020008F9E939B0B99969702010000A1850000FB
:1080300000000000346F010025860000318600003A
:10804000298500002D850000318500003585000060
:10805000118500001185000011850000AD9700001A
:10806000398500003D850000418500004585000000
:1080700049850000C11E01005185000011850000E6
:1080800011850000A19A00001185000011850000F3
:108090001185000011850000118500005585000044
:1080A000F1250100118500001185000011850000F7
:1080B000118500001185000011850000F197000076
:1080C000FFFFFFFFFFFFFFFFFFFFFFFFFFFFFFFFC0
:1080D000FFFFFFFFFFFFFFFFFFFFFFFFFFFFFFFFB0
:1080E000FFFFFFFFFFFFFFFFFFFFFFFFFFFFFFFFA0
:1080F000FFFFFFFFFFFFFFFFFFFFFFFFFFFFFFFF90
:1084000010B5064C2378002B07D1054B002B02D06A
:10841000044800E000BF0123237010BD00EEFF1FE1
:1084200000000000008D0100044B10B5002B03D0AC
:108430000349044800E000BF10BDC0460000000032
:1084400004EEFF1F008D0100402292029A1A92460C
:108450007047C046174B002B00D1134B9D46FFF7CA
:10846000F3FF00218B460F461348144A121A0EF0F0
:10847000F5FB0E4B002B00D098470D4B002B00D086
:1084800098470020002104000D000D48002802D06C
:108490000C4800E000BF06F0ACFA2000290006F00E
:1084A0004BFC0EF09BFBC0460000080000000000E3
:1084B000F1E90000005F002000EEFF1F942600207D
:1084C000000000000000000072B60A480A4901607E
:1084D0000A6882F30888094880470949094A0A4B13
:1084E0009B1A03DD043BC858D050FBDC62B607483A
:1084F0008047000008ED00E000800000650E0100EC
:10850000288D010000E0FF1F0CEDFF1F55840000C7
:1085100011480047114800471148004711480047DB
:1085200011480047114800471148004711480047CB
:1085300011480047114800471148004711480047BB
:1085400011480047114800471148004711480047AB
:1085500011480047114800471185000015850000AB
:10856000D5A30000A185000025860000318600000B
:1085700011850000118500001185000011850000A3
:108580004D180100651801001185000011850000DB
:108590001185000011850000B9120100118500004D
:1085A0007046C0082CD3EFF309808169023909783D
:1085B000002929D101B50FC8B8470CBC03C29E469B
:1085C0001E4B06CB91421ED0002909D0EFF3098043
:1085D00020388863F0C044464D4656465F46F0C09A
:1085E000083B1A60906B1030F0C8A046A946B2460E
:1085F000BB4680F309882038F0C80220C0430047FA
:10860000EFF30880D1E770470D4A13689942FAD812
:1086100001B5890053589C460FC8E0470CBC106058
:108620009E46704701B50AF081FF03BC8E46C7E73E
:1086300001B50AF03DFF03BC8E46C1E7B0EBFF1F5A
:108640008C89010002B47146490849000956490065
:108650008E4402BC7047C04602B4714649084900C6
:10866000095C49008E4402BC7047C04603B47146A1
:10867000490840004900095E49008E4403BC704728
:1086800003B47146490840004900095A49008E4424
:1086900003BC7047002243088B4274D303098B420A
:1086A0005FD3030A8B4244D3030B8B4228D3030CC2
:1086B0008B420DD3FF22090212BA030C8B4202D364
:1086C0001212090265D0030B8B4219D300E0090A8C
:1086D000C30B8B4201D3CB03C01A5241830B8B4295
:1086E00001D38B03C01A5241430B8B4201D34B037E
:1086F000C01A5241030B8B4201D30B03C01A5241E3
:10870000C30A8B4201D3CB02C01A5241830A8B4267
:1087100001D38B02C01A5241430A8B4201D34B0250
:10872000C01A5241030A8B4201D30B02C01A5241B4
:10873000CDD2C3098B4201D3CB01C01A5241830968
:108740008B4201D38B01C01A524143098B4201D3A2
:108750004B01C01A524103098B4201D30B01C01ACD
:108760005241C3088B4201D3CB00C01A5241830847
:108770008B4201D38B00C01A524143088B4201D374
:108780004B00C01A5241411A00D2014652411046D4
:108790007047FFE701B5002000F0F0F802BDC046C9
:1087A0000029F7D076E7704703460B437FD40022B9
:1087B00043088B4274D303098B425FD3030A8B4275
:1087C00044D3030B8B4228D3030C8B420DD3FF22DF
:1087D000090212BA030C8B4202D31212090265D0AD
:1087E000030B8B4219D300E0090AC30B8B4201D360
:1087F000CB03C01A5241830B8B4201D38B03C01AA7
:108800005241430B8B4201D34B03C01A5241030B1D
:108810008B4201D30B03C01A5241C30A8B4201D3CE
:10882000CB02C01A5241830A8B4201D38B02C01A79
:108830005241430A8B4201D34B02C01A5241030AF0
:108840008B4201D30B02C01A5241CDD2C3098B42D5
:1088500001D3CB01C01A524183098B4201D38B0152
:10886000C01A524143098B4201D34B01C01A5241F5
:1088700003098B4201D30B01C01A5241C3088B423A
:1088800001D3CB00C01A524183088B4201D38B0025
:10889000C01A524143088B4201D34B00C01A5241C7
:1088A000411A00D201465241104670475DE0CA0F9E
:1088B00000D04942031000D34042534000229C465E
:1088C00003098B422DD3030A8B4212D3FC22890168
:1088D00012BA030A8B420CD3890192118B4208D33E
:1088E000890192118B4204D389013AD0921100E0A0
:1088F0008909C3098B4201D3CB01C01A52418309B4
:108900008B4201D38B01C01A524143098B4201D3E0
:108910004B01C01A524103098B4201D30B01C01A0B
:108920005241C3088B4201D3CB00C01A5241830885
:108930008B4201D38B00C01A5241D9D243088B42DB
:1089400001D34B00C01A5241411A00D2014663467E
:1089500052415B10104601D34042002B00D54942E2
:10896000704763465B1000D3404201B5002000F021
:1089700005F802BD0029F8D016E770477047C046D9
:108980001C2101231B04984201D3000C10391B0A3F
:10899000984201D3000A08391B09984201D3000903
:1089A000043902A2105C40187047C046040302025A
:1089B000010101010000000000000000002B11D1A6
:1089C000002A0FD1002900D1002802D00021C9437C
:1089D000080007B4024802A14018029003BDC04637
:1089E0009DFFFFFF03B4684601B5029800F034F81C
:1089F000019B9E4602B00CBC7047C046F0B5CE4607
:108A0000474680B5070099463B0C9C4613041B0C57
:108A10001D000E0061460004140C000C45434B433E
:108A200060436143C0182C0C20188C46834203D944
:108A300080235B029846C444494679437243030C41
:108A400063442D042D0CC918000440198918C0BCBA
:108A5000B946B046F0BDC046F0B557464E4645460D
:108A6000DE46E0B504000D009246994683B08B4285
:108A700030D82DD04946504600F0BAF829000600FB
:108A8000200000F0B5F8331A9846203B9B4633D4BB
:108A90005A465346934042461F00534693401E0099
:108AA000AF423AD8AF4200D178E05B46A41BBD414B
:108AB000002B00DA75E000220023009201930123CD
:108AC0005A4693400193012342469340009328E085
:108AD0008242CFD900220023009201930C9B002BED
:108AE00001D01C605D600098019903B0F0BCBB46EA
:108AF000B246A946A046F0BD424620239B1A5246E4
:108B0000DA40414613004A468A40170042461F4356
:108B1000534693401E00AF42C4D900220023009266
:108B200001934346002BD9D0FB0772081A434646EF
:108B30007B080EE0AB4201D1A2420CD8A41A9D41A1
:108B4000012024196D410021013E24184D41002EC1
:108B500006D0AB42EED9013E24196D41002EF8D16A
:108B6000009801995B4600196941002B24DB2B001A
:108B70005A464446D3402A00E2401C005B4615009A
:108B8000002B2ADB26009E40330026004746BE40CD
:108B90003200801A9941009001919FE7A342BCD80E
:108BA00083E74246202300219B1A00220091019274
:108BB0000122DA40019286E7424620239B1A2A00CE
:108BC00046469A402300F340444613432A00E240BD
:108BD0001C005B461500002BD4DA42462F002023F0
:108BE000260097409B1ADE403B003343CDE7C0464A
:108BF00010B5002903D1FFF7C3FE203002E00800C2
:108C0000FFF7BEFE10BDC0460023C25C0133002A40
:108C1000FBD1581E704710B500F07AFB10BD000064
:108C2000F0B50400437885B001938378019A1B0264
:108C300012041343C278067913434279A7790D00D1
:108C40001002E17930433E0430430E06064320789B
:108C500036BA01380B2815D8FFF7FEFC314EA9C6ED
:108C6000C9CCD0D67216062432000832954209D1FA
:108C7000220031000832180001F03BFB2A00011EDF
:108C800000D192E0202017E0180001F029FB051E1A
:108C9000F8D008220021200000F0B4FC32000821A6
:108CA000280015E012043F023A431800114301F076
:108CB00032FB0028E6D1207800F0C0FC0AE0012D4C
:108CC0000CD1280000F0BAFC01F0ECFA0B222900CC
:108CD00000F098FC00F026FB05B0F0BD0C2DD1D1C2
:108CE000651C280001F09EFA0028CBD1207800F006
:108CF000A5FC0B220121D3E7012D0AD101F0D8FAFE
:108D000000BA0390207800F099FC0422290003A8FF
:108D1000DEE7052DB6D1A2786078E378120202432F
:108D200020791B041A430006104300BA651C01F0A9
:108D30009FFA0028A6D1207800F080FC0422D9E711
:108D4000012D12D101F0C0FA00BA029001F0C2FA6E
:108D500000BA0390207800F071FC0422290002A8D8
:108D600000F050FC04220521D1E7092D00D089E74D
:108D7000A2786078E3781202024320791B041A4338
:108D800000061043A2796179E37912020A43217A3D
:108D90001B041A430906114300BA09BA884200D9D4
:108DA00070E701F077FA2A000021200090E7012DFA
:108DB0000AD1032000F042FC01F080FA03AB1870E6
:108DC0002A002900180083E7022D00D05AE70198F5
:108DD000431E9841C0B201F057FA207800F02EFCF3
:108DE0000122601C110073E701F0D6F961E701F080
:108DF000EFF95EE77F2302226370D5E704230021A9
:108E000003226370A170D0E70122024B08201A7080
:108E100052E7C04675F6FF1F70B586B003AC0E0072
:108E200005000B22002120000DF018FF002E1AD0A3
:108E3000287813280ED80F2805D8002813D020230F
:108E40002370123354E0113802280ED8FFF704FCC7
:108E5000565A04002028F2D10B220021200000F0F5
:108E6000D1FB00F05FFA06B070BD11232370687863
:108E70006070013806283DD8FFF7EEFB040C11178F
:108E80001D33370002223E49A2700F2068440DF0C6
:108E9000C9FEE1E7022202A90A80A270F5E7812358
:108EA00002A95B0002220B80F7E700F095FD02A902
:108EB00001220870F1E7FA2500F07EFDAD0068435D
:108EC000019000F05BFD45430F200823042202A916
:108ED00068440295A3700DF0A5FE0422132001A999
:108EE000D4E701222749A270CFE72023237016334D
:108EF0006370B1E7202323701433F9E72023237034
:108F00001333F5E7687801380928F3D8FFF79AFB9F
:108F10000505050505050920F22C202323701733CC
:108F2000E6E7AB78012B0FD1EB78082B08D1164A76
:108F300013700422154B1A70132323700C3BD7E7D0
:108F4000202323701833D3E7202323701533CFE772
:108F5000AB78012BF8D1EB785A1E93410C4A137071
:108F6000132323700B3BC3E7AB78012BECD1EB78D9
:108F70005A1E9341074A137013232370093BB7E726
:108F8000EEE7FF1FC4100020F2E7FF1F7AF6FF1F75
:108F9000F4E7FF1FECE7FF1F10B500F0B9F910BDB3
:108FA00010B500F0D5FA7021074800F083FA70215F
:108FB000064800F093FA7221054800F07BFA72210E
:108FC000044800F08BFA10BD198E0000178C0000C9
:108FD000218C0000998F000030B585B0050000F0AD
:108FE00097F90722002102A80DF038FE112301ACE9
:108FF0002370083B0B22002120006370083BA37004
:10900000E57000F0FFFA00F08DF905B030BD00000A
:1090100030B50023032201250B4C85B001A92000A7
:109020000B704A70CB704B718B71CB710B728D7062
:109030000D7107F063FF2900200007F0BDFF20003D
:1090400008F016F805B030BD00B0034073B500233A
:109050000091694604008B800F48D1B207F0A2FF4F
:109060006A4621000C4807F0C1FF80260A4D210006
:10907000280007F0E5FF3042F8D001230020F82255
:10908000A342404104340549C0B2FF32A40007F0B6
:10909000F5FA605976BDC04600B00340186E010075
:1090A000F7B501276B4669461F7100234025264C02
:1090B0004B71A369254A264E1340A361A36901A9F8
:1090C000AB432B430A003000A361062108F0F8F8F7
:1090D000FFF79EFF00F0FAFC1E4800F03BFD8021E8
:1090E000B5601A4AA369490013400B43A36100F01D
:1090F00047FD622000F02EFD756000F041FDA36980
:10910000124A07211340A3613A000020FFF79EFF97
:109110000700104800F01EFD8021B560A3690B4ACE
:10912000490013400B43A36100F02AFD0A480B4994
:109130007843FFF7AFFA0021094B0E38FF3883421E
:109140004941084BC818FEBD00C00440FFF8FFFFAE
:10915000C0F00F40B80B0000E40C0000FF0F00004F
:109160009902000003990000032313B5C0200A4AA6
:109170000004117801AC0B4313700849084A8B585E
:1091800003438B50200007F0DFFF01232100054837
:10919000637007F0F9FF13BD004006400070044003
:1091A0000410000000F005400449054ACB691A404C
:1091B000C023DB001343CB617047C04600C00440AE
:1091C000FFF8FFFFF0B5070089B00C2007F00EFE96
:1091D000344B0024984205D90C2007F007FE324B8F
:1091E00083426441012520004C223049284007F089
:1091F00045FAFF2F40D180212D4B013F5A690A4388
:109200005A6159602B492C4ACB691A4080235B0074
:109210001343CB61012301930223002601ADFF33E9
:10922000AB80FE3BAB710C20043303930496059690
:109230002E7507F0DBFD21494000FFF72BFA0130C6
:10924000440838007F216043FFF724FA01304008CA
:10925000013C241A2402013804430794184C2A00C4
:109260003100200007F0B4FF80220223D200A15871
:109270000B43A35009B0F0BD002F0FD180210C4B40
:109280002F005A690A435A6199600A490A4ACB6910
:109290001A4080235B001343CB61BBE7FFF784FFD9
:1092A000B8E7C04623F40000FF127A004C6E0100BC
:1092B000C0F00F4000C00440FFF8FFFF127A00002A
:1092C00000F005408022024B52001A607047C046F1
:1092D00000A004400022014B1A60704700A0044027
:1092E00007B501216B466A46197100235371054A7F
:1092F0000548536803405360044801AA07F0E0FFA3
:1093000007BDC04600900440FFF8FFFF00F00F408B
:10931000024A034953680B40536070470090044071
:10932000FFF8FFFF0449054A4B681A4080235B00A1
:1093300013434B607047C04600900440FFF8FFFFA6
:1093400070B5064D064C2A88002120000DF086FCE1
:1093500000232B80034B238070BDC04654F6FF1FB3
:109360004CF2FF1F20390000087870B5042834D073
:109370000023042805D801281DD0022825D0294A19
:1093800029E02028FBD10120264A274C10702370A9
:109390004B608B60254B0969254D1A782960002A9E
:1093A00003D0244A1278002A0ED01B78002B1CD040
:1093B00005F09EFC08E04B608B6013781E4A5B084A
:1093C000137003221D4B1A7070BD1D4A4A60812222
:1093D000D2008A60154A1370F6E7164B01224B60E3
:1093E0008123DB008B60114BEDE7164B1B68002BD4
:1093F00006D0114A1278702A02D11148C9B2984792
:10940000114B1B68002B07D00B4A1278722A03D12C
:1094100029680B48C9B29847FFF792FF01232370D0
:10942000D2E7C0461DEEFF1F00E0FF1F1EEEFF1F2C
:1094300068F6FF1F44EEFF1F1CEEFF1F56F6FF1FCE
:109440004CF2FF1F58F6FF1F5CF6FF1F0F4B10B5C5
:109450001B68002B08D00E4A1278702A04D10D4ADE
:109460000D481168C9B298470C4B1B68002B08D0F7
:10947000074A1278722A04D1064A07481168C9B20D
:1094800098470122064B1A7010BDC04660F6FF1FB8
:109490001CEEFF1F68F6FF1F44EEFF1F64F6FF1F60
:1094A00000E0FF1F10B5024808F044F910BDC046A7
:1094B0000070064003000020712905D0722904D0F5
:1094C000044A0130702901D07047034A002013601C
:1094D000FAE7C04660F6FF1F64F6FF1F0300002096
:1094E000712905D0722904D0044A0130702901D0B5
:1094F0007047034A00201360FAE7C04658F6FF1F82
:109500005CF6FF1F10B5FFF71BFF81220021D20080
:1095100008480DF0A3FB0023074A1370074A137095
:10952000074A1370074A1360074A13700122074B5A
:109530001A7010BD44EEFF1F1DEEFF1F1EEEFF1F31
:109540001CEEFF1F68F6FF1F56F6FF1F00E0FF1F0F
:109550008023224A1B01116830B50B438021136020
:109560001F4A20485368890003400B4353609368A7
:1095700085B0034019439160FFF7C4FF684608F0C7
:10958000DDF8194B6A460193022300201372013B58
:10959000937007F02BFC154D02006946280008F077
:1095A00023F8C222124992008B581248124C0340F1
:1095B0008B502000242200210DF050FB21002800B8
:1095C0000E4B0F4A08F0D4F821222100280008F0A1
:1095D00007F90023237005B030BDC0463880044031
:1095E00000B00440FFF8FFFF7000720000700640FA
:1095F00000E100E0FF00FFFF20EEFF1F1CEEFF1F59
:10960000699300000300812010B58C18C0008442CB
:109610000CD80748081819000DF004FB054B1A88F0
:10962000944200D91C800022034B1A7010BDC04622
:109630004CF2FF1F54F6FF1F00E0FF1F054B187090
:10964000054B1A88002A01D101321A800022034BEF
:109650001A7070474CF2FF1F54F6FF1F00E0FF1F07
:109660000020064B1B78834207D0054B1B788342B2
:1096700003D1044B187843425841704700E0FF1F64
:1096800020EEFF1F56F6FF1F034A1378002B01D070
:10969000013B13707047C04656F6FF1FF7B5384BB5
:1096A0000700DB7880233749DB034A681A42FCD085
:1096B000354C08F04BFB354EA36C354A3340A36460
:1096C000E36C344D3340E36413683340136000238C
:1096D000AB616B61082F05D16B6833406B60AB6881
:1096E0003340AB602C492D4A0B691A40A0231B0361
:1096F00013430B61062F0CD002220E21284808F0DC
:10970000BDF802220821264808F0B8F88022254B2F
:109710001A6001236A465371062F1ED0082F24D0E9
:109720008123214A5B00AB61C23B536051690B430B
:1097300053610423C022FF336B61A36C920033405A
:109740001343A364E36C1E403243E26408F0A0FAC2
:10975000FFF7A8FEFFF7FCFEF7BD08F0DBF80848AE
:1097600008F0ECF808F0E0F8DAE700236A46137135
:1097700008F0D0F801A9024808F0FCF8F2E7C0466A
:1097800000E007400050054000900440FFF8FFFF54
:1097900000A0044000B0044000C00440FFFFF0FF00
:1097A00000C0074000E100E0800000F810B50E2185
:1097B0000C4808F081F8002806D00E21094808F06E
:1097C0008BF80122084B1A700821064808F074F83B
:1097D000002806D00821034808F07EF80122034B38
:1097E0001A7010BD00C007407DF6FF1F7EF6FF1FF8
:1097F0001021114A10B5136810480B4204D00369B8
:109800000F4C23400361116010220E4B1968114266
:109810000DD01A600C4B1B69DB0609D508F00AFD58
:109820000CF046FD0023094A1370094A137010BD5D
:109830000122084B1A70FAE7A0C0044000C004409F
:10984000FFFFF0FFA0B0044080F00F407CF6FF1F48
:10985000C41000207EF6FF1F1D4A1E4913691940DF
:1098600080235B000B432A2113611B4B19701B4B98
:1098700019785B78CB0704D5082319498878034306
:109880008B70802317495B04486803434B600B6867
:10989000C1205B005B080B6013691349800019400D
:1098A000B0231B030B43C0211361104A0906135850
:1098B0001B021B0A0B4313508023136018301358EC
:1098C0001B021B0A0B43135080231B0613607047B7
:1098D00000B00440FFF8FFFF00E0074000F0074041
:1098E00000D0074000700440FFFFF0FF00E100E0FF
:1098F00010B50820FFF7D2FE10BD10B50620FFF707
:10990000CDFE10BD37B5094C2378002B08D16A462F
:109910000125074801A91571537107F0ECFF257067
:1099200000221B211000FFF791FB3EBD6CF6FF1FCC
:1099300000D0074007B501236A4613710023537115
:10994000FFF766FB00F0C2F80321084801AA07F000
:10995000B7FC8022064B0748D968520001400A43F1
:10996000DA60054A53680340536007BD80F00F403A
:1099700000B00440FFF8FFFF00A0044070B50826C7
:109980000A4D0B4800F0E6F86E6000F0F9F800228E
:1099900009211000FFF75AFBAE600400FFF7B2FF89
:1099A000010004486043FEF775FE70BD80F00F4073
:1099B000B80B0000F82A0000002210B510001D218D
:1099C000FFF744FB0400FFF79DFF0100FA20800031
:1099D0006043FEF75FFE10BD0D4B70B51D69FFF7CC
:1099E000CDFF0400FFF7E8FF0A4A0300E90604D4AC
:1099F0000120944200D9023070BD00209442FBD96E
:109A00002000C8308342804140424000F4E7C04615
:109A100080F00F40DB050000F0B50500032010408A
:109A2000434258410E0014000E491F2285B0C0B2B7
:109A300006F024FE0C4F330022002900380007F006
:109A4000D5F8002809D1012302900190009332003B
:109A500023002900380006F0DDFF431E9841C0B204
:109A600005B0F0BD806E01008811002070B50A4C71
:109A700001000A4B0500E268200007F06FF8031EA2
:109A800005D129002000E26807F016F803005A1EED
:109A90009341D8B270BDC046881100206B66656BDB
:109AA00080220121074B52001A65074A11701A687B
:109AB00017318A431A601A680A42FCD1BFF34F8FEC
:109AC0007047C046008003406DF6FF1F19491A48D1
:109AD0001A4A435830B51A4080235B0485B01343BB
:109AE000435001A807F0E4FF00246A460223144D06
:109AF00001A928001371147307F08AFF8021280040
:109B0000490007F0EDFFC4200E4B80001A580E49A3
:109B10001140802212020A431A50802292021A60D7
:109B2000122007F063F9094B80081860084B1C707D
:109B300005B030BD0410000000700440FFFFFFFCC2
:109B40000080034000E100E0FF00FFFF70F6FF1F10
:109B50006DF6FF1F0021074B020010B518680B00BF
:109B6000FEF74CFF0023044AFEF728FF034B9860E2
:109B700010BDC04670F6FF1F40420F00008003403A
:109B8000182207490B6893431A00082313430B60FC
:109B9000044B1A78002AFCD000221A707047C04685
:109BA000008003406DF6FF1F10B5022809D1FFF7B2
:109BB000A9FC00230121044A1370044A1170044ACD
:109BC0001370002010BDC0467BF6FF1FF4E7FF1F97
:109BD0007AF6FF1FF7B50330FF300E00440200F0A5
:109BE00073FB050000F076FB8022431BD2029A181B
:109BF000A24213D91A4A5B00A1185B1900934B19B2
:109C0000019300236219101ACA18AA4209D2E25C11
:109C1000F2548022013392009342F5D180208000DB
:109C2000FEBD009F974219D98127019ABF02D21821
:109C30005208D25D9446012213420AD162461209AB
:109C40003727BC469444092A01D8303294466246EC
:109C5000DEE70F22674617403A00F1E7C25CD7E71C
:109C600000FCFDFF70B5002007F090FFCE25FFF748
:109C700017FA304A304B314C6D00904235D0304AA3
:109C800090423ED02F4AFF21904246D12E4A1140A9
:109C900059555B19110A5970110C120E9970DA702E
:109CA0002A4B2380FFF7D8FDFFF744FEFFF75CFA4D
:109CB000FFF77AFAFFF790FE6423022800D09B3367
:109CC00018005843224A58431370FE23DB012149F0
:109CD000C018FEF769FDC0B2FFF774FA00F048FA49
:109CE000FFF75EF9FFF7FCFA70BD1B4A5A559D332A
:109CF000FF33110A5970110C120E9970DA70174B5C
:109D0000CFE7174A5A559D33FF33110A5970110C8A
:109D1000120E9970DA70134BC3E7134A114059556C
:109D20009D33FF33110A5970110C120E9970DA70BD
:109D30000E4BB6E7059900003CE8FF1FEEE7FF1F5A
:109D40000699000004990000B16E01000499FFFF1C
:109D5000F3E7FF1F01FE0000B66E01000599FFFF4B
:109D6000BB6E01000699FFFFC06E01000399FFFF63
:109D70002A4B70B51B68DB69984700282AD1284C0C
:109D80002378002B12D007F015FF051E2CD10220DE
:109D90000AF00CFA0122234B25701A70224B234C37
:109DA0001B884F2B1BD80523237013E007F002FFFD
:109DB0001F4D002802D12B78002B0CD001200AF077
:109DC000F5F9012323700023174A2B701380072213
:109DD000164B1A7070BD2378002BFBD0D3E70320FD
:109DE000FFF7FAF82570F5E72378002BF2D007F09B
:109DF000E1FE0028EED00C490C480A884F2A04D80E
:109E00000123037001320A80E4E7772393429B41E8
:109E10005B4202330370782ADCD8F3E72883010021
:109E20007BF6FF1FF4E7FF1F78F6FF1F7AF6FF1F90
:109E30007DF6FF1F70B55F4D2B78022B40D1FFF7E9
:109E400041FAFF225C4B1A705C4B1A78002A0BD047
:109E500000221A702A780123002A00D12B70584A58
:109E600002201370FFF7B8F8FFF70EFC2B78554C63
:109E7000002B2CD1544B1B78002B28D12378002B9E
:109E800025D1524B1B78002B64D0FFF7E9FB00284B
:109E90001DD006224E4B1A70042323702B78002B02
:109EA00054D1494B1B78002B29D104F017FF444BA8
:109EB0001B78002B01D1474A1370002323701EE04A
:109EC000002BC1D1FFF706FA64223B4BBBE7207899
:109ED000072814D8FEF7B6FB3E082D33E25A420499
:109EE000C8223C4B1A700AE0782050213A4B494274
:109EF0001B885843FEF758FC364B383818702378C7
:109F0000032B54D0334B354918780300434358434F
:109F1000FE23DB01C018FEF747FCC0B2FFF752F981
:109F20002F4B1A78002A03D000221A7003F0C8F8C9
:109F300070BD5022274B1A702A4B483AD2E7294A63
:109F40001378002BDBD0013B1370D8E7022BD6D15E
:109F50000433B3E7184B1A781E4BC3E71D4A137836
:109F6000092B09D8013313702B78002BC7D1164B5E
:109F70001B78002BA1D0C2E70A2B01D1F533F2E701
:109F8000F52B01D80023EEE7013BECE7164A1378E6
:109F9000002B07D0013BDBB21370052BE9D1002267
:109FA0000C4B9FE70A231370FF220A4B9AE70D4BD5
:109FB0001878B3E7C4100020F3E7FF1F7EF6FF1FF9
:109FC000F4E7FF1F7AF6FF1F7CF6FF1FECE7FF1F89
:109FD000F2E7FF1FF5E7FF1F78F6FF1F01FE000005
:109FE00075F6FF1F76F6FF1F74F6FF1F10B5074CBE
:109FF0002378062B02D0082B05D010BDFFF77DFC7F
:10A0000001232370F9E7FFF773FCF6E7F2E7FF1F80
:10A010000122014B1A7070477CF6FF1F00230121BB
:10A02000054A10B51370054A1170054A1370FFF701
:10A0300069FAFFF76DF910BD7BF6FF1FF4E7FF1F0C
:10A040007AF6FF1F10B50B2204490CF0DDFD002845
:10A0500001D100F07FF9002010BDC046C56E01009F
:10A0600070B503F027FA002831D00200234BF530F9
:10A070001B68234CFF300C3A80B2E254000AE3180C
:10A080005870204B186802F0ABFA002805D08422E3
:10A0900000201D49FF3206F0F1FA1C4B2100002080
:10A0A0001A6802F009FB002807D002F0A1FB8A22FF
:10A0B00000201549FF3206F0E1FA02F099FB002872
:10A0C00005D0C72200201049520006F0D7FA00F050
:10A0D000FBF8050000F0FEF8040000F0E9F80600C7
:10A0E00000F0ECF8002807D0A41900F0DBF80022FB
:10A0F0000749631B04F012FA70BDC04604E0FF1F5D
:10A1000008E0FF1F28830100D16E0100E8E7FF1F70
:10A11000D59B000030B50C25040085B02A00002135
:10A1200001A80CF09BFD20002A0001A910300CF0C2
:10A130006BFDC0B243425841C0B205B030BD000013
:10A1400010B5084C084B20000B22084908C00CF041
:10A1500069FDFC2200235202E37322616361A36163
:10A1600010BDC046F8E7FF1F67666373C06F01004C
:10A1700080218902064B0A6810B59A4204D11C223C
:10A1800004480CF04FFD10BDFFF7DAFFFBE7C046B7
:10A1900067666373F8E7FF1F802110B50B4C1C2224
:10A1A000200089020CF030FD002398420CD0802062
:10A1B0008002FFF75BFC031E06D1802022001C21D9
:10A1C0008002FFF729FC0300D8B210BDF8E7FF1F9B
:10A1D000802010B58002FFF749FC041E01D1FFF773
:10A1E000AFFF200010BD000070B586B001AC2200AA
:10A1F0000B4B050043CB43C2002603CB03C2280010
:10A20000B3000322E15808300CF0FEFC002805D012
:10A210000136052EF3D1002006B070BD0120FBE70A
:10A22000B06C010070B5060004F0E8F801240028C5
:10A230000CD03000FFF7D8FF0B4D0400281D002C78
:10A2400006D00B2231000CF0EDFC0024E0B270BD12
:10A25000310008220CF0E6FC2800032203490C30F0
:10A260000CF0E0FCF2E7C046F8E7FF1FC86F010002
:10A27000FE2201235202904202D8024B18610023B1
:10A28000D8B27047F8E7FF1F014BD8730020704722
:10A29000F8E7FF1F024B5861996100207047C046E4
:10A2A000F8E7FF1F014804307047C046F8E7FF1F7A
:10A2B000014B18697047C046F8E7FF1F014BD87B78
:10A2C0007047C046F8E7FF1F014B58697047C0460A
:10A2D000F8E7FF1F014B98697047C046F8E7FF1F7A
:10A2E00081239B02C0188023DB0298429B411840C7
:10A2F0007047812370B581249B02C318A4020120FA
:10A30000A34207D380255C18ED02AC4202D81800A6
:10A31000FFF782FB70BD81239B0270B5C418CD1876
:10A3200023002B4301209B0513D1AC4211D881237C
:10A330009B029C420DD38023DB029D4209D2200068
:10A34000FFF794FB8023DB00E418A54201D300282B
:10A35000F5D070BD10B5FFF73BFF002803D1FC21FD
:10A360004902FFF7D8FF10BD70B5EFF308840F2343
:10A3700003400D2B01D1EFF309842500E369243557
:10A380009B0500D4043DC30600D4483505F042FFC8
:10A39000EFF3098005F03EFFEFF3088005F03AFF88
:10A3A000EFF3148005F036FF280005F033FF6069F5
:10A3B00005F030FFA06905F02DFFE06905F02AFFE8
:10A3C00043220020024906F059F901F0FDFBFEE7A7
:10A3D000CC6F01007046FFF7C7FF704710B5EFF371
:10A3E000108472B60023C16082600360436084F30E
:10A3F000108810BD70B50400EFF3108672B6C36804
:10A4000042680F4D9954436801334360806883422A
:10A4100009D3181A4242504129003022C0B206F036
:10A420002DF90023636009CCC01A431E98413522E0
:10A430002900C0B206F022F986F3108870BDC0462C
:10A44000F86F0100F8B50400EFF3108772B60368E7
:10A4500042680F4D981A431E98414222C0B229000B
:10A4600006F00CF92068E3681E5CA36801302060E8
:10A47000984209D3C01A4342584147222900C0B22A
:10A4800006F0FCF80023236087F310883000F8BD45
:10A49000F86F01000200EFF3108172B64068136894
:10A4A000984203D3C01A81F31088704792688018CD
:10A4B000F8E770B5EFF3108572B68468FFF7EAFF2E
:10A4C00085F31088013C201A70BDF8B506000C0019
:10A4D0001700FFF7DFFF0500B84200D93D006719FC
:10A4E000BC4201D12800F8BD3000FFF7ABFF20705F
:10A4F0000134F5E7F8B506000C001700FFF7D9FFA7
:10A500000500B84200D93D006719BC4201D12800BE
:10A51000F8BD21783000FFF76DFF0134F5E700004A
:10A520000D4B10B51B6801000C4C5B08834203D82F
:10A5300001236370636010BD0022013B1818627034
:10A54000FEF7A8F801239842F4D9C0180321FEF7BA
:10A55000A1F80300EEE7C046E8E9FF1F80F6FF1F01
:10A5600070B5050008000E00FEF74EFB3C240130DC
:10A57000A04203D83000FEF747FB441C3100220004
:10A5800028000CF04FFB00233B352B70E0B270BD70
:10A59000FF2301480B70704701000100F0B50778F8
:10A5A00005003B00803BDBB20E008FB01F2B03D8B1
:10A5B00000F0A0FD0FB0F0BD3B006033DBB25E2BBE
:10A5C00002D8FFF7E5FFF5E74B1C09930F701D2F2D
:10A5D00001D900F0B9FC3800FEF752F81E008C00DB
:10A5E0009500B20007021802E503B604A004C600F5
:10A5F000D800B604B604B604B604B604DD005801AB
:10A600006D017C01E80101020502B604B604B6043E
:10A61000B604B604B604870168788C1C09280AD8E9
:10A6200001280FD90338062810D8FEF715F8151998
:10A6300020394C525600FE2858D0FF2850D0112304
:10A64000F02854D0CB4B7770F818B3E7CA492000F4
:10A65000FFF786FF0700F5E704F048F80100F6E78A
:10A6600006222000C5490CF0DDFA0627EAE7C44BB4
:10A6700018690028E6D0D2235B00C15CA623D32250
:10A68000FF33C35C5200825C1B0212040B43134372
:10A69000A822FF32815C090619430029D7D1D1E7EE
:10A6A000B74B18690028CDD0D4235B00C15CAA2326
:10A6B000D522FF33C35C5200825C1B0212040B43A1
:10A6C0001343AC22E5E7AE4BDB6F191E0193BED1FD
:10A6D000B8E7AB4B0433D96FDFE704F01BF8BDE7F5
:10A6E00040238B7000230227CB70ABE705230127A3
:10A6F000B370A7E76B78012B46D9FF23A14873708D
:10A70000A14BC01856E76A780023012A15D8012208
:10A710008021402420209D4B9D4D1A709D4B490364
:10A720005C60586069605F693C435C615C692043C0
:10A7300058616B6919431300696193487370DFE7CF
:10A7400000214020914B1970924B5A6982435A6103
:10A750005A69203882435A618D4A8F4853690340B1
:10A76000536101207170CBE7AC788C4B6878240280
:10A7700004438B491868FDF78DFF03210230FDF774
:10A7800089FF60430138FDD10023B7E70023022091
:10A790008B704B70B4E72879EC7800026979044338
:10A7A000A879AA7809042143000614000143012076
:10A7B00004406B780194024204D04025754C03425A
:10A7C0005ED065600220140004400294024204D06E
:10A7D0002025704C034255D0656050B2002806DA3F
:10A7E00080276B4DDC097F03002C4DD06F60002962
:10A7F00033D004211140039120210A4004925A08C9
:10A8000005929A089446634CDA095F0906921F394B
:10A81000019A002A04D0226992090A409342F7D192
:10A82000029A002A05D02269059D52090A409542E4
:10A83000EED1039A002A02D06246002AE8D1049A97
:10A84000002A01D0002FE3D1002806DA504A069DE5
:10A850001269120D0A409542DAD101204D4B4C4A43
:10A8600019691B6912695B0903408340120D02409C
:10A87000D2018909084013430343737049483FE7F5
:10A88000A5609FE7A560A8E7AF60B0E7AB78687800
:10A89000EA781B0203432879120413430006184385
:10A8A000FF23002804D0394B9860FFF739FE0023BE
:10A8B0003D48737024E76F78A91C002F01D1013740
:10A8C000FF37380000F0BAFC002307377370F80830
:10A8D000013074E003226B782C491A405B07DB0FD0
:10A8E00001324B770A77002327E78B1C0193002363
:10A8F0004B7001210C006B78AA1C0291591E039128
:10A90000002B03D1029B20041843F9E63F253F2387
:10A910001078571C0540184200D1402543B2073536
:10A9200042B204931B4E2023ED08002A1ADA726902
:10A930009A4372613900019A00F0AEFC039B002B30
:10A9400003D17269203313437361049B0134002BDC
:10A950000CDA019B5B190193029B5B1902933A008D
:10A96000039BCBE7726913437361E3E77F196419B3
:10A97000F5E7C046020002001B7001002D700100C7
:10A98000346F0100010002000100010080F6FF1F8A
:10A9900000F00F40800000F8FFFFEFFFE8E9FF1F25
:10A9A00040420F000100060001000400FF234B702D
:10A9B0006A78A91C01203F244025013A03D20404EF
:10A9C000012020439CE60E7833002340264200D12C
:10A9D0002B000733DB080133C918C018EDE7FF234C
:10A9E00068784B7074E7FF23A7E66B78B64A137458
:10A9F000EB78A9781B020B4393826B7929791B02B0
:10AA00000B43D3820023B148737079E66B1C0A9321
:10AA1000AD4BEC1C1B780593AB780293059B012B87
:10AA20000CD002221021029B002B00D0AFE17370EA
:10AA3000B3700A9B0220E41A2404C2E700231D001D
:10AA40001800A34ACF1C137004930793029B002B9A
:10AA50001ED1012812D1002D00D182E19A4B9D8A8E
:10AA60000E200DA900F072FD022800D06CE1002D2F
:10AA700004D0974B013D1B78002BF1D0079BB070A1
:10AA800073700A9BE01A099B0004FF1A384337E6EB
:10AA90000221631C069323780193019A8A4B0A4290
:10AAA00000D1FAE0002D44D09B8A03931123134078
:10AAB000012B20D101980DA900F048FD02282DD1CD
:10AAC000039B002B06D0824B039A1B78013A03921A
:10AAD000002BEFD002211022069C23780B4200D1DC
:10AAE00030E1134200D02DE10134029B013B02937F
:10AAF000002BF2D1ADE70E200DA900F027FD0228B2
:10AB00000BD1039B002B06D0714B039A1B78013AA3
:10AB10000392002BEFD00025DCE700250128D9D1D6
:10AB20000D9B1A0A3B707A701A0C1B0EBA70FB70E0
:10AB300004370122644B01999B8A0393019B1A40BD
:10AB4000102319408C46019919425DD0A078637892
:10AB5000000203439C466146E37820791B040B43C3
:10AB600000061843631D0693574B0B90DB8A08932E
:10AB7000002A12D00021019800F0E8FC02280AD136
:10AB8000039B002BA6D0524B039A1B78013A0392E9
:10AB9000002BEFD09EE701289CD14B4B9C8A0DA93E
:10ABA000019800F0D3FC01000200022811D1002C12
:10ABB00004D0474B013C1B78002BF0D0424B0D9C3E
:10ABC0009B6923400B9C9C4218D010201043C0B2BC
:10ABD00080E73D4B0D9C9B6923400128EED10B9AE9
:10ABE0009A4209D0089B002B06D0394B089A1B7853
:10ABF000013A0892002BD0D0059ADFE7012900D056
:10AC000068E7002304931CE0002A27D06346002D48
:10AC1000F8D10021019800F099FC02280BD1039B88
:10AC2000002B00D177E72A4B039A1B78013A039255
:10AC3000002BEED04EE7012800D04BE700230500A3
:10AC40000493079B01330793214B1A78029B013B26
:10AC5000002A00D03EE7069C0293F7E601980DA972
:10AC600000F074FC02280BD1039B002B00D131E7CC
:10AC7000174B039A1B78013A0392002BEED029E779
:10AC8000012800D026E70D9B1A0A3B707A701A0C37
:10AC90001B0EBA70FB700437B3E7002D26D09B8AD9
:10ACA00003930E200DA900F051FC022812D1039B42
:10ACB000002B00D10EE7064B039A1B78013A039252
:10ACC000002BEED006E7C04680F6FF1F010005000E
:10ACD000A0F6FF1F012800D0FCE60D9B1A0A3B706E
:10ACE0007A701A0C1B0EBA70FB7004372020A17802
:10ACF0006378E278090219432379120411431B0691
:10AD00000B430199621D06920D93924A014203D0B2
:10AD1000002593611F3894E7958A01980DA900F0EA
:10AD200015FC022808D1002D00D1D3E68A4B013D45
:10AD30001B78002BF1D0EEE6012800D0EBE60025D1
:10AD400004907EE70534D0E6012800D096E60D9BFE
:10AD50001A0A3B707A701A0C1B0EBA70FB7004371B
:10AD60008CE6049B002B00D188E67A4B9D8A00215B
:10AD70000E2000F0EBFB022800D07FE6002D00D172
:10AD80007CE6754B013D1B78002BF0D076E62378EE
:10AD9000134206D00B4204D10134029B013B0293C3
:10ADA00041E60534F9E76B4900230A78012A00D00F
:10ADB000A8E0301D049068480370EB78A8781B0267
:10ADC000034318001C1E02932FD02F7902233C004E
:10ADD0001C401F4216D16B1D01935E4B9B8A03934F
:10ADE000029BA34268D100210E2000F0AFFB022895
:10ADF0001BD1039B5A1E039217D3574B1B78002B72
:10AE0000F1D012E03800104017421ED08C8A002189
:10AE1000380000F09BFB022814D1002C05D04E4BCB
:10AE2000013C1B78002BF2D00024049B099A74701B
:10AE3000240AF070B470981A2B799B0767D5802488
:10AE4000E402BEE500240128EFD1331D0193029BEB
:10AE5000029AD41A019A04925A1E0592002BE4D049
:10AE6000059B002B03D101331F4200D00E27394B25
:10AE70009B8A039338000DA900F068FB02280AD1D1
:10AE8000039B002BD1D0344B039A1B78013A0392D9
:10AE9000002BEFD0C9E70128C7D10D9B019A01997A
:10AEA00013701A0A4A701A0C1B0ECB700B00043375
:10AEB00001938A70059BCBE7019A019B51781B781F
:10AEC0000902194313009278DB78120411431B0620
:10AED0000B430D93019B0433019338000DA900F03F
:10AEE00035FB02280AD1039B002B9ED01A4B039AF4
:10AEF0001B78013A0392002BEFD096E7012894D1FA
:10AF000001346AE703207370B370F37094E7EC7850
:10AF1000AF7824023C430134A40452E50D4B1B7866
:10AF2000012B0FD1E978AB782A79090219436B79A3
:10AF3000120411431B060B4300200DA90D9300F0D2
:10AF400005FB5FE5FF235EE5FF2304483370FFF751
:10AF500031FBC04680F6FF1FA0F6FF1F0100010075
:10AF6000F8B503787F2B14D10B7045780B4C861CF9
:10AF70008F1C4D70002D01D12000F8BD390030002C
:10AF8000FFF70CFB030C241880B2F6183F18013DA4
:10AF9000F0E7FFF703FB0400EEE7C0460200020003
:10AFA00000226421174B10B517481A701A749A6161
:10AFB000013259619A839860FFF7B2FAF823134976
:10AFC000134A9B01885803438B5081234022114828
:10AFD0005B008361104B5A6059690A430421FF31B9
:10AFE0005A614161202058605A6982435A610B4B73
:10AFF0000B4A196580235B03536051690B4353610E
:10B0000010BDC04680F6FF1F808D5B0000700440BD
:10B010003810000000B00440800000F800900440A8
:10B0200000F00F4000230522FC308365C3650265F4
:10B030004365704770B50400FC340300606D002860
:10B0400013D001386065E06D85015D190D60010068
:10B05000A0314900CB5A013013600521FDF7A0FB58
:10B060000120236DE1650133236570BD0278002066
:10B0700013007D33DBB2012B03D98C3A1000431E41
:10B080009841C0B27047F7B50400FC340500206D4C
:10B090000E001F00019200282BD00800FFF7E6FFEA
:10B0A000002802D0012003F0FBFD236D019A013B33
:10B0B0002365402A00DD4022A36D31009801281845
:10B0C0000BF0B0FDA36D300099016918FFF748FF40
:10B0D000A36D05211A00A0325200A85298012D1824
:10B0E0003D60581CFDF75CFB0120636DA1650133D9
:10B0F0006365FEBD7FB5040000780D0008708038E0
:10B100000D2800D98DE0FDF7A7FA07162137428CEC
:10B110008C8C52606B70748203F0E8FA0600FDF7C5
:10B1200073FDC4B2687022003100A81C0BF07AFDD8
:10B130003D4BE01808E002A805F092F90722681CD0
:10B1400002A90BF06FFD394804B070BD002602A8BB
:10B1500005F086F90422611C01A801960BF062FD3E
:10B16000019B02A8029305F05FF9300005F08CF90D
:10B1700001232F486B70E7E7881C3E2106F096FEFE
:10B18000041E02D0012003F095FD6C70D0E76678B4
:10B19000A01CB1B206F06CFE012003F08BFD012370
:10B1A000F61830046B701843224BC018CCE701230B
:10B1B0004B706078002803D103F0AEFD1E48C3E752
:10B1C0000128F9D000234B70F8E701234B7005F0FC
:10B1D000FFF8002802D1023008F0E8FF1248B3E778
:10B1E000607800F075FE6870E8E700F0DDFE6870DA
:10B1F000F4E76678012003F067FD3100A01C00F041
:10B200009DFE68700120013636043043CCE70023F0
:10B210004B706078984202D101F034FBCEE70120F8
:10B22000FAE7044890E7C046020001000900010067
:10B23000020005000100010002000200F0B5421EFC
:10B24000002824D0124800244568012000238446A9
:10B250004026104810E06746013C1F4214D02027CA
:10B2600047602F008660013FFDD12F004660013FFF
:10B27000FDD15B08013A0AD3002CECD167460B786C
:10B28000072401311F42EAD120278760E9E7F0BD9A
:10B2900080F6FF1F800000F83F23F0B51C0083B04C
:10B2A0000440034200D14024030600D498E040212A
:10B2B0000126494B00920193484B4025019A526860
:10B2C0009D6010000138FDD118695D601500013DD9
:10B2D000FDD140093040C001012C00D121E1150011
:10B2E0009960013DFDD11D6917005960013FFDD1F5
:10B2F0006D0935404008ED012843022C00D114E1CE
:10B3000015009960013DFDD11D6917005960013F8D
:10B31000FDD16D0935404008ED012843032C00D1D3
:10B3200005E115009960013DFDD11D6917005960C7
:10B33000013FFDD16D0935404008ED012843042C43
:10B3400000D1F6E015009960013DFDD11D6917009F
:10B350005960013FFDD16D0935404008ED0128439A
:10B36000052C00D1E7E015009960013DFDD11D6974
:10B3700017005960013FFDD16D0935404008ED01CE
:10B380002843062C00D1D8E015009960013DFDD17D
:10B390001D6917005960013FFDD16D093540400816
:10B3A000ED012843072C00D1C9E015009960013D4B
:10B3B000FDD11D695960013AFDD16D093540009AF2
:10B3C0004008ED0128431070083C01320092002C27
:10B3D00000D072E703B0F0BD80F6FF1F800000F8D8
:10B3E0000D000127574B28785A6840214026564BBC
:10B3F000074200D07FE01F379F6017009E60013F2B
:10B40000FDD117005E60013FFDD1012CE2D087071E
:10B4100000D573E020279F6017009960013FFDD1A0
:10B4200017005960013FFDD1022CD3D0470700D54A
:10B4300067E020279F6017009960013FFDD117004A
:10B440005960013FFDD1032C00D1C3E7070700D5A8
:10B450005AE020279F6017009960013FFDD1170037
:10B460005960013FFDD1042C00D1B3E7C70600D5D8
:10B470004DE020279F6017009960013FFDD1170024
:10B480005960013FFDD1052C00D1A3E720270742D9
:10B4900040D19F6017009960013FFDD117005960AE
:10B4A000013FFDD1062C00D194E72027014236D17F
:10B4B0009F6017009960013FFDD117005960013F5F
:10B4C000FDD1C009072C00D184E7002824D1203009
:10B4D0009860100099600138FDD110005960013862
:10B4E000FDD1083C0135002C00D173E701272878F5
:10B4F000074200D17FE720275F607EE720275F605B
:10B500008AE720275F6096E720275F60A3E7202770
:10B510005F60B0E75F60BDE720205860D9E75F60FB
:10B52000C7E7C009009B187054E78009FAE7400993
:10B53000F8E70009F6E7C008F4E78008F2E74008FA
:10B54000F0E7C04680F6FF1F800000F8F0B5444BDE
:10B5500083B000935B7884460191002B00D183E097
:10B56000402120223F4B5A60996059600100C90771
:10B5700000D54AE19A6040233A4A6146936053609D
:10B5800063465B08890700D450E1202151604021C7
:10B59000344A91605160614689085B18C90700D43C
:10B5A00041E12021516040212E4A60469160516066
:10B5B00061466344C908000700D431E1202050608F
:10B5C0005B184021274A91605160DB0700D424E1D9
:10B5D0002023536040222021224B9A605A609960B8
:10B5E0009A605A6059609A605A605A698A435A61EF
:10B5F000009A2031147F221E04D0013A99605960CC
:10B60000002AFAD14025012216498D600E694D604D
:10B610008D600B694D608D6008695B0940091340BE
:10B62000104076095B008000164018434D6030439F
:10B63000012800D16FE102232500821E40279A4392
:10B640002135002A00D13BE1013D8F604F60002D84
:10B65000FAD120224B69C0B213434B614A60D0E05B
:10B6600080F6FF1F800000F820214020744A009BD4
:10B67000516090605B681C00013CFDD15060180077
:10B680000138FDD16046C00700D5BCE09160402183
:10B690006B4A180091600138FDD1516019000139E1
:10B6A000FDD1614660464908800700D4AFE0202004
:10B6B00050604020624A1C009060013CFDD1506007
:10B6C00018000138FDD1604680080918C00700D471
:10B6D000B2E0202050604020594A1C009060013C9C
:10B6E000FDD1506018000138FDD160466144C408A6
:10B6F000000700D49DE0202050604020504A1D00EB
:10B700009060013DFDD1506018000138FDD109194C
:10B71000C90700D47EE0202151604021484A18002A
:10B7200091600138FDD1180051600138FDD1202011
:10B730001C0090609160013CFDD11C005160013CF7
:10B74000FDD150601C009160013CFDD15160190099
:10B750000139FDD1516940258143516100990C7F28
:10B76000211E0AD0180095600138FDD118005560DF
:10B770000138FDD101390029F4D14025304A1900A2
:10B7800095600139FDD11069190055600139FDD16D
:10B79000190095600139FDD111691E005560013E07
:10B7A000FDD11E009560013EFDD1166955601D005A
:10B7B000013DFDD175090126490940093140354057
:10B7C000AD000640480028433043012800D1C8E0BE
:10B7D00002272100861E4025BE432131002E31D094
:10B7E0001C009560013CFDD11C005560013CFDD161
:10B7F00001390029F4D1536920310B435361C0B2A0
:10B80000516003B0F0BD516041E75A60B3E62020BB
:10B8100090604EE7202191607FE720239360D9E676
:10B8200020209060CCE620219160BCE62021916030
:10B83000ADE62020906060E7202090604BE7C04696
:10B84000800000F800994E7F002E00D1BCE06146D8
:10B850003940009161460F4200D091E1002C00D1A7
:10B86000A9E1402589491A008D60013AFDD11A00ED
:10B870004D60013AFDD1013C002CF4D14A692034DD
:10B8800022434A61002E16D00222614611400A006E
:10B890000091002A0FD1202140257C4C2132A1604B
:10B8A0001900A5600139FDD1190065600139FDD18C
:10B8B000013A002AF4D12022744BC0B25A60A0E7AA
:10B8C000009A557F002D00D186E0664662461E40F4
:10B8D000134200D04CE1002C00D166E140226B4BBA
:10B8E000013C9A605A60002CFAD120215A690A431F
:10B8F0005A61002DDFD0022663461E40002EDAD1A9
:10B90000202421234021614A9460013B91605160D1
:10B91000002BFAD1CFE7022360466246184013425B
:10B9200000D06DE03E3302E08B60013C4B60002CA8
:10B93000FAD12024554A202153690125234353611C
:10B94000019B20261B68203406E05660C0189460D6
:10B950005B085460002947D001391D42F5D196603B
:10B96000F4E70221654660460D40014200D08FE0B9
:10B97000402008E0906019000139FDD150601900A5
:10B980000139FDD1013C002CF4D120243F49202075
:10B990004A69012722434A61019A203412680EE065
:10B9A0004E601E008C60013EFDD11E004C60013EC9
:10B9B000FDD10138AD185208002800D1C8E020267A
:10B9C0001742EDD18E60ECE7002C00D049E7202132
:10B9D00053690B4353616EE7002C00D07EE72022B1
:10B9E0004B6913434B6166E72022C30700D5D9E0BA
:10B9F000264B9A604022254B01209A605A602EE027
:10BA0000202000270025402601238E600A697F0838
:10BA100052091A40AD180138D2074E60174300286A
:10BA2000F3D1402206268A6008694A60400918401E
:10BA3000684018400138019BB0430830002B00D00B
:10BA40001F60002C06D04022104B013C9A605A60C7
:10BA5000002CFAD120210D4A53690B4353616346F0
:10BA60001B0602D50023009AD360009B1B7C002B91
:10BA700008D020244021054A9460013B9160516028
:10BA8000002BFAD12022014B5A60BAE6800000F860
:10BA90002020002500274026190096600139FDD19D
:10BAA0001169566049093F3E31401E00013EFDD1FB
:10BAB0006D087F180138C9070D430028EBD14026D7
:10BAC000190096600139FDD110695660013BFDD126
:10BAD0000123400918407840184001380533984345
:10BAE000019B0830002B00D01D60002C0ED040259B
:10BAF000009B34495A6813008D60013BFDD113004F
:10BB00004D60013BFDD1013C002CF4D120212D4A98
:10BB100053690B43536163461B0602D50023009A09
:10BB2000D360009B1B7C002B00D1ABE7009A402523
:10BB30005468202223498A6022008D60013AFDD199
:10BB400022004D60013AFDD1013B002BF4D199E771
:10BB5000EA0723D420211B4A91604021194A18008A
:10BB600091600138FDD15160013BFDD10120D2E748
:10BB700040221F33013B8A604A60002BFAD1AAE6BB
:10BB800021213E371D009760013DFDD11D0057600A
:10BB9000013DFDD101390029F4D15FE62021094A98
:10BBA0005160DAE7074B5A6024E72021054A5369C0
:10BBB0000B435361A2E6202402494A6922434A61A9
:10BBC000009A66E6800000F8BFF34F8F034B044AEB
:10BBD000DA60BFF34F8FC046FDE7C04600ED00E0DE
:10BBE0000400FA051F22012110B54308002B01D1E2
:10BBF000904010BD1C0040000C402043013A5B08FF
:10BC0000F4E70000F7B50090012000220125124F53
:10BC100001914042019B9A4203DBFFF7E3FFC043DF
:10BC2000FEBD009B07219C5C00232C4202D02E000D
:10BC30008E40334364080139F7D21B06584008236D
:10BC400001004000002900DA7840013BDBB2002B04
:10BC5000F6D10132DEE7C046B71DC104F7B5C043D7
:10BC6000019200910125FFF7BDFF0022104F019BBB
:10BC70009A4203DBFFF7B6FFC043FEBD009B0721DE
:10BC80009C5C00232C4202D02E008E40334364087B
:10BC90000139F7D21B065840082301004000002953
:10BCA00000DA7840013BDBB2002BF6D10132DEE74F
:10BCB000B71DC10410B500F0B7FB10BDF0B50023EF
:10BCC00080270C0015008BB005900793089309930B
:10BCD0007F00059B29005E1C08AB029307AB019314
:10BCE00020003300009709AA01F012F8002808D1BB
:10BCF000089A002A03D03100079800F099FA0BB097
:10BD0000F0BD02280DD1089A002A03D1099BED1A33
:10BD1000E418DEE73100079800F08AFA0028F5D031
:10BD2000EDE701280AD1089A002A05D031000798CA
:10BD300000F07EFA0028E2D11320E0E704280DD0BD
:10BD40000538C3B2012BC4D8431E9841B022C0B2FB
:10BD50000349520004F092FC1620D0E71520CEE7EC
:10BD600033700100022210B50021FF3204000AF0F6
:10BD700075FF00F0A5FF0023237000F025FA10BD29
:10BD800010B500F021FA10BD10B504F011FD013816
:10BD900043425841C0B210BD002310B51A0000F054
:10BDA00021F9431E9841C0B210BD0300F0B53033F5
:10BDB00087B00393040018780F0015002F2832D89D
:10BDC0003026361A964200D9160032003900201863
:10BDD0000AF028FF039B002219788919C9B219704B
:10BDE0002F292BD91300200000F0FCF81C2200287A
:10BDF00024D0002205AB1100009304AB00F032F90F
:10BE0000021E1BD1049B21006363039B04981A78D4
:10BE100000F00EFA021E11D1039B626B1B78BF1952
:10BE2000D318AD1B63632A003900606B00F000FA81
:10BE3000021E03D1636B14325D196563100007B0F5
:10BE4000F0BD000010B507F069FF054B62221B68CA
:10BE50000449181A43425841C0B204F00FFC10BD07
:10BE6000B0F7FF1F3370010010B500F0DDFA10BD10
:10BE700070B5094E040033680D00984700239842BE
:10BE800007D133692900200098470323002800D0F8
:10BE9000023B180070BDC04614E8FF1F08300100C7
:10BEA00010B50322040008480AF0EDFE0023984272
:10BEB00008D00322210005480AF0E5FE01230028EE
:10BEC00000D00233180010BDC86F0100657001007A
:10BED000F8B5144D04002F78002F06D085220020DD
:10BEE000114904F0CBFB0220F8BD8B220128F6D8C3
:10BEF00007F014FF82220D4B0D4E18603900300000
:10BF000052000AF0ABFE012320010A4C2B700A4BB1
:10BF100024181C603000636898470028E4D003238D
:10BF20002B70E1E7ACF7FF1F33700100B0F7FF1F84
:10BF3000A8F6FF1F14E8FF1FA4F6FF1F70B5164DEB
:10BF400004002B780E00012B07D0A42200201349F7
:10BF500004F094FB0224200070BDFFF773FF104B28
:10BF600021001B6832009B680E489847022304009A
:10BF700013280ED0142801D0002809D12878B22225
:10BF80000138434258410549C0B204F077FBE2E76B
:10BF900003232B70DFE7C046ACF7FF1F33700100AF
:10BFA000A4F6FF1FA8F6FF1F10B50A4C2078002842
:10BFB00005D1C022084904F061FB022010BDFFF743
:10BFC00041FF064B06481B68DB6898470023237037
:10BFD000F4E7C046ACF7FF1F33700100A4F6FF1F63
:10BFE000A8F6FF1F30B505002F208842804185B09C
:10BFF0004722174940421C0004F040FB29000C2254
:10C00000203101A80AF00EFE002C01D1114B1C704A
:10C01000114B029A9A420BD1019B104A0220934283
:10C0200004D00F4A9B185A425341D8B205B030BDD4
:10C03000280004F0ABFB002806D00320002CF5D12B
:10C040000122044B1A70F1E7002CEFD00320EDE73A
:10C0500069700100EEF7FF1F0B9996978F9E939BD7
:10C060006D626C64F7B507000E0015000093002B9D
:10C0700002D0089B002B07D171220020404904F018
:10C08000FDFA02263000FEBD0024009B1C60089BC8
:10C090001C6002F08CFC0190A04226D0022F0BD134
:10C0A000A54203D080231B029E425AD18025354BE6
:10C0B0002D021C68002604E0032F13D000241C2648
:10C0C000250004F08DF9002801D1012F55D0002E54
:10C0D000D8D1002C4CD13000B822294904F0CEFA36
:10C0E0000236CFE7002DE1D0DCE702F062FC002849
:10C0F000E4D0012F07D1002D01D0002E34D1214BE7
:10C1000000251C68D6E7032FD8D11F4B1B69002BD5
:10C11000D4D00C335A78197812029D781143DA780A
:10C120002D040D43120615430DD158791A799979CA
:10C1300000021043DA79090408431206024302D1CF
:10C14000124B1C68B6E7587A1A7A997A00021043A3
:10C15000DA7A0904084312060243012AF0D01433A4
:10C16000D8E725001B26ACE7019C1A262500A8E786
:10C17000009B1D60089B1C6084E71C2682E7C0466C
:10C18000697001002C710100346F010028830100E7
:10C1900073B506000C00150002F00BFC00280DD052
:10C1A000032E0BD1074B1B690193002B06D02900EE
:10C1B0002000FDF7AFFF1D23002800D10023180049
:10C1C00076BDC046346F010070B5104D2C78002C40
:10C1D00007D0DA2200200E4904F050FA0224200091
:10C1E00070BD3022FF210B480AF038FD01232B706F
:10C1F000094B1C70094B1C60094B1C60094B1C60EF
:10C20000094B1C70094B1C70E9E7C046F5F7FF1F8E
:10C2100069700100B8F7FF1FEDF7FF1FE8F7FF1F78
:10C22000F0F7FF1FB4F7FF1FECF7FF1FF4F7FF1F36
:10C23000F0B5724B15001A7887B004000391012AFB
:10C2400007D00020EF226E4904F018FA022007B050
:10C25000F0BD6C4B1978002904D16B491A70086045
:10C260006A4908606A4B1B78002B6CD1674A1368D7
:10C2700059191160A34245D13026664B1868361A09
:10C28000AE4200D92E00644B3200181803990AF010
:10C29000C9FC604FAD1B3B68A419F018039B3860C4
:10C2A0009B1903932F284AD9303843425841122210
:10C2B0005349C0B2FF3204F0E1F9534A0123126836
:10C2C00039685548FFF78EFE544B1870534E04AB37
:10C2D0004D49307800930122096805ABFFF7C2FE93
:10C2E00000280BD104F08CF800280FD0494B30788F
:10C2F0001A684949FFF74CFF002807D003233F4A3B
:10C300001370A4E70322454B1A70DFE701269A2237
:10C310003F4F3B4938785200704004F0AFF9049821
:10C3200000F05EF90028E9D13E703A4B3A491A68AC
:10C33000354B186800F0C0F9002804D0DEE7344B14
:10C340001B78002BF1D1324B1B78002B06D02A0032
:10C350002000039900F0B0F90028CFD12F4B1B78B3
:10C36000022B48D0032B06D00020012B00D06EE713
:10C370008026360235E02A4B1B78181E00D166E76E
:10C38000284B1969081E00D161E70C3148780B78F9
:10C390008A7800021843CB78120410431B0603432B
:10C3A0000BD14A7908798B7912020243C8791B04B0
:10C3B0001A430006104302D149E79C420CD3487946
:10C3C0000B798A7900021843CB79120410431B06BB
:10C3D00003431E009C4201D91431D7E7181E00D137
:10C3E00035E764190020B44200D230E70223034A43
:10C3F000133013702BE7FE267602F2E7F5F7FF1FE6
:10C4000069700100F4F7FF1FF0F7FF1FB4F7FF1F7B
:10C41000ECF7FF1FE8F7FF1FB8F7FF1FEDF7FF1F4F
:10C42000EEF7FF1F346F010010B50F4B1C78002C86
:10C4300007D16C2220000D49FF3204F01FF90220C1
:10C4400010BD002018700A4B1B78834201D000F009
:10C45000CFF9022CF4D0074B1B78032BF0D0002827
:10C46000EED12530ECE7C046F5F7FF1F69700100FB
:10C47000ECF7FF1FEDF7FF1FF7B50024104B114D30
:10C480001B78114F114E0190A3420AD1104B2A681C
:10C490001B6839009B683068984701230400084AEC
:10C4A00013702A683800FF210AF0D8FB2968019828
:10C4B000FCF776F9019B2000591A3160FEBDC04699
:10C4C000F8FBFF1F0CFCFF1FF8F7FF1F08FCFF1F06
:10C4D00010FCFF1FF8B53A4C060023685B699847CB
:10C4E000236805009B6930009847364F0400002DF3
:10C4F00001D0002808D1362239000020FF3204F094
:10C50000BDF802242000F8BD80220020D200AA42FB
:10C5100040419D2239005200C0B204F0AFF88020A3
:10C520002900C000FCF73CF93C224B425941FF3244
:10C53000C8B2390004F0A2F800209E22AC4240416B
:10C5400039005200C0B204F099F829002000FCF72D
:10C5500027F93E224B425941FF32C8B2390004F05C
:10C560008DF821003000FCF71BF98022164B174F85
:10C570001C60174B701A174D38601860D200944237
:10C5800000D914000E4E2C6033681B6A002B06D0B5
:10C590009847041E03D033685B689847B2E70E4B98
:10C5A0001B78002B05D033683868DB689847041E79
:10C5B000F1D1FF212A6809480AF050FB0024A1E7C5
:10C5C00010FCFF1F9D70010000FCFF1FFCFBFF1F04
:10C5D00008FCFF1F0CFCFF1F18FCFF1FF8F7FF1FD4
:10C5E000F8B5294E040035784722002D34D10028B3
:10C5F00031D04368002B2ED08368002B2BD0C3682A
:10C60000002B28D00369002B25D04369002B22D0B2
:10C610008369002B1FD0C369002B1CD08022FF210F
:10C62000D2001A480AF01AFB0122194B1A70194B52
:10C630001D70194B1D60194B1D60194B1D60194B66
:10C640001D60194B1D60194D23682C609847041E0E
:10C6500008D02000F8BD4D220020154904F00EF846
:10C660000224F6E7134B1B78002B09D12B681B69BA
:10C670009847071E04D02B683C005B689847E8E7A2
:10C6800001233370E5E7C04619FCFF1FF8F7FF1FD1
:10C69000F8FBFF1F04FCFF1F08FCFF1F0CFCFF1F23
:10C6A000FCFBFF1F00FCFF1F14FCFF1F10FCFF1F03
:10C6B0009D70010018FCFF1FF0B5434D85B02F7829
:10C6C000040002910192012F07D000207B223F49F4
:10C6D00003F0D4FF022005B0F0BD3D4E3378002BAF
:10C6E00009D1FFF7F7FE002802D002232B70F2E7F2
:10C6F000384B37701C60384B20001F68354B3900B1
:10C700001E68FCF74DF83000631A39000393FCF7FC
:10C7100047F8039B761AB34204D02000FFF7ACFE23
:10C720000028E2D12D4B20001F682A4B39001E68DB
:10C73000FCF736F83000631A39000393FCF730F841
:10C74000039B761AB34204D02000FFF7C3FE0028F3
:10C75000CBD1234F204E3B6832689B18A34204D8AC
:10C760002000FFF789FE0028BFD1019B002B26D0B7
:10C770001C4B1A4A1B6812689B18A34204D820005D
:10C78000FFF7A8FE0028B0D138683668019B8619EB
:10C79000361B9E4200D91E00134B201AC0183200CF
:10C7A00002990AF03FFA72427241104BA4191A70B2
:10C7B000029B9B190293019B9B1B0193C9E7054BAD
:10C7C00001981C6087E7C04619FCFF1F9D7001009F
:10C7D00004FCFF1F14FCFF1F0CFCFF1F00FCFF1FCD
:10C7E00008FCFF1FFCFBFF1FF8F7FF1FF8FBFF1FF4
:10C7F00070B5194E3078002806D1CC22174903F0C5
:10C800003DFF0224200070BD0025012803D128002F
:10C81000FFF732FE0500124B1B685B6898478022C9
:10C820000400D200FF210F480AF018FA01220E4B33
:10C830001A7000230D4A337013700D4A13600D4AAD
:10C8400013600D4A13600D4A13600D4A13609C4239
:10C85000D8D12C00D6E7C04619FCFF1F9D700100FF
:10C8600010FCFF1FF8F7FF1FF8FBFF1F04FCFF1F62
:10C8700008FCFF1F0CFCFF1FFCFBFF1F00FCFF1F41
:10C8800014FCFF1F10B5040003F0F8FC014B1C70F2
:10C8900010BDC04618FCFF1F80204000704780205C
:10C8A000C0007047034B1878013843425841C0B26A
:10C8B0007047C0463900002010B50F4B187800288B
:10C8C00006D183220D4903F0D9FE0223180010BDC2
:10C8D0000020187003F0DAFF1F230028F6D1084B60
:10C8E0001B78002B01D00023F0E702F060F800284D
:10C8F000F9D12523EAE7C04639000020D1700100B4
:10C900003A00002070B5184D2C78002C07D0622218
:10C910000020164903F0B2FE0224200070BD220060
:10C920002100200003F09CFF00281AD18022104B28
:10C9300021001C700F4B10481C70104BD2001C7053
:10C940000F4B1C600F4B1C600F4B1C700F4B1C607F
:10C950000F4B1C600F4B1C600AF080F901232B70F9
:10C96000DBE71E24D9E7C04639000020D170010062
:10C970003A00002038FCFF1F39FCFF1F30FCFF1F6E
:10C980002CFCFF1F34FCFF1F24FCFF1F20FCFF1F9B
:10C9900028FCFF1F1CFCFF1F70B5304C05002378DE
:10C9A000012B06D00020FF222D4903F067FE022054
:10C9B00070BD8305980D002B08D00822002028495F
:10C9C000FF3203F05BFE02202070F1E7254A137866
:10C9D000002B0AD0244B25491B6809685B189D422F
:10C9E00003D087221E495200EBE7BE21204B4902AB
:10C9F000EB188B4203D2022321202370D8E70123B6
:10CA0000137080228026184BD2001D60174B36020F
:10CA10001A60B5421AD201F0CCFF002810D0002DC8
:10CA20000ED1280001F042FE002813D180213200EF
:10CA30002800490001F043FE00280DD10020B7E78F
:10CA4000280001F033FE0028F8D0D4E72320022389
:10CA50002370ADE71020FAE72020F8E73900002026
:10CA6000D170010030FCFF1F2CFCFF1F34FCFF1FA6
:10CA70000080FFFFF8B5164D2B78012B07D0382228
:10CA800000201449FF3203F0F9FD0220F8BD002414
:10CA9000114E3378A3420AD180273F022000FFF7CE
:10CAA0007BFF00280CD0022322202B70EEE73E22D1
:10CAB00020000849FF3203F0E1FD02202870E5E77D
:10CAC0008023DB00E418BC42E8D101233370DDE7AA
:10CAD00039000020D170010038FCFF1FF7B5684B0A
:10CAE00005001B780F001600012B07D0A2220020A2
:10CAF000644903F0C3FD02242000FEBDFF23AB22E6
:10CB0000184206D1FF2E03D9300018401E4203D030
:10CB1000B22200205B4908E08022AB059B0D9B19E7
:10CB2000D200934207D9B9225649022403F0A6FD48
:10CB3000534B1C70E0E7544B1B78002B10D1534B28
:10CB40001878002801D1C122EEE7514B1B689D42A5
:10CB500004D3504A12689B189D4201D3C722D8E7DC
:10CB60004D4A1378002B08D04C4B4D491B6809687F
:10CB70005B189D4201D0CF22CBE7FE235B029D4292
:10CB800009D28021AB1909028B4204D902233C4A05
:10CB900020241370B0E701231370404B1D60404BFD
:10CBA0001E6080231B029D4255D201F002FF002827
:10CBB00053D03C4B32005B1B01939E4200D91A00BC
:10CBC000394C39002068FFF749F880232060DB00EA
:10CBD0009D4207D235483200390028180AF022F861
:10CBE000002489E78022AB191202934235D1304BE1
:10CBF000304A5B1B521BFB5CBA5C1B0212041343E2
:10CC0000019A2724BA5C13432B4A521BBA5C1206C2
:10CC1000134398421BD13A003100280001F04FFD28
:10CC2000073C002813D101F041FD103C002807D13A
:10CC300080211E4AC90001F042FD431E9841440173
:10CC400001F098FD01221D4B1A70002CC8D0022360
:10CC50000B4A137050E72324F9E73A00310028000B
:10CC600001F02DFD041E91D18023AD191B029D42C0
:10CC7000B6D301F07FFD0122104B1A703CE7C0468D
:10CC800039000020D170010038FCFF1F30FCFF1F6D
:10CC90002CFCFF1F34FCFF1F24FCFF1F20FCFF1F88
:10CCA00028FCFF1FFC7F00001CFCFF1F39FCFF1F3E
:10CCB000FD7F0000FE7F0000FF7F00003A000020A3
:10CCC0002522002110B50A4809F0C8FF00230020E2
:10CCD0000849094A0B6013700849094A0B70137020
:10CCE0000849094A0B701380084B187010BDC046E4
:10CCF0004000002068000020660000203E00002068
:10CD00006C000020650000203C0000206D00002029
:10CD1000F0B58BB00493002304000792A548129A43
:10CD200006911360027809906618002A1AD02278BA
:10CD30003A2A16D00027A04B0593109AFF21049899
:10CD400009F08CFF069B341B1C1B129B1A68059B69
:10CD50001B689B1A119A1360079B1C6038000BB06C
:10CD6000F0BD0370954B08931B78002B7AD10021FE
:10CD7000914B0593B44200D10DE1914B0293914B3D
:10CD8000039320E00A2B1BD08E4A01921278002ACE
:10CD900034D0D90600D409330F278B48884D017849
:10CDA0001F406B5C3B436B542B780131C9B21F1D94
:10CDB0009C4601708F422DDB53425A41019B1A70F1
:10CDC0000134A64213D023780D2BF9D03A2BD9D1B8
:10CDD00025220021029809F041FF0023039A013423
:10CDE0001370794A1370794A1370A642EBD1129BE3
:10CDF000109A1B68D31A002710939EE7724909788E
:10CE00002429D9D8D80629D50F2003406C481B0106
:10CE10004354D1E7180001210123695C0133401814
:10CE2000DBB21900C0B29F42F7DA002800D0ABE0B5
:10CE3000664B19780029BFD101311970AB78697838
:10CE40001B020B435BBA6B70EF789BB2190AA97097
:10CE50000D2FB1D85E49B80009588F460F20034006
:10CE60000933D3E70023564D089A049F1370291DF8
:10CE70002A78380009F0D6FE28784F4A3B180493E8
:10CE8000129B1968411819602B6805921B021D0C32
:10CE900053881B042B431B1813606BE74D4A128801
:10CEA000002A0BD04C490988914207D04B49098888
:10CEB000914203D00123099A137098E7059A1168EB
:10CEC0000A0C12041343994268D10023089A049F64
:10CED0001370291D6246380009F0A4FE2978129AC1
:10CEE0007B180493129B05981B685B1813602B68D2
:10CEF0001B021A0C43881B0413435B180360019B3D
:10CF00001A7859E7AB8833495BBA0B8054E7129B18
:10CF1000FF211A68109B04989A1A09F09FFE069B3D
:10CF2000341B05991C1B129B02271A680B689B1A5D
:10CF3000119A1360079B1C602B796A791B061204F7
:10CF400013430B600AE7129BFF211A68109B049899
:10CF50009A1A09F083FE069B341B05991C1B129B31
:10CF60001A680B689B1A119A1360079B1C602B7937
:10CF70006A791B03120113430B60EFE6129B109AB0
:10CF80001B68D31A1093D8E6129B109A1B680427CB
:10CF9000D31A1093D1E6109B5B1A2CE70123089A51
:10CFA00002271370129B109A1B680134D31A109336
:10CFB000C3E6C0466D000020680000206500002028
:10CFC00040000020660000203E0000206C00002091
:10CFD000307101003C000020F0E7FF1FEEE7FF1F6B
:10CFE00010B5034B0021186806F03EFA10BDC0468C
:10CFF0009800002010B5024B186806F047FA10BDE3
:10D000009800002010B506F089FE064B6A221B68C6
:10D010000549181A43425841FF32C0B203F02EFBB3
:10D0200010BDC0469C00002068710100114910B578
:10D030000A00114B13CB13C213CB13C213CB13C271
:10D040001B68136000F056FB0C4801F075F901F005
:10D0500015F980220A4B920018600A4B400A1A60A8
:10D060000122094B1A60094B094A1860094B1A60E2
:10D0700010BDC046700000209C710100A9D20000C4
:10D0800068260020302600202C260020282600209C
:10D09000A40000202426002010B50400FFF7A0FF04
:10D0A000064B002C07D01A78002A01D102321A70E0
:10D0B000FFF7A0FF10BD1C70FAE7C046A5020020D4
:10D0C00010B5FFF78DFF064B1978064B1A788A4288
:10D0D00003D1022A01D1013A1A70FFF78BFF10BD6C
:10D0E000A4020020A50200200300F0B506000120E4
:10D0F000133BDBB298428041BA22494F85B03900D8
:10D100004042920003F0BAFA464C631CDB7F032BCB
:10D1100007D1BB2239000020920003F0AFFA05B01E
:10D12000F0BD23681D1E0BD0A269E1690025914264
:10D1300006D3AA4204D06268A168551A6A425541D2
:10D1400001222800A11D1040C877E11DC97F01926E
:10D150000391002B07D123000833DB7F033B1A0028
:10D16000531E9A410192002302939D4202D0631DF7
:10D17000DB7F0293231DDB7F5A1E934122695B42B2
:10D180001D400023013210D06368274A581C431EFB
:10D1900098413900C0B203F071FA626823699B1AA2
:10D1A00062695B0293429B415B421E4C002E19D088
:10D1B0000321631CD977631CDB7F032B0CD1023462
:10D1C000E37F002B06D0FEF7EFFE0023E3779E42BD
:10D1D00000D10600154B1E70039B002B9FD1FFF75B
:10D1E0006FFF9CE7039A002A0BD0002B07D1019B0D
:10D1F000002BDDD0029B002BDAD10426D8E70626CF
:10D20000D6E7002DD4D1029B002B02D00221631C53
:10D21000D0E7019B002BCED00121631CCAE7C0469A
:10D2200068710100700000200A0300006E000020F9
:10D2300070B51A4C651CED7F032D05D10020184AEE
:10D24000184903F01BFA70BD2568002D00D120603D
:10D25000A068013000D1A16020000830C57F032DF7
:10D2600000D1C377A069904208D9E069904205D9FE
:10D27000002A03D00320FFF737FFE4E7481C02D061
:10D28000A0688842F6D1032B04D021000831C97F61
:10D290009942EFD10020A261EDE7C0467000002066
:10D2A0003502000068710100F8B50F001C0006008F
:10D2B000150000F0A7FA30494B1CDB7F032B1AD076
:10D2C000022F14D10F68AF4215D1200001F026F8CB
:10D2D0000500200000F0FCFF04003000FEF7DEFD3A
:10D2E0002A00030021003800FFF7A2FF03E0002F0F
:10D2F00002D0012F1AD0F8BD3000FEF7CFFD032871
:10D30000F9D0200001F015F88307F4D43000FEF7BF
:10D31000C5FD0700200001F001F80600200000F024
:10D32000D7FF3B00010032002800DDE70B68AB426D
:10D33000E1D1CB1CDB7F002B06D00122002352421F
:10D340000B608A608B61D6E70A000C4B13CB13C2CB
:10D3500013CB13C213CB13C21B681360FFF740FE3D
:10D36000074B1A78012A04D1064A1278022A00D102
:10D370001A70FFF73FFEBEE7700000209C710100AD
:10D38000A5020020A4020020F7B50500FFF73AFE31
:10D39000FFF726FE3C4F3D4C3A7823789A4202D163
:10D3A000FFF728FEF7BDFA22394E01203100FF3287
:10D3B00003F064F93B78022B10D1364B0133DB7F4D
:10D3C000012B58D007D9023B012B04D93100002092
:10D3D000314A03F053F9FA235B0004E0002B3BD100
:10D3E0002278022A40D12D4A2D481168814203D863
:10D3F0006D1815609942D3D93B78257801933D701B
:10D40000012D01D10223237000241460FFF7F2FDE7
:10D41000019B022B17D11F4F7B1CDB7F032B05D0F9
:10D420000122FB1D2000DA77FFF75EFE0137F87F4F
:10D4300012220338434258413100C0B2FF3203F098
:10D440001DF900F083FA012D19D9022DAAD1FFF799
:10D45000EDFD0122134B14E0012B05D12278022AA5
:10D460000BD000239A42BED0310000200E4A03F0B8
:10D4700005F90023B7E70D4BB5E70D4BB3E70022E5
:10D48000084B1A608EE7C046A4020020A5020020C7
:10D4900068710100700000200B020000A000002055
:10D4A0005FEA0000602600201B020000204E000002
:10D4B000C409000010B5FFF7A5FD014B187810BD99
:10D4C0006E00002010B506F029FC094B1860002002
:10D4D00005F0B8FF074B1860FFF7A8FD0023064AC8
:10D4E0001370064A1370064A1360064A136010BD93
:10D4F0009C00002098000020A4020020A50200202B
:10D50000A00000206026002070B504000D00160069
:10D51000FFF778FD064B1B68002B07D0012001F0B8
:10D52000D3FB32002900200000F00CFF70BDC04684
:10D5300060260020F7B5040015000191FFF762FD99
:10D54000534B1B68002B1AD00022524B524F1A60CB
:10D550007E1CF37F032B12D0012001F0B5FB2A00C3
:10D560002000019900F01AFFF37F032B07D0FB1C6A
:10D57000DB7F002B04D0484E73689C423FD2F7BD3E
:10D5800001986902FEF774FC0600032820D00120F0
:10D59000BB1CDB7F414A5840414903F06FF8601CD7
:10D5A000431E98413F4A3E49C0B203F067F87B688A
:10D5B000013300D17C60384F3B000833DA7F032A07
:10D5C00000D1DE777B689C4208D00320FFF78CFDFA
:10D5D000314B0333DB7F002BD1D0CCE73B0008334A
:10D5E000DB7FB342F1D13000FEF772FC0028EDD1B1
:10D5F0000123BA1CFC600337D377FB77E6E7F368B7
:10D600009C420AD0BBD23369013300D13461336903
:10D61000A34200D923003361B1E7F3696F02DB193C
:10D62000F3612C19204BF460DC7F0020002C24D106
:10D63000B1221B4D01202900920003F01FF81B4B63
:10D640002900D87F1A4A03F019F839000198FEF72B
:10D6500075FC05360500132812D1FEF7A5FC134B07
:10D66000114ADC7701230500D377F377FCF7D6FC6A
:10D670002800094B5A69D7195F61FFF735FD7EE72E
:10D68000142803D101232500F377F1E7F477EFE7BE
:10D6900060260020A000002070000020850200000D
:10D6A00068710100860200007400002072000020F2
:10D6B000C5020000002210B50300110010009847B9
:10D6C00010BD0000F8B50A4F060038000D00FBF74A
:10D6D0009BFA0400002D06D0002E06D1020039006E
:10D6E000280009F09FFA2000F8BD0024FBE7C0469F
:10D6F000C471010037B5314D3148EB7F002B00D1AB
:10D7000030488021C90400F0E3FC2F4C2000FFF7D3
:10D71000D1FF2A7D03002D48002A00D12C4821008A
:10D72000002200F0FBFE2B4C2000FFF7C3FF00227D
:10D7300003002100284800F0F1FEFFF7BBFE00289F
:10D7400009D0264C2000FFF7B5FF0022030021007E
:10D75000234800F0E3FE4121224B234A234802F0F4
:10D7600013FD00280CD0224C2000FFF7A3FF21005E
:10D77000030000221F4800F0D1FE002100F0A6FDAA
:10D780000023009380231B02019301F012F900286B
:10D7900011D0802200985200019909F035FA041E38
:10D7A00009D1154D2800FFF785FF2200030029004D
:10D7B000124800F0B3FEFCF753FC37BD346F010094
:10D7C000536F0100307201009DDA0000486F0100C4
:10D7D0003C72010005DE0000487201005DDB0000C4
:10D7E00054720100EA020020E8020020A602002094
:10D7F00091DC0000A2760100C5D600006072010035
:10D8000000207047F0B585B004000E00FFF7F8FF68
:10D81000002805D104F0CCF9002803D0022E0AD14B
:10D8200005B0F0BD04F0C6F90028F7D102F0D8FD2C
:10D830000028F3D1F4E7002E72D102ABDD1D0123E5
:10D84000290020002B70FCF7FDFB002826D13B4F60
:10D850000196013E0B222000396809F0D5F9002815
:10D8600000D13E79019B083701330193102BF1D190
:10D87000731C1ED00F2E4CD83000FAF7EDFE0815A1
:10D880000F1D262A2C303236383C3E42444801F0E7
:10D8900090F8002802D0012002F022FC2B78002B07
:10D8A000BED0FFF70DFCBBE7E2220020244902F0C6
:10D8B000E5FE00232B70F1E7224B1C682368984794
:10D8C0002369984763689847E8E7012002F060FD04
:10D8D000E4E70020FAE7012002F062FDDEE7002025
:10D8E000FAE7012002F064FDD8E70020FAE7002003
:10D8F00002F0B8FCD2E70120FAE7012002F060FD57
:10D90000CCE70020FAE7012002F0B8FCC6E70020CF
:10D91000FAE7882200200A49520002F0AFFEBDE774
:10D92000012E00D07CE70B222000074909F06CF99A
:10D93000002800D074E702F0BFFEB2E7C476010011
:10D940006C72010028830100A276010010B501F07D
:10D950002EF8002805D0FFF7ADFD002801D1FEF715
:10D9600033F901F026F8002805D002F005FC002864
:10D9700006D0FEF729F9054A13680133136010BD7C
:10D9800002F076FC0128F6D1F3E7C046EC02002055
:10D99000F0B5A7B006AD0290039104920021802259
:10D9A0002800059309F05AF900232C9AD25C002A2A
:10D9B00003D0EA5401337F2BF7D12B78402B0FD0C3
:10D9C000002B0BD106ABED1A0093049A059B03992B
:10D9D0000298019502F021FE27B0F0BD0135ECE779
:10D9E0006878562813D8412801D8294C17E04238C6
:10D9F0001428FAD8FAF726FE32F93BF9F9F935F985
:10DA0000F9F9F910F9F9F9F941F9382F3E006238BE
:10DA1000C3B2142BECD9E8E700F080FE0400280024
:10DA2000FBF7F2F806002000FBF7EEF83318023B94
:10DA3000EB1826AA07009A4227D9B21EA91C28185B
:10DA400009F0F9F83A002100280009F0EBF82B78EA
:10DA5000002BB2D1B6E700F049FEDFE700F04AFE46
:10DA6000DCE700F04BFED9E700F04CFED6E700F013
:10DA70004DFED3E700F04EFED0E706482A3003788B
:10DA80000400002BCBD1044CC9E7AD199AE7C0467E
:10DA90009B720100346F0100A1720100F7B505000F
:10DAA0000E00002802D0002081421CD10E4B5702EC
:10DAB0006D022A00390000933000002302F0CCFDF3
:10DAC0000A4B04002A003900009303003000FFF7DE
:10DAD0005FFF074B241800932A0023003900300011
:10DAE00002F0BAFD2018FEBDDA720100AA7301002F
:10DAF000AD730100F0B585B003930A9B1700009346
:10DB0000039B05000E0002F0A7FD0222039B019279
:10DB1000104A31001B18009204003A00280002F05D
:10DB20007CFD0B99039B24183A001B1900912800D7
:10DB3000310002F091FD0222039B0192064A241853
:10DB4000009231003A0028001B1902F066FD2018EF
:10DB500005B0F0BDDA73010070740100F0B587B054
:10DB6000150003910400FFF7A5FC060000F07EFD00
:10DB70000700300000F090FD0490002C03D000203E
:10DB8000039B834225D1274B64026D0222002900AA
:10DB90000197009303980023FFF7ACFF224B060088
:10DBA0000093220003002900039802F055FD012391
:10DBB0001E4F36180593049B002B0CD102230193B2
:10DBC0001B4B2200009329003300039802F025FD2F
:10DBD000301807B0F0BD174B9F42EFD0059B002BCC
:10DBE0000AD102330193144B220000932900330021
:10DBF000039802F012FD36180122049B13420AD04A
:10DC00003B682200009329003300039802F024FDB2
:10DC1000002336180593049B04375808C3B20493B5
:10DC2000C9E7C046D0730100D6730100B076010089
:10DC300070740100C4760100DD73010037B5079DE3
:10DC4000044C002D00D1044C0194069C0094FFF775
:10DC500051FF3EBD45870100E0730100F0B587B07C
:10DC600004000D0003A80D9916001F0002F08FFCA0
:10DC70006A460C210023521813540C9B0192009306
:10DC800032003B0029002000FFF734FF07B0F0BD51
:10DC9000F0B5002489B00E000494A04201D0A14246
:10DCA00073D13B4B3B491B780291012B05D03A497C
:10DCB0000291022B01D000230293384B47025502F8
:10DCC00029003A0000933000002302F0C5FC344BD9
:10DCD00004000193334B3A00290000930300300005
:10DCE000FFF708FF304B24181B883A0001932F4B95
:10DCF0002900009330002300FFF7B0FF029B241897
:10DD0000002B09D001932A4B3A00009329002300ED
:10DD10003000FFF7EFFE241804A802F095FA0390F4
:10DD2000002832D0049B002B2FD0224B3A000093C6
:10DD300029002300300002F08FFC002324180293F6
:10DD4000230080220A33920093421ED20A221A49EB
:10DD500005A808F067FF029B049A9B00995805A844
:10DD600002F0FCFB0A23019305AB3A000093290063
:10DD70002300300002F051FC029B039A013302930E
:10DD80006B461B7A24189A42DAD8200009B0F0BDFD
:10DD9000EA020020E2730100ED730100F973010053
:10DDA000A602002002740100E802002007740100AE
:10DDB0000C74010013740100C46C0100F0B589B04B
:10DDC00003930F4B04000D0016000021072206A844
