:020000040000FA
:1000000000400020E502000021030000230300005F
:1000100000000000000000000000000000000000E0
:1000200000000000000000000000000025030000A8
:10003000000000000000000027030000290300006A
:100040002B0300002B0300002D0300002B030000F6
:100050002B030000000000002B0300002B03000016
:100060002B0300002B0300002B0300002B030000D8
:100070002B0300002B0300002B0300002B030000C8
:100080002B0300002B0300002B0300002B030000B8
:100090002B0300002B0300002B0300002B030000A8
:1000A0002B0300002B0300000000000000000000F4
:1000B0000000000000000000000000000000000040
:1000C00010B5064C2378002B07D1054B002B02D02E
:1000D000044800E000BF0123237010BD6800002029
:1000E0000000000090070000044B10B5002B03D067
:1000F0000349044800E000BF10BDC04600000000F6
:100100006C00002090070000164B002B00D1144B10
:100110009D46402292029A1A924600218B460F4633
:100120001348144A121A00F0B4FA0F4B002B00D0F7
:1001300098470E4B002B00D0984700200021040068
:100140000D000D48002802D00C4800E000BF00F070
:100150006BFA2000290000F08EFA00F04FFAC0463A
:100160000000080000400020000000000000000027
:10017000680000208C00002000000000000000004B
:1001800010B5024800F004F8002010BD9F030000E5
:10019000A0220C21F0B5484BD20585B00290012475
:1001A000D15000231100454822009A40024205D058
:1001B0001A000325C132FF329200555001331F2B24
:1001C000F2D1FA23029A9B009A429B411A40029272
:1001D00072B6802300249B010193394B00259C4675
:1001E0000020032C03D1802300249B0101930021D4
:1001F000344A6300D2180B0067465678BE5D177804
:10020000039610263E413700039E374202D0012656
:100210008E403343013106320929EDD1DB43A0265C
:10022000294A1B011340F605284A312823DCB3581C
:1002300027490B40B3508021A222264BD20009034C
:10024000A026F605B6580E421DD1BFF34F8F224BA4
:10025000224ADA60BFF34F8FFEE70100029800F0F8
:10026000E1F80A2100F0C4F905234B431C493D0085
:100270005B189C46B4E7019FB1583B430F4F4B407E
:100280003B404B40D6E7013B002BD9D1019B0134C9
:100290005B000193FA230130E4B25B009842A0D1E5
:1002A0006F1C032D99D064200A26002DD5D0310073
:1002B00000F0B8F8013DF8E74C070000F0FF00003F
:1002C0008807000052070000F01F0000040500002E
:1002D0000F00FFFFB80B000000ED00E00400FA057E
:1002E000200700000848026803210A43026007490A
:1002F000074A084B9B1A03DD043BC858D050FBDC6F
:100300000548804705480047240500409C07000039
:1003100000000020680000207903000009010000AF
:10032000FEE7FEE7FEE7FEE7FEE7FEE7C1230E4A33
:100330009B00D15810B5090603D50C49096A00295C
:1003400008D1D3585B0704D5084B0021DB68002B8C
:1003500001D110BD0121064B18680028F9D0054BCA
:100360001B689847F5E7C04600200040FC2000408D
:10037000880000208400002070B5224C2368DBB286
:10038000012B03D12048026813070DD08022A3233C
:100390000021D205DB00D1501C4B996001319160E6
:1003A0009A68002AFCD070BD1949F0230A68E0263B
:1003B00015001D40324221D1164A12681A420DD151
:1003C000154B164A1A608022154B12021A602368D8
:1003D000DBB2012BDAD103681B07D7D1F0220B68FF
:1003E0001340402BD2D10B4B1B681342CED180223D
:1003F000C1230121D205DB00D150C7E7302DDBD06E
:10040000ECE7C046E00F00F0E40F00F0FC00004015
:10041000E80F00F0EC0F00F004050040DFFF07C01C
:10042000186C004003460B437FD4002243088B42E4
:1004300074D303098B425FD3030A8B4244D3030B6B
:100440008B4228D3030C8B420DD3FF22090212BA30
:10045000030C8B4202D31212090265D0030B8B42AC
:1004600019D300E0090AC30B8B4201D3CB03C01A96
:100470005241830B8B4201D38B03C01A5241430B71
:100480008B4201D34B03C01A5241030B8B4201D361
:100490000B03C01A5241C30A8B4201D3CB02C01ACC
:1004A0005241830A8B4201D38B02C01A5241430A44
:1004B0008B4201D34B02C01A5241030A8B4201D333
:1004C0000B02C01A5241CDD2C3098B4201D3CB01DA
:1004D000C01A524183098B4201D38B01C01A524189
:1004E00043098B4201D34B01C01A524103098B428D
:1004F00001D30B01C01A5241C3088B4201D3CB0078
:10050000C01A524183088B4201D38B00C01A52415A
:1005100043088B4201D34B00C01A5241411A00D20A
:1005200001465241104670475DE0CA0F00D0494273
:10053000031000D34042534000229C4603098B42E3
:100540002DD3030A8B4212D3FC22890112BA030A6B
:100550008B420CD3890192118B4208D389019211ED
:100560008B4204D389013AD0921100E08909C30972
:100570008B4201D3CB01C01A524183098B4201D374
:100580008B01C01A524143098B4201D34B01C01A5F
:10059000524103098B4201D30B01C01A5241C308D7
:1005A0008B4201D3CB00C01A524183088B4201D346
:1005B0008B00C01A5241D9D243088B4201D34B0061
:1005C000C01A5241411A00D20146634652415B10A3
:1005D000104601D34042002B00D549427047634684
:1005E0005B1000D3404201B5002000F005F802BDC9
:1005F0000029F8D016E770477047C046084B10B581
:100600000400002B02D0002100E000BF054B186859
:10061000836A002B00D09847200000F034F8C046D1
:10062000000000001C07000070B500260C4D0D4CAA
:10063000641BA410A64209D1002600F033F80A4D2D
:100640000A4C641BA410A64205D170BDB300EB5840
:1006500098470136EEE7B300EB5898470136F2E7CA
:100660006000002060000020600000206400002086
:1006700070477047704710B5FFF7FCFFFFF7F9FFB1
:10068000FFF77EFD10BD10B5002801D0FFF7F0FF89
:10069000FEE703008218934200D1704719700133BE
:1006A000F9E70000F8B5C046F8BC08BC9E467047A4
:1006B000F8B5C046F8BC08BC9E4670470000000074
:1006C000000000000000000000000000000000002A
:1006D000000000000000000000000000000000001A
:1006E000000000000000000000000000000000000A
:1006F00000000000000000000000000000000000FA
:1007000000000000000000000000000000000000E9
:1007100000000000000000000000000000000020B9
:100720000C9252524C048C84848E1C824C901E1E5F
:10073000C244924C06CA525FE21FF01EC13E024400
:100740008ED12E1FE24488100ED12ED12E0ED12E26
:10075000C488000004020204020000020404040031
:10076000020200040403010000010303030001016D
:10077000020303040201010301040301000300005A
:1007800004010102000003021B1B000E1100000007
:100790000000000074F9FF7F01000000000000006D
:1007A000DC060000FC060000BC06000000000000A3
:1007B0000000000000000000000000000000000039
:1007C0000000000000000000000000000000000029
:1007D0000000000000000000000000000000000019
:1007E0000000000000000000000000000000000009
:1007F000000000000000000000000000E900000010
:04080000C100000033
:04000005000002E510
:00000001FF
