:04000003000084BDB8
:020000040000FA
:10800000007F0020BD840000E58400008D9D0000FD
:10801000E9840000EB840000ED840000104BFCDFDD
:108020008F9E939B2028056E02010000F9840000BA
:10803000F1840000F0630100638500007385000097
:108040000D960000F7840000210A010005040100DC
:10805000F784000000000000AD9500000000000063
:10806000F7840000F7840000F7840000F784000024
:10807000F7840000F7840000F7840000F784000014
:10808000F7840000F7840000F7840000F784000004
:10809000F7840000F7840000F7840000F7840000F4
:1080A000F7840000F7840000F7840000000000005F
:1080B00000000000000000000000000000000000C0
:1080C00000000000000000000000000000000000B0
:1080D0000000000000000000000000002D1C010056
:1080E0000000000000000000000000000000000090
:1080F0000000000000000000000000000000000080
:10810000000000000000000000000000000000006F
:10811000000000000000000000000000000000005F
:1084000010B5054C237833B9044B13B10448AFF3CE
:1084100000800123237010BDC80C00200000000064
:10842000A47F010008B5034B1BB103490348AFF318
:10843000008008BD00000000CC0C0020A47F0100DB
:10844000A3F5803A704700BF174B002B08BF134BB2
:108450009D46FFF7F5FF00218B460F461348144A4F
:10846000121A0DF0A3FE0E4B002B00D098470D4BB7
:10847000002B00D098470020002104000D000D487B
:10848000002802D00C48AFF3008005F0D2FF200096
:10849000290006F05DF90DF03DFE00BF0000080068
:1084A0000000000031E40000007F0020C80C002024
:1084B0000C4F002000000000000000000649074AA1
:1084C000074B9B1A03DD043BC858D050FBDC08F077
:1084D00035FBFFF7B9FF0000CC7F01000000002052
:1084E000C80C0020FEE7FEE7FEE7FEE7FEE7FEE73A
:1084F000FEE7FEE7FEE7FEE71EF0040F0CBFEFF31A
:108500000880EFF30980816911F8021CD9B901B51F
:1085100090E80F10E047BDE800508CE80300194BCD
:1085200093E80600914208BF704719B12CE9F00F9B
:10853000C1F838C01A60906BB0E8F00F80F309887A
:108540006FF0020E7047104A13689942FAD801B5CD
:1085500052F821C00FC8E047BDE80050CCF8000039
:10856000704701B50AF05AFABDE80140EFF3098CF3
:10857000D5E701B50AF01AFABDE80140EFF3098C1E
:10858000CDE70000900B0020307C0100034613F87B
:10859000012B002AFBD1181A0138704700F006BDE4
:1085A000427873B5044680782679130443EA0023A1
:1085B000E0781843637946EA0326A37946EA03463E
:1085C000E37946EA03662378013B0D4636BA0B2B66
:1085D00000F2E280DFE803F03656B0CBCED1D5DB37
:1085E0007C17062606F108039D4240F0D5803146EF
:1085F00004F1080201F049FB0146002840F0CC805C
:108600002A46204627E001F039FB0546002800F005
:10861000C38008220021204600F02AFE32460821AD
:10862000284618E0A37961791B0243EA0143E17906
:10863000194301F036FB002840F0AE80207800F0AE
:1086400031FE0AE0012D0DD1284600F02BFE01F08D
:10865000F9FA0B22294600F00BFE02B0BDE870408B
:1086600000F0F4BC0C2D40F09780651C284601F00A
:10867000AFFA002840F09080207800F013FE0B2223
:108680000121CDE7012D0BD101F0E0FA00BA0190F4
:10869000207800F007FE042229460DEB0200DAE7FD
:1086A000052D79D1A378607840EA0320E37840EA89
:1086B0000340237940EA036000BA01F0ABFA0028D6
:1086C0006AD114F8010B00F0EDFD0422012198E7B6
:1086D000012D12D101F0C6FA00BA009001F0C8FADB
:1086E00000BA0190207800F0DDFD0422294668469A
:1086F00000F0BEFD04220521CFE7092D4CD1A3785F
:108700006078617940EA0320E37840EA0340237906
:1087100040EA0360A37941EA0321E37941EA034196
:10872000237A41EA036100BA09BA884234D801F0D9
:1087300081FA2A46002164E7012D0AD1032000F0C6
:10874000B1FD01F089FA2A468DF80400294601A8F6
:1087500081E7022D20D1101E18BF012001F064FA1C
:1087600014F8010B00F09EFD0122114649E701F0CB
:10877000EDF960E701F002FA5DE71F236370022262
:10878000D8E7102300216370A170032239E7034B5F
:1087900001221A70082052E7202050E7E50C002043
:1087A00030B587B00D4604460B22002103A80DF01A
:1087B000FDFCD5B12378132B0ED80F2B05D8A3B110
:1087C00020238DF80C3032235FE0113B022B0ED8B2
:1087D000DFE803F063680400202BF1D10B220021B5
:1087E00003A800F045FD00F031FC07B030BD1123B7
:1087F0008DF80C3063788DF80D30013B062B47D88F
:10880000DFE803F0040D141A203A3F000222514918
:108810008DF80E200DF10F000DF0A0FCDEE7022216
:10882000ADF808208DF80E2002A9F3E74FF481730C
:10883000ADF808300222F5E701F0ACF801228DF81E
:108840000800EFE701F050F84FF47A7460430190AC
:1088500001F0C8F808236043029004220DEB0301E5
:108860000DF10F008DF80E300DF078FC04220DEBA9
:1088700002010DF11300CFE7012237498DF80E20D8
:10888000C8E720238DF80C3036238DF80D30A5E78E
:1088900020238DF80C303423F7E720238DF80C309B
:1088A0003323F2E76378013B092BF1D801A252F898
:1088B00023F000BFDD880000DD880000DD880000B7
:1088C000DD880000DD880000DD880000E78800000A
:1088D0001B890000918800003789000020238DF853
:1088E0000C303723D1E7A378012B11D1E378082B83
:1088F00009D11A4A13701A4B04221A7013238DF8E7
:108900000C300723C1E720238DF80C303823BCE757
:1089100020238DF80C303523B7E7A378012BF7D14E
:10892000E378104A003B18BF0123137013238DF81E
:108930000C300823A9E7A378012BE9D1E3780A4A90
:10894000003B18BF0123137013238DF80C300A234A
:108950009BE700BFEA0700208C3B0020EE070020C9
:10896000EA0C0020F0070020E807002000F01EBB02
:1089700008B500F06DFC7021084800F029FC70215A
:10898000074800F037FC7221064800F021FCBDE8E2
:1089900008400548722100F02DBC00BFA1870000EF
:1089A0009D850000A18500006D8900001FB504466B
:1089B00000F0FCFA11238DF80430092300218DF812
:1089C00005300B22012301A80291ADF80C108DF89F
:1089D0000E108DF806308DF8074000F049FC00F0CD
:1089E00035FB04B010BD0000022808B509D100F025
:1089F00013FC054A00231370044A01211170044A34
:108A00001370002008BD00BFEB0C0020F007002011
:108A1000EA0C00202DE9F04100F5847088464402FC
:108A200001F020F9054601F023F9461B06F58023E5
:108A3000A34214D9A4F50437631905EB460607EBE6
:108A4000050C41460022181ABB189D420BD9A35CA5
:108A50000B700132B2F5007F01F10101F4D14FF446
:108A60000070BDE8F0819E4210D90CEB02035B0858
:108A700003F5043312F0010F1B780CBF1B0903F040
:108A80000F03092B94BF30333733E1E7835CDFE713
:108A900010B5002008F04CF900F048FA49F605132B
:108AA00098422A492A4B3AD049F60612904238D0C9
:108AB00049F60412904236D1264A83F89C21C2F32B
:108AC000072483F89D41C2F30744120E83F89E41A8
:108AD00083F89F21088000F09DFC00F0DDFE00F08F
:108AE000E9FD00F0E9FD00F055FF02280CBF64230A
:108AF000FF23194A13FB03F05843137000F5FE409F
:108B00004FF60163B0FBF3F0C0B200F0E9FD01F0F5
:108B10000DF8FFF72DFFBDE8104000F05BBA0F4ADB
:108B2000CBE70F4AC9E70F4A83F89C21C2F307201D
:108B300083F89D01C2F30740120E83F89E0183F86B
:108B40009F2149F603130B80C5E700BFEA07002009
:108B50003808002070630100EF07002075630100F2
:108B60007A6301007F63010038B5284B1B68DB691D
:108B7000984738BB264C237893B108F0F7F80546A0
:108B800050BB02200AF05EFD224B257001221A70B4
:108B9000214B224C1B884F2B19D80523237011E041
:108BA00008F0E4F81E4D08B92B7863B101200AF0F3
:108BB00049FD194A01232370002313802B70174BA2
:108BC00007221A7038BD2378002BFBD0D5E703208D
:108BD000FFF7ECFE2570F5E72378002BF2D008F0C4
:108BE000C5F80028EED00C4A0C4913884F2B04D846
:108BF0000120087001331380E4E7772B8CBF03203A
:108C00000220782B0870DDD8F4E700BFAC770100B4
:108C1000EB0C0020F0070020E80C0020EA0C0020FC
:108C2000ED0C002038B5624D2B78022B39D100F0C5
:108C300095F9604BFF221A705F4B1A7852B10022EF
:108C40001A702A78012302B92B705C4A0220137033
:108C5000FFF7ACFE00F050FB2B78594C43BB594B4F
:108C60001B782BBB23781BBB574B1B78002B6FD07B
:108C700000F02AFBE0B1554B06221A700423237042
:108C80002B78002B60D14F4B1B78002B35D105F092
:108C900039FD4A4B1B780BB94D4A137000232370E2
:108CA0002BE0002BC8D100F06DF9424B6422C2E7E3
:108CB0002378072B21D801A252F823F0518D000010
:108CC000E58C0000318D00003D8D0000818C00009E
:108CD000898D0000598D0000DD8C00003C4BC822BE
:108CE0001A700AE03B4B1B88782253436FF04F0207
:108CF00093FBF2F3364A383B13702378032B53D09F
:108D0000334B1B7813FB03F0584300F5FE404FF63E
:108D10000163B0FBF3F0C0B200F0E2FC2E4B1A7816
:108D2000002A44D000221A70BDE8384003F0E0BEAB
:108D3000274B50221A70294B0822D1E7274A137873
:108D4000002BDAD0013BD7E7022BD6D10623A6E7CA
:108D5000184B1A781E4BC3E71D4A1378092B09D804
:108D6000013313702B78002BC7D1164B1B78002BC7
:108D700094D0C2E70A2B01D1FF23F2E7F52B94BF71
:108D8000002303F1FF33ECE7154A13783BB1013BB5
:108D9000DBB2052B1370EAD10D4B0022A0E70A23AA
:108DA00013700B4BFF229BE70C4B1878B4E738BDD0
:108DB0008C3B0020EF070020EE0C0020F007002085
:108DC000EA0C0020EC0C0020E8070020EE07002051
:108DD000F1070020E80C0020E50C0020E60C002044
:108DE000E40C002010B5084C2378062B02D0082B89
:108DF00005D010BD00F078FB01232370F9E7BDE832
:108E0000104000F067BB00BFEE070020014B0122BD
:108E10001A707047EC0C0020074A08B50023137045
:108E2000064A01211170064A137000F0F5F9BDE8F9
:108E3000084000F0BBB800BFEB0C0020F00700209A
:108E4000EA0C002008B504490B220DF077F908B9A7
:108E500000F045FF002008BD8463010070B504F0F8
:108E600031F870B3224B1A68224BA0F10C019954CF
:108E700000F5FA701344C0F3072058701E4B1868B1
:108E800003F0C4F828B11D4940F28312002007F016
:108E900041F81B4B17491A68002003F01BF938B141
:108EA00003F0BAF9154940F28912002007F032F8B0
:108EB00003F0B2F928B111494FF4C772002007F04E
:108EC00029F800F0CFFE054600F0D2FE044600F07F
:108ED000BDFE064600F0C0FE48B100F0B3FEA31987
:108EE0005B1B0849BDE87040002205F047B870BD23
:108EF0000000002004000020AC7701009063010016
:108F0000E4070020158A00001FB500230C2201A9E8
:108F100010300193029303930DF010F9C0B2B0FA30
:108F200080F0400905B05DF804FB00004FF080536D
:108F3000084AD3F80031934208D0074949F6051290
:108F400049F603108B4208BF1046704749F60610D9
:108F5000704700BF2028050033280500074B1B6819
:108F60001F2B07D84FF0A04203F5E073032142F80E
:108F700023107047024A03F01F03F5E7CC3C0020A2
:108F800000030050074B1B681F2B07D84FF0A0426F
:108F900003F5E073022142F823107047024A03F000
:108FA0001F03F5E7CC3C002000030050074B1B6873
:108FB0001F2B07D84FF0A04203F5E073022142F8BF
:108FC00023107047024A03F01F03F5E7F00C00205E
:108FD000000300504FF08053D3F80021164B9A4203
:108FE000164B25D109221A604FF01022D2F80C320C
:108FF000D9071FD5124B0121C3F80415D2F80C1262
:1090000021F00101C2F80C12D3F80024D207FBD5DD
:109010000022C3F80425BFF34F8F0A490A4BCA68E0
:1090200002F4E0621343CB60BFF34F8F00BFFDE754
:1090300010221A60FFF7BABF33280500F00C002099
:1090400000E0014000ED00E00400FA050A4B1B6857
:109050001F2B0CD84FF0A04203F5E071032042F81B
:109060002100012101FA03F3C2F80C357047034ACD
:1090700003F01F03F0E700BFF00C002000030050D6
:1090800038B5064D064C2A88002120460DF08EF892
:1090900000232B8043F62013238038BD10150020B9
:1090A0000811002008B50346084611460B4A12680D
:1090B0009A4203D00A4A12689A4204D19847BDE8FE
:1090C0000840FFF7DDBF074A1360074B117250607D
:1090D00000221A70BDE8084005F01CBB14150020E2
:1090E00018150020F40C0020F207002010F0010FEA
:1090F00038B5214D044610D02B6819072AD51F4BCF
:109100005B6A984748B11E490B7833B122041CD5DD
:109110001C4BC2B21868FFF7C5FF220708D5174BD2
:1091200017481B6A4FF481619847174B04221A7045
:10913000630708D5114B1548DB694FF481619847E7
:10914000114B04221A702C6038BD6304E5D5104B16
:10915000C2B2DFE75A07E0D5084B5B6A98472304A1
:1091600003D50A490B4BC2B2D4E76104D5D50749F0
:10917000094BC2B2CEE700BF241500207079010070
:10918000000D00201C1500201215002008110020E1
:1091900020150020141500201815002010B5074CCC
:1091A00023684BB1217A606898470023236063608D
:1091B0002372034B01221A7010BD00BFF40C002073
:1091C000F2070020014BDB68184700BF70790100EF
:1091D000712905D0722905D0702905D1034B18607B
:1091E00000207047024BFAE7012070471C15002051
:1091F00020150020712905D0722905D0702905D1CC
:10920000034B186000207047024BFAE701207047BB
:10921000141500201815002008B5FFF731FF4FF492
:109220008162074800210CF0C1FF064A0023136049
:1092300053601372044A1370044B01221A7008BD64
:10924000000D0020F40C002012150020F207002071
:1092500010B5054CFFF7E0FFA36804489847236961
:109260000220BDE81040184770790100ED90000021
:1092700010B58C18B4F5816F0B460CD80146064822
:1092800018440CF06BFF054B1A88944288BF1C8071
:10929000034B00221A7010BD081100201015002089
:1092A000F2070020054B1870054B1A880AB90122F5
:1092B0001A80044B00221A70704700BF081100206A
:1092C00010150020F207002008B5084BDB6A98470C
:1092D000074A0346107838B103F00100054B1B78AC
:1092E00003430CBF0120002008BD00BF70790100BE
:1092F000F207002012150020024A13780BB1013B3F
:1093000013707047121500204FF0805330B5D3F81A
:1093100000210E4B0E4C0F480F499A420F4A104B3A
:109320000AD11F2525601E2404600620106000223B
:109330000A600B221A6030BD0225256003240460F8
:109340000120106007220A60F4E700BF33280500FF
:10935000281500202C15002038150020301500207D
:109360003415002010B5044608F084F8FFF70AFE13
:109370004FF0A0430222C3F80027C3F804270CB122
:10938000FFF720FF1D4B1E4A1B681E49C3F38013C5
:1093900013701D4BD3F804230A60D3F80413C3F8E9
:1093A00008131A4B1B681F2B24D84FF0A04101EB68
:1093B000830442F00042D4F8000740F44030C4F87F
:1093C0000007012000FA03F3C1F820350E4B0021FD
:1093D000C3F87C11C3F80423084A402313604FF0FC
:1093E0008043D3F80413C3F808138021C3F804138F
:1093F000106010BD064903F01F03D8E700E100E04C
:109400003C1500204015002000600040D03C0020AA
:109410000003005008B54FF08043D3F80024D20277
:1094200042BF244A01211170D3F80034DB0342BF4C
:10943000214B01221A70FFF767FF204B2049D3F818
:1094400004230A60D3F80413C3F808131D4B1B68E8
:109450001F2B2BD84FF0A04003F5E073002140F8FC
:109460002310194B1B681F2B1CD84FF0A04003F58D
:10947000E07342F0004240F82310104BC3F87C1117
:10948000C3F80423114A402313604FF08043D3F8FC
:109490000413C3F808134FF4C071C3F80413012375
:1094A000136008BD0A4803F01F03E0E7084803F013
:1094B0001F03D1E7EE0C0020ED0C002000600040FF
:1094C00040150020D03C00203415002000E100E0D1
:1094D0000003005008B50120FFF744FF4FF0804320
:1094E0000122C3F8002508BD10B50020FFF73AFFA0
:1094F00030BF4FF08043D3F80423C3F808234FF460
:10950000C072C3F80423234B01221A602248027858
:1095100032B94022C3F88020BFF34F8FBFF36F8F63
:109520001E4BD3F80423C3F808231D4B1B681F2BC5
:109530002CD84FF0A04202EB8304D4F8001721F49A
:109540004031C4F80017012101FA03F3C2F82035B5
:10955000124B0022C3F87C21124A1268C3F804237C
:10956000037813B10B4B40221A604FF0A043032243
:10957000C3F804270222C3F808250122C3F80027F4
:10958000BDE81040C3F8082507F052BF064A03F0B3
:109590001F03D0E700E100E03C1500200060004020
:1095A000D03C00204015002000030050134BD3F89E
:1095B0007C2110B5EAB10022C3F87C21104B1B6856
:1095C0001F2B17D84FF0A042D2F82005012404FA2F
:1095D00003F108420DD002EB8303C2F82015D3F843
:1095E000000720F44030C3F80007064BC2F82015EE
:1095F0001C7010BD044A03F01F03E5E70060004043
:10960000D03C0020ED0C0020000300504FF08043C0
:1096100010B5D3F81C212AB10022C3F81C210A4B33
:1096200001221A704FF08043D3F8202152B1002458
:10963000C3F8204108F07AF90CF0CCF8034B1C7009
:10964000034B1C7010BD00BFEE0C0020EC0C002082
:109650008C3B0020124B1B78013BDBB2FD2B1DD84D
:10966000104B4FF08062C3F88020BFF34F8FBFF3E1
:109670006F8F0D4BD3F80425C3F808250B4A012141
:10968000516011610A490022C1F81025C3F8102564
:10969000C3F81425C3F81825C3F81C25704700BF6C
:1096A0004415002000E100E000F0014000A001406E
:1096B0000060004070470000074B1B681F2B07D855
:1096C0004FF0A04203F5E073032142F823107047E6
:1096D000024A03F01F03F5E7C83C002000030050D6
:1096E00038B53B4C237883420ED070B9FFF7B2FFF8
:1096F000384B1B681F2B62D84FF0A041012202FAA1
:1097000003F3C1F80C35207038BDFF280DD1FFF7E9
:10971000A1FF304B1B681F2B55D84FF0A0410122F1
:1097200002FA03F3C1F80835EDE7013BDBB2FD2B8C
:1097300031D9294A0321C2F808150721C2F81015AA
:1097400000250121C2F80012C2F80455C2F84415E0
:1097500040F6F611C2F840151E4A11681F4A42EA47
:1097600001221F49C1F810251E4A01F5A03101F55B
:10977000A271C2F81015A1F5A031E439C2F8141590
:1097800001F5A031E031C2F81815A1F5A031A1F51D
:109790008871C2F81C15104A00EB80014900FD2BAE
:1097A000C2F84415AFD9104B4FF0806119600D4BD2
:1097B0000321C3F804150123D3601360A3E70B4909
:1097C00003F01F039AE7094903F01F03A7E700BF4F
:1097D00044150020C83C002000A0014003001300F5
:1097E0000060004000F0014000E100E00003005094
:1097F0002DE9F0430646002947D00868254C002390
:1098000001256560C4F80035C4F80032D4F804239B
:10981000C4F808233F27C4F838354FF0020CC4F8C9
:1098200008359E46C4F804659846C4F83455DA19DC
:10983000013202EBD272521042EA0229C4F830958A
:10984000C4F800C5C4F800812560D4F80091B9F1CE
:10985000000FFAD0A560D4F800946560C4F800E564
:10986000B9F1000F13D1571EFA1A002A00F10100B6
:10987000DDDC01B108604FF4966043439809072E80
:1098800008BF00EB8000BDE8F0830846B6E713464A
:10989000EAE700BF0030014008B5FFF735FD0F4B88
:1098A0001B681F2B16D84FF0A04203F5E07303216D
:1098B00042F823100A4B1B681F2B07D84FF0A04219
:1098C00003F5E073002142F8231008BD054A03F0B8
:1098D0001F03F5E7034A03F01F03E6E728150020FE
:1098E0002C150020000300504FF08053D3F80021C6
:1098F000044B9A4201D100F07BB8034B0021186859
:10990000FFF776BF33280500381500202DE9F34115
:109910001D4E0023019333681F2B00F131004FF0DF
:1099200032040D46B0FBF4F42AD84FF0A0410122D6
:1099300002FA03F3154FC1F8083540F6B1783868DC
:1099400001A9FFF755FF4FF47A7308FB00F0B0FB55
:10995000F3F0019BA34203D2002DF0D0A842EED336
:1099600033681F2B8ABF0A494FF0A04103F01F0341
:10997000012202FA03F3C1F80C3502B0BDE8F08110
:10998000034903F01F03D2E72815002030150020FB
:109990000003005038B5114B1C681F2C1AD84FF02B
:1099A000A043D3F8105540F20E6140F6B83025FAC6
:1099B00004F4FFF7ABFF14F0010F40F20D6304D184
:1099C000984294BF0120032038BD98428CBF0220EA
:1099D0000020F9E7024B04F01F04E2E734150020F1
:1099E0000003005040F6E44140F6B830FFF78EBF68
:1099F00037B52C4B00200322C3F8000501A9C3F89A
:109A0000F0250122C3F8F805C3F8F405C3F83026A1
:109A1000C3F82C164FF40031C3F818150D21C3F804
:109A20001015C3F81405110101F1804103EB021474
:109A300001F5E0410132D3F81855C4F81855082A49
:109A4000C1F81005C1F81405EDD10122C3F80025B5
:109A50001A60D3F80021002AFBD00022C3F80021AD
:109A600001225A600F4BD3F80421002AFBD00022B8
:109A7000C3F8042101229A60D3F81421002AFBD0F4
:109A80000022C3F81421BDF8040000B220EAE070FF
:109A9000C0EB0010C0EB0010800A00EB800003B0A8
:109AA00030BD00BF007000400B4B30B521F003010A
:109AB0000124C3F804451144801A8A4203D10020CE
:109AC000C3F8040530BD841852F8045B2560D3F850
:109AD0000044E407FBD5F0E700E00140064B02221A
:109AE000C3F80425C3F80805D3F80024D207FBD532
:109AF0000020C3F80405704700E0014010B5084C91
:109B0000084B094920460B2240F8043B0CF026FB89
:109B100000234FF4F032E37322616361A36110BD4F
:109B2000F4070020676663737C6401004FF4003122
:109B3000044B0A689A4203D103481C220CF00EBB66
:109B4000FFF7DCBF67666373F407002008B50A48B7
:109B50001C224FF400310CF0F1FA50B14FF40030F8
:109B6000FFF7BCFF28B9044A1C214FF40030FFF76F
:109B70009BFFC0B208BD00BFF407002010B54FF432
:109B80000030FFF7ABFF044608B9FFF7B7FF2046E8
:109B900010BD0000F0B50D4D06460FCD87B001ACED
:109BA0000FC42B68236001AF0024083657F8041B4C
:109BB000032230460CF0C2FA28B10134052CF5D14D
:109BC000002007B0F0BD0120FBE700BF08620100E4
:109BD00038B5054604F044F998B12846FFF7DAFF96
:109BE00030B109480B2229460CF0B8FA002038BDE4
:109BF0000822294604480CF0B1FA0449044803221B
:109C0000F2E70120F3E700BFF807002084640100B9
:109C100000080020B0F5F83F9DBF024B18610020FE
:109C200001207047F4070020014BD87300207047D3
:109C3000F4070020024B586199610020704700BF73
:109C4000F407002000487047F8070020014B18690E
:109C5000704700BFF4070020014BD87B704700BF5E
:109C6000F4070020014B5869704700BFF40700203B
:109C7000014B9869704700BFF407002000F50430DD
:109C8000B0F5802F28BF0020704710F504300B4638
:109C900005D20344B3F5802F01D8FFF705BF01209B
:109CA000704738B500F5043401F5043544EA05037E
:109CB000C3F30B038BB9AC420FD8B4F5043F0CD3FC
:109CC000B5F5802F09D2204604F58054FFF706FF32
:109CD000A54201D30028F6D038BD0120FCE708B525
:109CE000FFF74CFF28B9BDE808404FF4F031FFF70B
:109CF000D8BF08BD08B5EFF3088400F00F030D2BA3
:109D000001D1EFF30984E3699A0554BF04F12005FA
:109D100004F12405C30658BF483505F0DFFEEFF314
:109D2000098005F0DBFEEFF3088005F0D7FEEFF3C6
:109D3000148005F0D3FE284605F0D0FE606905F0DA
:109D4000CDFEA06905F0CAFEE0690E4C05F0C6FE26
:109D5000E06A05F0C3FEA06A05F0C0FE206B05F0C6
:109D6000BDFEE06B05F0BAFE606B05F0B7FEA06BC0
:109D700005F0B4FE04494322002006F0CBF801F0C0
:109D80005FFCFEE700ED00E0886401007046FFF72D
:109D9000B1FF704710B5EFF3108472B60023C160B5
:109DA00082600360436084F3108810BD38B50446B8
:109DB000EFF3108572B64368C268D1544368826875
:109DC00001339342436009D30B494FF030020CBF7B
:109DD0000120002006F09EF800236360D4E9000310
:109DE000C01A05494FF0350218BF012006F092F85D
:109DF00085F3108838BD00BFB464010070B5044617
:109E0000EFF3108672B6D0E90003C01A4FF0420299
:109E100018BF01200C4906F07DF82368E268D55C84
:109E2000A26801339342236009D307494FF04702E8
:109E30000CBF0120002006F06DF80023236086F39C
:109E40001088284670BD00BFB4640100EFF3108194
:109E500072B6426803689A423BBF80688018D01A85
:109E6000C01A81F31088704738B5EFF3108572B6C9
:109E70008468FFF7EBFF85F31088013C201A38BD9A
:109E8000F8B515460C460646FFF7E0FF854228BFA9
:109E900005466719BC4201D12846F8BD3046FFF798
:109EA000ADFF04F8010BF5E7F8B515460C4606467C
:109EB000FFF7DAFF854228BF05466719BC4201D18A
:109EC0002846F8BD14F8011B3046FFF76FFFF5E791
:109ED0000D4B0E4A1B68B0EB930F03D30123537055
:109EE0005360704700EB5303013BB3FBF0F00228D3
:109EF0004FF0000194BF01200323517088BFB0FBD5
:109F0000F3F05060704700BFE409002048150020BE
:109F100070B5064608460D46FEF738FB01303C2872
:109F20000DD82846FEF732FB441C2246294630460F
:109F30000CF014F9002386F83B30E0B270BD3C24ED
:109F4000F3E7FF230B704FF0011070472DE9F04F3E
:109F5000047884F080031F2B8BB005468A4604D812
:109F600000F07AFD0BB0BDE8F08F04F16003DBB2C6
:109F70005E2B02D8FFF7E5FFF4E70B4603F8014B31
:109F800005931D2C00F2BC84DFE814F01E00940041
:109F90009E00B600E901FB01F503BA04A404C40065
:109FA000D600BA04BA04BA04BA04BA04DB004F01FA
:109FB00065017501CD01E301E701BA04BA04BA04F1
:109FC000BA04BA04BA0480014378092B01F10205EE
:109FD0000AD8012B10D9033B062B12D8DFE803F077
:109FE000171B2236474C5000FE2B61D0FF2B59D057
:109FF000F02B48D0F12B4BD08AF8014004F102102D
:10A00000B0E7AB492846FFF783FF0446F4E704F0C6
:10A010009DF80146F6E7A749062228460CF09EF86F
:10A020000624E9E7A44B1B69002BE5D093F8A52192
:10A0300093F8A41141EA022193F8A62193F8A731DD
:10A0400041EA024151EA0361DCD1D5E79A4B1B6931
:10A05000002BD1D093F8A92193F8A81141EA02214D
:10A0600093F8AA2193F8AB3141EA0241EAE7924B17
:10A07000D96F0029C6D1BFE78F4BD3F88010F8E71E
:10A0800004F078F8C5E731238AF802300124B3E7F9
:10A0900000238B70E123CB70F5230B7105234B71EB
:10A0A0000424A9E740238B700023CB700224A3E78C
:10A0B0000823E9E74378012B3CD9FF237F488AF83E
:10A0C000013000F101104DE74378012B00F2DC80F4
:10A0D0007B4A012313704FF0A0420321C2F80417FA
:10A0E0000221C2F80815C2F80037C2F808358AF80C
:10A0F00001304FF00110E4E7714A002313704FF074
:10A10000A0420221C2F800170120C2F804178AF801
:10A110000130D6E7437882786A4943EA02226A4BE3
:10A120001B68B3FBF1F303210233B3FBF1F3534399
:10A13000013BFDD10023C1E700238B704B7002204F
:10A14000BFE78378C1784278007941EA00216879D5
:10A1500041EA0041A87913F0010541EA00610AD003
:10A160004FF0A04012F0010F4FF0020414BFC0F8EE
:10A170000845C0F80C4513F002060AD04FF0A04085
:10A1800012F0020F4FF0010414BFC0F80845C0F8E8
:10A190000C45002939D003F0200001904B48814242
:10A1A00028BF0146642000FB01FC4948D109D0F8D2
:10A1B00004B0029103F004074FEA520E5BB24FEA7B
:10A1C00092084FEA52194FF0A0442DB1D4F804156B
:10A1D000C1F340018A4213D12EB1D4F8101501F019
:10A1E00001018E450CD117B1B8F1000F08D10199CA
:10A1F00011B1B9F1000F03D1002B06DA029921B198
:10A200004168A1EB0B018C45DFD84FF0A0423148EB
:10A21000D2F80435D2F810255200C3F3400302F0FF
:10A22000020213438AF801304BE7AB78407840EAEA
:10A230000320EB7840EA03402B7950EA036004D115
:10A24000FF2325488AF801303BE71D4B9860FFF754
:10A250003FFE0023F5E74478002C08BF4FF48074DC
:10A26000811C204600F098FC0023E01D8AF8013094
:10A27000C00801305EE04378114903F00302013267
:10A28000C3F380030A774B77002330E74FF0000BCE
:10A2900081F801B0012443788F1C2546811C4FF0C2
:10A2A000A048A24603F1FF39C3B944EA054008E7D4
:10A2B000D7640100E9640100F063010001000200BD
:10A2C0004815002040420F00E4090020C0C62D00C0
:10A2D000001000E0010006000100040011F8010B6D
:10A2E00010F03F0643B208BF4026002BB4BFC8F8A9
:10A2F00000B7C8F818A507363A4602930191F60848
:10A3000000F08CFC0199029BB9F1000F01D1C8F853
:10A3100018A5002B05F10105B9BFBF19A4198919AA
:10A32000AD194B46BEE7FF234B704278811C0120DC
:10A33000013A03D2000440F00100C2E60B7813F0AA
:10A340003F0308BF40230733DB0801331944184497
:10A35000EEE7FF2340784B708BE7FF23C7E6A84B5F
:10A3600042781A74C178827842EA01229A8202798C
:10A37000417942EA0122DA820023A2488AF80130B8
:10A380009FE6431C06939E4B82781B780192012B1B
:10A3900000F1030440F0E081DFF86C924FF0000818
:10A3A000CD1C89F8008046464046CDF80C80019BC4
:10A3B000FBB9012811D1002E00F0AF81904B924FD4
:10A3C0009E8A09A90E2000F0A7FD022840F098817E
:10A3D0001EB13B78013E002BF3D0039B8AF801307D
:10A3E000069B8AF80200E41A059BE81A40EA04403A
:10A3F00067E62346DFF808B213F8017B029317F0F3
:10A40000020F00F01D81002E4ED007F01103012B2A
:10A41000BBF814B01CD109A9384600F07DFD022814
:10A4200028D1BBF1000F05D099F800300BF1FF3BAC
:10A43000002BF0D0029C23789A0740F15F81DF0661
:10A4400000F15C810134019B013B0193F3D1B0E742
:10A4500009A90E2000F060FD02280AD1BBF1000F0F
:10A4600005D099F800300BF1FF3B002BF0D000260F
:10A47000E0E700260128DDD1099B2B701A0A6A70DB
:10A480001A0C1B0EAA70EB702A1D002E43D03B063F
:10A4900040D55B4BDB682B711A0A6A711A0C1B0ED4
:10A4A000AA71EB7130460835554B17F01002B3F81E
:10A4B00014B007F001015DD0A0786278DB8A0493C4
:10A4C00042EA0022E07842EA0042207942EA006251
:10A4D0000792621D029201BB494CB4F814B009A95D
:10A4E000384600F019FD0228014629D1BBF1000FC2
:10A4F00005D099F800300BF1FF3B002BEFD0404B1B
:10A500009A69099B1340079A9A422DD041F0100096
:10A51000C0B28FE730461546C6E70021384600F046
:10A52000FBFC022809D1BBF1000F83D099F8003061
:10A530000BF1FF3B002BF0D07CE70128CCD079E772
:10A54000A269099B012803EA0203D8D1079A9A421B
:10A55000D5D0049B002BD2D0049A99F80030013A50
:10A560000492002BB9D0CAE701287FF463AF4FF003
:10A57000000826E091B3002EF9D10021384600F002
:10A58000CBFC02281E4B0AD1BBF1000F3FF46FAF8A
:10A5900099F800200BF1FF3B002AEED04AE7012892
:10A5A0007FF448AF3E0640F1A380DB682B701A0AA7
:10A5B0006A701A0C1B0EAA70EB704FF0000806466A
:10A5C0000435039B99F8002001330393019B013B61
:10A5D000002A7FF42FAF029C0193E8E609A93846D0
:10A5E00000F09AFC0228064B10D1BBF1000F3FF49B
:10A5F00021AF99F800200BF1FF3B002AEED019E7BC
:10A6000048150020010005006815002001287FF48E
:10A6100011AF3C060AD5DB682A46190A02F8043B4A
:10A620006970190C1B0EA970EB701546099B2B70F5
:10A630001A0A6A701A0C1B0EAA70EB70043596E7A2
:10A64000F6B1BBF81430049309A90E2000F064FCA5
:10A65000022809D1049B002B3FF4ECAE99F80020AE
:10A66000013B002AEFD0E5E601287FF4E3AE099B29
:10A670002B701A0A6A701A0C1B0EAA70EB70043544
:10A68000A278637843EA0223E27843EA024322791C
:10A6900017F0200F43EA026304F1050202920993C6
:10A6A0009A4A03D09361002601208AE7968A09A975
:10A6B000384600F031FC022808D1002E3FF4BAAE33
:10A6C00099F80030013E002BF1D0D0E601287FF44C
:10A6D000CEAE390610D5DBF80C302B701A0A6A7032
:10A6E0001A0C1B0EAA70EB7080460435002668E732
:10A6F0004FF00008064664E78046F7E70534A2E617
:10A7000001287FF46AAE099B2B701A0A6A701A0C32
:10A710001B0EAA70EB7004355FE6B8F1000F3FF432
:10A720005CAE7A4B7A4F9E8A00210E2000F0F4FB3B
:10A7300002287FF452AE002E3FF44FAE3B78013E2C
:10A74000002BF1D049E62378990712D5DA0610D408
:10A750000134019B013B0193019B002BF3D18AF84B
:10A7600001308AF80230069BE01A000440F0020033
:10A77000A7E40534EDE7DFF894B19BF80030012B36
:10A780004FF0000340F0A180614C90F802802370EC
:10A79000C3780A1D58EA0328019200F094800779D3
:10A7A00017F0020611D1431DB045BBF8149069D1D2
:10A7B00000210E2000F0B0FB022839D1B9F10109C7
:10A7C00036D32378002BF3D032E017F0010010D0FD
:10A7D000BBF814600021384600F09EFB022806D129
:10A7E00036B32378013E002BF4D0002620E0012868
:10A7F000FBD1DDF804904346A8EB0306CDF80490A6
:10A800005A1EABB11AB917F0010F18BF0E27BBF8CB
:10A810001430039209A93846029300F07DFB022808
:10A82000039A1DD1029B1BB12178013B0029F0D076
:10A83000019B059A8AF80160360A8AF803008AF8B3
:10A840000260981A2B799B075FBFAC78ED7844EAD9
:10A85000052401344CBF40F4802040EA844030E4B9
:10A86000012809F10409E3D1099B09F8043C190AFC
:10A8700009F8031C190C1B0E09F8013C09F8021C0D
:10A880001346B9E759781A7842EA0122997842EAE0
:10A890000142D97842EA01620992043309A9384693
:10A8A000029300F039FB0228029B08D1B9F1000F96
:10A8B000BED0227809F1FF39002AEFD0B8E701288D
:10A8C000B6D1013670E740468FE74B708B70CB7086
:10A8D0000320B7E70D4B1B78012B0FD1C27883788B
:10A8E00043EA0223027943EA0243427909A943EA8F
:10A8F00002630020099300F00FFB3DE5FF233CE5D8
:10A90000FF230B704FF00110FFF72CBB4815002000
:10A9100068150020F8B505787F2D15D10C46871CE9
:10A9200004F8025B45784D704FF002160DB93046C1
:10A93000F8BD21463846FFF709FB013D064407EB09
:10A94000104714FA80F4F1E7BDE8F840FFF7FEBACB
:10A95000064B0748986000221A701A7464219A61A5
:10A96000012259619A83FFF7B3BA00BF481500204E
:10A9700000127A0000230822C0F81832C0F81C32F6
:10A98000C0F81022C0F8143270470346D0F8140201
:10A9900010B5B8B10138C3F81402D3F81C0203EBA8
:10A9A00080140C6000F58071013033F811101160D3
:10A9B000D3F8102200F007000132C3F81C02C3F8DC
:10A9C0001022012010BD007800F17D03DBB2012BC5
:10A9D00003D98C3818BF0120704700207047F8B5A4
:10A9E0000446D0F810020D4616461F4690B308469E
:10A9F000FFF7E9FF10B1012003F066FED4F8103232
:10AA0000D4F81802412E03F1FF33C4F8103234BFDA
:10AA100032464022294604EB80100BF09FFBD4F80D
:10AA20001812284604EB8111FFF774FFD4F818229E
:10AA300002F5807324F8130004EB82133B60D4F812
:10AA40001432013202F007020133C4F81822C4F8AC
:10AA500014320120F8BD00007FB503780B70803BF5
:10AA600006460D460D2B00F28E80DFE803F0071737
:10AA70002239448C8C8C54626C71758303F066FBB4
:10AA80000646FDF783FDC4B2687022463146A81C15
:10AA90000BF064FB04F58030023008E002A805F0FA
:10AAA00037F9072202A9681C0BF058FB374804B09D
:10AAB00070BD02A805F02CF90422711C0DEB0200F8
:10AAC000002401940BF04AFB019B029302A805F0BD
:10AAD00005F9204605F030F901232D486B70E6E7B3
:10AAE0003E21A81C06F09EFD044610B1012003F093
:10AAF000F5FD6C70CEE744780230214606F05EFD2D
:10AB0000012003F0EBFD0123E01800046B701843F3
:10AB100000F10110CBE701234B70407820B903F01E
:10AB200009FE4FF00210C2E70128F8D000234B7055
:10AB3000F7E701234B7005F0A5F810B9022008F0E3
:10AB400081FD1448B3E7407800F0E0FE6870E8E764
:10AB500000F048FF6870F4E74478012003F0C8FD76
:10AB60002146B01C00F008FF6870601C000440F033
:10AB70000100CDE700234B70407810B901F096FB3F
:10AB8000CFE70120FAE74FF0011090E7090001003C
:10AB9000020005000200010000283BD01E4B2DE9F9
:10ABA000F0410024421E4FF0A04C58684FF00108BD
:10ABB0002346022515E013F0010F04F1FF34074688
:10ABC00006461BD0CCF80885CCF80C55013FFDD1CA
:10ABD000CCF80855013EFDD1013A561C4FEA53030B
:10ABE00016D08E46002CE6D11EF8013B13F0010F63
:10ABF0004FF00704714607460646E3D1CCF80C85B2
:10AC0000CCF80C55013EFDD1CCF808550646E1E7DD
:10AC1000BDE8F081704700BF4815002010F03F0CE0
:10AC200008BF4FF0400C0306F0B540F1AD80554D24
:10AC300014464FF0A04302206968C3F80C050A4689
:10AC4000013AFDD1D3F81025C3F808050E46013EA0
:10AC5000FDD14FEAC21EBCF1010F0F465FFA8EF61E
:10AC600000F04081C3F80C05013FFDD1D3F8102559
:10AC7000C3F808050F46013FFDD14FEAC21E5FFA37
:10AC80008EFEBCF1020F0A464EEA560E00F02F81EE
:10AC9000C3F80C05013AFDD1D3F81025C3F8080517
:10ACA0000E46013EFDD1D201D2B2BCF1030F0E46D9
:10ACB00042EA5E0E00F01E81C3F80C05013EFDD194
:10ACC000D3F81025C3F808050E46013EFDD1D20188
:10ACD000D2B2BCF1040F0E4642EA5E0E00F00D81C6
:10ACE000C3F80C05013EFDD1D3F81025C3F80805C3
:10ACF0000E46013EFDD1D201D2B2BCF1050F0E4687
:10AD000042EA5E0E00F0FC80C3F80C05013EFDD166
:10AD1000D3F81025C3F808050E46013EFDD1D20137
:10AD2000D2B2BCF1060F0E4642EA5E0E00F0EB8096
:10AD3000C3F80C05013EFDD1D3F81025C3F8080572
:10AD40000E46013EFDD1D201D2B2BCF1070F0E4634
:10AD500042EA5E0E00F0DA80C3F80C05013EFDD138
:10AD6000D3F81025C3F808050139FDD1D201D2B2BC
:10AD700042EA5E0EBCF1080C04F801EB7FF45CAF14
:10AD8000F0BD00BF48150020624A52680E464FF0E1
:10AD9000A0430124022016F801EB1EF0010F0CBFA6
:10ADA000C3F80C45C3F808451546C3F80C05013D2A
:10ADB000FDD1C3F808051546013DFDD1BCF1010FD9
:10ADC000DED01EF0020F0CBFC3F80C45C3F80845D7
:10ADD0001146C3F80C050139FDD1C3F80805114629
:10ADE0000139FDD1BCF1020FCAD01EF0040F0CBF17
:10ADF000C3F80C45C3F808451146C3F80C050139E2
:10AE0000FDD1C3F8080511460139FDD1BCF1030F8E
:10AE1000B6D01EF0080F0CBFC3F80C45C3F80845A8
:10AE20001146C3F80C050139FDD1C3F808051146D8
:10AE30000139FDD1BCF1040FA2D01EF0100F0CBFE0
:10AE4000C3F80C45C3F808451146C3F80C05013991
:10AE5000FDD1C3F8080511460139FDD1BCF1050F3C
:10AE60008ED01EF0200F0CBFC3F80C45C3F8084568
:10AE70001146C3F80C050139FDD1C3F80805114688
:10AE80000139FDD1BCF1060F3FF47AAF1EF0400F3F
:10AE90000CBFC3F80C45C3F808451146C3F80C05B0
:10AEA0000139FDD1C3F8080511460139FDD1BCF1C6
:10AEB000070F4FEADE113FF463AF81B9C3F80C45C9
:10AEC0001146C3F80C050139FDD1C3F80805114638
:10AED0000139FDD1BCF1080C7FF45DAFF0BDC3F8C2
:10AEE0000845EDE74FEAD61E84F800E0F0BD4FEAD2
:10AEF0009E1EF9E74FEA5E1EF6E74FEA1E1EF3E7D5
:10AF00004FEADE0EF0E74FEA9E0EEDE74FEA5E0EE7
:10AF1000EAE700BF481500202DE9F0475A4E737844
:10AF200086468A46002B00F0B1804FF0A0430122F4
:10AF300002201EF0010FC3F80825C3F80C05C3F862
:10AF4000080514BFC3F80825C3F80C254FF0A0422C
:10AF5000022301201EF0020FC2F80C35C2F808359A
:10AF600014BFC2F80805C2F80C054FF0A042022039
:10AF7000C2F80C051EF0040FC2F808054FF00100DE
:10AF800014BFC2F80805C2F80C054FEA5E034FF083
:10AF9000A042022003EB9E03C2F80C050124C2F874
:10AFA00008051EF0080F4FEADE00734414BFC2F814
:10AFB0000845C2F80C4503444FF0A042022013F0AC
:10AFC000010F4FF00103C2F80C05C2F8080514BFC9
:10AFD000C2F80835C2F80C354FF0A0430220C3F880
:10AFE0000C05C3F80805327F0124C3F80C45C3F8EB
:10AFF0000C05C3F80805C3F808450024C3F80C0580
:10B00000C3F80805C3F8004714462AB1013CC3F849
:10B010000C05C3F80805F9D14FF0A0430225C3F889
:10B020000C55D3F81075C3F80855C3F80C55D3F870
:10B030001005C3F80855C3F80C55D3F81045C3F8EC
:10B040000855400004FA05FC28400CF0040C07F0F9
:10B05000010740EA0C003843012800F081810228F2
:10B0600000F0C881042800F0C5812132013AC3F8FC
:10B070000C55C3F80855F9D10122C3F81825C0B200
:10B08000C3F80825BDE8F087481500204FF0A0421E
:10B090000120C2F8080573680224C2F80C451D4659
:10B0A000013DFDD1C2F808451C46013CFDD11EF012
:10B0B000010F14BFC2F80805C2F80C054FF0A040FC
:10B0C0000222C0F80C251C46013CFDD1C0F8082521
:10B0D0001A46013AFDD101241EF0020F14BFC0F838
:10B0E0000845C0F80C454FF0A04002244FEA5E022C
:10B0F000C0F80C451D46013DFDD1C0F808451C4671
:10B10000013CFDD101241EF0040F14BFC0F8084516
:10B11000C0F80C454FF0A040022402EB9E02C0F89C
:10B120000C451D46013DFDD1C0F808451C46013CBB
:10B13000FDD101241EF0080F14BFC0F80845C0F867
:10B140000C454FF0A040022472444FEADE07C0F8DD
:10B150000C451D46013DFDD1C0F808451C46013C8B
:10B16000FDD13A4412F0010F4FF0010214BFC0F8B4
:10B170000825C0F80C254FF0A0420227C2F80C7534
:10B1800018460138FDD1C2F8087518460138FDD1BE
:10B190000120C2F80C051C46C2F80C75013CFDD11B
:10B1A000C2F808751C46013CFDD1C2F80805C2F87A
:10B1B0000C7518460138FDD1C2F8087518460138DB
:10B1C000FDD1347F0020C2F80007A44664B1C2F864
:10B1D0000C7518460138FDD1C2F808751D46013DB1
:10B1E000FDD1BCF1010CF2D14FF0A0420225C2F812
:10B1F0000C5518460138FDD1D2F81085C2F8085513
:10B2000018460138FDD1C2F80C5518460138FDD159
:10B21000D2F81075C2F8085518460138FDD1C2F8A9
:10B220000C5518460138FDD1D2F81005C2F8085562
:10B2300019460139FDD14FEA470CA8400CEA050C2C
:10B2400000F004004CEA000C08F001084CEA080C7D
:10B25000BCF1010F1DD0BCF1020F00F0FA80BCF16F
:10B26000040F00F0F6802134C2F80C55194601395C
:10B27000FDD1C2F8085519460139FDD1013CF3D181
:10B280000123C2F818355FFA8CF0C2F80835BDE822
:10B29000F0871EF0020740F028815CB1C2F80C551F
:10B2A00018460138FDD1C2F8085518460138FDD1BD
:10B2B000013CF3D14FF0A0404FF00108C0F81885D1
:10B2C000DAF800202021022412F0010F14BFC0F888
:10B2D0000885C0F80C851D46C0F80C45013DFDD120
:10B2E000C0F808451D46013DFDD1013917444FEA1C
:10B2F0005202E9D14FF0A042F8074FF001014CBFD4
:10B30000C2F80815C2F80C154FF0A0420221C2F88D
:10B310000C1518460138FDD1C2F80815013BFDD1C6
:10B3200001201EF0800F1EBF934B5B68F360337CDF
:10B3300093B14FF0A04101227468C1F80C25022599
:10B34000C1F80C552246013AFDD1C1F808552246F4
:10B35000013AFDD1013BF3D14FF0A04301228FE62A
:10B360001EF0020040F00A812AB1013AC3F80C55E0
:10B37000C3F80855F9D14FF0A0420125C2F818557D
:10B38000DAF8003020210224DF074CBFC2F808554C
:10B39000C2F80C5501391844C2F80C454FEA530362
:10B3A000C2F80845F0D14FF0A0430122C4074CBFBA
:10B3B000C3F80825C3F80C254FF0A0430222C3F8B8
:10B3C0000C250120C3F808251EF0800F1EBF6A4B14
:10B3D0005B68F360337C002BBED04FF0A0420121AC
:10B3E000C2F80C150221013BC2F80C15C2F8081571
:10B3F000F9D1B1E7757F002D6FD01EF0020640F045
:10B400000281002A00F013814FF0A0430221013A8B
:10B41000C3F80C15C3F80815F9D10122C3F8182593
:10B420007DB10EF0020666B94FF0A0420123C2F8CA
:10B430000C3502212123013BC2F80C15C2F8081576
:10B44000F9D14FF0A0430122C3F80825C0B2BDE8EE
:10B45000F087767F002E38D01EF0020740F0C280C1
:10B46000002C00F0DB804FF0A0410220C1F80C0559
:10B470001A46013AFDD1C1F808051A46013AFDD134
:10B48000013CF3D10122C1F81825AEB10EF002073C
:10B4900097B94FF0A0400122C0F80C2502242122C8
:10B4A000C0F80C4519460139FDD1C0F808451946C8
:10B4B0000139FDD1013AF3D14FF0A0430122C3F885
:10B4C00008255FFA8CF0BDE8F087002CCBD14FF057
:10B4D000A0430122C3F81825EEE7002A94D14FF0CB
:10B4E000A0430122C3F81825ABE74FF0000920273D
:10B4F000C846C2F80C5518460138FDD1D2F81005DF
:10B50000C2F8085500F0010019460139FDD1804408
:10B51000013F4FEAC07040EA5909EAD1C2F80C5520
:10B5200018460138FDD1D2F81005C2F80855013B84
:10B53000FDD188EA000818F0010F0CBF0120082097
:10B54000BAF1000F01D0CAF800907CB172684FF0D8
:10B55000A0410225C1F80C551346013BFDD1C1F8AD
:10B5600008551346013BFDD1013CF3D14FF0A043F8
:10B570000122C3F81825D4E6001000E04FF00008BF
:10B5800020244746C3F80C55D3F81005C3F80855D6
:10B5900000F001000744013C4FEAC07040EA58083F
:10B5A000F0D1C3F80C55D3F81005C3F8085547403F
:10B5B00017F0010F0CBF01200820BAF1000F01D0D5
:10B5C000CAF8008042B14FF0A0430221013AC3F80B
:10B5D0000C15C3F80815F9D14FF0A0430122C3F8A8
:10B5E0001825F1E621224FF0A0400225C0F80C55A5
:10B5F00019460139FDD1C0F8085519460139FDD168
:10B60000013AF3D12CE721234FF0A0410224013B62
:10B61000C1F80C45C1F80845F9D1F2E64FF0A04257
:10B620000121C2F81815002F7FF446AF31E74FF023
:10B63000A0430122C3F81825002E7FF402AFF3E6E1
:10B64000BFF34F8F0549064BCA6802F4E06213430B
:10B65000CB60BFF34F8F00BFFDE700BF00ED00E000
:10B660000400FA05DFF854C0F0B54FF0FF330024B2
:10B6700001278C4203DB93FAA3F0C043F0BD065DC3
:10B680000722002516F0010F1CBF07FA02FE45EA4B
:10B690000E05013A4FEA5606F4D283EA0563082202
:10B6A000002B02F1FF324FEA4303B8BF83EA0C03D9
:10B6B00012F0FF02F4D10134DBE700BFB71DC10473
:10B6C000DFF854C0F0B500240127C04390FAA0F081
:10B6D000944203DB90FAA0F0C043F0BD0E5D072357
:10B6E000002516F0010F1CBF07FA03FE45EA0E0500
:10B6F000013B4FEA5606F4D280EA05600823002891
:10B7000003F1FF334FEA4000B8BF80EA0C0013F0AA
:10B71000FF03F4D10134DBE7B71DC10400F09EBB89
:10B72000F0B5002389B0CDE906330D4616460593E2
:10B73000441C06AF05AB01934FF48073009302974E
:10B74000234607AA3146284600F0D4FF38B9069AA6
:10B750001AB10598214600F081FA09B0F0BD02281F
:10B760000CD1069A1AB9079BF61A1D44E2E7059810
:10B77000214600F073FA0028F5D0EEE7012809D140
:10B78000069A2AB10598214600F068FA0028E4D10B
:10B790001320E2E704280DD0431FDBB2012BC9D8E8
:10B7A000053818BF012004494FF4B07204F0B2FB11
:10B7B0001620D2E71520D0E7EF64010010B540F263
:10B7C0000112044600210AF0F1FC00F06DFF002395
:10B7D0002370BDE8104000F00FBA00F00DBA08B5B4
:10B7E00004F030FC431E5842584108BD08B5002300
:10B7F0001A4600F013F9003818BF012008BDF0B553
:10B80000044690F830002F2885B00F4615462DD8F5
:10B81000C0F13006964228BF1646324620440AF050
:10B820009DFC94F830103144C9B22F2984F83010AF
:10B8300027D900231A46204600F0F0F820B303ABC6
:10B8400000220093114602AB00F028F9D0B902980B
:10B8500094F830206063214600F000FA90B9636BE1
:10B8600094F8302013443744AD1B6363606B2A4661
:10B87000394600F0F3F928B9626B2A446263142058
:10B8800000E0002005B0F0BD1C20FBE708B507F084
:10B89000A9FC054B05491B681B1A584258416222F6
:10B8A000BDE8084004F036BB78160020EF640100C4
:10B8B00000F0D4BA70B5084E336804460D46984778
:10B8C00040B9336929462046984700280CBF032019
:10B8D000012070BD0020FCE71008002010B500F129
:10B8E00008040322074821460AF077FC40B10648C5
:10B8F000032221460AF071FC00280CBF012003201E
:10B9000010BD00BF846401002165010070B5144DB5
:10B910002E78044636B185220020124904F0FAFA46
:10B92000022070BD012801D98B22F5E707F05AFCEF
:10B930000D4B4FF48272186031460C480AF036FC09
:10B9400001232B700A4B094803EB0414094B1C60BC
:10B95000636898470028E4D003232B70E1E700BF19
:10B9600074160020EF640100781600207015002086
:10B97000100800206C15002070B5164D2B78012B97
:10B9800004460E4607D01449A422002004F0C2FA4F
:10B990000224204670BDFFF779FF104B10481B684A
:10B9A00021469B68324698471328044602D1022359
:10B9B0002B70EEE7142800D048B928780649431EBA
:10B9C00058424FF0B202584104F0A4FAE1E70323D1
:10B9D000EEE700BF74160020EF6401006C15002034
:10B9E0007015002010B5094C207828B90849C022EC
:10B9F00004F090FA022010BDFFF748FF054B0648FF
:10BA00001B68DB68984700232370F4E77416002056
:10BA1000EF6401006C1500207015002030B505465C
:10BA200008462F2885B094BF0020012018494722DE
:10BA30001C4604F06FFA0C2205F1200101A80AF05F
:10BA40008DFB0CB9134B1C70134B029A9A420ED10A
:10BA500003F13653019803F5672303F26F639842AD
:10BA600013D0FC3BC31A5842584105B030BD28469C
:10BA700004F0D4FA28B114B9064B01221A7003203D
:10BA8000F3E7002C18BF0320EFE70220EDE700BF2B
:10BA900025650100B61600202028056E2DE9F04727
:10BAA000DDF8208006460D4691461F4613B1B8F1D9
:10BAB000000F09D171224049002004F02BFA4FF009
:10BAC00002094846BDE8F0874FF0000AC3F800A01D
:10BAD000C8F800A002F08CFC044600B3022E0CD182
:10BAE000B9F1000F02D0B5F5004F55D1334B1C68AA
:10BAF0004FF400454FF0000905E0032EF0D000247C
:10BB000025464FF01C0904F0C5F808B9012E50D0A5
:10BB1000B9F1000FD5D1002C47D1B822CBE702F004
:10BB200069FC0028EBD0012E08D1B9F1000F01D03B
:10BB3000002D36D1214B00251C68DBE7032EDED11A
:10BB40001F4B1A69002ADAD00C325378157845EA6F
:10BB50000325937845EA0345D37855EA03650DD16B
:10BB60005179137943EA0123917943EA0143D17969
:10BB700053EA016302D1134B1C68BBE7517A137A75
:10BB800043EA0123917A43EA0143D17A43EA01630C
:10BB9000012BF0D01432D8E7544655464FF01B091C
:10BBA000B1E725464FF01A09ADE73D60C8F80040FF
:10BBB00087E74FF01C0984E725650100E86501006F
:10BBC000F0630100AC77010070B506460C461546DF
:10BBD00002F010FC48B1032E07D1064B1B6923B1BC
:10BBE00029462046FDF790F908B9002070BD1D20B8
:10BBF000FCE700BFF063010038B50F4D2C783CB175
:10BC00000E49DA22002004F085F90224204638BDCE
:10BC10000B483022FF210AF0C9FA01232B70094B8F
:10BC20001C70094B1C60094B1C60094B1C60094BC4
:10BC30001C70094B1C70E9E7BD160020256501004A
:10BC400080160020B5160020B0160020B81600207F
:10BC50007C160020B4160020BC1600202DE9F04F01
:10BC6000734E15463278012A85B004460F4608D037
:10BC700000207049EF2204F04DF9022005B0BDE824
:10BC8000F08F6D4B197821B96C491A7008606C49B6
:10BC90000860DFF8B08198F80030002B70D1684A56
:10BCA00013685919A342116048D1DFF89CA1DFF84D
:10BCB0009CB1DAF80000C0F13009A94528BFA946B7
:10BCC00039464A4658440AF049FADAF8000048442E
:10BCD0002F28CAF800004F44A5EB09054C444BD966
:10BCE000A0F1300358425841524940F2111204F079
:10BCF00011F9524ADAF80010126801235846FFF78A
:10BD00008DFE534B187002ABDFF844914B49009302
:10BD1000096899F8000003AB0122FFF7BFFE50B994
:10BD200003F0C8FF70B1484B48491A6899F8000001
:10BD3000FFF74AFF30B1032333709FE7444B0322E0
:10BD40001A70E0E798F800003A4980F001004FF4DB
:10BD50009A7204F0DFF8029800F058F90028EAD14E
:10BD6000012388F80030384B38491A68334B18687B
:10BD700000F0B0F920B1DEE798F80030002BF2D1E6
:10BD800098F8003033B12A463946204600F0A2F92F
:10BD90000028D0D12E4B1B78022B43D0032B03D08D
:10BDA000012B42D0002069E72A4B187800283FF485
:10BDB00065AF294B186900283FF460AF00F10C0211
:10BDC0005178137843EA0123917843EA0143D1780B
:10BDD00053EA01630BD15079137943EA0023907938
:10BDE00043EA0043D07953EA006002D146E79C421F
:10BDF0000CD35379107940EA0320937940EA034049
:10BE0000D37940EA03608442034601D91432D7E76C
:10BE100000283FF433AF2C449C42C3D30223337039
:10BE200013202BE74FF4F833F5E74FF40043F2E724
:10BE3000BD16002025650100BC160020B8160020A4
:10BE40007C160020B4160020B016002080160020BA
:10BE5000B5160020B6160020F063010010B50E4B99
:10BE60001C783CB920460D4940F26B1204F052F8A0
:10BE7000022010BD00221A70094B187808B100F09A
:10BE8000CBF9022CF5D0074B1B78032BF1D00028FF
:10BE900008BF2520EDE700BFBD1600202565010085
:10BEA000B4160020B51600202DE9F041DFF84480DB
:10BEB000114E98F80030114F0446CBB9104B326840
:10BEC0001B6810499B68386898470123054688F825
:10BED000003032680B48FF210AF068F93368B4FB80
:10BEE000F3F003FB1040241A3C602846BDE8F081C3
:10BEF0000025EEE7C01A0020D41A0020D01A002036
:10BF0000D81A0020C0160020F8B5384F3B685B698E
:10BF1000054698473B6806469B692846984704466D
:10BF200006B140B9324940F23512002003F0F2FF69
:10BF300002242046F8BDB6F5806F8CBF002001209A
:10BF40002B494FF49D7203F0E5FF4FF48060B0FB86
:10BF5000F6F07043A0F5806358425841244940F2FE
:10BF60003B1203F0D7FFA6428CBF002001202049DE
:10BF70004FF49E7203F0CEFFB4FBF6F006FB1040C8
:10BF8000B0FA80F040091A491A4E40F23D1203F00F
:10BF9000C1FFB5FBF4F0184B04FB10501C60174BAD
:10BFA000281A18603B68164D1B6A3060B4F5806F24
:10BFB00028BF4FF480642C6033B19847044618B111
:10BFC0003B685B689847B4E70E4B1B7833B13B681E
:10BFD0003068DB68984704460028F1D12A680A488F
:10BFE000FF210AF0E3F80024A3E700BFD81A0020DD
:10BFF00059650100C41A0020C81A0020D01A002078
:10C00000D41A0020E01A0020C0160020F8B5254FF1
:10C010003D78044635B147222349002003F07AFFDA
:10C0200002242AE000282AD0436843B3836833B34C
:10C03000C36823B3036913B3436903B38369F3B1DB
:10C04000C369E3B14FF48062FF211848184E0AF02B
:10C05000ADF8184B346001221A70174B1D70174B46
:10C060001D60174B1D60174B1D60174B1D60174B54
:10C070001D6023689847044618B12046F8BD4D223C
:10C08000CAE7134B1B784BB933681B6998470546C1
:10C0900020B133685B6898472C46EEE701233B707C
:10C0A000EBE700BFE11A002059650100C01600202F
:10C0B000D81A0020C01A0020CC1A0020D01A002064
:10C0C000D41A0020C41A0020C81A0020DC1A00204C
:10C0D000E01A00202DE9F74F454D95F80080B8F1A2
:10C0E000010F83460E46144608D0002041497B22AA
:10C0F00003F010FF022003B0BDE8F08F3E4F3A7806
:10C1000052B9FFF701FF10B102232B70F3E73B4A4E
:10C1100087F80080C2F800B0DFF8E480374FD8F825
:10C1200000003A68BBFBF0F1B2FBF0FC00FB11B180
:10C1300000FB1C20ABEB0101121A914204D05846BF
:10C14000FFF7B2FE0028DFD1DFF8B8A03A68DAF8CE
:10C150000000BBFBF0F1B2FBF0FC00FB11B100FBF7
:10C160001C20ABEB0101121A914236D1DFF89890F6
:10C17000D9F80020D8F800100A445A4504D8584687
:10C18000FFF792FE0028BFD16CB3204BDAF8001005
:10C190001A680A445A4504D85846FFF7B5FE0028E5
:10C1A000B2D1D9F80000D8F80020194B0244A2EB14
:10C1B0000B02A242ABEB000028BF224631461844D6
:10C1C000019209F0CBFF019A1248B2FA82F14909B3
:10C1D000017093441644A41ACAE75846FFF794FE28
:10C1E0000028C3D090E7C7F800B0204683E700BF1F
:10C1F000E11A002059650100CC1A0020DC1A002049
:10C20000D41A0020C81A0020D01A0020C41A002016
:10C21000C0160020C01A002070B5194E307830B911
:10C220001849CC2203F076FE0224204670BD012876
:10C2300023D10020FFF738FE0546134B1B685B68CF
:10C2400098474FF480620446FF21104809F0AEFF82
:10C250000F4B01221A700F4A002313700E4A3370DD
:10C2600013600E4A13600E4A13600E4A13600E4AA2
:10C270009C4208BF2C461360D7E70025DDE700BFCE
:10C28000E11A002059650100D81A0020C0160020CC
:10C29000C01A0020CC1A0020D01A0020D41A002086
:10C2A000C41A0020C81A0020DC1A002010B5044669
:10C2B00003F046FC014B1C7010BD00BFE01A0020CB
:10C2C0004FF4807070474FF480507047024B1878DD
:10C2D000431E584258417047012B002008B50D4BB2
:10C2E000187828B90C49832203F014FE022008BDF7
:10C2F0000020187004F0B0FC50B9084B1B780BB14B
:10C300000020F4E702F074F80028F9D12520EEE7C8
:10C310001F20ECE7012B00208D650100022B00207F
:10C3200038B5174D2C783CB116496222002003F035
:10C33000F1FD0224204638BD22462146204604F065
:10C3400089FCD0B9104B11481C70114B1C70114B5B
:10C350001C70114B1C60114B1C60114B1C70114B5D
:10C360001C60114B1C60114B4FF4805221461C6025
:10C3700009F01CFF01232B70DCE71E24DAE700BF65
:10C38000012B00208D650100022B0020011B0020E5
:10C39000001B0020F81A0020F41A0020FC1A0020CC
:10C3A000EC1A0020E81A0020F01A0020E41A0020FD
:10C3B00038B52C4D2B78012B044606D000202A4995
:10C3C000FF2203F0A7FD022038BDC0F30B0040B1EF
:10C3D000254940F20712002003F09CFD022028703E
:10C3E000F2E7224A137853B1214B22491B680968AE
:10C3F0000B449C4203D01C494FF48772ECE7A4F530
:10C400000043B3F5B83F03D202232B702120DBE7B2
:10C4100001231370164B1C60164B4FF48052B4F579
:10C42000004F1A6016D201F0E5FF68B164B92046EA
:10C4300001F06CFE90B94FF400424FF4807101F0AE
:10C440006EFE68B90020BFE7204601F05FFE0028BD
:10C45000F8D0D9E7232002232B70B5E71020FAE7A4
:10C460002020F8E7012B00208D650100F81A00203C
:10C47000F41A0020FC1A002070B5144D2B78012B03
:10C4800007D00020124940F2371203F043FD02208A
:10C4900070BD104E347844B100200D4940F23D1279
:10C4A00003F038FD02202870F2E72046FFF780FFF6
:10C4B00018B102232B702220EAE704F58054B4F56A
:10C4C000004FF2D101233370E2E700BF012B0020BF
:10C4D0008D650100001B00202DE9F843664D2B7887
:10C4E000012B06460C46174608D06449A2220020BC
:10C4F00003F010FD02242046BDE8F883C3B21BB14F
:10C50000AB225E4900200EE0FF2A02D912F0FF00A4
:10C5100001D0B222F5E7C6F30B031344B3F5805FF5
:10C5200006D9B9225549022403F0F4FC2C70E2E745
:10C53000534B1B787BB9534B187808B9C122F1E7EC
:10C54000514B1B689E4204D3504A126813449E42CA
:10C5500001D3C722D5E74E4A137843B14D4B4E491C
:10C560001B6809680B449E4201D0CF22C9E7B6F58B
:10C57000F83F07D2F319B3F5004F03D902232B700C
:10C580002024B8E701231370424B1E60424BB6F5DE
:10C59000004F1F6057D201F02DFF002859D0C6F57B
:10C5A000FF48DFF8F89008F17C0847453A46D9F88B
:10C5B000000028BF42462146FFF782F8B6F5805FAB
:10C5C000C9F8000007D236483A462146304409F0FF
:10C5D000C5FD00248FE7F319B3F5004F39D1C6F537
:10C5E000FF43C6F5FF427D337E32E15CA35C14F865
:10C5F00008201B0443EA01231343C6F5FF427F32A0
:10C60000A25C43EA026398421FD122463946304673
:10C6100001F085FDD8B901F079FD90B9204A4FF4B9
:10C62000805101F07CFD00280CBF0024202401F083
:10C63000CFFD1C4B01221A70002CCAD002232B7094
:10C6400059E71024F3E72324F8E72724F6E720240A
:10C65000F4E722463946304601F061FD04460028E1
:10C660008CD13E44B6F5004FB3D301F0B1FD0D4B74
:10C6700001221A703FE700BF012B00208D650100E9
:10C68000001B0020F81A0020F41A0020FC1A0020D9
:10C69000EC1A0020E81A0020F01A0020E41A00200A
:10C6A000011B0020022B002038B52522002109485B
:10C6B000094D0A4C09F07AFD094A0A490A48002343
:10C6C00013700A4A0B700A49037013702B602370B1
:10C6D0000B8038BD082B0020302B0020062B0020BB
:10C6E000342B00202E2B00202D2B0020352B00205A
:10C6F000042B00202DE9F04F054685B0B048DDF849
:10C7000040B00292027801919A460023CBF80030A3
:10C710006F18E2B12A783A2A18D0AA4A00920E9AE3
:10C720000393FF21504609F041FD019BDBF8001007
:10C730007D1B5D1B009B1A680F9B521A1A60029B9F
:10C740001D60039B184605B0BDE8F08F03709E4B3B
:10C750001A78002A40F09A809A4B0093BD4200F06C
:10C760004E819A4EDFF86882DFF868922C4620E00E
:10C770000A2B1BD098F80010C1B3DA0699F80020F4
:10C7800058BF0933B05C03F00F030343B35496F86A
:10C7900000C00132D2B20CF1040E964589F8002097
:10C7A00031DBB1FA81F1490988F80010A74225462A
:10C7B00015D0254614F8013B0D2BF7D03A2BD7D1D5
:10C7C00025220021304609F0F1FC834A0023A742CC
:10C7D000137088F8003089F800302546E9D1DBF87D
:10C7E00000300E9AD31A0E93002398E799F8002090
:10C7F000242AD6D813F0100F03F00F0308BF093313
:10C800001B01B354CDE7012362461846305C013367
:10C81000DBB202449E45D2B21846F7DA002A40F055
:10C82000E7806D480378002BBBD1B378727842EA79
:10C83000032252BA4FF0010EF37880F800E0C2F301
:10C8400007207270B07092B20D2BAAD801A050F8D8
:10C8500023F000BFC7C8000029C90000F1C80000CC
:10C86000A3C700003FC90000A3C70000A3C7000082
:10C87000A3C70000A3C70000A3C7000035C900007C
:10C88000A3C70000A3C70000C7C800004F4C4E4A12
:10C89000214600231370504611F8042B09F05EFC6A
:10C8A0002178DBF80030CA18CBF800202068454C0E
:10C8B000009423681B0CC0F30F201B0403430B449C
:10C8C0008A4423604AE7454B1B88002B53D04449D8
:10C8D000098899424FD04349098899424BD00E9A12
:10C8E000DBF80030D31A364A0E93012313707BE72E
:10C8F000DBF8002003930E9BFF219A1A504609F0A3
:10C9000055FC019B72793079DBF80040791B591A8C
:10C91000009B120142EA003218681A600F9B001B4C
:10C920001860029B19600CE70E99DBF800208A1A48
:10C930000E92F4E6B388294A5BBA138031E70E9B66
:10C94000DBF80020FF219A1A504609F02FFC019BCA
:10C950003179009CDBF800007A1B9A1A73791B046A
:10C9600043EA016321682360091A029B0F98016062
:10C970001A600223E6E6009B18681B4B00EA0301DD
:10C980000A4390423ED1104B18496246504600255A
:10C990001D7009F0E3FB3178DBF800200098124BA2
:10C9A0000A44CBF80020026813403268C2F30F2219
:10C9B00013430B448A44036098F80010F1E600BF6B
:10C9C000352B0020302B00202D2B0020082B0020A1
:10C9D0002E2B0020062B0020342B0020042B0020BF
:10C9E000EC070020EA0700200000FFFF0C2B0020CE
:10C9F0000E9ADBF80030D31A0E9304238FE60E9BB9
:10CA00009B1AF0E60E9ADBF80030D31A034A0E9315
:10CA1000012313700135022381E600BF2D2B002076
:10CA2000024B0021186805F08BBF00BF602B00206F
:10CA3000014B186805F098BF602B002008B506F080
:10CA4000D1FB064B06491B681B1A5842584140F25D
:10CA50006912BDE8084003F05DBA00BF642B0020F6
:10CA6000EC65010038B5104D104C0FCD0FC40FCD43
:10CA70000FC495E8030084E8030000F033FB0C4882
:10CA800001F086F901F022F90A4B18600A4B4FF4C5
:10CA900000721A60094B01221A60094B094A400AC8
:10CAA0001860094B1A6038BD20660100382B002041
:10CAB000B9CC0000E04E0020A84E0020A44E00207B
:10CAC000A04E00206C2B00209C4E002010B5044688
:10CAD000FFF7A6FF054B3CB11A780AB902221A707B
:10CAE000BDE81040FFF7A4BF1C70F9E76D2D0020D2
:10CAF00008B5FFF795FF074B1978074B1A788A425C
:10CB000003D1022A04BF01221A70BDE80840FFF7D2
:10CB10008FBF00BF6C2D00206D2D00202DE9F84344
:10CB2000064613380128454C454994BF0020012092
:10CB30004FF43A7203F0EEF994F82030032B07D14A
:10CB4000BDE8F8433E494FF43B72002003F0E2B9E0
:10CB50002368002B50D0A569E269AA424CD325B1C5
:10CB60006568A268AA1A5542554105F0010294F879
:10CB7000269084F82520002B40D194F82770033F9D
:10CB800018BF0127002D3BD094F8248094F823305F
:10CB9000002B236908BF0025013333D06068284982
:10CBA000013040F20A3218BF012003F0B3F9626885
:10CBB00023699B1A6269B2EB432F8CBF01230023C8
:10CBC00016B3032384F8203094F82030032B0CD1C3
:10CBD00094F821303BB1FEF705FF002384F82130A3
:10CBE0009E4208BF0646174B1E70B9F1000F23D1B5
:10CBF000BDE8F843FFF77CBF0025B6E70127C1E792
:10CC0000A846C3E70023DBE7B9F1000F09D033B929
:10CC1000002FD6D0B8F1000F08BF0426D1E70626B2
:10CC2000CFE7002DCDD1B8F1000F01D00223C9E725
:10CC3000002FC9D00123C5E7BDE8F883382B0020B9
:10CC4000EC650100362B002030B4194C94F82050CC
:10CC5000032D06D130BC174940F23522002003F0E5
:10CC600059B9256805B92060A068013094F82700FB
:10CC700008BFA1600328A06908BF84F8273090424C
:10CC800007D9E069904204D91AB1032030BCFFF7FC
:10CC900045BF481C02D0A0688842F6D1032B03D0C0
:10CCA00094F827109942F0D1A2610020EEE700BF6E
:10CCB000382B0020EC6501002DE9F041354C1D4674
:10CCC00007468846164600F08FFA94F82030032B6A
:10CCD0001FD0B8F1020F16D1D4F80080B04518D19A
:10CCE000284601F047F80646284601F01FF804469A
:10CCF0003846FEF7F3FD3246034621464046BDE87E
:10CD0000F041FFF7A1BFB8F1000F04D0B8F1010F57
:10CD10001BD0BDE8F0813846FEF7E0FD0328F8D0CF
:10CD2000284601F032F88307F3D43846FEF7D6FDE3
:10CD30000746284601F01EF80446284600F0F6FF94
:10CD40003B46014622463046D9E72368B342E0D14C
:10CD500094F8223033B100234FF0FF322360A260F9
:10CD6000A361D6E70C4D0FCD0FC40FCD0FC495E8CE
:10CD7000030084E80300FFF753FE084B1A78012AEA
:10CD800004D1074A1278022A08BF1A70BDE8F041A0
:10CD9000FFF74EBE382B0020206601006D2D0020CD
:10CDA0006C2D0020F8B5414E414C0546FFF746FE7C
:10CDB000FFF736FE327823789A4203D1BDE8F84077
:10CDC000FFF736BE3B4940F2F912012003F0A2F80A
:10CDD0003378022B11D1384B93F82030012B55D0EA
:10CDE00008D9023B012B05D9324940F20B22002021
:10CDF00003F090F84FF4FA7304E0002B37D1227857
:10CE0000022A3BD12D4A11684EF65F20814203D899
:10CE10000D4499421560D1D9257837783570012DA8
:10CE200008BF02234FF0000608BF23701660FFF70B
:10CE3000FFFD022F16D1204C94F82030032B05D093
:10CE40000123304684F82630FFF768FE94F820006E
:10CE50001849C31E584240F21112584103F05AF8C3
:10CE600000F064FA012D17D9022D19D0F8BD012B5D
:10CE700004D12378022B0CD0002BC3D00D4940F2F3
:10CE80001B22002003F046F80023BBE744F6206392
:10CE9000B8E740F6C413B5E7094B00221A60E5E78E
:10CEA000FFF7E0FD064B0122F8E700BF6C2D0020E4
:10CEB0006D2D0020EC650100382B0020682B002030
:10CEC000D84E002008B5FFF7B9FD014B187808BD12
:10CED000362B002008B506F085F9094B18600020B4
:10CEE00005F01CFD074B1860FFF7BCFD064A002348
:10CEF0001370064A1370064A1360064A136008BD91
:10CF0000642B0020602B00206C2D00206D2D002054
:10CF1000682B0020D84E002070B504460D461646FA
:10CF2000FFF78CFD064B1B684BB1012001F0E0FBC5
:10CF3000324629462046BDE8704000F02FBF70BD44
:10CF4000D84E00202DE9F041054688461646FFF7E9
:10CF500075FD534B1B68CBB1524B534C00221A60EA
:10CF600094F82030032B11D0012001F0C1FB324690
:10CF70004146284600F03EFF94F82030032B05D0B0
:10CF800094F8223023B163689D423ED2BDE8F0811F
:10CF900071024046FEF78EFC0328074620D094F825
:10CFA0002100424940F2852280F0010002F0B2FFE8
:10CFB000681C18BF01203D4940F2862202F0AAFFFA
:10CFC0006368013394F8273008BF6560032B6368FA
:10CFD00008BF84F827709D4207D00320FFF79EFD0D
:10CFE00094F82230002BD1D0CDE794F82730BB4203
:10CFF000F3D13846FEF78AFC0028EFD10123E56023
:10D0000084F8213084F82230E8E7E3689D420AD0B2
:10D01000BCD22369013308BF25612369AB4294BFA9
:10D0200023612561B2E7E369354403EB46237702C8
:10D0300094F82360E361E56026B10020BDE8F0418B
:10D04000FFF76CBD19494FF43172012002F062FF05
:10D05000164994F8210040F2C52202F05BFF3946E0
:10D060004046FEF789FC1328054610D1FEF7BAFCAE
:10D070000123054684F8216084F8233084F82430A5
:10D08000FBF7CAFE63693B4463612846D6E7142870
:10D0900003BF012384F82430354684F82460F1E787
:10D0A000D84E0020682B0020382B0020EC650100B2
:10D0B00000220346114610461847000070B5064688
:10D0C00007480D46FBF762FA04462DB136B9024611
:10D0D0000349284609F042F8204670BD0024FBE7CA
:10D0E0004866010037B5304C304A23464FF0806126
:10D0F00013F81F0F002814BF1846104600F0FCFC60
:10D100002B48FFF7D5FF14F8145F29490346294837
:10D110000022954218BF204600F030FF2648FFF756
:10D12000C7FF254903460022244800F027FFFFF7E8
:10D13000C9FE40B12248FFF7BBFF21490346002248
:10D14000204800F01BFF204B204A2148412102F0DB
:10D1500085FC58B11F48FFF7ABFF1E49034600226C
:10D160001D4800F00BFF002100F0DEFD00230093BE
:10D170004FF40043019301F03DF980B1009801990B
:10D180004FF4807208F0DAFF044640B91348FFF705
:10D190008FFF124903462246114800F0EFFEFBF7CD
:10D1A0005DFE03B030BD00BFF0630100B466010056
:10D1B000C9D40000C06601003DD80000CC66010063
:10D1C0008DD50000D8660100B22D0020B02D0020C2
:10D1D0006E2D0020C5D60000266B0100BDD00000DA
:10D1E000E466010000207047F7B507460C46FFF7DC
:10D1F000F9FF20B903F0B8FD18B1022C0AD103B031
:10D20000F0BD03F0B3FD0028F7D102F043FD002884
:10D21000F3D1F4E7002C6FD101230DF1070138465B
:10D220008DF80730FBF70EFE10BB3C4E4FF0FF357C
:10D2300031680B22384608F081FF00B93579013496
:10D24000102C06F10806F3D16B1C1DD00F2D4CD805
:10D25000DFE805F008150E1E272B2D313337393D39
:10D260003F43454901F0C6F810B1012002F0A6FB8A
:10D270009DF80730002BC2D0FFF73AFCBFE72849E2
:10D28000E222002002F046FE00238DF80730EFE78F
:10D29000244B1C682368984723699847636898471C
:10D2A000E6E7012002F0D6FCE2E70020FAE70120E1
:10D2B00002F0D6FCDCE70020FAE7012002F0D6FC01
:10D2C000D6E70020FAE7002002F02EFCD0E701208C
:10D2D000FAE7012002F0D0FCCAE70020FAE70120BB
:10D2E00002F02EFCC4E70020FAE70D494FF48872E3
:10D2F000002002F00FFEBBE7012C80D10A490B226F
:10D30000384608F01BFF00287FF479AF02F01EFEBC
:10D3100003B0BDE8F040FFF7EBBB00BF486B010076
:10D32000F0660100AC770100266B010008B501F042
:10D330005FF820B1FFF7C6FD08B9FEF781F901F0EB
:10D3400059F820B102F082FB30B1FEF779F9054AB5
:10D3500013680133136008BD02F0ECFB0128F6D11D
:10D36000F3E700BFB42D00202DE9F04FA5B004AEC7
:10D370002E9C0746884691460021802230469A46D8
:10D3800008F014FF631E31467E3413F8012F1AB1E2
:10D390009C4201F8012BF8D1DFF81CB135462B78FF
:10D3A000402B0ED05BB9AD1B0195009653464A4603
:10D3B0004146384602F079FD25B0BDE8F08F0135D1
:10D3C000EDE76B78562B33D8412B01D83B4C37E037
:10D3D000423B142BFAD801A252F823F085D4000066
:10D3E000CDD3000097D40000CDD30000CDD30000F2
:10D3F000CDD300008BD40000CDD30000CDD30000EE
:10D40000CDD30000CDD300003BD40000CDD300002D
:10D41000CDD30000CDD30000CDD30000A3D40000B5
:10D42000CDD3000091D400007FD400009DD4000033
:10D43000623BDAB2142ACCD9C8E700F09FFE04465A
:10D440002846FBF7A3F803902046FBF79FF8039AC2
:10D45000111802390346294424A8884229D9023ADE
:10D46000A91CE818039308F087FE039B21461A467F
:10D47000284608F073FE2B78002B90D193E700F03C
:10D4800065FEDCE700F066FED9E700F067FED6E750
:10D4900000F068FED3E700F069FED0E700F06AFE16
:10D4A000CDE79BF82A30064C064A002B08BF1446ED
:10D4B000C6E7154477E700BFF06301001F6701006E
:10D4C0001A64010025670100F7B50F4600B1F1B9F4
:10D4D000450256020F4B00932A4600233146384638
:10D4E00002F001FD0C4B0093044603462A463146E8
:10D4F0003846FFF739FF094B0093044423462A4678
:10D500003146384602F0EFFC204403B0F0BD002065
:10D51000FBE700BF5E6701002E6801003168010073
:10D520002DE9F7430A9C0094984605460E46174697
:10D5300002F0D9FC4FF00209124B00933A4608EB77
:10D54000000331460446CDF80490284602F0ADFCB5
:10D550000B9B0093044408EB04033A4631462846EB
:10D5600002F0C1FC084B00930444CDF8049008EB92
:10D5700004033A463146284602F097FC204403B0A3
:10D58000BDE8F0835E680100F46801002DE9F74F03
:10D590000D4692460446FFF795FC064600F09AFDBC
:10D5A0000746304600F0AAFD06460CB1002D4BD1CF
:10D5B0004FEA442B254B01974FEA4A2A00935A46DB
:10D5C000002351462846FFF7ABFF214B009304464A
:10D5D00003465A465146284602F085FC1D4F044436
:10D5E00007F114094FF001086EB9022301931A4B99
:10D5F00000935A4623465146284602F056FC2044E2
:10D6000003B0BDE8F08F4F45EFD0B8F1000F0AD15D
:10D6100002230193114B00935A4623465146284654
:10D6200002F043FC0444F3070AD53B6800935A46D2
:10D6300023465146284602F056FC4FF000080444A9
:10D64000C6F347060437CFE70020D9E75468010046
:10D650005A680100346B0100F46801006168010040
:10D6600070B4049E044D054C002E08BF2C46049453
:10D6700070BCFFF755BF00BF64680100217A01004C
:10D680002DE9F04186B00DF10C0804460D464046E8
:10D690000D991F46164602F0CEFB00F118030DEB64
:10D6A0000300002300F80C3C0C9B0093CDF8048091
:10D6B0003B46324629462046FFF732FF06B0BDE81A
:10D6C000F08100002DE9F04F87B000230E46029351
:10D6D00008B1002975D13C4B1B78012B6ED0022B71
:10D6E0003A4B14BF4FF00008984644025502384B9D
:10D6F0000093224600232946304602F0F4FB354BC6
:10D700000193354B0093074603462246294630468F
:10D71000FFF706FF314B1B8801930744304B009302
:10D7200022463B4629463046FFF7AAFF07EB000A90
:10D73000B8F1000F0AD02B4A00925346CDF804806E
:10D74000224629463046FFF7EBFE824402A802F04B
:10D75000E1F9804670B3029A62B3234A00925346BD
:10D7600022462946304602F0BEFBDFF880B08244F4
:10D7700000270DF10C090AF10A02B2F5007F19D257
:10D780000A225946484608F0E9FC029A484652F8EF
:10D79000271002F037FB0A23019322465346CDF8A7
:10D7A00000902946304602F080FB0137FAB29045DE
:10D7B0008244E0D8504607B0BDE8F08FDFF83080F3
:10D7C00093E79A46F6E700BFB22D0020716801008A
:10D7D0007D6801006E2D002086680100B02D0020BC
:10D7E0008B68010090680100976801001C620100CD
:10D7F000666801002DE9F04186B0002405460E461A
:10D8000098460D99049447F630030DF10E00174623
:10D810000393ADF814408DF8164002F0F3FA03AB11
:10D8200001930C9B00933A464346314628468DF8B7
:10D830001640FFF775FE06B0BDE8F0812DE9F04314
:10D8400085B00D4656024702644B00933A460023CA
:10D850003146284602F047FB614B009304460346DD
:10D860003A4631462846FFF77FFD5E4B009304445D
:10D8700023463A4631462846FFF776FD044402F037
:10D8800001FA594B01903A46314600932846234607
:10D89000FFF7E6FE044402F0FDF9544B01903A46CE
:10D8A0003146009328462346FFF7DAFE044402F08F
:10D8B000F9F94F4B01903A463146009328462346EA
:10D8C000FFF7CEFE044402F0F5F94A4B01903A46C8
:10D8D0003146009328462346FFF7C2FE044402F077
:10D8E00035F9454B019000933A4623463146284688
:10D8F000FFF7B6FE414B0093044423463A463146B7
:10D90000284602F0F0FA3E4B0093044423463A4680
:10D9100031462846FFF728FD044400F037FC08B3E1
:10D920000DF108084FF0060936494A46404608F00E
:10D9300015FC354B00933A4623463146284602F003
:10D94000D2FA044400F04CFD04220146404602F0A5
:10D9500096FA2346CDE900893A463146284602F038
:10D96000A4FA0444294B00933A46234631462846FC
:10D9700002F0B9FA044400F009FC58B100F01CFCB4
:10D98000234B019000933A46234631462846FFF741
:10D9900031FF044400F016FC1E4B019000933A4600
:10D9A000234631462846FFF725FF1B4B1B68019392
:10D9B00004441A4B00933A46234631462846FFF763
:10D9C0005FFE174B0093044423463A4631462846EF
:10D9D000FFF7CAFC204405B0BDE8F083A26801004F
:10D9E000F768010007690100146901001F6901005F
:10D9F0003269010045690100626901006F69010037
:10DA00008969010026620100A1690100B66901006F
:10DA1000206A01002F6A0100B42D00203D6A010038
:10DA20004B6A01007047704710B554020846224601
:10DA3000002108F0BBFB204610BD000008B50346DE
:10DA400008463BB904494FF4007208F087FB4FF4D5
:10DA5000007008BD0020FCE7C031002008B5034677
:10DA600008463BB904494FF4007208F077FB4FF4C5
:10DA7000007008BD0020FCE7C933002083185B025A
:10DA8000B3F5806F70B506460D46144607D90020E1
:10DA90000B4940F2632202F03DFA002070BD4FF4C2
:10DAA00000720021284608F081FB36B9054B064973
:10DAB0001A682846520108F051FB6002EEE700BFE9
:10DAC000C86B0100BC310020BC2D00204300013395
:10DAD000B3F5007F05D3064940F23912002002F069
:10DAE00019BA044A02F81010090AD154704700BF4D
:10DAF000C86B0100C03100202DE9F84FDFF890918C
:10DB0000644D654CDFF89481654F8A464FF400728E
:10DB10000021064648464FF0000B08F047FB4FF443
:10DB2000007200215F4808F041FBC02259465E4860
:10DB3000C5F800B008F03AFB4FF4806259465B48E4
:10DB400008F034FB5A4B5B4A83F800B05A4B5B49F0
:10DB50001A6048464FF40072C4F800B0C8F800B02C
:10DB6000C7F800B008F0FAFA99F80C3099F80B20D1
:10DB70000AF5803A42EA0322BAFBF2F399F80D2043
:10DB800041F25A0A0AFB02F199426AD94FF4AB7288
:10DB90004B49584602F0BEF999F80D300AFB03F3E1
:10DBA000B3F5803F4FF0000264D389F8132089F861
:10DBB0001420C3F3072289F82120C3F3074289F810
:10DBC000222089F820301A0E89F8232099F80D2098
:10DBD000B3FBF2F35B00DFF8D0A03A4903F2FF1386
:10DBE000C3F3472289F81620C3F347433022504637
:10DBF00089F8173008F0B2FA99F8172099F816301A
:10DC000043EA02230422C8F80020DAF808205B0265
:10DC1000CAF81430CAF8203002EB4302DAF82C308C
:10DC20001A44204B3A60F8221A70FF225A700120E1
:10DC30004FF6FF712860FFF749FF2B6822491B4808
:10DC400001332B6020220023236008F087FA174855
:10DC50000B22314608F082FA236801332360BDE8C5
:10DC6000F88F4FF6917A0AFB02F29A4298D240F26C
:10DC700059128DE7C3F3072189F8133089F814107E
:10DC800089F8202089F8212089F822209CE700BF0C
:10DC9000C9330020C0330020BC3100208C36002066
:10DCA000B82D0020C0310020CC350020BC2D002034
:10DCB000C833002027DA0000C43300202A6C01009A
:10DCC000C86B01004C6E01002A6E010010B5144BA8
:10DCD000DC7C187D54EA002006D0DC7A1B7B44EA09
:10DCE00003244443204610BD93F8210093F82040BC
:10DCF00044EA002493F8220044EA004493F8230005
:10DD000054EA006405D0DA7A1B7B42EA03235C43C1
:10DD1000E8E7044940F28912204602F0FBF8E1E707
:10DD2000C9330020C86B0100C1727047427F037F76
:10DD300043EA0223827F43EA0243C27F53EA02633B
:10DD400011D0837EC07E094A43EA0020517B831EA6
:10DD5000D07A127B40EA022205480068B0FBF2F05C
:10DD600001FB030070474FF0FF307047C9330020BC
:10DD7000B82D0020427F037F43EA0223827FC07FC9
:10DD800043EA024343EA00607047C07A70470000EC
:10DD9000014B1860704700BFC43300202DE9F047E5
:10DDA000894604461546002152024846104E08F0A6
