:04000005000080C1B6
:020000040000FA
:10800000D02B00200983000015830000A59F0000ED
:108010000000000000000000000000006D2EFEDFE8
:108020008F9E939B0B999697FF000000B9810000EB
:10803000000000003C5501005D820000BD82000090
:108040002783000027830000278300002783000088
:108050002783000027830000278300004DA700002E
:108060001F83000023830000278300002783000074
:1080700027830000C5A70000278300002783000096
:108080002783000027830000278300002783000048
:108090002783000027830000278300002783000038
:1080A00031B20000278300002783000027830000EF
:1080B000278300002783000027830000F9A8000021
:1080C00000F002F800F030F80CA030C8083824188E
:1080D0002D18A246671EAB4654465D46AC4201D100
:1080E00000F022F87E460F3E0FCCB6460126334202
:1080F00000D0FB1AA246AB463343184748EC0000B9
:1081000068EC00000023002400250026103A01D36B
:1081100078C1FBD8520700D330C100D50B6070473F
:108120001FB51FBD10B510BD00F04EFB1146FFF787
:10813000F7FF08F0BFF900F066FB03B4FFF7F2FFAA
:1081400003BC00F069FB000080F309887047EFF37F
:1081500009807047684680F3098806480078C007A0
:1081600003D1032080F314887047022080F3148821
:1081700070470000B8600100064B9C46EFF3058392
:108180001B0605D1EFF31483DB0701D000DF704736
:108190006047000085170100064B9C46EFF30583FE
:1081A0001B0605D1EFF31483DB0701D000DF704716
:1081B0006047000099190100EFF309808169891E69
:1081C0000978002933D1A6461FC8A4467446E04763
:1081D0001F4B06CB914224D0083B002910D00CB491
:1081E000203101234B70EFF30983203B4B60F0C338
:1081F00044464D4656465F46F0C309F063FE0CBC4C
:108200001A60203253681033F0CBA046A946B2461C
:10821000BB4683F30988203BF0CB5078002803D07D
:108220001078EFF3098318600223DB43184710B579
:10823000084A1268914209D8074C89006458A6463A
:108240001FC8A446F047EFF309840FC410BD000017
:10825000DCEEFF1F7C8800007C88000009F018FD20
:10826000154B06CB914223D0083B0CB420310023A0
:108270004B70EFF30983203B4B60F0C344464D46FF
:1082800056465F46F0C309F01DFE0CBC1A60203252
:1082900053681033F0CBA046A946B246BB4683F3E1
:1082A0000988203BF0CB5078002801D01078186165
:1082B0000223DB4318470000DCEEFF1F09F0BAFE83
:1082C000CEE7000008F0A4FB09F0B4FEC8E7000008
:1082D00070B505460C46164602E00FCC0FC5103EA1
:1082E000102EFAD2082E02D303CC03C5083E042E6A
:1082F00007D301CC01C5361F03E021782970641C27
:108300006D1C761EF9D270BD72B60B48804762B6FE
:108310000A480047FEE7FEE7FEE7FEE7FEE70848FB
:108320000047084800470848004700000748084938
:10833000084A094B70470000A1B10000C18000004D
:1083400039A0000051A0000027830000D0290020A0
:10835000D02B0020D02A0020D02A002000487047CF
:1083600070290020034610B50B439B070FD1042A48
:108370000DD308C810C9121FA342F8D018BA21BAE9
:10838000884201D9012010BD0020C04310BD002A41
:1083900003D0D30703D0521C07E0002010BD0378A0
:1083A0000C78401C491C1B1B07D103780C78401C1F
:1083B000491C1B1B01D1921EF1D1184610BD421E53
:1083C0005378521C002BFBD10B78491C1370521CA4
:1083D000002BF9D17047D2B210B513029A181304CA
:1083E0009A1800F020F910BD020A08704A70020CB9
:1083F0008A70020ECA7070477047704770477047A6
:108400004D4943524F424954F0FFFFFFBE39FFFF31
:1084100030B5441C03E00178401C00290DD08107D1
:10842000F9D10B4BDD0104C8D11A91432940FAD090
:10843000001B0A0603D0C01E30BD001B30BD0A045D
:1084400001D0801E30BD0902FCD0401E30BD0000AE
:10845000010101010346F0B50B439B072DD1244DCB
:10846000EF01042A29D308C810C95E1B9E43121FBE
:108470003E4017D0D8B2E1B2401A3106014310D1C4
:1084800098B2A1B2401A310401430AD11802210264
:10849000000A090A401A3102014302D1180E210EC6
:1084A000401AF0BDA342DCD018BA21BA884201D9E3
:1084B0000120F0BD0020C043F0BD002A01D1002002
:1084C000F0BD03780C78401C491C002B0DD0A34252
:1084D0000BD1521E09D003780C78401C491C002B8C
:1084E00003D0A34201D1521EEBD1181BF0BD0000F6
:1084F00001010101F8B5042A2CD3830712D00B78AF
:10850000491C0370401C521E83070BD00B78491C7A
:108510000370401C521E830704D00B78491C037063
:10852000401C521E8B079B0F05D0C91ADF00202369
:10853000DE1B08C90AE0FFF7CBFEF8BD1D4608C9DF
:10854000FD401C46B4402C4310C0121F042AF5D233
:10855000F308C91A521EF0D40B78491C0370401C52
:10856000521EEAD40B78491C0370401C012AE4D443
:1085700009780170F8BD431A70B593421BD289186F
:10858000801804E0491E401E0B78521E03709307AA
:10859000F8D106E01039103878C9103978C0103891
:1085A000103A102AF6D203E0091F001F0B6803607F
:1085B000121FF9D570BDFFF78BFE70BDF8B50646EA
:1085C00014460843800707D0751AA54219D2081926
:1085D000102D13D2311907E03046FFF7CCFFF8BD5C
:1085E000401E491E02780A70641EF9D2F8BD471B6E
:1085F0002A463946FFF77EFF641B3846A542F6D36C
:10860000011B22463046FFF775FFF8BD01E004C0AC
:10861000091F0429FBD28B0701D50280801CC907E2
:1086200000D00270704700290BD0C30702D002703F
:10863000401C491E022904D3830702D50280801CF6
:10864000891EE3E70022EEE70022DFE70378C27825
:108650001946437812061B0219438378C0781B041D
:10866000194311430902090A000608437047002212
:1086700003098B422CD3030A8B4211D300239C465F
:108680004EE003460B433CD4002243088B4231D3D7
:1086900003098B421CD3030A8B4201D394463FE06B
:1086A000C3098B4201D3CB01C01A524183098B42CB
:1086B00001D38B01C01A524143098B4201D34B01B4
:1086C000C01A524103098B4201D30B01C01A524117
:1086D000C3088B4201D3CB00C01A524183088B429E
:1086E00001D38B00C01A524143088B4201D34B0087
:1086F000C01A5241411A00D20146524110467047F9
:108700005DE0CA0F00D04942031000D340425340FD
:1087100000229C4603098B422DD3030A8B4212D3BD
:10872000FC22890112BA030A8B420CD389019211EF
:108730008B4208D3890192118B4204D389013AD02C
:10874000921100E08909C3098B4201D3CB01C01A01
:10875000524183098B4201D38B01C01A5241430914
:108760008B4201D34B01C01A524103098B4201D302
:108770000B01C01A5241C3088B4201D3CB00C01A6F
:10878000524183088B4201D38B00C01A5241D9D287
:1087900043088B4201D34B00C01A5241411A00D208
:1087A0000146634652415B10104601D34042002B04
:1087B00000D54942704763465B1000D3404201B583
:1087C0000020C046C04602BD7546FFF7C7FDAE4655
:1087D000050069465346C008C000854618B020B55C
:1087E000FFF7A4FD60BC00274908B6460026C0C5B7
:1087F000C0C5C0C5C0C5C0C5C0C5C0C5C0C5403D59
:1088000049008D46704710B50446C046C046204614
:10881000FFF793FC10BD000001491820ABBEFEE736
:108820002600020070B58C180578401C6B075B0FA2
:1088300001D10378401C2A1106D10278401C03E0C4
:108840000678401C0E70491C5B1EF9D12B0705D41D
:108850000023521E0DD40B70491CFAE70378401C0C
:10886000CB1A921C03E01D780D70491C5B1C521E34
:10887000F9D5A142D8D3002070BD0000000000004F
:10888000F8B504460026006A354640064027002811
:1088900003DA206A0126B8432062606AC0210843D7
:1088A000606206E0204600F099F8400601D50125F7
:1088B00005E00021204600F037F80006F2D52069D7
:1088C0000090002E02D0206A38432062204600F03B
:1088D00085F8400601D5012501E0002D01D028468C
:1088E000F8BDE06CA16C4018616C226C89184018CE
:1088F000E16B4018A16B401841080120C0030143FF
:108900000091E162E16EA26E8918626E236ED21848
:108910008918E26D8918A26D8918490801430091F0
:1089200021630020F8BD000070B50C460546022901
:1089300001D2012000E00020FF226A3204A105F0EC
:108940009BF90020A1006958090600D5802070BD60
:108950002E5C736F757263655C6869635F68616CD8
:108960005C667265657363616C655C6B6C32377AEB
:108970005C66736C5F61646331362E6300000000D7
:1089800010B509490024A2008A58824201D0641C13
:10899000F9D0002C06D00020462204A105F06CF985
:1089A000204610BD0120F7E7C05D01002E5C736F0B
:1089B000757263655C6869635F68616C5C6672654B
:1089C000657363616C655C6B6C32377A5C66736C83
:1089D0005F61646331362E630000000001460A6A5D
:1089E0000020120600D58020496A490601D54021A1
:1089F0000843704770B50C00054601D0012000E027
:108A000000204D2225A105F037F92846FFF7B8FFD1
:108A10002E49800009582E4A080C8018026801234C
:108A20008B401A4302606078217980078907800FA4
:108A3000090F08436179042901D010210843E17826
:108A40008907490E0143E079002801D080200143C5
:108A5000A960E868617900090001042902D089074A
:108A6000890F0843A179002901D004210843A27885
:108A70000821002A00D00843E860286A227880088C
:108A800080009207920F02432A62207A0028686AC7
:108A900001D0084300E08843686270BD2E5C736FAC
:108AA000757263655C6869635F68616C5C6672655A
:108AB000657363616C655C6B6C32377A5C66736C92
:108AC0005F61646331362E6300000000C45D010005
:108AD0000070044070B514460D460646022901D2C6
:108AE000012000E00020FF2254320EA105F0C4F85E
:108AF000002C01D0012000E00020FF22553209A106
:108B000005F0BAF82078C3066079DB0E002801D0A2
:108B1000202003432079002801D040200343A800EF
:108B2000335070BD2E5C736F757263655C686963EA
:108B30005F68616C5C667265657363616C655C6BD4
:108B40006C32377A5C66736C5F61646331362E63B6
:108B50000000000010220029C16802D01143C1604A
:108B600070479143FBE7426AD208D200042903D040
:108B70008907890F091D0A4342627047044A010CA4
:108B800089180A68012383409A430A6070470000ED
:108B900000700440044A010C89180A6801238340CC
:108BA0001A430A60704700000070044010B5114875
:108BB0000068800C8007800F05D002280CD00328A5
:108BC00015D0002010BD00F091F80121C9038842A2
:108BD00000D00021084610BD074C6068002800D076
:108BE0000120912205A105F047F8606810BD7D20A5
:108BF000C00010BD00700440C4ECFF1F2E5C736FFA
:108C0000757263655C6869635F68616C5C667265F8
:108C1000657363616C655C6B6C32377A5C4D4B4C91
:108C200032375A345C66736C5F636C6F636B2E63B0
:108C30000000000010B5194C030004F06BFF140B8A
:108C40000B102D102D2D1E212D2D2D242D2D2D2DD4
:108C500027272A2D00F07CF86168090F09E000F051
:108C600077F86168090F491CFFF701FD6168490346
:108C7000490F491CFFF7FBFC10BDFFF797FF10BD24
:108C800000F034F810BD00F00BF810BD00F0A4F8AF
:108C900010BD7D20C00010BD002010BD40800440EC
:108CA00070B50648017A007E09074C0F45076D0F25
:108CB00000F006F86119C84070BD00000040064091
:108CC00008480178890706D481790907890F0129A5
:108CD00001D00020704740780349C007400F085872
:108CE0007047000000400640B85D010010B508481C
:108CF000007800060AD5074C2068002800D0012023
:108D0000782205A104F0B8FF206810BD002010BD36
:108D100000500640C4ECFF1F2E5C736F75726365D4
:108D20005C6869635F68616C5C66726565736361EA
:108D30006C655C6B6C32377A5C4D4B4C32375A3415
:108D40005C66736C5F636C6F636B2E630000000086
:108D500010B5104CA07980088007800F05D001283D
:108D600005D002280AD0002010BD0B4810BDFFF727
:108D7000A7FF217A0907490FC84010BD074C20689A
:108D8000002800D00120FF226B3205A104F074FFFF
:108D9000206810BD00400640006CDC02C4ECFF1FE0
:108DA0002E5C736F757263655C6869635F68616C84
:108DB0005C667265657363616C655C6B6C32377A97
:108DC0005C4D4B4C32375A345C66736C5F636C6F2E
:108DD000636B2E63000000000548017E090605D480
:108DE00080790007800F01D000207047014870474C
:108DF00000400640006CDC02F8B502787F2A02D001
:108E000000F04EF8F8BD0A704478861C4C708D1C3A
:108E1000074F08E02946304600F042F8010C3F18A1
:108E20008E1980B24519641EF4D23846F8BD000090
:108E3000020002000A4670B50146002003460629DA
:108E400016D006DC0B0004F065FE0513131314188E
:108E50001300FD290CD003DCF02909D111201CE0FE
:108E6000FE2919D0FF2903D1402010705370022031
:108E700070BD154607F0BEF902E0154607F0C2F9CD
:108E80000646FFF7C5FA401CC4B2224631462846C2
:108E9000FFF730FB204670BD05201070012070BD2B
:108EA000F8B502781346803B1F2B02D800F032F948
:108EB000F8BD1346A03B5E2B02D800F0C5F9F8BD03
:108EC0000A7007784C1C421C0025FF218848894EF7
:108ED0003B0004F01FFE1E10182140A9B6D3F1F28A
:108EE0005264F1F1F1F1F1686D728190A63DF1F1FA
:108EF000F1F1F1F18BF11078611CFFF79BFF7E49D6
:108F000020704018F8BD1078002846D0012844D0C1
:108F100021707948401ED5E01178002903D001293D
:108F200002D0002114E00121012202707348402385
:108F3000436020254560724A4703576047691F43D5
:108F4000476143692B4343615069EB031843506108
:108F500021703046B6E0057068484169402291436F
:108F60004161426920218A43426165484269C903DF
:108F70008A43426125700120A4E0507811780702ED
:108F800061480F435F490068FFF771FB0321801CB4
:108F9000FFF76DFB7843401EFDD12570B9E7657082
:108FA000257002208EE02146104600F0F1FB89E09A
:108FB0002146104600F0B6FB84E01778511C002FC4
:108FC00001D1FF270137384602F0C4F8FF1D257094
:108FD000F8080004801975E011788A07920F521C76
:108FE00049070276C90F41762570B2E7214610463F
:108FF00000F030F966E02170012113780C46521C14
:109000000AE01078521C8006800E00D14020C01D5E
:10901000C00812180918491C5B1EF2D2080420432C
:1090200050E010782170D4E7117801739378577865
:109030001902394301821179D27809021143418220
:1090400050E000782146012814D01346521C1078B5
:10905000521C002808D01778521CBC0701D5FC060A
:1090600000D5121D401EF6D1D01A0D7000044D70AF
:10907000801C27E0104600F031F923E00078174605
:10908000214601280AD00D704D70A5700320F97893
:109090001E4A890706D5104301460AE0104600F033
:1090A000AFFAF4E7B9787B78090219438904891883
:1090B0000143084606E000E016E00078012803D0EE
:1090C000217013488019F8BD1746501CFFF7BEFAEF
:1090D00039790002000A0906084300906946002019
:1090E00001F052FD2570ECE7203CE1773046F8BDF9
:1090F00034F8FF1F0100010002000200800000F8A8
:1091000000F00F4040420F00CCECFF1F00000400B5
:1091100001000500FEB502780A704D1C0178484C2C
:10912000401C8039064667000B0004F0F3FC0E0873
:10913000152137447D7D7D4E5C686C707F7D07F026
:1091400059F80746FFF764F9C6B22E70681C32461C
:109150003946FFF7CFF92BE00724684602F0A4FA5E
:10916000224669462846FFF7C5F9354C08345BE0CE
:10917000684602F099FA002002900422314602A8C3
:10918000FFF7B8F902980090684602F0ADFA0020A7
:1091900002F02AFB012028702A4C45E03E21681C81
:1091A0000AF028FD060002D0012007F097F92E7082
:1091B000A419641C38E03778701C39460AF09AFD0F
:1091C000012007F08BF901202AE001202870307877
:1091D000002805D0012803D0002028703C4623E059
:1091E00007F01AFBFAE70120287005F099F800282B
:1091F00002D102200AF0BAFA114C641C14E0007883
:1092000009F0B6F9E9E709F083F92870F4E737784F
:10921000461C012007F072F93946304609F042FA3F
:1092200028703904081904192046FEBD0020287052
:109230003078002800D0012006F0A2F9CEE7000027
:109240000100010002000500FF200870004870477F
:1092500001000100F3B583B000220A70491C01250A
:10926000009504910178441C01912AE02778641C40
:10927000B806800E00D14020C01DC608380616482A
:10928000416902D52022914301E02022114341612E
:1092900021463846049A01F02BFC0198002804D19D
:1092A0000D484169202211434161380606D50498D2
:1092B0008019049000988019009001E0A419AD195C
:1092C0006D1C0198401E0190401CCFD100992804CC
:1092D000084305B0F0BD0000800000F8F0B589B08B
:1092E0000890044600208D1C0391C3490290087029
:1092F000049005906678A41C002E6FD02778641C1B
:10930000B9076CD50499002935D0BC48008A019072
:109310001120384001280FD16946384601F034FC4D
:1093200002281AD10199491E0191491C03D0B24962
:1093300009780029F0D012E169460E2001F024FCE2
:10934000022808D10199491E0191491C03D0AA495C
:1093500009780029F0D0002104910128EBD100996F
:1093600029700099090A69700099090CA97000997F
:10937000090EE9702D1DF90658D52046FFF766F94C
:10938000E1780002000A0906084307909B48241D63
:10939000408A0690F80715D09848008A019000216D
:1093A000384601F0F1FB022802D00128C3D109E0C0
:1093B0000199491E0191491CBDD08F4909780029A6
:1093C000EDD0CCE08D48008A01906946384601F026
:1093D000DBFB022804D001281CD10BE0E0E064E0B4
:1093E0000199491E0191491C14D08349097800292B
:1093F000EBD00FE08149009A49691140079A9142E8
:1094000008D00699491E0691491C03D07A4909786B
:109410000029D7D07949009A49691140079A9142A9
:1094200001D01021084301281AD13CE07349098A70
:109430000191F90718D00499002934D10021384648
:1094400001F0A2FB022802D0012809D109E001990C
:10945000491E0191491C03D0674909780029EDD0C4
:109460007DE0012104911EE06946384601F08CFB45
:10947000022802D0012872D109E00199491E019108
:10948000491C6CD05C4909780029EDD067E000994F
:1094900029700099090A69700099090CA97000994E
:1094A000090EE9702D1D00214DE00498002823D0FD
:1094B0005248008A019069460E2001F065FB02289F
:1094C00002D001284BD109E00199491E0191491CA4
:1094D00045D0494909780029EDD040E0009828702E
:1094E0000098000A68700098000CA8700098000EA0
:1094F000E87000202D1D04902046FFF7A7F8E178C2
:109500000002000A09060843241D0090B90603D58D
:109510003A494861012017E03848008A01906946BD
:10952000384601F031FB022802D0012817D109E0AA
:109530000199491E0191491C11D02F490978002930
:10954000EDD00CE0012105910299491C02912A49B4
:109550000978002903D1761E00D0CFE60AE0002E5C
:1095600008D02178641C8A0701D5C90600D5241DBE
:10957000761EF4E7012832D1049900291ED01F4835
:109580001D4F068A69460E2001F0FEFA022802D01D
:10959000012824D105E0761E21D339780029F1D0A5
:1095A0001DE0009929700099090A69700099090C59
:1095B000A9700099090EE9702D1D10E00599002988
:1095C0000DD00E480C4F068A00210E2001F0DCFA67
:1095D000022804D1761E02D339780029F4D0039AE8
:1095E000029911700399487008980399201A000491
:1095F000691A084309B0F0BD2FE8FF1F34F8FF1FB8
:10960000F3B583B00025CE1C02914449024628469A
:109610000D70917853780C02D21C1C4373D01178D2
:10962000521C0091039289075DD50099C90737D074
:109630003B48078A0021009801F0A6FA022802D0D0
:10964000012860D12CE07F1E5DD3344909780029C0
:10965000F0D058E0002C04D10098C00701D00E20B3
:1096600000902F48078A01A9009801F08DFA02287E
:1096700002D0012847D106E07F1E44D3274909784C
:109680000029F0D03FE00199317001996D1C090A61
:1096900071700199090CB1700199090EF170361DB4
:1096A000641ED7D22FE00398FEF7D0FF0399000283
:1096B000C978000A0906084301900398001D039029
:1096C0001748078A01A9009801F05EFA022802D023
:1096D000012818D106E07F1E15D31049097800290A
:1096E000F0D010E06D1C641EDDD20D480B4F048AD3
:1096F00000210E2001F048FA022804D1641E02D392
:1097000039780029F4D002990D70029A290A517013
:1097100002998870029805B0301AF0BD2FE8FF1F3B
:1097200034F8FF1FF8B50D460646FEF78FFF04021A
:10973000F078240A000604430CD012480621006881
:109740000090FEF794FF00270F4EA04205D801209D
:10975000707012E0FF20287011E0777000982146A9
:1097600040080019401EFEF782FF012804D903219A
:10977000401CFEF77CFF00E0012070602F70034862
:10978000F8BD0000CCECFF1F34F8FF1F01000400FF
:10979000F3B506460578447881B0801CFEF756FF85
:1097A00001027079090A000601432A48E20706D03F
:1097B000EB074022002B01D0426000E08260A2074C
:1097C00006D5AB072022002B01DA426000E0826060
:1097D000214A230606D5EB09DE07204B01D0536052
:1097E00000E09360002923D001260023E10704D084
:1097F00001694906C90FA94217D1A10705D5016919
:109800006F088906C90FB9420FD1610701D5A908B0
:109810000BD1A10601D5690907D1210608D5116927
:10982000EF09C902C90FB94202D05942B142DDD392
:10983000016900694906C90F8006C00F4000014355
:109840001069C002C00FC0010143029801700448B2
:10985000FEBD0000800000F800F00F400000100086
:109860000100060010B5224C0020207020736421F6
:10987000218260820122606122761E496076096839
:109880001D4B4908994202D8627062600FE0607017
:109890001A4808181949491CFEF7E9FE012804D99D
:1098A0000321401CFEF7E3FE00E001206060144944
:1098B000886B1F22520210438863FF20114A033035
:1098C0009061114840234360416919434161FF2180
:1098D00004315161202242604369934343610B4844
:1098E00001610B48D103416042690A43426110BDE6
:1098F00034F8FF1FCCECFF1F02366E01FF117A0017
:109900000080044000B00440800000F84090044013
:1099100000F00F40F8B5C41D0546F934E06C1E4652
:109920000F46002823D0402A00DD4022401EE0647C
:10993000606D80014019FEF7DDFD606D8001411909
:109940003846FFF759FA616D49004919FF31413135
:109950000880606D0521800140193060606D401CF9
:10996000FEF785FE6165206D401C20650120F8BD75
:1099700010B5C41DF934236D002B17D05B1E236571
:10998000A36D9B011B180B60A16D49000818FF30E7
:10999000413000881060A06D0521401CFEF767FE75
:1099A000A165E06C401CE064012010BD002010BDEA
:1099B000FF30002201304265826505210265C164E5
:1099C00070470000002805DBC106C90E0120884051
:1099D000014908607047000000E100E070B50546ED
:1099E000EFF31080C407E40F72B6094E094B294605
:1099F0003046F26800F010F8002805D1002329460F
:109A00003046F26800F030F9002C00D162B670BD2B
:109A1000181100206B66656BFFB589B016460C46C1
:109A20006A46099805F088FC32462146049B09984D
:109A300005F06BF905002BD1009C019FA619761E3D
:109A400039463046FEF713FE00291BD0401C7843F0
:109A5000461E17E021020920090A000609180D48D0
:109A600041600C9805F06AF9002811D1099805F0B9
:109A70006FF9054609980069002800D08047002D3D
:109A800002D1E419B442E5D9099805F011F9284644
:109A90000DB0F0BD0000024070B5040027D016489C
:109AA000C0680001000F0F2823D014494000085A55
:109AB00080020025256060600220A0606561A561CC
:109AC00040022561E060204605F011F900280AD027
:109AD0000B48014680390560416040318160E0619A
:109AE000204600F00FF825620020656270BD04205A
:109AF00070BD01208004DCE740800440985D0100D7
:109B0000CC110020F8B500280FD0C56922484024A8
:109B1000460822487600400840006F68B0420ED9DF
:109B2000841B402C03D8012002E00420F8BD002053
:109B30001B4A1CA104F0A0F8402C00D94024224666
:109B400031463846FEF7D6FC21487F1C0760214885
:109B5000402446082048760040084000AF68B042E4
:109B60000DD9841B402C01D8012000E000200C4AB4
:109B70000CA18E3204F080F8402C00D940242246FB
:109B800031463846FEF7B6FC11487F1C476002207C
:109B900028600020F8BD000041F600004DF60000EE
:109BA0008E0700002E5C736F757263655C68696375
:109BB0005F68616C5C667265657363616C655C6946
:109BC00061705C66736C5F666C6173682E63000025
:109BD000BCECFF1FD9EC0000EDEC0000FFB589B034
:109BE0001F4614000D460DD06A46099805F0A4FBE7
:109BF0003A462946039B099805F087F8060002D1EA
:109C0000009D28E004200DB0F0BD02CC1548816015
:109C10000399042902D0082907D00EE02902032263
:109C2000090A52068918416007E002CCC160290286
:109C30000722090A120689184160099805F088F878
:109C4000064609980069002800D08047002E04D1FC
:109C5000039845193F1A002FD7D1099805F028F825
:109C60003046D0E700000240FFB589B014460D46EB
:109C70006A46099805F060FB22462946059B09982B
:109C800005F043F800282FD16A462946099805F0C7
:109C900053FB009D029808906942404201404F42A8
:109CA000AF4201D108983F18002C1CD07E1BA64261
:109CB00000D9264630460599FEF7D9FC2902012233
:109CC000090A12068A1809494A600C9A000412020D
:109CD0001043FF308860099805F03AF8002803D156
:109CE000A41BAD19DEE700200DB0F0BD000002405E
:109CF000FFB589B0129F1D0016460C4610D06A466B
:109D0000099805F019FB32462146079B099804F093
:109D1000FCFF002805D1154A39068F18009C22E067
:109D200004200DB0F0BD21020120090A40060918E7
:109D30000F48416087602968C160099805F008F8FC
:109D4000002809D01399002900D00C60149900292B
:109D5000E7D000220A60E4E70799761A89088900AB
:109D60004D1907990C19002EDDD1DAE7FFFFFF002E
:109D70000000024010B5040001D0012000E00020E6
:109D80008B2207A103F078FF04212046FEF75AFC3E
:109D90000121217000206070A170E07010BD0000F2
:109DA0002E5C736F757263655C6869635F68616C74
:109DB0005C667265657363616C655C6B6C32377A87
:109DC0005C66736C5F666C6578696F2E630000007B
:109DD00010B509490024A2008A58824201D0641CAF
:109DE000F9D0002C06D00020412204A103F044FF4A
:109DF000204610BD0120F7E7C85D01002E5C736F9F
:109E0000757263655C6869635F68616C5C667265E6
:109E1000657363616C655C6B6C32377A5C66736C1E
:109E20005F666C6578696F2E6300000070B50C4644
:109E30000546FFF7CDFF124980000858114A010C72
:109E400089180A68012383401A430A60284600F0F3
:109E50001DF8A8680C490840A178C9074A08E178AC
:109E6000C907490F0A432178C907C90F0A430243AA
:109E70006078002802D10120C0070243AA6070BDAB
:109E8000CC5D010000700440FAFFFF3F81680222B0
:109E90001143816000218160704710B5937BD47BB2
:109EA0009B07A4079B09A40A2343147C8900640729
:109EB000640B2343547C08186407640C2343947C8C
:109EC00009216407640D2343D47CC901A407A40EAF
:109ED0002343147DE407A40F234341180B60118B27
:109EE00005231B0289B2C318196011781379090779
:109EF000DB0709091B0A19435379DB075B0A19437E
:109F000093799B079B0B1943137A5B075B0D1943EE
:109F1000137B527BDB071B0E92071943920F1143F1
:109F2000012292028018016010BD000070B515007A
:109F30000E46044601D0012000E0002064220AA160
:109F400003F09AFE29780120B040002907D06978F3
:109F5000002907D0606061690143616170BD61697A
:109F60008143FAE7A060F6E72E5C736F7572636554
:109F70005C6869635F68616C5C6672656573636188
:109F80006C655C6B6C32377A5C66736C5F677069AA
:109F90006F2E630001238B40002A01D0436070477D
:109FA00083607047EFF3088470460007000F0D28A8
:109FB00001D1EFF309842546A08B2035800500D51B
:109FC0002D1D7046C00600D44835704604F020FAB6
:109FD000EFF3098004F01CFAEFF3088004F018FA9C
:109FE000EFF3148004F014FA284604F011FA6069C3
:109FF00004F00EFAA06904F00BFAE06904F008FA24
:10A000004A2203A1002003F037FE01F003F9FEE726
:10A010002E5C736F757263655C6461706C696E6BE6
:10A020005C486172644661756C745F48616E646C13
:10A0300065722E630000000010B5034801680348F4
:10A0400000F012FB10BD0000D8ECFF1F00600640BE
:10A0500010B503484168034800F006FB10BD00003E
:10A06000D8ECFF1F007006404A0603D58278BF2354
:10A070001A408270890603D581798F22114081713F
:10A0800070470029817802D08022114301E04906FF
:10A09000490E817070474A0603D5827840231A43DF
:10A0A0008270890605D58179AF22114020221143A3
:10A0B0008171704710B50A490024A2008A58824273
:10A0C00002D0641C022CF8D3022C01D2012000E043
:10A0D0000020AF2203A103F0CFFD204610BD0000F9
:10A0E000DC5D01002E5C736F757263655C6869638B
:10A0F0005F68616C5C667265657363616C655C6BFF
:10A100006C32377A5C66736C5F6932635F6D6F6463
:10A110002E6300000A04CB04120E002B02DA8379AE
:10A12000134383714B0402D5837913438371C17048
:10A1300070470146C0788A79520602D501229203FF
:10A1400010438979C90602D50121090308437047E4
:10A15000F7B586B00020009001900F460120002640
:10A160007D210490F6430025C9001046FEF77FFAD2
:10A17000039004981649A8400024484302901548CB
:10A180006200805A029A03995043FEF770FA8742A0
:10A1900001D9381A00E0C01BB04203D200950194E7
:10A1A000060003D0641CE4B2402CE8D36D1CEDB271
:10A1B000022D01D8002EDCD1009801998007000EF5
:10A1C0008906890E08430699487009B0F0BD000061
:10A1D00020A10700E45D010010B504460021FFF74F
:10A1E00050FF2046FFF766FF024980000858FEF73F
:10A1F000C5FC10BDD45D010010B5040001D00120E4
:10A2000000E00020084A09A103F036FD002020608C
:10A210006060A06020726070A070E0707D204001DE
:10A22000E0600120207010BD030700002E5C736FFA
:10A23000757263655C6869635F68616C5C667265B2
:10A24000657363616C655C6B6C32377A5C66736CEA
:10A250005F6932635F6D6F642E63000070B51646F0
:10A260000D00044601D0012000E00020294A2AA167
:10A2700003F002FD2046FFF71DFF33498000085818
:10A28000FEF788FC002020706070A070FF21E17054
:10A2900060715021A171E071287A002802D0022853
:10A2A0001AD103E028794000207015E0A888E988D9
:10A2B000884201D2012000E00020164A16A11D327A
:10A2C00003F0DAFC287940002070A8794000E071A2
:10A2D0006079082108436071A078FD210840A978C1
:10A2E000C907890F01432878C007000E0143A170F8
:10A2F00060796F210840E9786A78C907C90ED207EA
:10A30000120E11430143617132462046E968FFF79E
:10A310001FFF70BDA90600002E5C736F7572636528
:10A320005C6869635F68616C5C66726565736361D4
:10A330006C655C6B6C32377A5C66736C5F69326338
:10A340005F6D6F642E630000D45D0100F8B51D469B
:10A3500016460C00074601D0012000E000200C4A00
:10A360000CA103F089FC3846FFF7A4FE0746242120
:10A370002046FEF769F91349E661B80025620C50E2
:10A380001148083948601148C057FFF71BFBF8BD5A
:10A39000C70700002E5C736F757263655C68696344
:10A3A0005F68616C5C667265657363616C655C6B4C
:10A3B0006C32377A5C66736C5F6932635F6D6F64B1
:10A3C0002E630000D8ECFF1FD1A30000D05D010078
:10A3D000FEB50C00064601D0012000E00020714AC5
:10A3E00071A103F049FC00206946019008700878CB
:10A3F000401C08703046FFF79CFE87B2251D78048C
:10A400001AD5012189033046FFF784FE0220F0703F
:10A41000207801280ED1202028700021E9602170C9
:10A42000A169014206D0E369002B03D029463046DA
:10A43000226A9847780634D5F80414D50121090317
:10A440003046FFF767FE0220F07010202870A169E7
:10A45000014206D0E369002B03D029463046226A28
:10A46000984778061DD50220F070F8071AD0B0780A
:10A47000E7210840B070307969460870E06800282C
:10A480000FD0202129705448E86000202070A06976
:10A49000084206D0E369002B03D029463046226AE1
:10A4A0009847FEBD780634D50120207028707807C3
:10A4B00009D5B17810200143B170012001903079A5
:10A4C000694608700BE0B078E7210840B070307939
:10A4D000694608700878002801D140202870297842
:10A4E000A06908420BD0E069002808D068460078CF
:10A4F000216A0870E36929463046226A9847019824
:10A500000028CED0A868696800292BD0002829D05F
:10A5100033E0380622D57807F4D4A86869680029A2
:10A5200001D000280AD104202870E369002B03D051
:10A5300029463046226A9847002028613179E06830
:10A540000028AED0A068421CA2600170E068401EE6
:10A55000E0602869401C2861E068FEBD30796946EA
:10A560000870FEBD02202870E369002B03D0294645
:10A570003046226A984700202861E06800280BD006
:10A58000A068411CA16000783071E068401EE06066
:10A590002869401C2861FEBDB078E7210840B070F2
:10A5A000DCE70000560800002E5C736F757263656F
:10A5B0005C6869635F68616C5C6672656573636142
:10A5C0006C655C6B6C32377A5C66736C5F693263A6
:10A5D0005F6D6F642E6300004E04000070B5154679
:10A5E0000C00064601D0012000E000200F4A10A117
:10A5F00003F042FB2078012816D060213046FFF797
:10A6000033FD1421201DFEF71FF801202070462085
:10A61000054330461249A561FFF77CFD60213046B5
:10A62000FFF739FD002070BD0E4870BDF607000031
:10A630002E5C736F757263655C6869635F68616CDB
:10A640005C667265657363616C655C6B6C32377AEE
:10A650005C66736C5F6932635F6D6F642E630000CC
:10A66000125000004C04000010B5C37882789406A4
:10A67000054A01D4DB0601D5126800E05268904714
:10A68000BFF34F8F10BD0000D0ECFF1F10B5EFF3EC
:10A690001080C007C00F72B60021064A1160002862
:10A6A00000D162B60448FFF7F7F9002800D0012076
:10A6B00010BD000000810440181100201CB508F0F6
:10A6C00085FA00281AD09E2069460870E720487055
:10A6D000102000F03FFD012408F078FA00280DD08A
:10A6E000002069460870082000F034FD01A9002010
:10A6F00008F002FA012802D1002C00D01CBD002075
:10A700001CBDCA080AD0012A07D1801D002804D028
:10A710004A07520F0121914001707047401DF5E733
:10A72000CA0802D0012A0ED101E0401D00E0801DC0
:10A73000002808D000784A07520F012191400840B4
:10A7400000D00120704700207047000070B50D4D0B
:10A750000E212846FFF7E4FF0124002805D00E2132
:10A760002846FFF7CEFF0848047008212846FFF767
:10A77000D7FF002805D008212846FFF7C2FF03486D
:10A78000047070BD00C0074018E0FF1F19E0FF1FF4
:10A7900010B58B0806D0012B10D0022B10D0032B44
:10A7A0000BD1C01C002808D003788907490F032467
:10A7B0008C40A3438A401A43027010BD401CF1E74D
:10A7C000801CEFE7F8B5354D6C68A868800202D4AC
:10A7D000012040058443A868314E000200D4B443F0
:10A7E000304F200313D5686801213840C904401850
:10A7F000686003F0ADFD002809D02B4803F088FC09
:10A80000132804D3132229A1274803F038FD20027E
:10A8100018D52B4803F08DFC002800D00120FE2223
:10A8200028A103F029FA264803F0A4FCE860244894
:10A8300003F07FFC002805D1A868B043A8600D2074
:10A8400003F076F9A0020BD56003800FE86808D00A
:10A8500069460870686803213840490440186860F8
:10A86000F8BDC5B2104803F053FC0446132804D9C0
:10A8700029460D4803F0B6FCF8BD03F069FD002839
:10A8800007D0132CF8D1132208A1074803F0F7FCD6
:10A89000F8BD054803F06EFCEAE7000000500540F3
:10A8A000000080000000E03FE81300203C444150DD
:10A8B0004C696E6B3A4F766572666C6F773E0A0034
:10A8C000D81100202E5C736F757263655C686963D4
:10A8D0005F68616C5C667265657363616C655C6B17
:10A8E0006C32377A5C756172742E63000A7849782D
:10A8F00009010A438270704710B5144C1348803424
:10A90000216AC90605D50022042100F02DF8102087
:10A9100020620F49086AC0060ED51020086206F0B2
:10A92000F3FB0C4908700C480069C006C017401CB6
:10A9300003D00A490120087010BD02F0DDFF09F0C4
:10A94000B9FE0749002008700649F4E700C004403A
:10A9500080B0044028E0FF1F80F00F4019E0FF1F87
:10A960001AE0FF1F3CE9FF1F10B5890043580F2470
:10A9700024041207A343120B1343435010BD10B518
:10A9800089004358072424025207A343520D13435E
:10A99000435010BD10B589004358072424025207C4
:10A9A000A343520D1343435010BD10B589004358C3
:10A9B000072424025207A343520D1343435010BDF2
:10A9C00010B589004358072424025207A343520DAF
:10A9D0001343435010BD10B5890043580724240287
:10A9E0005207A343520D1343435010BDFEB5074613
:10A9F00016460D46EFF31080C407E40F72B60B46FF
:10AA000039460948FFF7EAF8002809D101210190E9
:10AA10000091029033462A4639460348FFF768F909
:10AA2000002C00D162B6FEBD18110020034800685A
:10AA300080F31088BFF36F8F70470000E0ECFF1FBA
:10AA4000EFF3108072B602490860BFF36F8F704752
:10AA5000E0ECFF1F10B504460878002806D14878BE
:10AA60000128A0781AD020221043A0706078042317
:10AA7000C008C00018436070A078C2080878D200EF
:10AA80001043A070084801691943016160780748C4
:10AA900080476078000704D5054810BDDF221040CC
:10AAA000E3E7002010BD000000ED00E0E5ECFF1F33
:10AAB0003C0F000010B5044640780221C008C000D9
:10AAC00008436070074801690422114301616078FE
:10AAD000054880476078000701D5044810BD002074
:10AAE00010BD000000ED00E0E5ECFF1F3C0F000092
:10AAF000F0B583069B0E00D14023224C0006402671
:10AB00001F4D646800281BDB37E00021082012E09D
:10AB1000AE601C4C646827467F1EFDD12F696E60B5
:10AB2000BF06FF0F641EFDD14C08F9012143401EF2
:10AB30005B1E002801D0002BEAD1C1401170521CCD
:10AB4000002BE2D1F0BD0A780827491C12E0D0079B
:10AB500002D02020686001E02020A860AE6020467E
:10AB6000401EFDD16E602046401EFDD152085B1E86
:10AB70007F1E02D0002BEAD1F0BD002BE3D1F0BD47
:10AB8000800000F834F8FF1F10B5054A5278002AFB
:10AB900002D000F007F810BD00F04EF910BD000023
:10ABA00034F8FF1FF0B5A24F20228C467A60402176
:10ABB000B96000BF00BF796000BF00BFC30701D00C
:10ABC0007A6000E0BA60B96000BF00BF796000BF82
:10ABD00000BF4308DD0701D07A6000E0BA60B960C9
:10ABE00000BF00BF796000BF00BFC4188308DD0745
:10ABF00001D07A6000E0BA60B96000BF00BF796040
:10AC000000BF00BFE418C308DD0701D07A6000E090
:10AC1000BA60B96000BF00BF796000BF00BFE31831
:10AC2000DB0701D07A6000E0BA60B96000BF00BF06
:10AC3000796000BF00BFBA60B96000BF00BF796033
:10AC400000BF00BF7A60B96000BF00BF796000BF7D
:10AC500000BF7B69202293437B61764A127E131EDC
:10AC600007D0B96000BF00BF796000BF00BF521EAF
:10AC7000F7D1B96000BF00BF3A6979609206D20F80
:10AC800000BF00BFB96000BF00BF3C697960A40687
:10AC9000E40F00BF00BF64001443B96000BF00BFF1
:10ACA0003A6979609206D20F00BF00BF920022433A
:10ACB000012A14D0022A70D0042A6ED0213307D082
:10ACC000B96000BF00BF796000BF00BF5B1EF7D155
:10ACD000796920200143796178601046F0BD8407CE
:10ACE00033D5002425462023B96000BF00BF3E694C
:10ACF0007960B606F60F00BF00BFAD196408F6070D
:10AD000034435B1EF0D1B96000BF00BF3B6979607E
:10AD10009B06DB0F00BF00BF5D40EB0700D00822A1
:10AD20006346002B00D01C60424B1B7E002B07D0DB
:10AD3000B96000BF00BF796000BF00BF5B1EF7D1E4
:10AD40007B69202423437B6130E0002B07D0B9606E
:10AD500000BF00BF796000BF00BF5B1EF5E77B69E5
:10AD6000202633437B6163461B6800253446DE079B
:10AD700002D020267E6001E02026BE60B96000BFC0
:10AD800000BF796000BF00BFED185B08641EEED104
:10AD9000EB0703D020237B6002E01CE02023BB6094
:10ADA000B96000BF00BF796000BF00BF000602D5D8
:10ADB0002048002383601F48007B002809D02023FF
:10ADC000BB60B96000BF00BF796000BF00BF401E1C
:10ADD000F7D1202080E7174C657E002D0AD084072C
:10ADE00008D52124B96000BF00BF796000BF00BF53
:10ADF000641EF7D1002B07D0B96000BF00BF796097
:10AE000000BF00BF5B1EF5E77C6920231C437C610B
:10AE1000002D0BD0800709D4BB602120B96000BF92
:10AE200000BF796000BF00BF401EF7D17B6054E7D0
:10AE3000800000F834F8FF1FF3B50023C34E202232
:10AE400072604024B460C24F79680D466D1EFDD11A
:10AE500074600D466D1EFDD1C50701D0726000E023
:10AE6000B260B4600D466D1EFDD174600D466D1E5E
:10AE7000FDD11D184308DF0701D0726000E0B26009
:10AE8000B4600F467F1EFDD174600F467F1EFDD15A
:10AE9000ED188308DF0701D0726000E0B260B46093
:10AEA0000F467F1EFDD174600F467F1EFDD1ED1849
:10AEB000C308DF0701D0726000E0B260B4600F46E3
:10AEC0007F1EFDD174600F467F1EFDD1EB18DB079E
:10AED00001D0726000E0B260B4609D4D0B465B1E15
:10AEE000FDD174600B465B1EFDD1B260B4600B46B1
:10AEF0005B1EFDD174600B465B1EFDD17260B460B9
:10AF00000B465B1EFDD174600B465B1EFDD1736961
:10AF10002022934373612B7E1D1E09D0B4600A4624
:10AF2000521EFDD174600A46521EFDD15B1EF5D142
:10AF3000B4600A46521EFDD1326974609206D20F87
:10AF40000B465B1EFDD1B4600B465B1EFDD1336921
:10AF500074609B06DB0F0F467F1EFDD15B00134321
:10AF6000B4600A46521EFDD132699206D70F4022C4
:10AF700072600A46521EFDD1BA001A43012A17D048
:10AF8000022A70D0042A6ED021350AD04023B36043
:10AF90000846401EFDD173600846401EFDD16D1E5F
:10AFA000F5D1716920200143716170601046FCBDCC
:10AFB00083073ED50024254620234027B7600F464F
:10AFC0007F1EFDD13769BF06FF0FBC464027776063
:10AFD0000F467F1EFDD167086446E4073C43654485
:10AFE0005B1EEAD14023B3600F467F1EFDD1376957
:10AFF0007360BF06FF0F491EFDD17D40E90700D0F9
:10B0000008220199002900D00C6051490C7E002CC7
:10B010000AD04D68B3602946491EFDD173602946A8
:10B02000491EFDD1641EF5D171692024214371614F
:10B030003AE0002D0AD04024B4600B465B1EFDD1DF
:10B0400074600B465B1EFDD16D1EF5D17369202423
:10B0500023437361019B00271B682546DC0703D04F
:10B060002024746002E038E02024B4604024B460FE
:10B070000C46641EFDD1402474600C46641EFDD154
:10B08000FF185B086D1EE9D1FB0702D02023736017
:10B0900001E02023B36040243546B4600B465B1EBC
:10B0A000FDD16C60491EFDD1000602D52849002063
:10B0B0008860274B197B00290DD02020B0605B6889
:10B0C0004024B4601846401EFDD174601846401EEE
:10B0D000FDD1491EF5D1202067E71D4B5B7E9C46C4
:10B0E000002B0DD083070BD521244027B7600B46DA
:10B0F0005B1EFDD177600B465B1EFDD1641EF5D152
:10B10000002D0AD04024B4600B465B1EFDD1746054
:10B110000B465B1EFDD16D1EF5D1746920231C43C7
:10B1200074616446002C0ED080070CD4B3602124D7
:10B130004025B5600846401EFDD175600846401E9A
:10B14000FDD1641EF5D1736030E70000800000F887
:10B1500034F8FF1FF0B50023104C1A460E4E40275E
:10B16000656815E0002A02D10B780822491CDC072B
:10B1700002D02024746001E02024B460B7602C4623
:10B18000641EFDD177602C46641EFDD15B08521E03
:10B19000401EE7D2F0BD0000800000F834F8FF1F29
:10B1A00015488178090703D58178082211438170F9
:10B1B000124800210160012210481204C038426088
:10B1C0000F48026803239B049A4302600D484268BB
:10B1D0000D4B1A4003231B06D21842600B48017224
:10B1E00080220276017001224270094A1170817931
:10B1F0000907890FFBD1704700D007400081044048
:10B200000070044000800440FFFFFBC00040064087
:10B2100000500640BFF34F8F04490348C860BFF396
:10B220004F8F00BFFDE700000400FA0500ED00E0CD
:10B23000F8B52E4E002435780095280741D5317C8D
:10B240000A090807C00F4B07DB0F154605431AD143
:10B25000950040002818C018254BC0001D5CAD06A5
:10B260002D0F012D0FD1C5186F88002F0BD1214F45
:10B27000BA5C6A801A5C520601D5882200E0C822B6
:10B280001A5401200143EFF31080C507ED0F72B689
:10B29000194A184F143FB86811541921401CFDF782
:10B2A000E6F9B960002D00D162B608203070002C9C
:10B2B00002D1307D800601D5012400E000243578DC
:10B2C000BBE700990B482943083805F005FF002C1F
:10B2D00001D0012000E00020064914390A7810430B
:10B2E0000870357002F0C2FBF8BD000080200740F6
:10B2F000001A0020BCEEFF1FC02000201CB500205B
:10B3000001906A4601A90948FEF732FB002808D0DF
:10B31000074880210078009A0843019902F0CEFB8B
:10B320001CBD0449012008701CBD00008C260020B3
:10B330008C5E010034EFFF1F38B5174D174C28887D
:10B340006188421A16486168007801F041FF61681F
:10B3500080B209186160618809188AB26280298800
:10B360008A4206D20F49104B09784900595A814246
:10B3700011D96B460D490E48FEF7CCFA002500287E
:10B3800006D02078002803D00020FFF7B7FF2570F3
:10B3900065800648606038BD925E010034EFFF1F93
:10B3A0008D5E0100DFEFFF1F8E5E0100421800205E
:10B3B0008C26002010B50446400702D50020FFF778
:10B3C000BBFF200702D50020FFF798FF10BD00202B
:10B3D00070470000034801694069081A024909885A
:10B3E000081A70473CEFFF1F825E010070B50B4DDD
:10B3F0000C460346696B286B88420BD9401A84427D
:10B4000000DD044622461846FDF774F8686B001903
:10B41000686300E00024204670BD00003CEFFF1F81
:10B4200000207047F8B5184F0C4606467969386910
:10B43000401A16490988081A002801DC0020F8BDC6
:10B44000844200DD0446FA69B869002590420DD3B4
:10B450000F4A031951188B4208D30D1A2A46314658
:10B46000FDF748F876190A48641BB861002C06D02D
:10B4700022463146FDF73EF8B8690019B8613969CE
:10B48000601909183961F8BD3CEFFF1F825E0100A9
:10B49000C217002010B5054C6068002805D10120B6
:10B4A000606000F005F80020606010BD3CEFFF1FF9
:10B4B000F8B5234CA06800283DD0616920690026BA
:10B4C000421AE06811460143002935D021461D4F3C
:10B4D000C9691D4D002A10D0A069814205D3388862
:10B4E0008B182818834200D3421A1848007843006A
:10B4F0001748C05A904200DA02461648E6600078C3
:10B500008023184302F0DAFAE1690918E1616269FF
:10B51000121862613B88EB188B4200D1E56121690A
:10B5200091420BD1094909784A000949895A814257
:10B5300004D10120E060F8BDA660F8BDE660F8BD6A
:10B540003CEFFF1F825E0100C2170020DFEFFF1FEC
:10B55000865E0100805E010010B50C4C206A002858
:10B5600003D0A06A401CA06210BD0120206260626E
:10B5700000F00EF8002060622062616B206B884250
:10B58000F2D0401AFFF74CFF10BD00003CEFFF1F48
:10B5900010B5134C1348216B154B0A1A124800883A
:10B5A000821A124800784000185A82420EDB114875
:10B5B000007801F00DFE216B08182063A06A0028B6
:10B5C0000CD0616A002909D1401E06E00120E0622A
:10B5D000606A002802D0A06A401CA06210BD000072
:10B5E0003CEFFF1F02180020845E0100DFEFFF1F09
:10B5F000865E0100815E010010B50446400702D559
:10B600002046FFF7A9FF200702D52046FFF742FF9B
:10B6100010BD7047002070470020704710B50C48DF
:10B6200000F042F8002812D00948FDF70FF8094948
:10B63000020A08704A70020C8A70000EC870044832
:10B6400002790A7142794A7180798871012010BDAE
:10B6500074EFFF1FC016002010B51048002444608E
:10B660008460C46004610E49816144610462446283
:10B670008462C462C1610B49016341630146048075
:10B680004B203831C001FCF7AFFE044808213830A8
:10B6900004714471817100F019F810BD3CEFFF1F77
:10B6A000C21700200218002070B50446064D21463E
:10B6B0002868FCF799FE2879A07168796071A879EB
:10B6C0002071012070BD00006CE9FF1F10B508F06B
:10B6D00049FA04F025FF012010BD10B508F094FAD6
:10B6E000012010BD0120704710B50446FCF7AEFFE5
:10B6F00006490860A07908716079487120798871DD
:10B700000020C871084608F093FA10BD6CE9FF1FCD
:10B7100010B51148002444608460C46004610F497E
:10B7200081614461046244628462C462C1610C4903
:10B73000016341630480FFF7D0FF07494B20383194
:10B74000C001FCF751FE04480821383004714471EF
:10B750008171FFF7C9FF10BD3CEFFF1FC21700202A
:10B760000218002010B5FFF7D3FF10BD70B51B48BD
:10B770000078002831D01A4C0025206A01260028C4
:10B780000AD1616B206B884206D11649884203D0EA
:10B790002163E56225626163A06A002810D0206AF7
:10B7A00000280DD1E06A00280AD12662FFF7F0FEDA
:10B7B0002562616B206B884202D0401AFFF730FE91
:10B7C000A1686068084308D161692069884204D093
:10B7D0006660A660FFF76CFE656070BDDDEFFF1F61
:10B7E0003CEFFF1F0218002070B505460F480068A7
:10B7F000C1698847002816D10D4C002D06D005F0F0
:10B800002DF82060002007F0B1FF0CE005F026F8CD
:10B810002168401AFF212D31884201D3012000E028
:10B82000002004F091FE012070BD0000F05A0100DC
:10B8300068E9FF1F002070470020704710B50249DB
:10B840000880FFF74FFF10BD3CEFFF1F10B50B48FE
:10B85000FCF7FCFE094C0002E178000A09060843E7
:10B860000749FCF7C1FD06482179017161794171F1
:10B87000A1798171FFF738FF10BD0000C0160020CC
:10B8800074EFFF1F01078A0E044910B551180A789A
:10B89000FD231A400A7002F081F810BDC020074055
:10B8A00010B501464A790B798078110219430206D6
:10B8B00001D4024A115402F071F810BDBCEEFF1F12
:10B8C000704710B500F016FB10BD0000094A094989
:10B8D00080320028087D04D0012318430875102009
:10B8E00005E0400840000875107AEF21084010720A
:10B8F000704700008020074010B50C4C0C48A2880F
:10B900000078824200D90246002A03D1074900206C
:10B91000143908718020216802F0D0F821680918D4
:10B920002160A188081AA08010BD0000F0EFFF1F61
:10B93000675E010010B5064C0020A288216801F066
:10B9400047FC216809182160A188081AA08010BD51
:10B95000F0EFFF1F704700000749020605D50007FA
:10B96000800E40180178FA2203E080004018017828
:10B97000F622114001707047C020074007490206B7
:10B9800005D50007800E40180178052203E08000ED
:10B99000401801780922114301707047C020074008
:10B9A000F8B504466F4F704D704E800720D502F0F9
:10B9B00053F83878C009FFF7CDFFF888A8803878A9
:10B9C0004106890F04D001295CD0022975D169E0B4
:10B9D00079780B0002F09EF80C070D71137119288D
:10B9E000712D333B4A7101F095FD1FE0FFF784FF95
:10B9F00070E0002004E002F043F85D483DE00120E3
:10BA000001F0CAFD002858D0F5E7C006C00E54D199
:10BA1000B8788021084330704006400E012102F0C2
:10BA200005F802F02DF855E001F05EFC002844D046
:10BA3000DCE7C006C00E40D14C48401C14E001F0C9
:10BA4000FFFD002839D002F01BF84A4815E0C00677
:10BA5000C00E012831D1707800282ED03879B17805
:10BA600088422AD2444940182860BFE701F0ACFE62
:10BA7000002822D002F004F840480068002829D0AD
:10BA8000804727E0C006C00E17D0012815D100F06E
:10BA900017F900281ED100F06FF900281AD100F024
:10BAA000BBF808E0C006C00E07D100F09FF90028DF
:10BAB00010D100F0E7F900280CD13878C00904D182
:10BAC000F888002801D0002000E0802001F0B8FFB5
:10BAD0000020A880600704D53878C0090DD001F097
:10BAE000D7FF200733D53878C00927D0A888317907
:10BAF00008432CD0FFF700FF29E0A8880028F0D0E9
:10BB0000FFF718FFA8880028EBD138784106890F85
:10BB10000ED001290CD1C006C00E09D0012807D1D2
:10BB200000F05CF80028DCD100F02AF80028D8D119
:10BB3000802001F085FF0020A880D2E73078010640
:10BB400005D54006400E3070002101F06FFF600601
:10BB500002D50020FFF796FE200602D58020FFF7D1
:10BB600091FEF8BDF8EFFF1FF0EFFF1FDCEFFF1FA6
:10BB7000F05E0100E85E010097EEFF1FEC5E010041
:10BB800010B51349134A08791278904203D0124A2B
:10BB90001278904219D14878002804D0022805D0A4
:10BBA000202812D10EE0FFF745FE05E0C87889781D
:10BBB00000020843FFF740FE002806D001F060FFB6
:10BBC000012010BDFFF742FEF6E7002010BD000087
:10BBD000F8EFFF1FFCECFF1FFDECFF1F10B50B493A
:10BBE0000B4A08791278904203D00A4A12789042A0
:10BBF0000AD14878092807D100F082FB002803D039
:10BC000001F03EFF012010BD002010BDF8EFFF1F26
:10BC100000EDFF1F02EDFF1F70B52449244A08798B
:10BC20001278904203D0234A127890423BD11F48A9
:10BC30004978C278837810021F4C204D184304299C
:10BC400020D008DC00290FD001290FD002290BD009
:10BC5000032928D111E0202906D0212919D0222931
:10BC60001AD023291FD11AE02C6010E0FFF7D4FC72
:10BC700005E02C60FFF740FE09E0FFF7CBFC002851
:10BC8000F7D110E0FFF7A3FB0BE001F0F9FE012074
:10BC900070BDFFF7C3FCF2E7FFF7D0FD01E0FFF74F
:10BCA000A3FD0028F1D1002070BD0000F8EFFF1FB8
:10BCB000FCECFF1FFDECFF1FC0160020F0EFFF1F84
:10BCC000F8B5254E254930790978884203D02449B2
:10BCD000097888423DD17078224C234D234F0300D0
:10BCE00001F018FF0C3707232D3737373737182661
:10BCF000333700F023FA00282BD0F078012802D047
:10BD0000032803D003E01A48206000E02560FFF715
:10BD1000F3FD12E0F078022802D0032803D00CE0F3
:10BD20001448206009E0256007E000F0EFF908E022
:10BD300000F0BEFA0BE001F0A3FE0120F8BD00F018
:10BD4000F3F9002805D02760E1E700F0CFFA0028DA
:10BD5000F1D10020F8BD0000F8EFFF1F00EDFF1F3C
:10BD600002EDFF1FF0EFFF1FA4EEFF1FC016002023
:10BD7000011700204217002010B51848184A017911
:10BD80001278914227D142780146C8788B78000218
:10BD90001843CB798C7919022143FE2A0CD0FF2A53
:10BDA00019D1002817D1002915D101F051F9002827
:10BDB00011D001F065FE0CE000280CD101290AD158
:10BDC00000F03AFE002806D0074906480860FFF751
:10BDD00093FD012010BD002010BD0000F8EFFF1FF3
:10BDE00001EDFF1FC0160020F0EFFF1F70B51F4DC3
:10BDF0001F49687809780026884235D16879297901
:10BE00000002084302282FD1AA781A4C002A2BD00E
:10BE1000002004E02178002900D00C19401C411CAE
:10BE20008A42F7D82078002819D004F089F9014611
:10BE3000E01CFCF7C4FA104A01261460E979AB79DA
:10BE400020780902194381420BD90C499080097866
:10BE5000491E084206D10A490120087002E0002666
:10BE600002E09180FFF748FD304670BDF8EFFF1FFC
:10BE70008A5E010058EEFF1FF0EFFF1F675E0100B2
:10BE8000E0EFFF1F10B5154A1549507809780024D6
:10BE9000884220D1507911790002084307281AD12D
:10BEA000114B10481860417A007A09020143D07999
:10BEB0009279000201241043884209D90B489980E5
:10BEC0000078401E014204D109490120087000E0B9
:10BED0009880FFF711FD204610BD0000F8EFFF1F0E
:10BEE0008B5E010008EDFF1FF0EFFF1F675E010092
:10BEF000E0EFFF1F074800214170C160016141610F
:10BF0000418081808161C161C18001810162418183
:10BF1000704700007CEFFF1FF8B54A4EB08871886B
:10BF2000494F00257C1C884218D3B069002815D1E0
:10BF30007561B580012339787A1C184608F076FAC5
:10BF400070807088002809D0404877610078012807
:10BF500001D8746102E07088401C708070880028ED
:10BF60003AD1F068002801D0F56035E0306900284A
:10BF700032D03649097801290ED83D70B5800223A8
:10BF80007A1C0021012008F051FA70807088002886
:10BF900000D0746135611FE03C780127202C00D36C
:10BFA00000243946A14001421AD0601CC1B2264A81
:10BFB00002231170B5800120521C08F037FA7080FE
:10BFC0007088002804D0204870617088401C708000
:10BFD0003069A740B84330617088002806D102E07C
:10BFE000641CE4B2DAE7B069002828D07088B18810
:10BFF000174F401A84B2387841001648405AA04280
:10C0000000D2044614480078002805D08021084357
:10C010002246716901F052FD706910490019706182
:10C02000B088001980B2B0800988884208D2387878
:10C0300041000848405AA04202D10120B061F8BD39
:10C04000B561F8BD7CEFFF1F00170020725E010094
:10C05000DFEFFF1F6E5E0100685E0100745E01008D
:10C06000F8B51C4C002620891B4D1C4F002803D11D
:10C07000E5613888E0802681E0882189421A1848E5
:10C08000E169007801F0A4F8E16980B20918E16182
:10C09000218909188BB22381002809D039888B4265
:10C0A00006D21049104A09784900515A814210D9E4
:10C0B0000E48017801200129009003D80021064A8A
:10C0C000022003E029786A1C02205B1E08F046FA71
:10C0D0002681F8BD7CEFFF1F41170020765E01002E
:10C0E000695E0100DFEFFF1F6E5E0100735E0100FD
:10C0F00010B50446000702D52046FFF70DFF600784
:10C1000002D52046FFF7ACFF10BD000003480449EC
:10C110008078085C0349087001207047F8EFFF1F22
:10C12000A2EEFF1FC016002010B508F07DF90249ED
:10C130000870012010BD0000C016002010B50B498A
:10C140000022C878012804D0022804D0032806D190
:10C1500003E0074A02E0002010BD064A521C89781D
:10C16000002308F063F9012010BD0000F8EFFF1F65
:10C1700000170020A3EEFF1FFEB5444800780028FA
:10C180007ED0434E002031788446481C30704148B0
:10C19000042300784200821893405B1E019299426A
:10C1A00003DB0021317001218C463B4A00251188B8
:10C1B000FF2901D2491C118041003848405A3649B4
:10C1C00000900988884200D101253549002009786E
:10C1D0008E4648E000216246002A0DD0314A135CA9
:10C1E000FF2B01D25B1C13542F4B1B5C002B03D085
:10C1F000125C9A4200D301212B4A0223145C019A5B
:10C20000934022469A40009B9A4203DA002C01D0C8
:10C21000012200E00022002D06D0002A04D00123D4
:10C22000376983403B433361204B1B5C9C420CD0FD
:10C230001C4C245C9C4206D30124376984403C4357
:10C24000346100243470184C2354002909D0002A8A
:10C2500004D101213269814011433161114A002129
:10C260001154401CC0B27045B4D3002D02D00A490D
:10C27000002008803069002806D07088002800E07F
:10C2800002E001D1FFF748FEFEBD0000DDEFFF1F19
:10C290007CEFFF1FDFEFFF1F9EEEFF1F6A5E0100B6
:10C2A000725E0100A0EEFF1FA1EEFF1FA2EEFF1FB6
:10C2B0000A480A498078C978002802D0084A81547F
:10C2C00009E0094B0020074A1B7802E01154401C8A
:10C2D000C0B29842FAD3012070470000F8EFFF1F68
:10C2E000A1EEFF1FA2EEFF1F725E010010B5034812
:10C2F000807808F031F9012010BD0000F8EFFF1F31
:10C3000038B50D490022C878012804D0022804D08D
:10C31000032806D103E0002038BD084A00E0084A9F
:10C32000521C00230093CB798C791B02234389781C
:10C3300008F014F9012038BDF8EFFF1F4117002065
:10C34000A3EEFF1FF8B5EFF31080C007C00F72B661
:10C35000564D0021EC68E9602A7800922970002887
:10C3600000D162B6E00708D001F0C6FA08F0A2F9E1
:10C370004F480068002800D08047E00606D501F04D
:10C3800093FB4C480068002800D08047A00606D5E3
:10C3900001F03CFB48480068002800D08047600757
:10C3A00004D546480068002800D08047022C09D1F7
:10C3B00043480168002902D04248007A8847414832
:10C3C000FF210172200767D53F4FEFF31080C207AE
:10C3D000D20F72B6A9686868884257D1012156E029
:10C3E000EFF31081CE07F60F72B638490C5C1921B5
:10C3F000401CFCF73CF96960002E00D162B6204673
:10C400002207D30F21066207090FD20F002908D196
:10C410005C00A418E4003C5D0026A406240F0D2C4B
:10C420000AD08C005B00E3189A18D600BA5D920619
:10C43000120F012A13D01DE02869022188432861C8
:10C44000387E4006400E3876387C4006400E387400
:10C450001F486E7001680029B7D0022014E000293F
:10C4600002D1C007C00F687019480159002901D0D6
:10C4700004208847B85D8006000F0928A5D114481C
:10C4800001590029A1D0082088479EE70021002AF1
:10C4900000D162B60029A3D00098002804D0094931
:10C4A000087DDF2210400875F8BD0000A8EEFF1FD0
:10C4B000945E0100985E01009C5E0100A05E010098
:10C4C000A45E010080200740001A0020C020002048
:10C4D000A85E010010B519484024047003F0AEFABC
:10C4E000182001F059FB1648017B8022114301738B
:10C4F000017B0906FCD41349114B090A803B1977CB
:10C5000010490F4A090C603A11740E49090E117551
:10C51000FF2119700C490968002900D004210B4A39
:10C520001268002A00D00222114319221143197106
:10C530000470017B2143017310BD0000BCEEFF1F9E
:10C5400000210740001A0020A05E0100A45E010047
:10C5500070B500F015F900282AD01648022404709E
:10C560004470154E03203463307014480546FCF7C0
:10C570006DF8022808D9114920461F39FBF734FF0E
:10C5800029462046FBF730FF0D48802100782246DF
:10C590000843084901F092FA2846FCF757F8316B36
:10C5A000401A2946FBF720FF044901200839087387
:10C5B00070BD000082170020A4EFFF1F6B29002030
:10C5C000785E010010B510490878022808D00328C9
:10C5D0000FD0042810D0052801D10020087010BD0C
:10C5E0000A48C07B282801D0A828F8D100F068FAB2
:10C5F00010BD00F06FFD10BD054880210078084394
:10C6000000F082FDF5E70000A4EFFF1F44290020A1
:10C61000785E010010B51D4A117800290FD001295C
:10C6200010D01B48052900781BD0072927D000F01F
:10C630006BFD18490220087300F04CFD10BD00F09E
:10C640000BF910BD13481F38C07B2A2803D02F28B0
:10C6500004D0AA28F5D100F011FB10BD00F09EFA1D
:10C6600010BD012181400C480068014201D0012029
:10C6700000E00020094A0AA101F0FEFA10BD0020E6
:10C680001070106B1F28DAD010BD0000A4EFFF1F40
:10C69000795E010063290020E8EFFF1F3F040000DE
:10C6A0002E5C736F757263655C7573625C6D73632A
:10C6B0005C757362645F6D73632E630010B5144C18
:10C6C0006068E060002801D0012010BD1148FBF730
:10C6D000BDFF002814D00F480838007B000604D5A1
:10C6E0000D4880210078084308E00A481F30FBF716
:10C6F000ADFF216B884203D00848007800F004FDAC
:10C70000044901201731087300F0E4FC002010BD3B
:10C71000A4EFFF1F4C290020785E0100795E010024
:10C7200010B5124801798F200140080605D5080789
:10C73000000F01221204824001E001228A400C48CD
:10C740000478802004438C420ED10A4800681042CD
:10C750000AD00948FBF77AFF0849884204D10D2224
:10C760000549204601F0AAF910BD0000F8EFFF1FAF
:10C77000785E0100E8EFFF1F632900205553425304
:10C7800070B50C48FBF762FF0A4C022517340028ED
:10C7900008D020461F38007B000608D406480078E1
:10C7A00000F0B2FC257300F095FC002070BD012064
:10C7B00070BD00004C290020795E010070B5114861
:10C7C000FBF744FF104C216B884202D82063032002
:10C7D00000E0042020700D4880210078226B08437F
:10C7E0000B4901F06BF907481F300546FBF72EFF98
:10C7F000216B401A2946FBF7F7FD0249002017314B
:10C80000087370BD4C290020A4EFFF1F785E010063
:10C810008217002010B506480649028806480078AD
:10C8200000F0D6FC05490863FFF7F4FE10BD0000D8
:10C830007E5E010082170020795E0100A4EFFF1FD9
:10C8400010B50446400702D50020FFF7E3FF20079C
:10C8500001D5FFF7B7FE10BDF8B5704E316B1F293B
:10C8600001D20A4600E01F2200206D4D6D4B02E010
:10C870001C5C2C54401C9042FAD36B4880220078F8
:10C880000127104300901F2970D16548FBF7DEFE99
:10C89000664988426AD1281DFBF7D8FE604C1F34D8
:10C8A000211DFBF7A1FD20461738FBF7CFFE2146DF
:10C8B0000831FBF799FD687B002804D1A87B00288C
:10C8C00001D0102801D9277374E0E87B2A283BD0D7
:10C8D00020DC1A2847D00EDC0428F4D006DC00281F
:10C8E0003BD00328EFD100F071FBF8BD1228EAD14C
:10C8F00000F0AAF8F8BD23283CD006DC1B282FD076
:10C900001E28E0D100F0CCF8F8BD252835D0282825
:10C91000D9D13BE09E2836D00EDC5528D3D004DC9C
:10C920002F2842D03528CED103E05A281FD0912895
:10C93000C9D100F019FCF8BDA12821D0A3284ED000
:10C94000A82823D0AA28BED100F080FA0028F2D06F
:10C95000287B00063BD43770F8BD00F00FFCF8BD13
:10C9600000F0E8FBF8BD00F043FAF8BD3BE000F052
:10C970000DFAFAE700F0EEFAF7E700F0C5FAF4E78F
:10C98000FFF7E6FDF1E700F079FBEEE700F05EFA75
:10C990000028EAD0287B000604D50220307000F081
:10C9A0008FF8E2E72248007815E0287C800704D45D
:10C9B0000020207300F08EFBD7E700F047FA002834
:10C9C000D3D0287B000602D437703762CDE71648F3
:10C9D00080210078084300F097FB0220E9E70098E7
:10C9E00000F092FB6FE7104C009800F08DFB207870
:10C9F000104C0107090F01200004884021680C4DEC
:10CA000008432060287800F07FFB28788740206862
:10CA10000743062027603070A7E70000A4EFFF1F40
:10CA20004429002082170020785E010055534243BC
:10CA3000795E0100ECEFFF1F024900200870012021
:10CA400070470000C016002010B5FFF799FE0028BF
:10CA50001FD0104B0020187080215970022199704E
:10CA6000D97020241C7158719871D8710A480168D6
:10CA700008200A78002A02D01A54491C00E01C54ED
:10CA8000401CC0B22428F4D3044924200863FFF7D3
:10CA900095FE10BD8217002054EEFF1FA4EFFF1F6C
:10CAA00010B50548C07CC107044800D001210173BE
:10CAB00000F010FB10BD0000442900206329002075
:10CAC000F8B5314D314FA969686A002688420AD30A
:10CAD000387880210024084300F016FB2C480673A8
:10CAE00000F0F8FA08E02B48007841002A48445A40
:10CAF000E86A844200D30446FFF7E0FD002800D135
:10CB00000024A86A00282DD0002C0ED0A96AE8695C
:10CB10008022411838781043224600F0CFFFA86ADF
:10CB20000019A862E86A001BE86229696869AA6AB4
:10CB30004143914203D1AE62696A081868621448A1
:10CB400008300746FBF782FD001B3946FBF74CFC1B
:10CB5000002C06D0E86A002803D1032028700C4876
:10CB60000673F8BD002CE0D02969E86A4018401E21
:10CB7000FBF77DFD69690246884200D90A46E969EA
:10CB8000686A07F057FDC1E7A4EFFF1F785E010058
:10CB900063290020DFEFFF1F7A5E0100F8B5334CF8
:10CBA0000025A169606A884208D33148256300786E
:10CBB00000F0AAFA2F48057300F08CFAFFF77EFD0B
:10CBC000002806D0206B002824D0A06A002802D0BC
:10CBD00010E025631EE02169E06A4018401EFBF763
:10CBE00046FD61690246884200D90A46E169606AE9
:10CBF00007F020FD00202049A76A266B08E0E369C2
:10CC00003A189A5C0B5C9A4201D0256202E0401C03
:10CC1000B042F4D3266BA06A8119A162E06A871B37
:10CC2000E7622269606942438A4203D1A562616A70
:10CC3000081860620F4808300546FBF707FD801BA7
:10CC40002946FBF7D1FB002E0CD0002F02D0207814
:10CC5000052807D1206A002805D00020054908735F
:10CC600000F038FAF8BD0120F8E70000A4EFFF1F3C
:10CC7000795E01006329002082170020F8B5384D45
:10CC8000384FA969686A0026884207D336482E6360
:10CC9000007800F039FA3E7300F01CFAFFF70EFD41
:10CCA000002800D12E63296BA86A401829698842A0
:10CCB00005D9FE222DA1002000F0DEFFF8BD0020E6
:10CCC000314905E0AB6A0A5C1B18EC69401CE25470
:10CCD0002A6B9042F6D3A86A8018A862E96A891A7A
:10CCE000E962002A25D0002914D1002812D0296930
:10CCF0004018401EFBF7BBFC69690446884200D916
:10CD00000C462246E969686A07F0ACFCAE62686AC4
:10CD100000190DE069692B690A465943814208D11F
:10CD2000E969686A07F09EFCAE626969686A401842
:10CD300068620C4808300090FBF788FC2C6B009967
:10CD4000001BFBF751FB002CB8D0E86A002802D08A
:10CD500028780528B2D13E7300F0BCF9F8BD000078
:10CD6000A4EFFF1F63290020795E01002E5C736F22
:10CD7000757263655C7573625C6D73635C75736219
:10CD8000645F6D73632E63008217002070B5FFF738
:10CD9000F7FC002824D0FFF791FC002820D0114890
:10CDA00000210170062242700F4B81701A7A08240C
:10CDB000D201C270017141718171C1710B481C6354
:10CDC0000546FBF743FC082808D9084920461F39C7
:10CDD000FBF70AFB29462046FBF706FBFFF7EEFCB4
:10CDE00070BD000082170020A4EFFF1F6B290020F8
:10CDF00070B5FFF7C5FC002820D0FFF75FFC0028C6
:10CE00001CD00F480321017000210E4B41701A7A8B
:10CE10000424D2018270C1700B481C630546FBF7E5
:10CE200015FC042808D9084920461F39FBF7DCFA0D
:10CE300029462046FBF7D8FAFFF7C0FC70BD00007A
:10CE400082170020A4EFFF1F6B290020F8B52A48A5
:10CE5000FBF7FCFB284D00BA040A113D287D240293
:10CE60000443264E00207462B062E87B2F280AD06B
:10CE700004DC28280BD02A281CD104E0A82810D0D4
:10CE8000AA2817D109E0FFF719FC002830D0E87D67
:10CE9000A97D0002084344BA0CE0FFF70FFC00280C
:10CEA00026D01548001DFBF7D1FB00BA040A287EE6
:10CEB00024020443306944430F48F4620938FBF705
:10CEC000C5FB0D4F01260E3700280DD0A04210D013
:10CED000287B000604D50A4880210078084301E039
:10CEE0000848007800F010F93E7300F0F3F80020D5
:10CEF000F8BD0120F8BD000055290020A4EFFF1F58
:10CF0000785E0100795E010010B5FFF739FC00285A
:10CF10001AD0FFF7D3FB002816D00C4A0C489169B1
:10CF2000491E0B0E03700B0C43700B0A8370C1700B
:10CF300011690B0E03710B0C43710B0A8371C171E4
:10CF400008201063FFF73AFC10BD0000A4EFFF1F9C
:10CF50008217002070B5FFF713FC00282ED0FFF7D2
:10CF6000ADFB00282AD01648002101704170817065
:10CF70000821144AC17091690C240B0E03710B0C2B
:10CF800043710B0A8371C1710221017211690B0C8B
:10CF900043720B0A8372C1720B4814630546FBF798
:10CFA00055FB0C2808D9084920461F39FBF71CFA05
:10CFB00029462046FBF718FAFFF700FC70BD000079
:10CFC00082170020A4EFFF1F6B29002070B5FFF728
:10CFD000D7FB00282ED01B487021017000211A4B6E
:10CFE00041705A68DD681446AC4306D0062484704C
:10CFF000282404734173DA600AE0002A1BD0134A24
:10D00000127B002A1BD005228270202202734173FA
:10D01000C1700171417181710A22C2710172417244
:10D020008172C1728173C1730174417412201863DB
:10D03000FFF7C4FB70BD022282703A22E6E78170DE
:10D040000173E4E782170020A4EFFF1F632900208B
:10D0500010B50549002008600449FBF7C5F90449EB
:10D0600007200870012010BDECEFFF1F632900208E
:10D07000A4EFFF1F10B5FFF7EBFF10BD70B5FFF772
:10D080007FFB00281DD00F48202202700021417034
:10D09000C1770D4C0320226320700C48802100785A
:10D0A0000843084900F00AFD09480546FBF7CEFA97
:10D0B000216B401A2946FBF797F9054901200839E9
:10D0C000087370BD82170020A4EFFF1F785E010077
:10D0D0006B29002010B508490848FBF785F9084876
:10D0E000802100780D220843034900F0E7FC054940
:10D0F0000520087010BD00006329002055534253DD
:10D10000785E0100A4EFFF1F10B5044600F098FC04
:10D11000200605D52107090F01200004884001E001
:10D120000120A04002490A681043086010BD0000B9
:10D13000E8EFFF1F10B50A48817C04461F34002920
:10D1400004D001202073FFF7C5FF10BDC07C054946
:10D15000C007C00F486007F083FA0020F2E7000024
:10D1600044290020A4EFFF1F10B5034900200873D5
:10D17000FFF7B0FF10BD00006329002010B5104874
:10D18000FBF764FA0E4C173400280FD020461F38E6
:10D19000007B000604D50B4880210078084301E09D
:10D1A00009480078FFF7B0FF012004E0FFF786FA96
:10D1B000002803D000202073FFF78CFF10BD000073
:10D1C0004C290020785E0100795E01007047000064
:10D1D000F7B5074682B0002000903807860E334826
:10D1E000F500281801904488002F15D13048407868
:10D1F000002809D07008012181402D48103003F02B
:10D2000077FF002005B0F0BD2848405D8006000F84
:10D210000D2801D1012000900498A04206D2FF22DF
:10D22000E83224A1002000F027FD049C1F4A0020C2
:10D23000B101C032891803E0039A0B5C1354401CFF
:10D24000A042F9D31A481430C15D0198174F4180AC
:10D25000174876080069795DF040C0074906C00F9D
:10D26000C90F88420FD10398C179827908020099C9
:10D270001043002901D000280CD001210C48B140F6
:10D28000103003F035FF0A480069F040C00708D0AD
:10D29000C82007E006480121C943103003F010FF01
:10D2A000F1E7882078552046ACE70000001A0020FE
:10D2B000A8EEFF1F2E5C736F757263655C6869630F
:10D2C0005F68616C5C667265657363616C655C75F3
:10D2D0007362645F6B696E657469732E630000002E
:10D2E00010B5FFF71DFA10BDFEB5574A574D10781F
:10D2F000574CC006C00E02D001287CD18CE05549A5
:10D30000D0780B785149544E544FC978062810D024
:10D3100006DC012809D0022815D003286BD14FE084
:10D32000072832D00F2866D166E04D4820601220D1
:10D3300070E0002B5FD0002903D04A4820600A200B
:10D3400068E04948FAE7002B01D1012979D0022091
:10D35000002904D000977870002092780DE00096A4
:10D360007070F9E700990B78002B05D0CB788E7898
:10D370001B02334359180091401C8242F2D100989D
:10D38000017800295DD0206040E0002B59D00720B3
:10D39000002904D000967070002092780DE000976C
:10D3A0007870F9E700990B78002B05D0CB788E7850
:10D3B0001B02334359180091401C8242F2D1DEE730
:10D3C0002A4800909078032801D0002009E002F05C
:10D3D00015FF0DE000990B78002B01D05918009132
:10D3E000401C91788142F5D100980178002928D01D
:10D3F000206000780EE024E01D48007800281FD04F
:10D400001C4800902060017800291AD0C1788278E9
:10D4100008021043019005E001A9684600F02EF8CB
:10D4200000280DD0A1880198814208D980B2124904
:10D43000A0800978491E084201D1012028710120ED
:10D44000FEBD0020FEBD0000F8EFFF1FDCEFFF1F58
:10D45000F0EFFF1F655E0100F8150020FFECFF1FD5
:10D46000185F01002B5F01002A5F0100665F010069
:10D47000665E01002C5F0100675E010070B51A4A0C
:10D480001A4CD3781A4A25781478174A194E12790B
:10D49000212B02D0222B24D118E0AA4201D0A24293
:10D4A0001FD1154A1378154A002B127801D1012A91
:10D4B00017D0002A08D0124A02601046114A12887A
:10D4C00080183060092009E00F4AF5E7AA4201D030
:10D4D000A24206D10D4830600D4800880860012046
:10D4E00070BD002070BD0000F8EFFF1F00EDFF1FB2
:10D4F00002EDFF1FF0EFFF1F655E0100DFEFFF1F72
:10D50000FFECFF1F06EDFF1FF8150020F45E010081
:10D51000165F010070B51D481D4B0078C106C90E8D
:10D520000AD01D461948143D1A4C6A780079012921
:10D5300006D0022928D10AE015480E38186021E0EB
:10D54000002A21D0A97888421ED2002016E08F211F
:10D550000840010605D50607360F01210904B14030
:10D5600001E001218140002A01D100070CD1A86807
:10D57000084209D0E868084000D001202070000A65
:10D5800060701C60012070BD002070BDF8EFFF1FAF
:10D59000F0EFFF1FC016002070B5274B0246187829
:10D5A0001946C0064988254EC00E04D001282BD04C
:10D5B000022829D111E0012926D10224002A05D010
:10D5C000012000F079FAF088204304E0002000F008
:10D5D00073FAF088A043F0802CE01C798F2004407F
:10D5E000200605D52007000F01252D04854001E008
:10D5F0000125A5407078002806D0200704D0B06827
:10D60000284201D0002901D0002070BD002A05D099
:10D61000204600F015FAF06828430AE030692842F5
:10D6200008D12046FEF72EF92046FFF759FEF06894
:10D63000A843F060012070BDF8EFFF1FDCEFFF1F73
:10D64000F8B55A4800260178C906C90E7ED1574F51
:10D6500080781C3F00287AD0554801783846C07839
:10D66000002901D1012871D0002801D0514C70E06F
:10D67000514C6EE06078022805D0042847D0052878
:10D6800047D0072860D1494861798078814239D1F3
:10D6900078702079B8704A490020484A0B8802E027
:10D6A00000211154401C9842FAD301250120B96889
:10D6B000A840084202D02846FEF74EF90120000497
:10D6C000B968A840084204D0284680210843FEF7E4
:10D6D00043F96D1C102DE9D33A48B8600020F8607A
:10D6E00038613D460120FEF7EBF8E079400604D5AD
:10D6F000E98801200143E98026E0E88840084000ED
:10D70000E88021E0E078A178000208431DE0E67897
:10D710001AE0002E18D1A5788F200540280605D5DF
:10D720002907090F01200004884001E00120A840DA
:10D73000B96801432046B960FEF7B2F82846FEF703
:10D740001DF9284600F02AF9207801E02AE004E0DB
:10D750000419207800288DD11FE0002501247D7058
:10D7600080260120B968A040084202D02046FEF77A
:10D77000F3F801200004B968A040084203D0204615
:10D780003043FEF7E9F8641C102CEAD3FD600D4825
:10D790003D61B8600020FEF793F8044879788078FE
:10D7A000884201D00020F8BD0120F8BDF8EFFF1F2E
:10D7B000655E0100FFECFF1FF815002097EEFF1FCC
:10D7C00004EDFF1F01000100F0B585B000274548BA
:10D7D0000397019700783E46C006C00E01287ED10F
:10D7E00040491C394878002876D0002002903E48F5
:10D7F00002780846C078002A01D101286FD000289D
:10D8000001D03A4C64E03A4C62E06078022805D0DE
:10D8100004280ED005281ED0072857D13148617939
:10D820001C384078814251D0E078A178000208434A
:10D830004DE0A778E678002001902A480179B942A6
:10D8400044D18078B04241D1012002902948C15D85
:10D850000391C6553AE023490879B84236D1A078F9
:10D860008F22104000900006009804D50007000F9A
:10D8700001252D0400E0012585408878B04214D1AF
:10D8800018481C38816829438160C168A943C16078
:10D890002046FEF705F80098FEF770F8009800F0B3
:10D8A0007DF801982843019010E0039886420DD13D
:10D8B000019828420AD10B481C388168A94381602D
:10D8C000C168A943C1600098FEF746F820780419A2
:10D8D0002078002899D1029805B0F0BDFFE700201C
:10D8E000FAE70000F8EFFF1F655E0100FFECFF1F85
:10D8F000F815002097EEFF1F70B501201F490006A4
:10D900000860BFF34F8FBFF36F8F01201C4D0024C1
:10D91000810049190C70401C1028F9D319211948AD
:10D92000FAF792FE1848194944608460C460047094
:10D93000447040220B464A80C0334B60C8230B70B2
:10D940000C72134BCC614B610D212970114901619F
:10D950000B484038017D022319430175FF210170F6
:10D960000172017304760C480168090A0902114327
:10D970000160182000F010F970BD000080E100E0A7
:10D98000C0200740C0200020A8EEFF1F001A002082
:10D99000401B00205555555518E400E0F8B50546E4
:10D9A000154F2C073E4600060121C03E240F0028DB
:10D9B0000EDA6000401C8140104803F08DFB20020D
:10D9C000C11960018019803141610021C161F8BD38
:10D9D00068008140C943094803F072FB07486101B0
:10D9E000001D425D881942802202D21942608822BD
:10D9F000725400210172F8BDC01A0020B8EEFF1F5A
:10DA000010B5FDF7AFFEFFF735FB10BD02480179F9
:10DA1000DF221140017170478020074010B5FEF7EA
:10DA2000ABFBFDF7A3FE00F0E7FA10BD002903D120
:10DA300040060249400E08767047000080200740EB
:10DA40000007810E03480818017802221143017073
:10DA500070470000C020074010B50822024900208E
:10DA6000FFF7B6FB10BD0000F8EFFF1F10B503482D
:10DA700001214902006902F01FFF10BD34E9FF1FB8
:10DA800010B500221146802000F018F810BD0000EB
:10DA900010B50348034902780020FFF799FB10BD39
:10DAA000675E0100C0160020024801792022114360
:10DAB000017170478020074070470000F8B50007EB
:10DAC000114F840E1646A41CE200D01946803D4634
